:020000040800F2
:1000000040160020A90A0008D1320008950A00080D
:10001000950A0008950A0008950A000800000000EB
:10002000000000000000000000000000750B000848
:10003000950A0008000000001D0B000821190008A7
:10004000F10C0008F10C0008F10C0008F10C00089C
:10005000F10C0008F10C0008F10C0008F10C00088C
:10006000F10C0008F10C0008F10C0008F10C00087C
:10007000F10C0008F10C0008F10C0008F10C00086C
:10008000F10C0008F10C0008F10C0008F10C00085C
:10009000F10C0008F10C0008F10C0008F10C00084C
:1000A000F10C0008F10C0008F10C0008F10C00083C
:1000B000F10C0008F10C0008F10C0008F10C00082C
:1000C000F10C0008F10C0008F10C0008F10C00081C
:1000D000F10C0008F10C0008F10C0008F10C00080C
:1000E000F10C0008F10C0008F10C0008F10C0008FC
:1000F000F10C0008F10C0008F10C0008F10C0008EC
:10010000F10C0008F10C0008F10C0008F10C0008DB
:10011000F10C0008F10C0008F10C0008F10C0008CB
:10012000F10C0008F10C0008F10C0008F10C0008BB
:10013000F10C0008F10C0008F10C0008F10C0008AB
:10014000F10C0008F10C0008F10C0008F10C00089B
:10015000F10C0008F10C0008F10C0008F10C00088B
:10016000F10C0008F10C0008F10C0008F10C00087B
:10017000F10C0008F10C0008F10C0008F10C00086B
:10018000F10C0008F10C0008F10C0008F10C00085B
:10019000F10C0008F10C0008F10C0008F10C00084B
:1001A000F10C0008F10C0008F10C0008F10C00083B
:0C01B000F10C0008F10C0008F10C000834
:1001BC0038B5836805699C697CB112F4000F06D0D0
:1001CC002D6801238B401D4201D082F0C062044B8C
:1001DC00134002F0B072A04738BD6FF05700FBE738
:1001EC004000000610B582B00AE00F4B19680F48AA
:1001FC0003F04BF813E00C4B19680D4803F045F86D
:10020C004FF0FF324FF0FF33CDE9002301220321E1
:10021C00084804F09FF9044610F0010FE5D114F0E2
:10022C00020FEDD0E7E700BF8C030020B84C0008AC
:10023C00D04C00089003002010B582B0044602F0A8
:10024C00A4FFD0B1A3685B6B1BB12046984750B993
:10025C0013E06FF05700FAE7002200230DF10701BD
:10026C00074803F060FFA3689B6933B101220DF1CD
:10027C000701204698470128EED002B010BD00BF00
:10028C006800002008B5044A13680133136001218B
:10029C00024804F05AF908BD8C030020900300209A
:1002AC0010B582B0404802F0F0FF404802F0EDFF7C
:1002BC003F4802F0EAFF3F4804F042F93E4803F0A1
:1002CC0005FF00284ED04FF480313C4802F034FF3B
:1002DC00044600284CD14FF0B861384802F0F7FEC4
:1002EC00044600284BD13649364B4B604FF4005333
:1002FC008B60314802F02BFF0446002844D1324B6E
:10030C00186803F0E3FE002843D000222F492E4B3F
:10031C00186802F026FF041E41DB2B4B186802F014
:10032C002EFF4FF0FF324FF0FF330DF1070128483D
:10033C0001F06CFE0028F4D19DF807100D29F0D0C7
:10034C000A29EED0234802F0A0FF9DF80730312B8C
:10035C00E7D1214A1368013B13600221154804F0D0
:10036C00F4F8DEE71D4802F090FF6FF0120403E092
:10037C0001461B4802F089FF204602B010BD014621
:10038C00184802F082FFF7E70146174802F07DFF9C
:10039C00F2E7164802F079FF6FF01204ECE714480C
:1003AC0002F073FFE8E700BFE44C0008F44C0008CF
:1003BC000C4D00089003002034480008284E00081B
:1003CC008003002091020008000000204502000874
:1003DC0068000020044E00088C0300202C4D0008FF
:1003EC00504D00087C4D0008A84D0008CC4D00086D
:1003FC00E44D000808B5024B1B68984708BD00BFC8
:10040C0004000020014B1860704700BF040000205E
:10041C0000B585B00A460023009301930293039321
:10042C0002238DF80230044B01930146684602F01A
:10043C00F1FB05B05DF804FB0104000880B505462E
:10044C000E461746984602F01FF9034600F05AFC78
:10045C000446DFF8189049F80030424639463046D9
:10046C00A84754F8090000F039FB00BF0800000051
:10047C00034A536823F0020353600020704700BF07
:10048C00002004E0084B1A6842F400721A601A68E3
:10049C0042F480621A601A6842F480721A60034B4C
:1004AC00034A1A60704700BF002002403C00002045
:1004BC0000093D0008B50348034A121A002102F056
:1004CC00F3FE08BD900000200005002008B506488A
:1004DC00064A121A064902F0EBFE0648064A121AA0
:1004EC00064902F0E5FE08BD000000209000002047
:1004FC008C55000800000020000000208C550008DE
:10050C0010B50446836842680168094802F0BDFED4
:10051C0063692269E168074802F0B7FEE1690648A1
:10052C0002F0B3FEA169054802F0AFFE10BD00BF9A
:10053C00304E0008604E0008904E0008A04E000897
:10054C0038B504460D4611B10846FFF7D9FF012C0A
:10055C0004D02946204601F083FB38BDEFF305811A
:10056C001039024802F091FEF3E700BFD04E0008AC
:10057C0030BFFFF7FDBF00BF38B50446054D2A4616
:10058C00054903F0FDFF054A0021601904F006F847
:10059C0038BD00BF00000000B04C00080400000093
:1005AC0070B50646064D074B1D444C1B2046FFF705
:1005BC00E3FF083CC6F8A04005F1080070BD00BF81
:1005CC000000000004000000054B5A699B689A4229
:1005DC0004D0044A536843F080535360704700BF03
:1005EC00C804002000ED00E081690D4B5A6942F40B
:1005FC0080725A61BFF34F8FBFF36F8F31F8021CBB
:10060C005A6922F480725A61BFF34F8FBFF36F8F18
:10061C004DF60273994201D00020704701207047BB
:10062C0000ED00E04FF0000C83F800C002F07F4CAE
:10063C00BCF17F4F12D102F00C0CBCF1080F04D0AE
:10064C0012F0080F07D00846704708B5044802F0AE
:10065C001CFE002008BD01221A7070470020704754
:10066C00E44E0008F8B505460F461446324802F031
:10067C000CFE324B9B6A13F0100F31D110262F4B0E
:10068C009B6A13F0080F30D12C4B9B6A13F0020FAE
:10069C0030D12A4B9B6A13F0010F43D1274B9B6A35
:1006AC0013F0200F43D1254B9B6A13F0100F01D18F
:1006BC00224B9B6A214B9B6A13F0200F04D01F4ADC
:1006CC00536A23F4005353621C4A936A43F0FF03AA
:1006DC0093620121284602F0FBFD20703046F8BDE4
:1006EC00174802F0D2FD1126C9E7164802F0CDFDDD
:1006FC001226C9E7144802F0C8FD104B596B9B6ACF
:10070C0013F0800F01D11326C3E7104802F0BDFD92
:10071C0037B10A4A936A23F0800393621326B8E731
:10072C001326B6E70A4802F0B0FD1426B6E70948CE
:10073C0002F0ABFD1526B6E7104F000800ED00E007
:10074C00284F00085C4F0008704F00088C4F0008C1
:10075C00A44F0008C44F0008F8B505460F461446D0
:10076C002F4802F092FD2F4B9B6A13F4805F25D12A
:10077C0016262C4B9B6A13F4006F24D1294B9B6AD1
:10078C0013F4007F24D1274B9B6A13F4806F37D16D
:10079C00244B9B6A13F4807F37D1224B9B6A13F452
:1007AC00005F37D11F4A936A43F47F439362012160
:1007BC00284602F08DFD20703046F8BD1A4802F034
:1007CC0064FD1726D5E7194802F05FFD1826D5E71A
:1007DC00174802F05AFD134B996B9B6A13F4004FA8
:1007EC0001D11926CFE7134802F04FFD37B10D4A5E
:1007FC00936A23F4004393621926C4E71926C2E7CF
:10080C000D4802F042FD1A26C2E70C4802F03DFDED
:10081C001B26C7E70A4802F038FD1C26C2E700BFBA
:10082C00F44F000800ED00E00C5000085C4F00088D
:10083C00205000083C50000854500008705000082C
:10084C00C44F000808B5244802F01FFD234B9B6AD7
:10085C0013F0007F21D11D20204B9B6A13F0807F69
:10086C0020D11E4B9B6A13F4002F20D11B4B9B6A8B
:10087C0013F4802F20D1194B9B6A13F4003F20D125
:10088C00164B9B6A13F4803F20D1144A936A6FEA8B
:10089C0003436FEA1343936208BD114802F0F5FC61
:1008AC001E20D9E70F4802F0F0FC1F20D9E70E48B4
:1008BC0002F0EBFC2120D9E70C4802F0E6FC2220E8
:1008CC00D9E70B4802F0E1FC2320D9E7094802F0F4
:1008DC00DCFC2420D9E700BF8C50000800ED00E0C0
:1008EC00A8500008BC500008D8500008F850000868
:1008FC00205100083C51000870B506460D462648AC
:10090C0002F0C3FC00232B70244BDC6A14F00204AD
:10091C000AD1224BDB6A002B0BDB204BDC6A14F078
:10092C0080440AD1204670BD1D4802F0AEFC002464
:10093C00F8E71C4802F0A9FCF4E71B4802F0A5FC00
:10094C003046FFF751FE98B9144B9B6A13F0FF0F1A
:10095C0014D1124B9C6A14F47F4416D10F4B9B6A32
:10096C00B3F5803FDED33046FFF76CFF0446D9E782
:10097C0031680E4802F089FC3468D3E72A4601211D
:10098C003046FFF76FFE0446CCE72A46012130467D
:10099C00FFF7E2FE0446C5E76851000800ED00E0F1
:1009AC0080510008A4510008B4510008D45100082B
:1009BC0008B500230B70024802F067FC08BD00BFAD
:1009CC00F451000808B50A460F2905DC0349103A12
:1009DC00034802F05AFC08BD0249F8E71C52000813
:1009EC00505200083452000830B58BB01F4B5D6874
:1009FC00C5F30805002383F31188BFF36F8F0DF146
:100A0C002603FFF70FFE04460DF12702294602F0DC
:100A1C0061FC9DF827300BB10BB030BD05460DF1D4
:100A2C00040C20686168A268E368ACE80F002069D8
:100A3C006169A269E369ACE80F009DF826304BB1FF
:100A4C00089BC3F308025AB96FEA53236FEA432396
:100A5C00089305E0089B23F4FF7323F0010308932C
:100A6C0001A92846FFF76CFDD6E700BF00ED00E0BA
:100A7C00044B5A6942F010025A615A6922F008027A
:100A8C005A61704700ED00E0EFF30880EFF3098145
:100A9C0001B57246FFF7A8FF01BD00BF0C4880F3FB
:100AAC00088800200B490870102080F311880A4830
:100ABC004FF40061401880F30988EFF31480022191
:100ACC00084380F31488BFF36F8F00F08FF8000099
:100ADC0040160020FC0400200009002008B50A4B39
:100AEC009B68834202D001F0D5FD08BDEFF305836E
:100AFC00002BF8D0054B5A6842F080525A605A6A63
:100B0C0022F400425A62EEE7C804002000ED00E037
:100B1C0012498A684FF030001044EFF3098C80E8DA
:100B2C00F01F102080F31288BFF36F8F0C4F4FF023
:100B3C0000664A698A603E60D2F8A000094C2060C9
:100B4C00D2F8A4000023C2F8A43080F3118802F17B
:100B5C00300090E8F01F8CF309887047C80400201F
:100B6C0004ED00E09C0300201EF0040F0CBFEFF31B
:100B7C000880EFF30980816911F8021C0229FFD06B
:100B8C0001B5724602F098FB01BD00BF002807DBDF
:100B9C0000F01F02400901239340024A42F8203022
:100BAC00704700BF00E100E0002808DB0901C9B272
:100BBC0000F1604000F5614080F80013704700F0D0
:100BCC000F000901C9B2014B1954704714ED00E034
:100BDC00044B23F07F03044A9360BFF34F8FBFF3A2
:100BEC006F8F70470000000800ED00E008B5FFF7BC
:100BFC00EFFF0B4AD2F8883023F47003C2F8883028
:100C0C00EFF3148323F0040383F31488BFF36F8F83
:100C1C00FFF750FCFFF75AFC00F04AF801F03AF9E4
:100C2C0000ED00E010B4A2F120040E4942F8081CBB
:100C3C0021F0010142F8081C42F8203C019B42F8CB
:100C4C001C3C029B42F8183C039B42F8143C4FF0AE
:100C5C00807342F8043C04650023C0F8A43010BC37
:100C6C00704700BF4904000800B50E4615460B4BF3
:100C7C009860D0F8A0200A4B1A602C4686F309889D
:100C8C000020044B98472046002100220023024CF0
:100C9C00204700005333000849040008C804002012
:100CAC009C030020014B10221A61704700ED00E0FC
:100CBC00002206E003F00F030949194410230B76B8
:100CCC0001325E2A0ADC53B2002BF3DB03F16043E2
:100CDC0003F56143102183F80013F1E7704700BF5F
:100CEC00FCEC00E008B5EFF30583103B044A02EB83
:100CFC00C301496852F833008847FFF765FC08BD0B
:100D0C00A448000801480068704700009C030020BC
:100D1C0008B5024B1B689847002008BDA0030020B3
:100D2C00034B1860034A937843F0020393707047A7
:100D3C00A00300200800002008B5064921F0070197
:100D4C00C1F1005202F54032034802F05AFA002079
:100D5C0008BD00BF51160020A403002000B583B0CD
:100D6C00094B93E8030002AB03E90300074B9B68B4
:100D7C001B682BB169460548984703B05DF804FB26
:100D8C006FF05700F9E700BFB04C00083847000877
:100D9C0000F01F02012393403F2811D81F2807D8C9
:100DAC00084A5269934301D00020704701207047D4
:100DBC00044A526B934301D00020704701207047C6
:100DCC00002070470004014000F01F0201239340F3
:100DDC003F2809D81F2803D8054A536100207047C3
:100DEC00034A5363002070476FF01500704700BF33
:100DFC0000040140002399420ADD10B400EB030CFF
:100E0C00044C04F80C2001339942F7DC10BC7047F9
:100E1C00704700BF18000020F8B50746002401E019
:100E2C000134E4B27B78A34217D93D786619304679
:100E3C00FFF7AEFF0028F3D03046FFF7C5FF074B96
:100E4C0053F83620002AEBD006F01F0503EBC6033F
:100E5C0059680120A8409047E2E7F8BDB003002094
:100E6C0001F0030C0CF102020A4B53F822200B0C7C
:100E7C0022EA114193FAA3F34BB1B3FA83F39840EE
:100E8C0001430CF1020C034A42F82C10704720234A
:100E9C00F5E700BF0000014000F003030233074AEE
:100EAC0052F82320030C02EA104093FAA3F31BB16F
:100EBC00B3FA83F3D84070472023FBE700000140CE
:100ECC0008B5034668B1B0FA80F2C2F11F02D2B283
:100EDC0005498856054A11680B43136002F01FFA46
:100EEC0008BDFF22F4E700BF1800002000040140F9
:100EFC00024A136823EA00031360704700040140A0
:100F0C00032926D8DFE801F0020C151E114B9A6854
:100F1C0022EA00029A60DA6822EA0002DA6070477C
:100F2C000C4B9A6802439A60DA6822EA0002DA6093
:100F3C007047084BDA680243DA609A6822EA0002CA
:100F4C009A607047034B9A6802439A60DA681043C0
:100F5C00D86070470004014010B498B1B0FA80F327
:100F6C00C3F11F03DBB29C460D4850F83300884296
:100F7C000AD088B90A4B43F83C1003EBCC035A60F7
:100F8C0010BC7047FF23EEE7054C04EBC3035B6812
:100F9C009342EED10020F3E76FF00F00F0E700BFB3
:100FAC00B003002060B1B0FA80F3C3F11F03DBB2D1
:100FBC00044A002142F8331002EBC302516070471F
:100FCC00FF23F5E7B0030020104B1B6813F4806F70
:100FDC000ED10E4A136843F48073136001E0012BA9
:100FEC0006D00A4B1B6813F48063F8D00123F6E794
:100FFC00064A936823F0030343F001039360034B09
:10100C009B6803F00C03042BF9D1704700100240CD
:10101C001C4B1B6813F4806F0ED11A4A136843F4EF
:10102C008073136001E0012B06D0164B1B6813F480
:10103C008063F8D00123F6E7124AD2F8943043F0DB
:10104C000103C2F8943001E0012B07D00D4BD3F80B
:10105C00943013F00203F7D00123F5E70949D1F8D6
:10106C00982042F00102C1F8982001E0012A07D033
:10107C00044AD2F8982012F00202F7D01A46F5E78B
:10108C00704700BF0010024070B50C461546404B2F
:10109C001E680121304602F0E3F92388C3F30B03E9
:1010AC00013B5F2B6ED8DFE803F044585B5F666250
:1010BC0040696B6D464F6D6D6D6D6D6D6D6D6D6DCC
:1010CC006D6D6D6D6D6D6D6D6D6D6D6D6D6D6D6D44
:1010DC006D6D6D6D6D6D6D6D6D6D6D6D6D6D6D6D34
:1010EC006D6D6D6D6D6D6D6D6D6D6D6D6D6D6D6D24
:1010FC006D306D6D6D306D6D6D3E6D6D6D6D6D6DBD
:10110C006D406D6D6D406D6D6D422E602368B3F555
:10111C00805F3AD32A68C3F313330133B2FBF3F283
:10112C002A60002030E02E60F0E72860EEE72860AF
:10113C00ECE72E60EAE700F0B3F802232822042142
:10114C0002F087F92860E1E700F0AAF802232822D0
:10115C00042102F07EF92860D8E700232B60D5E744
:10116C004FF4FA432B60D1E70A4B2B60CEE702F029
:10117C007AF92860CAE7084B2B60C7E72E60C5E7F1
:10118C002E60C3E76FF0850070BD0020FCE700BF48
:10119C003C0000200024F400006CDC0210B51B4B5A
:1011AC009B6803F00C030C2B05D0184A136823F032
:1011BC008073136008E0FFF707FF144A936823F06D
:1011CC00F0039360F1E733B1104B1B6813F000731D
:1011DC00F9D00123F7E70D4CE36823F4C003E36077
:1011EC00E36843F48013E36000F05EF8236843F097
:1011FC008073236001E0012B06D0044B1B6813F0B5
:10120C000073F8D00123F6E710BD00BF00100240B8
:10121C0038B500F073F81E4C204602F0B0F900F01F
:10122C005FFC1C4B9B68C3F303131B4AD35C20FA73
:10123C0003F513781C41A54222D3FFF7E9FEFFF713
:10124C00ADFF144B9A6822F0F0029A609A6842F053
:10125C0003029A600F4B9B6803F00C030C2BF9D123
:10126C00A54211D20D4B0A4A1A600A4B9A6822F415
:10127C00E0629A609A6822F460529A60002038BD4D
:10128C00204600F087FCD8E7204600F083FCE9E715
:10129C0000B4C40400100240085500083C000020B3
:1012AC00004870470024F40008B5104AD2F880308A
:1012BC0023F48073C2F8803002F062F90C4BD968C9
:1012CC000C4A0A4040F4205040F030000243DA60EF
:1012DC00DA6842F48012DA60D968074A0A4002439D
:1012EC00DA60DA6842F08072DA6008BD00700040A3
:1012FC00001002400C809FFF0C80FFF982B0064B5F
:10130C009A6D42F080529A659B6D03F08053019365
:10131C00019B02B0704700BF0010024010B504469C
:10132C000A2806D0E1B2064883685B6898472046D5
:10133C0010BD034883685B680D219847F2E700BF36
:10134C008848000810B5044C2046FFF7E9FC2046FD
:10135C00FFF758F810BD00BF2913000808B5054861
:10136C0002F0B4FE18B1FFF7EDFF002008BD6FF0DE
:10137C001200FBE78848000808B5436841B103F147
:10138C000C010B4B9B681B685BB10948984708BD67
:10139C0003F10C01064B9B685B682BB10448984722
:1013AC00F5E76FF05700F2E76FF05700EFE700BF7B
:1013BC003847000808B5044A536843F40073536077
:1013CC00024902F002F908BD0070004057370008CE
:1013DC002DE9F84380460F4616461C46D0F804907B
:1013EC00D9F8080002F015F8B6F5001F0FD0054625
:1013FC00B6F5800F2DD0B4F1806F26D0B4F1C06F4C
:10140C0025D0B4F1007F09D06FF015041AE03946ED
:10141C00D9F8080002F0C8FA002413E0022642466C
:10142C000F492846FFF798FD0446A8B9D9F80810CB
:10143C00384601F0F3FF31462846FFF761FD284698
:10144C00FFF73EFD2046BDE8F8830126E7E70326BB
:10145C00E5E76FF08504F5E76FF00F04F2E700BFE6
:10146C0079360008B0F5D07F17D2F8B504460D4692
:10147C00164603090A4A52F823705FB1384602F047
:10148C0025FE38B133462A4604F00F01384602F0E7
:10149C00A3FAF8BD6FF01200FBE76FF01500704770
:1014AC00F45300082DE9F84306460C4643681D68C2
:1014BC000369D3F800900B79012B17D0022B18D1AC
:1014CC004FF480616279012A18D0022A18D092B1A7
:1014DC004FF4005794F80680B8F1020F13D0B8F10E
:1014EC00040F16D0002B62D1002014E04FF4C06121
:1014FC00E8E70021E6E74FF48057EBE70027E9E740
:10150C004FF44057E6E70BB1002004E04FF0805059
:10151C0001E04FF48050A3F1030C5FFA8CFCBCF19A
:10152C00010F65D913B1B8F1040F64D0B7F5805F22
:10153C0042D0B7F5405F41D0002F3BD003239A42F5
:10154C005CD102F024FB80455BD1E379D3B1012B54
:10155C0036D0032B58D1314B9D4213D0A3F5744395
:10156C009D420FD003F580639D420BD003F5806341
:10157C009D4207D003F580639D4203D003F5405391
:10158C009D4244D12B6823F001032B602146304649
:10159C0002F012FB00283DDB2B6843F001032B60AB
:1015AC0094E8030089E803000020BDE8F8834FF4B9
:1015BC008050B0E70123C2E70023C0E70223BEE757
:1015CC00164A9542DED0A2F574429542DAD002F565
:1015DC0080629542D6D002F580629542D2D002F557
:1015EC0080629542CED002F540529542B1D1C9E706
:1015FC006FF08500D9E76FF08500D6E76FF08500B6
:10160C00D3E76FF08500D0E76FF08500CDE76FF082
:10161C008500CAE76FF08500C7E700BF00380140BE
:10162C0008B5024A02F0CCFB08BD00BF2D3E0008F5
:10163C0008B5024A02F0D7FB08BD00BF333E0008D4
:10164C0070B504460D46164643681B681868196841
:10165C0001F4C06100F0102002F099FA042806D0C1
:10166C00044B32462946204602F01AFC70BD6FF03E
:10167C008500FBE7FF3E000870B504460D46164694
:10168C0043681B681868196801F4C06100F01020E9
:10169C0002F07DFA042806D0044B32462946204637
:1016AC0002F02AFC70BD6FF08500FBE7413F00089B
:1016BC0043681A6802F1080353E8003F43F0010342
:1016CC0002F1080040E800310029F3D10F4B9A4297
:1016DC000FD0A3F574439A420BD003F580639A4262
:1016EC0007D003F580639A4203D003F580639A42D6
:1016FC0003D1536843F04003536052E8003F43F476
:10170C00807342E800310029F7D17047003801405E
:10171C0043681A6802F1080353E8003F23F0010301
:10172C0002F1080040E800310029F3D10F4B9A4236
:10173C000FD0A3F574439A420BD003F580639A4201
:10174C0007D003F580639A4203D003F580639A4275
:10175C0003D1536823F04003536052E8003F23F455
:10176C00807342E800310029F7D1704700380140FE
:10177C00F8B5064645682C6803691F68236823F092
:10178C0001032360A86802F0A1FC002878D0E96866
:10179C00A86802F0BDF954E8003F43F00C0344E89C
:1017AC000032002AF7D13946304602F005FA0028FB
:1017BC0069DB2B7E1BB1A36843F00803A3606B7E2F
:1017CC001BB1636843F400436360AB7E1BB1636879
:1017DC0043F480336360EB7E1BB1636843F40033E6
:1017EC0063602B7F83B32B4B9C4213D0A3F57443C4
:1017FC009C420FD003F580639C420BD003F58063B1
:10180C009C4207D003F580639C4203D003F5405300
:10181C009C423BD173681A68936843F4804393608D
:10182C006A7F236823F0787343EA42532360AA7FCC
:10183C00236823F4F81343EA02432360EB7F1BB1C4
:10184C00A36843F40043A36095F820301BB12368D0
:10185C0043F000532360236843F00103236000E04E
:10186C0033B9E36913F40013FAD00123F8E72AB96A
:10187C00E26912F48002FAD01A46F8E70020F8BDAB
:10188C006FF01200FBE76FF01500F8E76FF0150032
:10189C00F5E700BF003801404FF0E0239969186963
:1018AC009A6909B90C4B19680AB90B4B1A6810F4F0
:1018BC00803F01D1914208D208490B680648006864
:1018CC0003440B604FF0E0231B69034B1B689B1A0E
:1018DC00024A106818447047C4040020C004002059
:1018EC00094B102283F82320084B4FF4FA521A604C
:1018FC000020074B18604FF0E02341F63F725A610D
:10190C00986107221A61704700ED00E0C4040020C2
:10191C00C0040020684620F007018D4619B5FFF77A
:10192C00BBFF12480368124A516814681B1941F135
:10193C00000113605160002202600E490A68981A77
:10194C000D4BA3FB0030400A4FF4FA5300FB03F39A
:10195C00D2184B6843F100030A604B6001F0B6F8F3
:10196C00FEF732FEBDE8194085467047C0040020E2
:10197C004801002040010020D34D6210F8B5002929
:10198C004DD0B0F1FF3F3FD03F4B1C6801284EDDDE
:10199C0040F631039842A8BF1846461EEFF3118556
:1019AC00102383F31288BFF36F8FFFF775FF4FF08F
:1019BC00E0239F69354A13685168C31841F100014F
:1019CC00136051600021324A1160324A11685A1A70
:1019DC002FD44FF4FA5000FB062202F5F9521F32B5
:1019EC002D4EA6FB0262520AC91A00FB02110A46CE
:1019FC00B1F5806F38BF4FF48062284B994236D9CD
:101A0C00214B264A1A6018E04FF0E022136923F0AC
:101A1C00010313611C4B4FF07F421A6026E01A4BF6
:101A2C001C68B0F1FF3FB1D14FF40360B0E7002662
:101A3C00B4E7154B4FF480621A604FF0E0239969BC
:101A4C00114A1268013A5A6100229A618F4211D2EE
:101A5C00641A3C440D4A136851681B1941F100018A
:101A6C001360516085F31188BFF36F8FF8BD064B7F
:101A7C001A60E2E77F1A054A13685168DB1941F1D5
:101A8C00000113605160EDE7C40400204801002000
:101A9C00C004002040010020D34D621000DCFF0088
:101AAC0038B5EFF31185102383F31288BFF36F8FD2
:101ABC00084B1C68084B1B68E41AFFF7EDFE20442A
:101ACC0085F31188BFF36F8F044BA3FB0030400AE2
:101ADC0038BD00BF4801002040010020D34D6210EA
:101AEC00284A9368D26802F0030213F00C030AD060
:101AFC000C2B06D0042B1FD0082B20D00020024624
:101B0C0010E0012AF6D11F4A126812F0080F0CD10E
:101B1C001C4AD2F89420C2F303221B4951F822200C
:101B2C0043B100200C2B0DD07047164A1268C2F33B
:101B3C000312F2E71046F5E714480022F2E71448C6
:101B4C000022EFE70F4BDB6803F00303022B16D0E8
:101B5C00032B00D10E4A0B49CB68C3F3031301339B
:101B6C00C868C0F3062002FB00F0B0FBF3F0CB68B2
:101B7C00C3F3416301335B00B0FBF3F0D4E7034ADA
:101B8C00E9E700BF00100240D85400080024F4001C
:101B9C0000127A00421E274B9A4249D8264B1B68EA
:101BAC0003F4C063B3F5007F0BD0244B984229D8C3
:101BBC00234B984235D8234B984235D80021084600
:101BCC0022E0214B98420ED8204B98420ED8204B45
:101BDC0098420ED81F4B98420ED81F4B98420ED8E5
:101BEC000021084610E0052100200DE00421002012
:101BFC000AE00321002007E00221002004E001217B
:101C0C00002001E000210120144A136823F00F0387
:101C1C000B431360136803F00F03994207D00120A4
:101C2C00704702210020EFE701210020ECE770470C
:101C3C0001207047FF0D27070070004080BA8C010F
:101C4C000024F40000127A0000E1F50500B4C4048D
:101C5C0000879303005A6202002D310100200240DC
:101C6C0038B5EFF31185102383F31288BFF36F8F10
:101C7C00054B9C6802F042FA85F31188BFF36F8F15
:101C8C002046FEF72BFF38BDC804002010B586B0E7
:101C9C00B023104C03FB004400EB800C0E4B03EB09
:101CAC008C030E4A0592012204920F220392002209
:101CBC000292019200930A4B4FF4A072094901EB76
:101CCC008C11204600F024FA237C23F004032374A7
:101CDC0006B010BD50010020C804002018550008A3
:101CEC000F4100080011002038B505460B4B53F886
:101CFC00204002E02368984708346B1C074A52F8CE
:101D0C002330A34209D960680028F3D0037E13F076
:101D1C00010FF1D102F0C1F9EEE738BD28550008EA
:101D2C0008B553EA020102D100F08AFC08BD024951
:101D3C00183000F031FEF9E7AD42000810B586B05E
:101D4C00184C14E0636A0593236A0493E3690393C4
:101D5C00A36902936369019323690093E368A26802
:101D6C006168206800F0D4F923685C6530340E4B50
:101D7C009C42E7D300F00CFC0A4C00E030340A4BD8
:101D8C009C420BD2A26AE36AB3F1FF3F08BFB2F1E7
:101D9C00FF3FF3D02068FFF7C3FFEFE700F010FC24
:101DAC0006B010BDA04B0008D04B000808B50A4B7C
:101DBC0001221A700320FFF797FF00F011FF042097
:101DCC00FFF792FFFFF7BAFFFEF76AFA034A93890F
:101DDC0023F00103938108BDFC04002000020020C5
:101DEC0008B50146014A0248FEF73EFFB91D00083E
:101DFC000002002010B50446FFF748FFB0230A4943
:101E0C0003FB0411094A04EB840302EB8303D9603E
:101E1C001C74074B03EBC42303F5006304EB84042D
:101E2C0002EB8402536010BD50010020C804002056
:101E3C000009002070B586B000F0FAFB104D114B74
:101E4C005D61114B059301230493002403940294C8
:101E5C00019400940D4B4FF480620D49284600F01C
:101E6C0057F906462B7C23F004032B74284602F00A
:101E7C00E2F92046FFF7BEFF304606B070BD00BF4A
:101E8C0000020020C804002020550008B91D0008DD
:101E9C004012002008B50020FFF726FF164B83F3F5
:101EAC000888164C636943F400736361F02384F86B
:101EBC0022300023E37723766376A37684F82030F0
:101ECC00636A43F4E0236362FEF7D2FDFEF7EAFE99
:101EDC004FF0FF33A362E362094800F07BF9FEF791
:101EEC00D1FA0120FFF700FF0220FFF7FDFEFFF7FC
:101EFC00A1FFFFF775FF00BF0011002000ED00E00F
:101F0C00B00200202DE9F04F83B004460D469DF839
:101F1C00309000F1080AEFF31187102181F3128839
:101F2C00BFF36F8FB846006AE168884259D22668C1
:101F3C00B44221D0B6F1000B18BF4FF0010BEEB933
:101F4C00BBF1000F2AD1B9F1000F38D1A269236976
:101F5C009A4243D0A069A268801AA061294602F077
:101F6C000FFB236A0133236288F31188BFF36F8F51
:101F7C00584603B0BDE8F08F0026DBE77268336883
:101F8C0013605A60002333607360327C22F00202CB
:101F9C003274B360304602F0C1F8D1E7A26829462A
:101FAC00706902F0EDFA0024C6F8A840304602F041
:101FBC0042F93946504600F0BFFAA346D8E7A2686A
:101FCC002946E06902F0DCFAE369A2681344E36194
:101FDC0062699342C5D12369E361C2E76369A36176
:101FEC00B8E753EA020102D16FF0220BBCE70649B5
:101FFC0089684D610092019322463946504600F0A3
:10200C007FFA8346B4E700BFC80400202DE9F041F5
:10201C0082B00446084604F10807EFF31186102538
:10202C0085F31288BFF36F8F256A65B953EA0201F5
:10203C0060D16FF0220586F31188BFF36F8F2846AD
:10204C0002B0BDE8F081A268A16902F099FAA36917
:10205C00A2681344A361626993422AD0236A013BAC
:10206C002362D4F80080444526D0B8F1000518BF8F
:10207C000125B8F1000F22D1002DDCD0A268D8F8D0
:10208C001410E06902F07CFAE369A2681344E3617E
:10209C00626993422BD0236A013323620025C8F86E
:1020AC00A850404602F0C7F83146384600F044FAD2
:1020BC00C5E72369A361D1E74FF00008D5E7D8F84D
:1020CC000420D8F8003013605A600023C8F80030A0
:1020DC00C8F8043098F8102022F0020288F810207A
:1020EC00C8F8083008F1180002F083F9C4E7236936
:1020FC00E361D0E705498968486100920193224663
:10210C003146384600F0FCF9054698E7C804002033
:10211C002DE9F04F85B004460F4615461E46DDF8F6
:10212C0038A0DDF83C90DDF84080DDF84CB000F1D3
:10213C0058038365C365129B0422119902F008F8B9
:10214C002A463946204601F0F6FF0546CDF80880B0
:10215C00CDF80490CDF800A033460246394620460F
:10216C00FEF760FD00236365A666C4F86CA0C4F896
:10217C007090C4F87480EFF31182102383F31288EB
:10218C00BFF36F8F124B196AA1671C6282F311881F
:10219C00BFF36F8FBBF1000F13D01F22594604F110
:1021AC007C0002F003FA002384F89B30084B9B68F8
:1021BC005BB1D3F89C30C4F89C30284605B0BDE820
:1021CC00F08F002384F87C30F0E7C4F89C30F4E7FF
:1021DC00C80400200123037483810023C0F89C30C1
:1021EC00014B9860704700BFC80400200A4A9368EE
:1021FC00C3F8A4006FF00A01C3F8A81007494B6894
:10220C0043F080534B60002383F31188BFF36F8F2F
:10221C009368D3F8A8007047C804002000ED00E0D4
:10222C00037C90F91020002A51DB13F01F0F4ED1C4
:10223C0010B563F07F030374254A52F8183F93429C
:10224C000ED100230CE05A684260036010605860A5
:10225C001EE01A461E49C9698A420FD01B687BB121
:10226C0073B190F90E1093F90E209142F1D0521ADD
:10227C00002AE8DC1A46002BECD1F0E70023EEE74D
:10228C00134BDA6903F11801016042601060D861E8
:10229C000F4B53F8184F9C420ED06CB10C4B9B68F3
:1022AC001A7C12F01F0F0AD1DA897F2A07D9A2698A
:1022BC002AB9074A536109E0054BDC68EEE7A342F3
:1022CC0002D0204600F0CEFA014B5C6110BD704785
:1022DC00C804002010B5037C90F91020002A14DBF0
:1022EC00154B9A6853F8184F9C4219D0C4B18242CE
:1022FC0019D0137C13F01F0F15D1D3897F2B12D952
:10230C00A36983B90C4B5A6114E003F07F03037487
:10231C004268036813605A60002303604360DFE780
:10232C00054BDC68E3E7A24202D0204600F09AFAA3
:10233C00014B5C6110BD00BFC80400202DE9F843BF
:10234C0005460C46414B9E68337C13F0600F2BD036
:10235C0013F0200F2DD008271F4225D13B43337497
:10236C0013F0800F27D1082F30D04FF00009374BD6
:10237C0053F8188F98454ED0B8F1000F4BD0334B13
:10238C009B68434502D0404600F06CFA2F4BC3F8D3
:10239C001480102F08D0304600F0D2FF304600F0E9
:1023AC00BBFAB9F1000F3AD184F31188BFF36F8FE8
:1023BC0046E01027D0E703F07F033374726833686C
:1023CC0013605A60002333607360CCE7B3685BB171
:1023DC007268336813605A60002333607360327C18
:1023EC0022F002023274B360304601F0F0FE06F1C6
:1023FC00580001F0F1FE154B9B689E4202D04FF045
:10240C000009B4E7EFF3058313B94FF00009AEE709
:10241C004FF00109ABE70D4BD3F80C80AFE70C483C
:10242C00FFF7D8FEC0E7EFF31184102383F3128873
:10243C00BFF36F8F01F070FE84F31188BFF36F8FC1
:10244C002B7C13F0600FEED1BDE8F883C80400209C
:10245C00B0020020B3F1FF3F08BFB2F1FF3F00D143
:10246C00704708B50249183000F096FA08BD00BF55
:10247C00AD42000810B5214B9A68DB699A4205D031
:10248C001368516812680A60516006E00023F8E78F
:10249C001A4AD269934212D01B6893B1174A9068BA
:1024AC0090F90E1093F90E209142F1D0521A002A95
:1024BC00EEDD5A6842600360106058600AE0002349
:1024CC00EBE70E4B9A68D96903F118001060516064
:1024DC000A60DA61094B53F8184F9C420AD04CB190
:1024EC00064B9B689C4202D0204600F0BBF9034B84
:1024FC005C6110BD014BDC68F2E700BFC804002032
:10250C0010B50C4611460A4882680A4B1A60EFF364
:10251C001183102383F31288BFF36F8FDDE902233D
:10252C00806801F07CFE2046FFF760FE10BD00BF06
:10253C00C8040020EC04002008B50B4659B9EFF391
:10254C00058242B9064A50699268904203D0084607
:10255C00FFF74CFE03E083F31188BFF36F8F08BDC8
:10256C00C804002008B5034650B9EFF305823AB908
:10257C00064A51699268914202D0FFF737FE03E098
:10258C0083F31188BFF36F8F08BD00BFC804002010
:10259C000023EFF31181102282F31288BFF36F8FA7
:1025AC0009E0064B9A68D37B013BD37381F3118806
:1025BC00BFF36F8F0123002BF3D07047C8040020AA
:1025CC0038B50023EFF31185102282F31288BFF384
:1025DC006F8F0EE0154BDC6817E0A24202D020464C
:1025EC0000F040F9114B5C6185F31188BFF36F8FDC
:1025FC000123BBB90D4B9A68D17B0131D17353F8D0
:10260C00184F9C42E6D0002CE4D0137C13F01F0F23
:10261C00E3D1D3897F2BE0D9A369002BDDD1034B08
:10262C005A61E1E701F053FE38BD00BFC804002039
:10263C0008B5024801F056FE08BD00BFDC040020BE
:10264C0038B5EFF31185102383F31288BFF36F8F26
:10265C00037C13F0040F04D185F31188BFF36F8F43
:10266C0038BD0446183001F0C4FE237C23F004036B
:10267C0023742046FFF7D4FD29460248FFF75CFF80
:10268C00EEE700BFEC040020014B9868704700BFD8
:10269C00C80400202DE9F843838903F00107EFF308
:1026AC001186102383F31288BFF36F8F057C15F00E
:1026BC00080F1AD10446B14600F1580801F053FD39
:1026CC0010B345F020052574EFF305839BB131461B
:1026DC002046FFF733FE67B1002383F31188BFF365
:1026EC006F8F0423184602DF03E086F31188BFF3D3
:1026FC006F8FBDE8F88341463F4B986801F035FD7C
:10270C003046FFF773FDE6E745F00803237413F03A
:10271C00800F36D1A3685BB16268236813605A607E
:10272C00002323606360227C22F002022274A360E7
:10273C0004F1180001F05DFE404601F04DFD2E4BFA
:10274C009A6894422AD000262B4B53F8185F9D426E
:10275C002BD055B3AA4202D0284600F083F8264B62
:10276C005D61204600F0ECFD204600F0D5F8FEB986
:10277C00214B9B689C421FD089F31188BFF36F8F4C
:10278C00A9E705F07F0545F0080525746268236804
:10279C0013605A60002323606360BBE7EFF305838B
:1027AC000BB90026D0E70126CEE7134BDD68D1E745
:1027BC001248FFF70FFDDBE7EFF30583002BDBD1AE
:1027CC00A38913F0010F12D089F31188BFF36F8F17
:1027DC00002383F31188BFF36F8F0423184602DFA5
:1027EC00EFF31189102383F31288BFF36F8F4846E0
:1027FC00FFF7FCFC6FE700BFC8040020B00200200C
:10280C000346027C12F01F0F10D10B4A90420FD0DE
:10281C000A4A106878B1DA897F2A0BD893F90E200E
:10282C00074B1B689A4206DA00207047002070475D
:10283C00002070470020704750010020400000200D
:10284C00F4040020044BC01AC010044B03FB00F02E
:10285C00034B01221A54704760030020ABAAAAAAAA
:10286C00F004002070B50C4B1E7CFFF7C9FF04462A
:10287C0006EB4603094D05EBC305284601F0B9FDEF
:10288C00074B00229A5504B970BD621ED317054937
:10289C00284600F081F8F7E7C80400206003002008
:1028AC00F00400205128000838B5EFF311851023EF
:1028BC0083F31288BFF36F8F144B9C68144B1B6807
:1028CC00A34217D0124B00221A60104B1B7C114AEA
:1028DC00D35C53B12046FFF793FF30B1237C13F048
:1028EC001F0F0FD02046FFF7BDFF85F31188BFF3F4
:1028FC006F8F38BD2046FFF7B5FF85F31188BFF306
:10290C006F8FF6E7FFF7B6FDECE700BFC8040020B9
:10291C00EC040020F0040020EFF31181102383F36A
:10292C001288BFF36F8F0A4B1B6A834204D19A6FD4
:10293C00074B1A6207E0134613B19A6F8242FAD121
:10294C000BB1826F9A6781F31188BFF36F8F704759
:10295C00C8040020034B1868984200D07047002030
:10296C00FCE700BF4400002030B1044A526890429A
:10297C0001D0006870470020704700BF4400002061
:10298C0008B5044B1B680BB1002008BDFFF788F895
:10299C00FBE700BFF80400202DE9F04F83B0B3F142
:1029AC00FF3F08BFB2F1FF3F0ED0044691461F46D1
:1029BC0081600023EFF3118A102282F31288BFF397
:1029CC006F8F1D46019335E000250195284601992E
:1029DC0003B0BDE8F08FFFF7D3FF8046013547F118
:1029EC000006451946EBE07625616661344A1368AA
:1029FC005268ED1846EB020301934FF0010B38E0DF
:102A0C00C91A66EB0202016142614368636020608F
:102A1C001C60446005E02B4B5A68236062601460B4
:102A2C005C60FFF797FF844237D08AF31188BFF3BD
:102A3C006F8F0123002BC9D14D460197002FCADAA5
:102A4C001F4B19685B68691843EB07036FF00102B1
:102A5C00521A4FF0FF3161EB030310461946012A5D
:102A6C0073F1000301DA01200021206161614FF054
:102A7C00000BFFF76FFF0028CDD001694669236971
:102A8C0062698B4272EB060EBADB5B1A62EB0602D2
:102A9C0023616261FFF768FFEDE70B4B1B68002BAE
:102AAC00C3D1BBF1000F06D0404601F087FC0021DA
:102ABC00FEF764FFB9E7FFF763FF8046F4E700BF5A
:102ACC007803002044000020F804002070B5EFF3D8
:102ADC001186102383F31288BFF36F8F2A4B186073
:102AEC00FFF738FF044623E0284A136851685B1946
:102AFC0041EBE5711360516000220023C4E904230B
:102B0C00204601F044FC86F31188BFF36F8FA36855
:102B1C0020469847EFF31186102383F31288BFF3F6
:102B2C006F8F194A13685B1B1360FFF713FF044682
:102B3C003CB125696169144B1A68D317AA428B41C1
:102B4C00D2DA44B1236962690F4909685B1A62EBF6
:102B5C00E172236162610D4A0B4D2868136851685C
:102B6C001B1841EBE0711360516000242C6020466F
:102B7C0001F024FC2146FEF701FF86F31188BFF318
:102B8C006F8FFFF791FE70BDF804002078030020D2
:102B9C00F0B583B0044600F10C06EFF31187102357
:102BAC0083F31288BFF36F8F836803EA02055940E1
:102BBC000A4053400093002201926B46074901F0F2
:102BCC0095FB009B019A23EA0203A3603946304629
:102BDC00FFF7B2FC284603B0F0BD00BF6F440008FD
:102BEC0008B5024800F051FB08BD00BF4055000875
:102BFC0010B5064C05E0A2686168204601F0B8FCEF
:102C0C001434034B9C42F6D3002010BD6800002006
:102C1C00680000202DE9F04F8DB043680293837853
:102C2C0015469A07804640F10D8100240E78002E3F
:102C3C0000F00A81252E0BD04B1C03930134029B10
:102C4C004146304698470028C0F2F6800399EDE7DC
:102C5C004E788B1C252E0393F0D00027B946BB462B
:102C6C00BBF11F0F38D8A6F12003102B0AD8DFE8D0
:102C7C0003F02A0909300909092109090928092D34
:102C8C0009091F00A6F13003092B33D92A2E37D19D
:102C9C001BF0400F55F8043B40F08280002BA7BF7F
:102CAC004BF0200B9946C3F100094BF0280B01E0C7
:102CBC004BF0010B039B13F8016B0393002ECFD148
:102CCC0030E04BF0020B4BF0040BF3E74BF0080B2E
:102CDC00F0E74BF0100BEDE7BBF17F0F19D8A6F125
:102CEC003003092BD2D81BF0400F03D00A2101FB73
:102CFC000737DFE70A2101FB09394BF0200BD9E735
:102D0C002E2E06D11BF0400F40F09E804BF0400B56
:102D1C00D0E76C2E31D02BD8682E36D06A2E3CD012
:102D2C004C2E3AD0002F46F02003B8BF2BF04002B7
:102D3C00A3F16501BCBF1FFA82FB0027022901D950
:102D4C00612B2FD1073525F00705DFF8ACA208352C
:102D5C0007271BF0080F66D00AEB070B56465E459B
:102D6C0063D1A4EB0A0A06EB0A02A9EB07096FE18F
:102D7C00742E9FD07A2E9DD0D4E71BF0800F18BFF5
:102D8C004BF4007B4BF0800B94E71BF4807F18BF57
:102D9C004BF4007B4BF4807B8CE74BF4207B89E776
:102DAC001F4687E7A6F16301122900F2F080DFE8E5
:102DBC0011F013004F00EE00EE00EE00EE004F009D
:102DCC00EE00EE00EE00EE00EE00FE00E900EE007C
:102DDC00EE001B00EE00AF0055F8043B8DF81830E8
:102DEC0001270DF1180AB4E755F804AB834BBAF17F
:102DFC00000F08BF9A461BF0400F14BF39464FF026
:102E0C00FF31504601F0E2FB0746A2E7029B414628
:102E1C002020984700280FDB013EB742F6D34C44E4
:102E2C00A41BB14698E74E46F7E716F8010B029B38
:102E3C0041469847002892DA98F8023043F0040390
:102E4C0088F802304FF0FF3420460DB0BDE8F08F0B
:102E5C001BF0800F34D01BF4007F2CD0073525F0ED
:102E6C000705AA4669685AF8080B2BF010050029CB
:102E7C00ADB237DA404261EB410145F480650DF1AA
:102E8C00180B0A235A4601F0ADFBA0EB0B03019380
:102E9C006B0662D5019B25F001019F4289B240F37C
:102EAC00A180002E00F0998015F0100240F09C805B
:102EBC00BB460D4623E0AA465AF8040BC117D4E7CB
:102ECC00AA461BF4807F5AF8041B01D10846F5E78B
:102EDC001BF4007F15BF48B208B241F3C01141F397
:102EEC00C031C2E750EA0103C9D11BF0400FC6D074
:102EFC00002FC4D12BF0110295B2BB46019740F2C2
:102F0C00064115EA01021CBF0BF1010B00222CE05B
:102F1C002BF010021FFA82FB0A231BF0800C49D005
:102F2C001BF400711DBF073525F00705AA46AA46FC
:102F3C001ABF5AF8080B69685AF8040B50EA0105D5
:102F4C0045D12BF016051BF0400FADB242D0002F2F
:102F5C0040D12BF0170295B2019715F0100248D012
:102F6C00019B002E42D103F1010B29075AD4EB0728
:102F7C0006D5D9456FDD0199A9EB0B035F18CB463C
:102F8C005B4649E04BF0100B10237826C5E7782BF5
:102F9C0004D1C6F1780343F01003BEE7029B41460F
:102FAC00252098470028FFF647AF023447E6082350
:102FBC000026B2E7AA461BF480715AF8040BBDD068
:102FCC001BF400711ABFC0B2614680B2B6E72BF099
:102FDC00060295B20DF1180B54E725F01105ADB2B0
:102FEC00BB468CE70D46B8E73B460D4603F1020B9A
:102FFC00BBE7DDF804B082E7825500087B5500087A
:10300C00CDE904324146029B202098470028FFF668
:10301C0013AF049B059A01339945F1DCA4EB0B012A
:10302C00CC189B460AB3029B414630209847002897
:10303C00FFF602AF8EB901342744019B391B99422C
:10304C0024DC1D465DBB019AA9EB0B0922445546B5
:10305C001446914435E0019F92E7023441463046D4
:10306C00029B98470028E7DAE6E640F206410D425B
:10307C00E2D015F0020F14BF2B20202015F4806F26
:10308C0004F10104414618BF2D20E9E7029B41469B
:10309C0030209847002804F10104CEDACCE606ABC8
:1030AC00013D4146585D029B98470028CADAC3E6A9
:1030BC00029B414620209847002804F10104FFF6AA
:1030CC00BBAEA9EB0403002BF2DCBFE5704708B5DF
:1030DC0003468C4600681979DA8802F0400242EA0D
:1030EC000C02FDF765F808BD38B513468568046910
:1030FC0012F4801F07D012F4402F04D012F0010FED
:10310C0001D082F4402323F4801213F0010F0AD073
:10311C0023684FF0010C0CFA01FC43EA0C0323600A
:10312C002B68984738BD23684FF0010C0CFA01FC52
:10313C0023EA0C032360F3E708B503468C460068CA
:10314C001979DA8842EA0C02FFF7CEFF08BD08B500
:10315C008368DB6913B10122984708BD6FF05700F3
:10316C00FBE708B5836823B19B6C2BB19847002013
:10317C0008BD6FF05700FBE76FF05700F8E708B594
:10318C0083689B6A03B1984708BD08B583685B6C7C
:10319C000BB1984708BD6FF05700FBE710B5131D36
:1031AC0050F8234074B9C368012494402343C3608E
:1031BC00043240F82210CB001A1D89B2815206331A
:1031CC00C15210BDE2000432835A4FEAC10C0CF11B
:1031DC00040E20F80E300CF1060C20F80C40DB002D
:1031EC00063389B2C1528152EBE708B500EBC1033B
:1031FC005A885208B2FA82F2C2F11F02FFF7CEFFD0
:10320C0008BD70B50346043AC81D20F007000A44F7
:10321C0022F00702121AD508186085600023C360DB
:10322C00B5FA85F1C1F1200EC1F124018900CE1D42
:10323C00F10805E003F1040C002440F82C400133A4
:10324C007345F7DB4C00A4B244804FF0000CA0F89F
:10325C0000C044F0010444806B1A4FEA430E26F080
:10326C000704A51C20F805E0015322F00704951C67
:10327C0020F805C002440353538843F001035380E4
:10328C00FFF7B3FF70BD002070470FB400B583B0DB
:10329C0004A951F8040B0191FDF7BAF803B05DF8DD
:1032AC0004EB04B07047704708B501F077F908BD1E
:1032BC0008B501F065F908BD08B501460068FDF7D1
:1032CC003FF908BD08B5FDF753F9FDF77DF908BDC9
:1032DC000020704708B500231370CB1E092B1AD899
:1032EC00DFE803F005090D11191919191914114604
:1032FC00FDF702FB08BD0021FDF7B4F9FAE7002148
:10330C00FDF72AFAF6E7FDF79DFAF3E71146FDF70C
:10331C004FFB0020EEE7FDF755FB0020EAE708B570
:10332C0040B2FDF733FC08BD08B5013140B2FDF7E2
:10333C003BFC08BD08B500210120FDF701F908BDD3
:10334C006FF08500704761B662B680F31188BFF3E9
:10335C006F8F704772B6002383F31188BFF36F8FA2
:10336C00BFF34F8F30BF62B6BFF36F8F704708B596
:10337C00FDF7CEFC002008BD08B5FDF7EFFC08BD3D
:10338C0008B5062201210020FDF734FD002211466C
:10339C000620FFF7C9FF072201210846FDF72AFD89
:1033AC00002211460720FFF7BFFF0822012102204F
:1033BC00FDF720FD002211460820FFF7B5FF09227A
:1033CC0001210320FDF716FD002211460920FFF70D
:1033DC00ABFF0A2201210420FDF70CFD002211464F
:1033EC000A20FFF7A1FF172205210846FDF702FD71
:1033FC00002211461720FFF797FF282206210A20EA
:10340C00FDF7F8FC002211462820FFF78DFF002065
:10341C0008BD01F01F0101208840704708B5024625
:10342C00084602F0030304339B000F21994041EA44
:10343C009201FDF715FD08BD08B500F00303043338
:10344C009B000F2202FA03F343EA9000FDF724FDE0
:10345C0008BDB0FBF1F002FB00F0B0FBF3F07047DD
:10346C00B0FBF1F07047002070470B88C3F30B03DF
:10347C0003F6B872C2F30B02182A15D882B003F106
:10348C00804303F504334A68186802431A600B88BA
:10349C00C3F30B0303F1804303F504331B6801935F
:1034AC00019B002002B070476FF0850070470B88BD
:1034BC00C3F30B0303F6B872C2F30B02182A0AD833
:1034CC0003F1804303F5043349681A6822EA0102C8
:1034DC001A60002070476FF0850070470C2807D8E1
:1034EC0041F6BA33C34013F0010F04D000207047EB
:1034FC006FF0850070476FF08500704770B54C68B1
:10350C00C4F304450888C0F30B00FFF7E7FF00285D
:10351C0015DBA6B2FF2C13D006F1804202F5043263
:10352C00C4F34151013101238B40013BAB40240ECC
:10353C00AC40116821EA03031C431460002070BDE9
:10354C000020FCE708B50888C0F30B0000F6B87340
:10355C00C3F30B03182B0BD800F1804000F504309B
:10356C0002684B68934301D0012008BD0220FCE7A0
:10357C00FFF7B4FF08B10120F7E70220F5E7704729
:10358C00022070470B4639B11168196041688A42B4
:10359C0009D00023136070471368036041688A42A6
:1035AC00F7D14360F5E74360F3E708B50A460368D3
:1035BC00002101E019461B682BB19342FAD1FFF7A9
:1035CC00E1FF012000E0002008BD38B505460C469F
:1035DC000321A047002806DB01212846A04700282C
:1035EC0000DB002038BD10F1860FFBD1F4E770B57D
:1035FC0004460D461646036833B1FFF7D6FF70B983
:10360C001EB96FF0150006E032B123682B602560FF
:10361C00636843B1002070BD6FF01500FBE7002E0E
:10362C00F3D10020F7E765600020F4E770B50E4693
:10363C001546016821B10C683CB131B90C4604E067
:10364C000C4602E0234621461C4671B18A682A408A
:10365C0002D04B6830469847002CF3D02368002BDF
:10366C00F1D0002CEFD12346EDE770BD08B5024632
:10367C0008690430FFF7DAFF08BD10F4003F14D0DE
:10368C0010F0020F04D010F0040F35D0502300E0DE
:10369C00102310F0100F02D043F4007312E010F05E
:1036AC00200F0FD043F480630CE010F4803F08D05F
:1036BC0010F0100F14D110F0200303D04FF48063DE
:1036CC0000E0302300F4C060B0F5806F0ED0B0F590
:1036DC00C06F08D0B0F5007F0BD00B600020704796
:1036EC004FF40073EEE743F4C073F6E743F48073D2
:1036FC00F3E743F08003F0E76FF085007047436811
:10370C005B681B690B600020704743685B685869F5
:10371C0042400A4042405A610020704743685B684F
:10372C0099610020704743685B689962002070477C
:10373C0043685B685A69514059610020704708B56D
:10374C0000690430FFF753FF08BD08B5012911D0FB
:10375C0007D819B90021FDF70FFE07E06FF08500BF
:10376C0004E00239C9B2012901D8002008BD6FF06C
:10377C008500FBE70121FDF7FFFDF7E710B40468B6
:10378C0091FAA1F39BB1B3FA83F35B004FF0030CF6
:10379C000CFA03F324EA030391FAA1F149B1B1FA4B
:1037AC0081F149008A401343036010BC7047202309
:1037BC00EBE72021F5E710B4846891FAA1F39BB1F3
:1037CC00B3FA83F35B004FF0030C0CFA03F324EA17
:1037DC00030391FAA1F149B1B1FA81F149008A4090
:1037EC001343836010BC70472023EBE72021F5E7DF
:1037FC0010B4C46891FAA1F39BB1B3FA83F35B00E4
:10380C004FF0030C0CFA03F324EA030391FAA1F131
:10381C0049B1B1FA81F149008A401343C36010BC2D
:10382C0070472023EBE72021F5E710B4046A91FAE6
:10383C00A1F39BB1B3FA83F39B004FF00F0C0CFA7E
:10384C0003F324EA030391FAA1F149B1B1FA81F12E
:10385C0089008A401343036210BC70472023EBE7B6
:10386C002021F5E710B4446A090A91FAA1F39BB13F
:10387C00B3FA83F39B004FF00F0C0CFA03F324EA1A
:10388C00030491FAA1F149B1B1FA81F189008A409E
:10389C001443446210BC70472023EBE72021F5E76A
:1038AC002DE9F8430F461546984643685E68012497
:1038BC008C4002F03009C2F38013706820EA0400D7
:1038CC008B4018437060C2F3C11221463046FFF79B
:1038DC0072FFC5F3412221463046FFF789FFB9F14B
:1038EC00200F07D04FEA191221463046FFF746FF4A
:1038FC00BDE8F883072F05D8424621463046FFF72E
:10390C0094FFEFE7424621463046FFF7ABFFE9E76D
:10391C002DE9F04383B005460E461446D0F81080CE
:10392C0001A91046FFF7A9FE074668BB14F44039FD
:10393C000BD0D8F80C3023FA06F212F0010F04D198
:10394C000122B2401343C8F80C3014F4003F05D0E8
:10395C0014F4002F1CD114F4802F1FD10023019AD2
:10396C0031462846FFF79CFFB9F1000F0CD1D8F86F
:10397C000C3023FA06F212F0010F05D00122B240EE
:10398C0023EA0203C8F80C30384603B0BDE8F083D4
:10399C000121B1402846FFF7C1FEDFE70121B1400C
:1039AC002846FFF7C0FED9E738B504460D46084651
:1039BC00FFF742FDA04200D038BD29462046FFF754
:1039CC0028FD0446FDF794FA2046FDF7EBFA00219A
:1039DC002046FDF795FAEFE7F8B507460D46164673
:1039EC001C46FFF75DFF112C01D00020F8BD16F42A
:1039FC00006F05D00121A9403846FFF78FFEF4E790
:103A0C000121A9403846FFF78EFEEEE700B50368AA
:103A1C00136001E008331360136890F804C0D0F809
:103A2C0000E00EEBCC0C634505D293F805C08C4539
:103A3C00F0D1002001E06FF001005DF804FBF8B557
:103A4C0006460F460024254615E002F01F011029FA
:103A5C0020D011291CD0530A1B0103F4F873C2F3B4
:103A6C00431002F01F0229461843FDF7FBFC002807
:103A7C0013DB0134E4B2BC420ED206EBC40356F89D
:103A8C00342012F0100FE0D15D6845F02005E2E71C
:103A9C005D68E0E73025DEE70020F8BD4368186874
:103AAC00C1F34B1301F01F01C05801238B40184286
:103ABC0014BF0123002313700020704710B4436817
:103ACC001C68C1F34B1001F01F01235801228A40DE
:103ADC0013432350002010BC704710B443681C687B
:103AEC00C1F34B1001F01F01235801228A4023EA35
:103AFC0002032350002010BC704738B504460D4615
:103B0C00FFF7DCFF29462046FFF7E7FF002038BD12
:103B1C0008B58368DB680BB1984708BD6FF0570098
:103B2C00FBE730B583B043681C68E1B10D465868BB
:103B3C0019698368DB689BB101AA984700280DDBE3
:103B4C00236823F400432360019B03EB5503B3FB71
:103B5C00F5F30F2B0AD99BB2E360002003B030BD04
:103B6C006FF05700FAE76FF01500F7E76FF01500EC
:103B7C00F4E7436829B11A68936843F4804393606F
:103B8C0070471A68936823F4804393607047B0F5CC
:103B9C00805F07D0B0F1805F07D109B10120704779
:103BAC000220704721B90420704719B903207047CF
:103BBC0003207047022070472DE9F04104460D4662
:103BCC00476803691E680979012914D0022915D1A7
:103BDC004FF480636A79012A15D0022A15D07AB184
:103BEC004FF40052A879022812D0042816D00029CC
:103BFC0068D1002014E04FF4C063EBE70023E9E741
:103C0C004FF48052EEE70022ECE74FF44052E9E724
:103C1C0009B1002004E04FF0805001E04FF48050D7
:103C2C00E979012951D04FF0000C032914BF002170
:103C3C000121AE424CD0D7F80080D8F8007007F4C0
:103C4C00C06E734506D0D8F8007027F4C0673B43AC
:103C5C00C8F8003063681F687B6803F440539A42CD
:103C6C0004D07B6823F4405313437B6063681A6869
:103C7C00136803F01023984204D0136823F0102328
:103C8C001843106063681A68936803F440739C458A
:103C9C0005D0936823F440734CEA03039360636884
:103CAC001B689B6813F4804300D00123003B18BFB2
:103CBC00012399422AD12968336899422AD10020DC
:103CCC00BDE8F0814FF48050AAE74FF4407CACE79C
:103CDC003E68316821F0805121F4B05103431943FF
:103CEC003160736823F440531343736063681A683C
:103CFC00936823F440734CEA0303936029682046CD
:103D0C00FFF70FFF0028DBDB0020D9E72046FFF789
:103D1C0030FFD0E72046FFF704FF0028D0DB2B68EC
:103D2C0033600020CCE738B504460D4603691B68A8
:103D3C001B680B6043681B681B6803F4C063B3F516
:103D4C00806F31D0B3F5C06F30D101232B71636814
:103D5C001B685B6803F44053B3F5805F2AD0B3F55E
:103D6C00405F29D023B303236B7163681B68186809
:103D7C00196801F4C06100F01020FFF708FFA8716A
:103D8C0063681B689B6803F44073B3F5407F15D0E0
:103D9C000023EB7163681B689B6813F4804F01D0A0
:103DAC000323EB71002038BD0223CFE70023CDE7BE
:103DBC000123D9E70023D7E70223D5E70123E8E75E
:103DCC0008B543681868C36913F0080F01D00823BD
:103DDC000362C36913F0200F02D09047002008BD86
:103DEC004FF0FF30FBE710B543681868C36913F058
:103DFC00800FFBD0EFF31184102383F31288BFF3F1
:103E0C006F8FC36913F0800F04D184F31188BFF353
:103E1C006F8FEBE7904784F31188BFF36F8F10BD62
:103E2C00436A0B707047C9B28162704743681B6864
:103E3C00D86910F0080000D00120DA6912F0010FE7
:103E4C0001D040F00200DA6912F0020F01D040F00C
:103E5C000400DA6912F0040F01D040F02000DA6996
:103E6C0012F4807F01D040F0080010F0080F02D04F
:103E7C004FF480721A6210F0010F01D008221A62FE
:103E8C0010F0020F01D001221A6210F0040F01D0C1
:103E9C0002221A6210F0200F01D004221A6270471D
:103EAC002DE9F843154642681768FA6912F0800F3D
:103EBC001DD00E469846EFF31189102383F3128818
:103ECC00BFF36F8F00242B1B002B09DDFB6913F054
:103EDC00800F05D0224631463846C0470134F2E700
:103EEC0089F31188BFF36F8F2046BDE8F883002457
:103EFC00FAE78B5C836270472DE9F04188461646E1
:103F0C001F4643681D680024331B002B0FDDEB6933
:103F1C0013F0200F0BD0224641462846B8470134F7
:103F2C00EB6913F0080FEFD008232B62ECE7204667
:103F3C00BDE8F081436A8B54704743681A6852E8B5
:103F4C00003F43F0400342E800310029F7D17047AD
:103F5C0043681A6852E8003F23F0400342E80031FE
:103F6C000029F7D1704743681B68DA6912F0800F9B
:103F7C0005D01B6813F0400F03D0012070470020C0
:103F8C0070470020704743681B68D86910F04000E8
:103F9C0000D00120704743681A6852E8003F43F094
:103FAC00200342E800310029F7D1704743681A68B2
:103FBC0052E8003F23F0200342E800310029F7D1FA
:103FCC00704743681B68D86910F0200000D00120AE
:103FDC00704743681B68DA6912F0200F03D01A6827
:103FEC0012F0200F09D1DA6912F0400F07D01B68CC
:103FFC0013F0400F05D100207047012070470020BE
:10400C0070470120704701207047036959609A601E
:10401C00704708B5026953680BB19168984708BDA1
:10402C0008B543685868196983681B680BB19847D1
:10403C0008BD6FF05700FBE700B583B001AAFFF78E
:10404C00E5FC002805DB019B002219791868FFF7B5
:10405C00F6FC03B05DF804FB38B504464568FFF781
:10406C00DFFF00280EDB0021686AFFF7E5FF002860
:10407C0008DB2046FDF77CFB002803DBAB6A2046FF
:10408C009847002038BD08B5002211462520FFF7BF
:10409C004BF92520FFF743F908BD10B504464369D9
:1040AC0093B19847024630B100280BDBFF2A00DDA4
:1040BC00FF22E3681A70E1684B7843F001034B7000
:1040CC00504210BD4242F1E70022F4E760B1C368F0
:1040DC005A7812F0010F03D01B781BB100207047E7
:1040EC00002070470120704700207047EFF31183C8
:1040FC00102383F31288BFF36F8FFEE708B5FFF729
:10410C00F5FF08B5EFF31183102383F31288BFF387
:10411C006F8FFFF71FF9F5E700BF704708B5183030
:10412C0000F067F908BD10B582B001240094FDF7CA
:10413C00E9FE02B010BD10B5073222F007028C1850
:10414C002146FCF72DFA073020F00700201A10BD8D
:10415C0010B400248460838102748173C4738461FD
:10416C00C46110BC70470020704738B504460D463A
:10417C00FEF7B0F8237C43F00203237435B3A5603B
:10418C002B689D420DD100230BE05A6862602360BE
:10419C0014605C601AE01A4669688A420FD01B688A
:1041AC007BB173B194F90E1093F90E209142F2D0B9
:1041BC00521A002AE9DC1A46002BEDD1F0E7002355
:1041CC00EEE76B68256063601C606C6038BD08B5F9
:1041DC00183000F00EF908BD70B50646046884422C
:1041EC001AD0DCB16268236813605A600025256020
:1041FC006560237C23F002032374A56004F118008E
:10420C0000F0F7F8C4F8A8502046FEF709F8346817
:10421C00A642E6D12C46E4E70024E2E770BD70B577
:10422C00044616461D46FFF7A0FF32462B46204695
:10423C00FEF710F970BD38B504460023EFF3118575
:10424C00102282F31288BFF36F8F04E085F311887C
:10425C00BFF36F8F012343B92046FFF784FF00287B
:10426C00F4D12046FDF7DCFFF0E738BD08B5037C40
:10427C0013F0280F13D183685BB142680368136095
:10428C005A60002303604360027C22F00202027435
:10429C008360037C23F004030374FDF7C1FF08BDA6
:1042AC0038B5A0F118050023EFF31184102282F326
:1042BC001288BFF36F8F07E02846FFF7D7FF84F310
:1042CC001188BFF36F8F0123002BF5D038BD08B5D3
:1042DC00EFF31180102383F31288BFF36F8FFEF777
:1042EC0041F908BD031D4360836070472DE9F04719
:1042FC0080460F4691461D460023EFF3118A10228B
:10430C0082F31288BFF36F8F1E4629E000202EE047
:10431C00044606E0044604E0002402E0234620465E
:10432C001C4690B12946B847064670B9002CF5D00A
:10433C00D8F804309C4206D02368002BEFD0002C18
:10434C00EDD12346EBE70023E9E7B9F1000F02D0EA
:10435C0029463046C8478AF31188BFF36F8F012373
:10436C0093B9D8F800008045D0D00028D0D00028D0
:10437C00D0D0D8F804309842CED00468002CD0D0DD
:10438C000028CED10446CCE73046BDE8F08710B506
:10439C000446FEF7E9FA48B102460369416920690F
:1043AC001B18606941EB000113615161626823685D
:1043BC0013605A6000232360636010BD10B504467F
:1043CC00FEF7C8FA78B1036942691B1B62EBE47211
:1043DC00B3F1004F72F1000108DA002A01DB184634
:1043EC0010BD0023FBE76FF00040F9E76FF00040D1
:1043FC00F6E7F8B504460023EFF31187102282F399
:10440C001288BFF36F8F6FF015000CE0FEF7B8FA4F
:10441C00FFF7D4FF0021FDF7B1FA304687F311887E
:10442C00BFF36F8F01231E468BB92368002BF5D089
:10443C00FEF790FA05462046FFF7A9FF00224FF041
:10444C000043C4E90423A542E0D03046E6E7F8BDBA
:10445C0003460840012A00D070478342FCD000205C
:10446C00FAE770B504460D46466E06F0010209687F
:10447C00006EFFF7EDFF80B1206616F0040F02D03E
:10448C006A6802436A6004F11800FFF7B2FF002368
:10449C00C4F8A8302046FFF7E9FE002070BD2DE9D6
:1044AC00F04F85B0DDF838800F9F0E4619B93046B5
:1044BC0005B0BDE8F08F0446154602F0010AFEF780
:1044CC00E3F8039004F10C030293EFF3118B102328
:1044DC0083F31288BFF36F8F15F0020F01D0002306
:1044EC00A360D4F80890524649463046FFF7B0FF17
:1044FC00824640B957EA080311D18BF31188BFF3F8
:10450C006F8F0646D3E715F0040F02D029EA00039B
:10451C00A3608BF31188BFF36F8F5646C7E7039BDD
:10452C001E661E465D66CDF80080019722465946F0
:10453C000298FDF7E5FF08B9366EB8E75646B6E7C0
:10454C000023836000604060704708B50A46FEF7A0
:10455C001FFB08BD10B582B042B10222DDE9043464
:10456C00CDE90034FFF79BFF02B010BD0022F5E748
:10457C0010B500F10C04C4600461FEF742FE10BDDE
:10458C000A44914200F1FF3300D1704710B511F885
:10459C00014B03F8014F9142F9D110BD024403467F
:1045AC00934200D1704703F8011BF9E710B50139AC
:1045BC00044632B111F8013F00F8013B013A002BDF
:1045CC00F7D10021FFF7EAFF204610BD10B50246D7
:1045DC0001448A42134603D01C780132002CF8D1D6
:1045EC00181A10BDF0B5C3F137070446FFB203F03B
:1045FC001F031046082BE6B233D0102B3ED06508B3
:10460C00A40844EA817445EAC1752D194FEA910258
:10461C0042EB5102290941EA02716D1842EB121268
:10462C00290A41EA02616D1842EB1222290C41EA77
:10463C0002416D1842EB1242AD1842F10002EC0837
:10464C0044EA4274D10804EB8402A6EB4205EDB2B5
:10465C00092D0CD90134A5F10A0541F10001EDB287
:10466C0012E0E40844EA417406F00705C908303545
:10467C0054EA010200F8015BBCD1F0BD240944EA04
:10468C00017406F00F050909092D84BFED19EDB26F
:04469C00EDE7000046
:1046A00000000000384700087D04000800000000FA
:1046B000FD2B000800000000000000005447000827
:1046C00000000000504800080000000034480008C6
:1046D000000000006C48000800000000704700085F
:1046E000000000001848000800000000E047000833
:1046F00000000000C447000800000000A8470008B0
:10470000000000008C47000800000000FC47000883
:104710008D330008000000000000000088480008F9
:104720006913000800000000ED18000800000000F8
:08473000450D00080000000027
:10473800A052000800000000044C00084E000020B1
:10474800000000001D120008000000005C54000872
:1047580070540008F44B00086200002000000000BC
:104768000000000000000000645200080000000083
:10477800000000004C000020000000008533000805
:1047880000000000B052000840530008D04B000859
:104798005000002030040020C11300080000000071
:1047A800C052000854530008D04B000852000020A3
:1047B80040040020C113000800000000D052000887
:1047C80068530008D04B0008540000205004002013
:1047D800C113000800000000E05200087C530008E4
:1047E800D04B00085600002060040020C1130008C8
:1047F80000000000F052000890530008D04B000859
:104808005800002070040020C113000800000000B8
:1048180000530008A4530008D04B00085A00002099
:1048280080040020C1130008000000001053000895
:10483800B8530008D04B00085C000020900400200A
:10484800C11300080000000020530008CC530008E2
:10485800D04B00085E000020A0040020C11300080F
:104868000000000030530008E0530008D04B000857
:1048780060000020B0040020C11300080000000000
:104888007454000884540008204C00086400002078
:0C4898002800002065400008000000001F
:1048A400000000004133000800000000413300080C
:1048B40000000000413300080000000041330008FC
:1048C40000000000413300080000000041330008EC
:1048D4009C520008250E000898520008250E000876
:1048E40094520008250E000890520008250E000876
:1048F4008C520008250E0008000000004133000817
:1049040000000000413300080000000041330008AB
:10491400000000004133000800000000413300089B
:10492400000000004133000800000000413300088B
:10493400000000004133000800000000413300087B
:10494400000000004133000800000000413300086B
:10495400000000004133000888520008250E0008BA
:10496400000000004133000800000000413300084B
:10497400000000004133000800000000413300083B
:10498400000000004133000800000000413300082B
:10499400000000004133000800000000413300081B
:1049A400000000004133000800000000413300080B
:1049B40000000000413300080000000041330008FB
:1049C4000000000041330008884800081F40000828
:1049D40000000000413300080000000041330008DB
:1049E40084520008250E000800000000413300082E
:1049F40000000000413300080000000041330008BB
:104A040000000000413300080000000041330008AA
:104A1400000000004133000800000000413300089A
:104A2400000000004133000800000000413300088A
:104A3400000000004133000800000000413300087A
:104A4400000000004133000800000000413300086A
:104A5400000000004133000800000000413300085A
:104A6400000000004133000800000000413300084A
:104A7400000000004133000800000000413300083A
:104A8400000000004133000800000000413300082A
:104A9400000000004133000800000000413300081A
:104AA400000000004133000800000000413300080A
:104AB40000000000413300080000000041330008FA
:104AC40000000000413300080000000041330008EA
:104AD40000000000413300080000000041330008DA
:104AE40000000000413300080000000041330008CA
:104AF40000000000413300080000000041330008BA
:104B040000000000413300080000000041330008A9
:104B14000000000041330008000000004133000899
:104B24000000000041330008000000004133000889
:104B34000000000041330008000000004133000879
:104B44000000000041330008000000004133000869
:104B54000000000041330008000000004133000859
:104B64000000000041330008000000004133000849
:104B74000000000041330008000000004133000839
:104B84000000000041330008000000004133000829
:084B940000000000413300089D
:104BA000900000200005002000040000F101000832
:104BB00000000000000000000000000005000000F0
:104BC000000000001C4E0008000000000000000073
:104BD0001D3900080B37000817370008293700086F
:104BE000333700083D370008DD1300084B37000855
:044BF00000000000C1
:104BF400A93A0008C93A0008E73A0008073B000848
:104C040077340008BB340008000000009510000849
:0C4C1400513500080000000009350008C0
:104C20002D1600083D160008393E0008B114000892
:104C3000333D00084D16000885160008473F000860
:104C40005D3F0008733F0008A33F0008B93F00081C
:104C5000933F0008CF3F0008BD1600081D1700084D
:0C4C6000DF3F0008134000081740000868
:104C6C00040000000F00000001000000080000001C
:104C7C002000000068000000780000001000000018
:104C8C000C0000000E000000500000007C00000032
:104C9C00A4000000FFFFFFFFFFFFFFFFFFFFFFFF70
:044CAC00FFFFFFFF08
:104CB00060000000010000005B425554544F4E5DFF
:104CC00020436F756E74203D2025640A00000000AB
:104CD0005B554152545D20436F756E74203D202515
:104CE000640A000053797374656D20737461727483
:104CF0000A000000507265737320737730202D3ED8
:104D000020436F756E742B2B0A0000005479706578
:104D10002027312720696E2055415254202D3E20F6
:104D2000436F756E742D2D0A000000004572726F7E
:104D3000723A20627574746F6E206465766963657B
:104D4000206973206E6F742072656164790A0000B7
:104D50004572726F722025643A206661696C6564E1
:104D600020746F20636F6E66696775726520627567
:104D700074746F6E2070696E0A0000004572726F65
:104D8000722025643A206661696C656420746F2026
:104D9000636F6E66696775726520696E746572729D
:104DA0007570740A000000004572726F72202564ED
:104DB0003A206661696C656420746F2061646420C8
:104DC00063616C6C6261636B0A0000005541525470
:104DD00020646576696365206E6F74207265616416
:104DE000790A00004661696C656420746F20736500
:104DF0007420554152542063616C6C6261636B0A8C
:104E0000000000005B4D61696E5D2052656365695D
:104E10007665643A2025630A000000006C6F6769BC
:104E2000635F746964000000344800080D000100ED
:104E300072302F61313A20203078253038782020A8
:104E400072312F61323A2020307825303878202096
:104E500072322F61333A20203078253038780A00BA
:104E600072332F61343A2020307825303878207220
:104E700031322F69703A202030782530387820720E
:104E800031342F6C723A20203078253038780A007F
:104E900020787073723A20203078253038780A00F4
:104EA0004661756C74696E6720696E7374727563A0
:104EB00074696F6E20616464726573732028723147
:104EC000352F7063293A203078253038780A000071
:104ED000556E68616E646C6564204952516E3A206B
:104EE00025640A00535053454C20696E2074687243
:104EF000656164206D6F646520646F6573206E6FFB
:104F00007420696E646963617465205053500A00AF
:104F10002A2A2A2A2A204D5055204641554C5420F1
:104F20002A2A2A2A2A0A00002020537461636B6906
:104F30006E67206572726F722028636F6E74657879
:104F4000742061726561206D6967687420626520F4
:104F50006E6F742076616C6964290A002020556E9A
:104F6000737461636B696E67206572726F720A0099
:104F70002020446174612041636365737320566926
:104F80006F6C6174696F6E0A0000000020204D4D47
:104F900046415220416464726573733A203078252B
:104FA000780A00002020496E737472756374696F0B
:104FB0006E204163636573732056696F6C61746919
:104FC0006F6E0A002020466C6F6174696E672D70E9
:104FD0006F696E74206C617A7920737461746520D6
:104FE000707265736572766174696F6E2065727236
:104FF0006F720A002A2A2A2A2A2042555320464143
:10500000554C54202A2A2A2A2A0A000020205374A8
:1050100061636B696E67206572726F720A000000CF
:105020002020507265636973652064617461206239
:105030007573206572726F720A000000202042466C
:10504000415220416464726573733A203078257848
:105050000A0000002020496D707265636973652045
:105060006461746120627573206572726F720A00E8
:105070002020496E737472756374696F6E20627557
:1050800073206572726F720A000000002A2A2A2AB1
:105090002A205553414745204641554C54202A2A41
:1050A0002A2A2A0A000000002020446976697369D0
:1050B0006F6E206279207A65726F0A002020556E2B
:1050C000616C69676E6564206D656D6F72792061D2
:1050D00063636573730A000020204E6F20636F7056
:1050E000726F636573736F7220696E737472756328
:1050F00074696F6E730A00002020496C6C656761EB
:105100006C206C6F6164206F66204558435F524588
:105110005455524E20696E746F2050430A000000AF
:105120002020496C6C6567616C20757365206F6623
:105130002074686520455053520A000020204174B5
:1051400074656D707420746F20657865637574651F
:1051500020756E646566696E656420696E7374722D
:10516000756374696F6E0A002A2A2A2A2A20484128
:105170005244204641554C54202A2A2A2A2A0A0001
:105180002020427573206661756C74206F6E2076E6
:105190006563746F72207461626C6520726561640E
:1051A0000A00000020204465627567206576656E00
:1051B000740A000020204661756C74206573636179
:1051C0006C6174696F6E20287365652062656C6F11
:1051D00077290A00415243485F45584345505420BF
:1051E0007769746820726561736F6E2025780A0A8A
:1051F000000000002A2A2A2A2A20446562756720B6
:105200006D6F6E69746F7220657863657074696F15
:105210006E202A2A2A2A2A0A000000005265736595
:105220007276656420457863657074696F6E2028B6
:105230000000000053707572696F757320696E7499
:105240006572727570742028495251200000000068
:105250002A2A2A2A2A20257320256429202A2A2A54
:105260002A2A0A00696E746572727570742D636FF4
:105270006E74726F6C6C6572403430303130343023
:10528000300000000A0600000505000004010000CF
:105290000301000002010000010100000001000004
:1052A00072636340343030323130303000000000FF
:1052B0006770696F40343830303230303000000071
:1052C0006770696F4034383030316330300000002F
:1052D0006770696F4034383030313830300000004A
:1052E0006770696F4034383030313430300000003E
:1052F0006770696F40343830303130303000000032
:105300006770696F403438303030633030000000EF
:105310006770696F4034383030303830300000000A
:105320006770696F403438303030343030000000FE
:105330006770696F403438303030303030000000F2
:10534000FFFF000000200048080000004C000000A3
:1053500000010000FFFF0000001C004807000000E3
:105360004C00000080000000FFFF00000018004813
:10537000060000004C00000040000000FFFF00009D
:1053800000140048050000004C0000002000000050
:10539000FFFF000000100048040000004C00000067
:1053A00010000000FFFF0000000C00480300000098
:1053B0004C00000008000000FFFF0000000800484B
:1053C000020000004C00000004000000FFFF00008D
:1053D00000040048010000004C0000000200000032
:1053E000FFFF000000000048000000004C0000002B
:1053F000010000006C4800085048000834480008CC
:1054000018480008FC470008E0470008C4470008A7
:10541000A84700088C4700080000000000000000BA
:10542000000000000000000000000000000000007C
:10543000000000000000000000000000000000006C
:10544000000000000000000000000000000000005C
:10545000000000000000000000000000726573659D
:10546000742D636F6E74726F6C6C65720000000057
:105470000010024073657269616C40343030313322
:1054800038303000003801403847000854470008E1
:105490000E080000B05400080100000000000000E9
:1054A0000000000000000000B8540008934000080D
:1054B0006000000000400000C0540008010000002F
:1054C000C854000802000000C702000000020000EB
:1054D000E702000000000000A0860100400D03006C
:1054E000801A060000350C0040420F0080841E0028
:1054F00000093D0000127A000024F40000366E011D
:105500000048E801006CDC02000000000000000020
:10551000010203040607080969646C6500000000C5
:105520006D61696E00000000A0460008A0460008FA
:105530002847000830470008384700083847000867
:105540002A2A2A20426F6F74696E67205A65706834
:105550007972204F53206275696C642076342E3343
:105560002E302D373138312D673836376135616649
:105570006434646563202A2A2A0A00286E756C6CDC
:0C55800029002A666C6F61742A0000008C
:10558C008848000893320008000000007B330008B4
:10559C000000000000000000FFFFFFFFFFFFFFFF07
:1055AC00FFFFFFFFFFFFFFFF3400002000000000A3
:1055BC000000000000C201000001030000093D00D2
:0C55CC00C8000000440000204400002043
:1055D80000000000000000000000000000000000C3
:0C55E800000000000000000000000000B7
:1055F4006800002068000020010000000A0000008C
:10560400401600204A1600204016002040160020B4
:0856140000000000000000008E
:04561C0015E015E0A0
:0400000508000AA93C
:00000001FF
