:020000040800F2
:10000000D81A0020550D00083F440008410D000893
:10001000410D0008410D0008410D000800000000DE
:10002000000000000000000000000000210E000899
:10003000410D000800000000C90D0008B51D0008B2
:100040009D0F00089D0F00089D0F00089D0F0008E0
:100050009D0F00089D0F00089D0F00089D0F0008D0
:100060009D0F00089D0F00089D0F00089D0F0008C0
:100070009D0F00089D0F00089D0F00089D0F0008B0
:100080009D0F00089D0F00089D0F00089D0F0008A0
:100090009D0F00089D0F00089D0F00089D0F000890
:1000A0009D0F00089D0F00089D0F00089D0F000880
:1000B0009D0F00089D0F00089D0F00089D0F000870
:1000C0009D0F00089D0F00089D0F00089D0F000860
:1000D0009D0F00089D0F00089D0F00089D0F000850
:1000E0009D0F00089D0F00089D0F00089D0F000840
:1000F0009D0F00089D0F00089D0F00089D0F000830
:100100009D0F00089D0F00089D0F00089D0F00081F
:100110009D0F00089D0F00089D0F00089D0F00080F
:100120009D0F00089D0F00089D0F00089D0F0008FF
:100130009D0F00089D0F00089D0F00089D0F0008EF
:100140009D0F00089D0F00089D0F00089D0F0008DF
:100150009D0F00089D0F00089D0F00089D0F0008CF
:100160009D0F00089D0F00089D0F00089D0F0008BF
:100170009D0F00089D0F00089D0F00089D0F0008AF
:100180009D0F00089D0F00089D0F00089D0F00089F
:100190009D0F00089D0F00089D0F00089D0F00088F
:1001A0009D0F00089D0F00089D0F00089D0F00087F
:0C01B0009D0F00089D0F00089D0F000827
:1001BC007BB972B90029BEBF00204FF0004106E0A8
:1001CC0008BF00281CBF6FF000414FF0FF3000F05B
:1001DC0057B8ADF1080C6DE904CE002909DB002BF2
:1001EC001ADB00F062F8DDF804E0DDE9022304B06C
:1001FC007047404261EB4101002B1BDB00F055F8CE
:10020C00DDF804E0DDE9022304B0404261EB41017A
:10021C00524263EB43037047524263EB430300F0DB
:10022C0044F8DDF804E0DDE9022304B0404261EB60
:10023C0041017047524263EB430300F036F8DDF89E
:10024C0004E0DDE9022304B0524263EB4303704740
:10025C0053B94AB9002908BF00281CBF4FF0FF3121
:10026C004FF0FF3000F00CB8ADF1080C6DE904CE86
:10027C0000F01BF8DDF804E0DDE9022304B0704760
:10028C00704700BF430803F05533C01A00F03333F6
:10029C00800800F03330184400EB10104FF001339D
:1002AC0000F00F305843000E70472DE9F04786469A
:1002BC008C460846089E154674461946002B40F09D
:1002CC00C2808542B2FA82F245D94AB1C2F120030A
:1002DC0000FA02FC2EFA03F3954043EA0C0C94400E
:1002EC004FEA154EA8B2BCFBFEF8230C0EFB18CC43
:1002FC0008FB00F943EA0C43994528D9EB1808F19F
:10030C00FF3704D2994502D9A8F102072B44A3EB7D
:10031C000903A4B2B3FBFEFC0EFB1C330CFB00F078
:10032C0044EA0344A04214D92C190CF1FF3304D233
:10033C00A04202D9ACF102032C44241A43EA074030
:10034C001EB1D440002334607360BDE8F08747468B
:10035C00DDE76346F1E792BB431B01214FEA154EE3
:10036C00AFB2B3FBFEFC200C0EFB1C330CFB07F8EE
:10037C0040EA0343984562D9EB180CF1FF3004D2E4
:10038C00984502D9ACF102002B44A3EB0803A4B2AC
:10039C00B3FBFEFC0EFB1C330CFB07F744EA0344D7
:1003AC00A7424ED92C190CF1FF3304D2A74202D923
:1003BC00ACF102032C44E41B43EA0040C0E7C2F159
:1003CC00200320FA03F1954090402EFA03F30343E7
:1003DC004FEA154EAFB2B1FBFEFC0EFB1C10190C14
:1003EC000CFB07F841EA0041884504FA02F422D9D3
:1003FC0069180CF1FF3004D2884502D9ACF1020027
:10040C002944A1EB08019BB2B1FBFEFC0EFB1C11B5
:10041C000CFB07F743EA01439F420ED9EB180CF192
:10042C00FF3104D29F4202D9ACF102012B44DB1BF9
:10043C0041EA004192E76046E3E76146F7E7604630
:10044C00A3E76346B7E7834206D916B900210846ED
:10045C007BE7C6E900E0F9E7B3FA83F78FB983428B
:10046C0001D3724508D8BEEB020460EB03030120F4
:10047C009C461EB9002168E73846FAE7C6E9004CED
:10048C00F8E7C7F1200CBB4022FA0CF41C432EFAFF
:10049C000CF120FA0CF3B84001434FEA14490EFA60
:1004AC0007F5B3FBF9F81FFA84FE09FB18300B0CA7
:1004BC0008FB0EFA43EA00439A4502FA07F240D9C8
:1004CC00E31808F1FF3004D29A4502D9A8F10200D2
:1004DC002344A3EB0A0389B2B3FBF9F809FB1833E5
:1004EC0008FB0EFE41EA03418E452CD9611808F138
:1004FC00FF3304D28E4502D9A8F10203214443EA0A
:10050C000040A0FB0298A1EB0E014145CE464346AC
:10051C0002D306D14D4504D2B9EB020E68EB0403AD
:10052C000138002EA6D0B5EB0E0261EB030101FAE7
:10053C000CFC22FA07F34CEA0303F940C6E900313C
:10054C0098E74046C5E74346D9E7000008B502489E
:10055C0001F036FF08BD00BF5001002070B582B01D
:10056C008446084614461D461B68DA174FEAEC71A0
:10057C0003FB01F10CFB0211A3FB0C3C6144009347
:10058C000191694600F076FE0646F8B9019AC4F16D
:10059C002001B4F12000009B23FA04F302FA01F1CC
:1005AC0043EA010302D442FA00F0034322410093D0
:1005BC00019213F1004342F100024FF0FF319942D6
:1005CC004FF00003934104D3009B2B60304602B0E4
:1005DC0070BD024803F010FFF6E700BF8867000803
:1005EC0010B582B01A4805F0C9F858B1184883689C
:1005FC001B6818499847011E0BDA174803F0EEFEEA
:10060C0002B010BD154803F0E9FEF9E7144803F0F9
:10061C00E5FE4FF0FF324FF0FF33124801F014FFAC
:10062C000B4883685B681049984701460028EDD158
:10063C000E4C2388019301AB0C22092140F6E440B7
:10064C00FFF78CFF019A2188094803F0C7FEE0E709
:10065C00F060000854680008C4670008AC67000824
:10066C00E467000850010020A8000020900500203D
:10067C000468000800B583B0074803F0AFFE42F2EF
:10068C0010720023CDE90023044802F0F3FC002093
:10069C0003B05DF804FB00BF2468000818010020BB
:1006AC0008B5024B1B68984708BD00BFBC00002072
:1006BC00014B1860704700BFBC00002000B585B02E
:1006CC000A460023009301930293039302238DF8AF
:1006DC000230044B01930146684602F0A7FD05B0B9
:1006EC005DF804FBAD06000880B505460E461746BE
:1006FC00984602F08DF9034600F05AFC0446DFF8E8
:10070C00189049F80030424639463046A84754F80C
:10071C00090000F039FB00BF08000000034A5368D1
:10072C0023F0020353600020704700BF002004E058
:10073C00084B1A6842F400721A601A6842F480621C
:10074C001A601A6842F480721A60034B034A1A60EA
:10075C00704700BF00200240EC00002000093D0063
:10076C0008B50348034A121A002103F054FE08BDD1
:10077C00600100209405002008B50648064A121AAC
:10078C00064903F04CFE0648064A121A064903F0C5
:10079C0046FE08BD0000002060010020D871000852
:1007AC000000002000000020D871000810B504469D
:1007BC00836842680168094803F010FE6369226986
:1007CC00E168074803F00AFEE169064803F006FEFB
:1007DC00A169054803F002FE10BD00BF5C6800086B
:1007EC008C680008BC680008CC68000838B5044662
:1007FC000D4611B10846FFF7D9FF012C04D029464C
:10080C00204601F08BFC38BDEFF30581103902480E
:10081C0003F0E4FDF3E700BFFC68000830BFFFF70E
:10082C00FDBF00BF38B50446054D2A46054905F005
:10083C0070F9054A0021601905F079F938BD00BF3F
:10084C0000000000EC6400080400000070B50646CF
:10085C00064D074B1D444C1B2046FFF7E3FF083C9D
:10086C00C6F8984005F1080070BD00BF00000000FC
:10087C0004000000054B5A699B689A4204D0044A54
:10088C00536843F080535360704700BF5C050020F1
:10089C0000ED00E081690D4B5A6942F480725A6197
:1008AC00BFF34F8FBFF36F8F31F8021C5A6922F4DC
:1008BC0080725A61BFF34F8FBFF36F8F4DF6027387
:1008CC00994201D0002070470120704700ED00E0F4
:1008DC004FF0000C83F800C002F07F4CBCF17F4F4E
:1008EC0012D102F00C0CBCF1080F04D012F0080F5E
:1008FC0007D00846704708B5044803F06FFD002088
:10090C0008BD01221A70704700207047106900085A
:10091C00F8B505460F461446324803F05FFD324BDE
:10092C009B6A13F0100F31D110262F4B9B6A13F0DA
:10093C00080F30D12C4B9B6A13F0020F30D12A4B8D
:10094C009B6A13F0010F43D1274B9B6A13F0200FC6
:10095C0043D1254B9B6A13F0100F01D1224B9B6A9C
:10096C00214B9B6A13F0200F04D01F4A536A23F4C7
:10097C00005353621C4A936A43F0FF0393620121B4
:10098C00284603F05CFD20703046F8BD174803F094
:10099C0025FD1126C9E7164803F020FD1226C9E7EC
:1009AC00144803F01BFD104B596B9B6A13F0800F1E
:1009BC0001D11326C3E7104803F010FD37B10A4AE2
:1009CC00936A23F0800393621326B8E71326B6E7E5
:1009DC000A4803F003FD1426B6E7094803F0FEFCB1
:1009EC001526B6E73C69000800ED00E054690008E4
:1009FC00886900089C690008B8690008D06900087B
:100A0C00F0690008F8B505460F4614462F4803F068
:100A1C00E5FC2F4B9B6A13F4805F25D116262C4BDB
:100A2C009B6A13F4006F24D1294B9B6A13F4007F4B
:100A3C0024D1274B9B6A13F4806F37D1244B9B6ACC
:100A4C0013F4807F37D1224B9B6A13F4005F37D1AC
:100A5C001F4A936A43F47F4393620121284603F0B3
:100A6C00EEFC20703046F8BD1A4803F0B7FC172690
:100A7C00D5E7194803F0B2FC1826D5E7174803F060
:100A8C00ADFC134B996B9B6A13F4004F01D11926E3
:100A9C00CFE7134803F0A2FC37B10D4A936A23F455
:100AAC00004393621926C4E71926C2E70D4803F0E8
:100ABC0095FC1A26C2E70C4803F090FC1B26C7E7EE
:100ACC000A4803F08BFC1C26C2E700BF206A000812
:100ADC0000ED00E0386A0008886900084C6A0008DC
:100AEC00686A0008806A00089C6A0008F0690008BF
:100AFC0008B5244803F072FC234B9B6A13F0007F6B
:100B0C0021D11D20204B9B6A13F0807F20D11E4BDE
:100B1C009B6A13F4002F20D11B4B9B6A13F4802F7C
:100B2C0020D1194B9B6A13F4003F20D1164B9B6AC2
:100B3C0013F4803F20D1144A936A6FEA03436FEA9F
:100B4C001343936208BD114803F048FC1E20D9E7FB
:100B5C000F4803F043FC1F20D9E70E4803F03EFC7E
:100B6C002120D9E70C4803F039FC2220D9E70B48A7
:100B7C0003F034FC2320D9E7094803F02FFC242090
:100B8C00D9E700BFB86A000800ED00E0D46A00089D
:100B9C00E86A0008046B0008246B00084C6B000822
:100BAC00686B000870B506460D46264803F016FC27
:100BBC0000232B70244BDC6A14F002040AD1224B64
:100BCC00DB6A002B0BDB204BDC6A14F080440AD16F
:100BDC00204670BD1D4803F001FC0024F8E71C48BA
:100BEC0003F0FCFBF4E71B4803F0F8FB3046FFF77F
:100BFC0051FE98B9144B9B6A13F0FF0F14D1124B92
:100C0C009C6A14F47F4416D10F4B9B6AB3F5803F5A
:100C1C00DED33046FFF76CFF0446D9E731680E4847
:100C2C0003F0DCFB3468D3E72A4601213046FFF79A
:100C3C006FFE0446CCE72A4601213046FFF7E2FE60
:100C4C000446C5E7946B000800ED00E0AC6B0008AF
:100C5C00D06B0008E06B0008006C000808B500239E
:100C6C000B70024803F0BAFB08BD00BF206C0008F3
:100C7C0008B50A460F2905DC0349103A034803F06E
:100C8C00ADFB08BD0249F8E7486C00087C6C000815
:100C9C00606C000830B58BB01F4B5D68C5F3080560
:100CAC00002383F31188BFF36F8F0DF12603FFF739
:100CBC000FFE04460DF12702294603F0C2FB9DF8F6
:100CCC0027300BB10BB030BD05460DF1040C20687C
:100CDC006168A268E368ACE80F0020696169A269E9
:100CEC00E369ACE80F009DF826304BB1089BC3F3C9
:100CFC0008025AB96FEA53236FEA4323089305E0BD
:100D0C00089B23F4FF7323F00103089301A92846E1
:100D1C00FFF76CFDD6E700BF00ED00E0044B5A690D
:100D2C0042F010025A615A6922F008025A61704767
:100D3C0000ED00E0EFF30880EFF3098101B5724696
:100D4C00FFF7A8FF01BD00BF0C4880F30888002006
:100D5C000B490870102080F311880A484FF4006189
:100D6C00401880F30988EFF314800221084380F3C4
:100D7C001488BFF36F8F00F08FF80000D81A002092
:100D8C00920500209809002008B50A4B9B68834205
:100D9C0002D001F043FE08BDEFF30583002BF8D021
:100DAC00054B5A6842F080525A605A6A22F400424B
:100DBC005A62EEE75C05002000ED00E012498A68FB
:100DCC004FF030001044EFF3098C80E8F01F102036
:100DDC0080F31288BFF36F8F0C4F4FF000664A6997
:100DEC008A603E60D2F89800094C2060D2F89C00D2
:100DFC000023C2F89C3080F3118802F1300090E897
:100E0C00F01F8CF3098870475C05002004ED00E0AE
:100E1C00300400201EF0040F0CBFEFF30880EFF33A
:100E2C000980816911F8021C0229FFD001B57246B4
:100E3C0003F0F9FA01BD00BF002807DB00F01F0228
:100E4C00400901239340024A42F82030704700BF0A
:100E5C0000E100E0002808DB0901C9B200F16040A4
:100E6C0000F5614080F80013704700F00F00090195
:100E7C00C9B2014B1954704714ED00E0044B23F038
:100E8C007F03044A9360BFF34F8FBFF36F8F70479C
:100E9C000000000800ED00E008B5FFF7EFFF0B4A7B
:100EAC00D2F8883023F47003C2F88830EFF314833F
:100EBC0023F0040383F31488BFF36F8FFFF750FC08
:100ECC00FFF75AFC00F04AF801F042FA00ED00E09E
:100EDC0010B4A2F120040E4942F8081C21F00101C3
:100EEC0042F8081C42F8203C019B42F81C3C029B37
:100EFC0042F8183C039B42F8143C4FF0807342F8C4
:100F0C00043C04650023C0F89C3010BC704700BF43
:100F1C00F506000800B50E4615460B4B9860D0F848
:100F2C0098200A4B1A602C4686F309880020044B43
:100F3C0098472046002100220023024C2047000045
:100F4C00C1440008F50600085C05002030040020B0
:100F5C00014B10221A61704700ED00E0002206E000
:100F6C0003F00F030949194410230B7601325E2A52
:100F7C000ADC53B2002BF3DB03F1604303F561434E
:100F8C00102183F80013F1E7704700BFFCEC00E080
:100F9C0008B5EFF30583103B044A02EBC301496823
:100FAC0052F833008847FFF765FC08BD0C61000858
:100FBC0001480068704700003004002008B5024B5F
:100FCC001B689847002008BD34040020034B1860B0
:100FDC00034A937843F00203937070473404002063
:100FEC00C000002008B5064921F00701C1F10052EC
:100FFC0002F54032034803F0ADF9002008BD00BFF4
:10100C00DF1A00203804002000B583B0094B93E8A8
:10101C00030002AB03E90300074B9B681B682BB171
:10102C0069460548984703B05DF804FB6FF057001C
:10103C00F9E700BFF0640008845F000800F01F02AD
:10104C00012393403F2811D81F2807D8084A52691A
:10105C00934301D00020704701207047044A526B23
:10106C00934301D000207047012070470020704747
:10107C000004014000F01F02012393403F2809D8CF
:10108C001F2803D8054A536100207047034A536355
:10109C00002070476FF01500704700BF000401403E
:1010AC00002399420ADD10B400EB030C044C04F845
:1010BC000C2001339942F7DC10BC7047704700BF1D
:1010CC00D0000020F8B50746002401E00134E4B25A
:1010DC007B78A34217D93D7866193046FFF7AEFFEF
:1010EC000028F3D03046FFF7C5FF074B53F83620E6
:1010FC00002AEBD006F01F0503EBC603596801204C
:10110C00A8409047E2E7F8BD4404002001F0030C2E
:10111C000CF102020A4B53F822200B0C22EA11416B
:10112C0093FAA3F34BB1B3FA83F3984001430CF158
:10113C00020C034A42F82C1070472023F5E700BF3D
:10114C000000014000F003030233074A52F8232049
:10115C00030C02EA104093FAA3F31BB1B3FA83F326
:10116C00D84070472023FBE70000014008B5034638
:10117C0068B1B0FA80F2C2F11F02D2B205498856AA
:10118C00054A11680B43136003F080F908BDFF2278
:10119C00F4E700BFD000002000040140024A1368AD
:1011AC0023EA00031360704700040140032926D88A
:1011BC00DFE801F0020C151E114B9A6822EA0002BE
:1011CC009A60DA6822EA0002DA6070470C4B9A687F
:1011DC0002439A60DA6822EA0002DA607047084B30
:1011EC00DA680243DA609A6822EA00029A60704771
:1011FC00034B9A6802439A60DA681043D8607047D0
:10120C000004014010B498B1B0FA80F3C3F11F038D
:10121C00DBB29C460D4850F8330088420AD088B99E
:10122C000A4B43F83C1003EBCC035A6010BC7047DC
:10123C00FF23EEE7054C04EBC3035B689342EED14E
:10124C000020F3E76FF00F00F0E700BF440400202C
:10125C0060B1B0FA80F3C3F11F03DBB2044A002182
:10126C0042F8331002EBC30251607047FF23F5E7DD
:10127C0044040020142817D838B502460C460C4BF1
:10128C0013F8101000252068A1FB000C03EB42039F
:10129C005A782B46D4F804E001FB0EC1FEF788FF08
:1012AC00C4E90001284638BD6FF01500704700BF37
:1012BC00CC6C000800B583B041680B4B9B68DB68B5
:1012CC001BB1083101AA08489847019A42B1074B53
:1012DC001B68B3FBF2F39B0000E0013B002BFCDA34
:1012EC0003B05DF804FB00BF845F0008EC00002035
:1012FC0043681A6861B17F21936823F0404323F05F
:10130C003F0301F080410B4343F00043936003E043
:10131C000449F1E7012323B19368002BFADB002386
:10132C00F9E7704700007F4070B54468266879B1D2
:10133C000D46082919D80121304603F0C3F90C4B8E
:10134C0053F8252094F94330012B06D0002070BDB2
:10135C00304603F0B7F90020F9E7064B53F8251097
:10136C00304603F0B7F90020F1E76FF01500EEE717
:10137C00A06D00087C6D000870B544681A4B9D6820
:10138C002B6843B304F1080117489847064610BB75
:10139C0094F8453013F0010F07D004F11001AB693C
:1013AC00E3B1002210489847C0B994F8453013F0C7
:1013BC00020F07D004F11801AB6993B100220A485F
:1013CC00984770B9236A09498A6822F47C1213433E
:1013DC008B60304670BD6FF00406FAE76FF00406C0
:1013EC00F7E76FF00406F4E7845F0008000304508D
:1013FC002DE9F04147680369D7F80080D3F8A05075
:10140C00002614E00122A24042EA846204EB440369
:10141C001E3B42EA035242F0007297F94230012B14
:10142C001CD00123A34025EA03050136F6B235B3DF
:10143C0095FAA5F4B4FA84F40DB94FF0FF340134E5
:10144C00E4B2013CE4B2092CDCD80122A24042EA0D
:10145C00846204EB440342EA0352DEE7094B53F87F
:10146C002610404603F0ACF8074B53F82630D8F85A
:10147C00302022F00F021343C8F83030D1E7BDE81A
:10148C00F08100BF046E0008C46D000870B50546FD
:10149C0042B31B4E092927D801248C4044EA8164AD
:1014AC0001EB410144EA0154D5F8B0302340C3F3B9
:1014BC0012039E4215D0284603F0C7F8D5F8B03079
:1014CC00C4F3120223EA020306F018060D4AF24096
:1014DC001440C4F312042343C5F8B030284603F07B
:1014EC00C2F970BD7F26D5E701248C4044EA8164A3
:1014FC0001EB41011E3944EA015444F00074D3E776
:10150C0000007F40FFFF070000B583B003460830A2
:10151C009B6F63332CBF4FF0010C4FF0000CC3F3E7
:10152C001302190D41EA0C311144114AA2FB01E2DC
:10153C00D20802EB820202EB82028A1A9B1A6CF12D
:10154C00000C0C490C4A03FB02F201FB0C22A3FB1E
:10155C0001310A449B0843EA82739208009301927A
:10156C000022002301F086FD03B05DF804FB00BFF0
:10157C001F85EB51295C8FC2F5285C8F08B502489A
:10158C0003F054FB08BD00BFF0600008104B1B6853
:10159C0013F4806F0ED10E4A136843F480731360FA
:1015AC0001E0012B06D00A4B1B6813F48063F8D0C2
:1015BC000123F6E7064A936823F0030343F0010383
:1015CC009360034B9B6803F00C03042BF9D1704719
:1015DC00001002401C4B1B6813F4806F0ED11A4A8A
:1015EC00136843F48073136001E0012B06D0164B93
:1015FC001B6813F48063F8D00123F6E7124AD2F883
:10160C00943043F00103C2F8943001E0012B07D071
:10161C000D4BD3F8943013F00203F7D00123F5E708
:10162C000949D1F8982042F00102C1F8982001E054
:10163C00012A07D0044AD2F8982012F00202F7D0FF
:10164C001A46F5E7704700BF0010024070B50C4613
:10165C001546404B1E680121304603F016FB2388CB
:10166C00C3F30B03013B5F2B6ED8DFE803F0445848
:10167C005B5F666240696B6D464F6D6D6D6D6D6D38
:10168C006D6D6D6D6D6D6D6D6D6D6D6D6D6D6D6D7E
:10169C006D6D6D6D6D6D6D6D6D6D6D6D6D6D6D6D6E
:1016AC006D6D6D6D6D6D6D6D6D6D6D6D6D6D6D6D5E
:1016BC006D6D6D6D6D306D6D6D306D6D6D3E6D6DF7
:1016CC006D6D6D6D6D406D6D6D406D6D6D422E600F
:1016DC002368B3F5805F3AD32A68C3F3133301331D
:1016EC00B2FBF3F22A60002030E02E60F0E72860B5
:1016FC00EEE72860ECE72E60EAE700F0B3F802238F
:10170C002822042103F0BAFA2860E1E700F0AAF8D5
:10171C0002232822042103F0B1FA2860D8E7002321
:10172C002B60D5E74FF4FA432B60D1E70A4B2B60C3
:10173C00CEE703F0ADFA2860CAE7084B2B60C7E789
:10174C002E60C5E72E60C3E76FF0850070BD0020EA
:10175C00FCE700BFEC0000200024F400006CDC026D
:10176C0010B51B4B9B6803F00C030C2B05D0184ACF
:10177C00136823F08073136008E0FFF707FF144A27
:10178C00936823F0F0039360F1E733B1104B1B68BF
:10179C0013F00073F9D00123F7E70D4CE36823F441
:1017AC00C003E360E36843F48013E36000F05EF889
:1017BC00236843F08073236001E0012B06D0044BB7
:1017CC001B6813F00073F8D00123F6E710BD00BFBF
:1017DC000010024038B500F073F81E4C204603F0A0
:1017EC00E3FA00F0DBFB1C4B9B68C3F303131B4AAF
:1017FC00D35C20FA03F513781C41A54222D3FFF7E2
:10180C00E9FEFFF7ADFF144B9A6822F0F0029A60E4
:10181C009A6842F003029A600F4B9B6803F00C032A
:10182C000C2BF9D1A54211D20D4B0A4A1A600A4B66
:10183C009A6822F4E0629A609A6822F460529A6084
:10184C00002038BD204600F003FCD8E7204600F00D
:10185C00FFFBE9E700B4C40400100240A8700008C4
:10186C00EC000020004870470024F40008B5104A32
:10187C00D2F8803023F48073C2F8803003F095FAEC
:10188C000C4BD9680C4A0A4040F4205040F0300010
:10189C000243DA60DA6842F48012DA60D968074AE7
:1018AC000A400243DA60DA6842F08072DA6008BDFE
:1018BC0000700040001002400C809FFF0C80FFF96C
:1018CC0082B0064B9A6D42F080529A659B6D03F084
:1018DC0080530193019B02B0704700BF001002407F
:1018EC0010B504460A2806D0E1B2064883685B6846
:1018FC009847204610BD034883685B680D219847C4
:10190C00F2E700BFD460000810B5044C2046FFF786
:10191C005DFB2046FEF7CCFE10BD00BFED180008A5
:10192C0008B5054803F02AFF18B1FFF7EDFF0020BA
:10193C0008BD6FF01200FBE7D460000808B54368DF
:10194C0041B103F10C010B4B9B681B685BB109485F
:10195C00984708BD03F10C01064B9B685B682BB1E3
:10196C0004489847F5E76FF05700F2E76FF057001F
:10197C00EFE700BF845F000808B5044A536843F4DE
:10198C0000735360024903F035FA08BD0070004043
:10199C00814F00082DE9F84380460F4616461C4639
:1019AC00D0F80490D9F8080002F0EAFDB6F5001F53
:1019BC000FD00546B6F5800F2DD0B4F1806F26D030
:1019CC00B4F1C06F25D0B4F1007F09D06FF01504CD
:1019DC001AE03946D9F8080003F0FBFB002413E0A9
:1019EC00022642460F492846FFF70CFC0446A8B9CC
:1019FC00D9F80810384602F0C8FD31462846FFF7E2
:101A0C00D5FB2846FFF7B2FB2046BDE8F88301263C
:101A1C00E7E70326E5E76FF08504F5E76FF00F04C1
:101A2C00F2E700BFA34E0008B0F5D07F17D2F8B58F
:101A3C0004460D46164603090A4A52F823705FB154
:101A4C00384603F09BFE38B133462A4604F00F01AA
:101A5C00384603F0D6FBF8BD6FF01200FBE76FF0D1
:101A6C0015007047986F00082DE9F84306460C46A0
:101A7C0043681D680369D3F800900B79012B17D0CC
:101A8C00022B18D14FF480616279012A18D0022AF6
:101A9C0018D092B14FF4005794F80680B8F1020FA9
:101AAC0013D0B8F1040F16D0002B62D1002014E033
:101ABC004FF4C061E8E70021E6E74FF48057EBE70D
:101ACC000027E9E74FF44057E6E70BB1002004E0AC
:101ADC004FF0805001E04FF48050A3F1030C5FFAFB
:101AEC008CFCBCF1010F65D913B1B8F1040F64D0B3
:101AFC00B7F5805F42D0B7F5405F41D0002F3BD0A7
:101B0C0003239A425CD103F057FC80455BD1E37907
:101B1C00D3B1012B36D0032B58D1314B9D4213D06E
:101B2C00A3F574439D420FD003F580639D420BD007
:101B3C0003F580639D4207D003F580639D4203D07B
:101B4C0003F540539D4244D12B6823F001032B60D5
:101B5C002146304603F045FC00283DDB2B6843F062
:101B6C0001032B6094E8030089E803000020BDE822
:101B7C00F8834FF48050B0E70123C2E70023C0E79D
:101B8C000223BEE7164A9542DED0A2F57442954276
:101B9C00DAD002F580629542D6D002F58062954289
:101BAC00D2D002F580629542CED002F540529542D9
:101BBC00B1D1C9E76FF08500D9E76FF08500D6E7A2
:101BCC006FF08500D3E76FF08500D0E76FF08500EC
:101BDC00CDE76FF08500CAE76FF08500C7E700BF5F
:101BEC000038014008B5024A03F0FFFC08BD00BFF5
:101BFC005756000808B5024A03F00AFD08BD00BF9D
:101C0C005D560008F8B5064645682C6803691F68E0
:101C1C00236823F001032360A86803F0AFFD0028BC
:101C2C0078D0E968A86803F088FB54E8003F43F0DB
:101C3C000C0344E80032002AF7D13946304603F051
:101C4C00D0FB002869DB2B7E1BB1A36843F0080393
:101C5C00A3606B7E1BB1636843F400436360AB7E8F
:101C6C001BB1636843F480336360EB7E1BB1636824
:101C7C0043F4003363602B7F83B32B4B9C4213D014
:101C8C00A3F574439C420FD003F580639C420BD0A8
:101C9C0003F580639C4207D003F580639C4203D01C
:101CAC0003F540539C423BD173681A68936843F424
:101CBC00804393606A7F236823F0787343EA42532E
:101CCC002360AA7F236823F4F81343EA02432360BA
:101CDC00EB7F1BB1A36843F40043A36095F820305D
:101CEC001BB1236843F000532360236843F00103C6
:101CFC00236000E033B9E36913F40013FAD0012335
:101D0C00F8E72AB9E26912F48002FAD01A46F8E729
:101D1C000020F8BD6FF01200FBE76FF01500F8E73C
:101D2C006FF01500F5E700BF003801404FF0E023DD
:101D3C00996918699A6909B90C4B19680AB90B4B5E
:101D4C001A6810F4803F01D1914208D208490B68FF
:101D5C000648006803440B604FF0E0231B69034BFB
:101D6C001B689B1A024A10681844704758050020DB
:101D7C0054050020094B102283F82320084B4FF404
:101D8C00FA521A600020074B18604FF0E02341F61E
:101D9C003F725A61986107221A61704700ED00E0AA
:101DAC005805002054050020684620F007018D4698
:101DBC0019B5FFF7BBFF12480368124A5168146843
:101DCC001B1941F1000113605160002202600E49A1
:101DDC000A68981A0D4BA3FB0030400A4FF4FA53D3
:101DEC0000FB03F3D2184B6843F100030A604B600D
:101DFC0001F030F8FEF73EFDBDE81940854670470E
:101E0C00540500201002002008020020D34D62105F
:101E1C00F8B500294DD0B0F1FF3F3FD03F4B1C68C7
:101E2C0001284EDD40F631039842A8BF1846461EE5
:101E3C00EFF31185102383F31288BFF36F8FFFF735
:101E4C0075FF4FF0E0239F69354A13685168C3183A
:101E5C0041F10001136051600021324A1160324A95
:101E6C0011685A1A2FD44FF4FA5000FB062202F5CF
:101E7C00F9521F322D4EA6FB0262520AC91A00FB00
:101E8C0002110A46B1F5806F38BF4FF48062284BBF
:101E9C00994236D9214B264A1A6018E04FF0E022BD
:101EAC00136923F0010313611C4B4FF07F421A603E
:101EBC0026E01A4B1C68B0F1FF3FB1D14FF4036020
:101ECC00B0E70026B4E7154B4FF480621A604FF070
:101EDC00E0239969114A1268013A5A6100229A6109
:101EEC008F4211D2641A3C440D4A136851681B1975
:101EFC0041F100011360516085F31188BFF36F8FBE
:101F0C00F8BD064B1A60E2E77F1A054A1368516860
:101F1C00DB1941F1000113605160EDE75805002019
:101F2C00100200205405002008020020D34D62103E
:101F3C0000DCFF0038B5EFF31185102383F3128812
:101F4C00BFF36F8F084B1C68084B1B68E41AFFF734
:101F5C00EDFE204485F31188BFF36F8F044BA3FB78
:101F6C000030400A38BD00BF1002002008020020DB
:101F7C00D34D621038B5EFF31185102383F312881B
:101F8C00BFF36F8F044B1C68FFF7D0FE204485F322
:101F9C001188BFF36F8F38BD10020020284A936858
:101FAC00D26802F0030213F00C030AD00C2B06D0FB
:101FBC00042B1FD0082B20D00020024610E0012A51
:101FCC00F6D11F4A126812F0080F0CD11C4AD2F835
:101FDC009420C2F303221B4951F8222043B1002064
:101FEC000C2B0DD07047164A1268C2F30312F2E79D
:101FFC001046F5E714480022F2E714480022EFE7F8
:10200C000F4BDB6803F00303022B16D0032B00D11C
:10201C000E4A0B49CB68C3F303130133C868C0F3F2
:10202C00062002FB00F0B0FBF3F0CB68C3F3416376
:10203C0001335B00B0FBF3F0D4E7034AE9E700BFE0
:10204C0000100240787000080024F40000127A009E
:10205C00421E274B9A4249D8264B1B6803F4C06397
:10206C00B3F5007F0BD0244B984229D8234B9842D0
:10207C0035D8234B984235D80021084622E0214B15
:10208C0098420ED8204B98420ED8204B98420ED82E
:10209C001F4B98420ED81F4B98420ED80021084671
:1020AC0010E0052100200DE0042100200AE00321AE
:1020BC00002007E00221002004E00121002001E0C3
:1020CC0000210120144A136823F00F030B43136003
:1020DC00136803F00F03994207D0012070470221C7
:1020EC000020EFE701210020ECE77047012070474A
:1020FC00FF0D27070070004080BA8C010024F4000B
:10210C0000127A0000E1F50500B4C40400879303C3
:10211C00005A6202002D31010020024038B5EFF365
:10212C001185102383F31288BFF36F8F054B9C68C6
:10213C0003F03CFB85F31188BFF36F8F2046FEF74D
:10214C0023FE38BD5C05002010B586B0A823104CCA
:10215C0003FB004400EB800C0E4B03EB8C030E4A8C
:10216C000592012204920F22039200220292019204
:10217C0000930A4B4FF4A072094901EB8C112046D5
:10218C0000F08AF9237C23F00403237406B010BDFD
:10219C00180200205C050020B8700008BF5700082A
:1021AC009811002038B505460B4B53F8204002E03F
:1021BC002368984708346B1C074A52F82330A34213
:1021CC0009D960680028F3D0037E13F0010FF1D118
:1021DC0003F0BBFAEEE738BDC870000808B553EA47
:1021EC00020102D100F0F0FB08BD0249183000F0EA
:1021FC0097FDF9E78359000810B586B0184C14E028
:10220C00636A0593236A0493E3690393A3690293B6
:10221C006369019323690093E368A268616820688D
:10222C0000F03AF923685C6530340E4B9C42E7D3DE
:10223C0000F072FB0A4C00E030340A4B9C420BD28B
:10224C00A26AE36AB3F1FF3F08BFB2F1FF3FF3D0DC
:10225C002068FFF7C3FFEFE700F076FB06B010BD78
:10226C00086400083864000808B50A4B01221A708B
:10227C000320FFF797FF00F035FF0420FFF792FFD4
:10228C00FFF7BAFFFEF7F6F9034A938923F001032F
:10229C00938108BD92050020C002002008B50146BC
:1022AC00014A0248FEF736FE75220008C0020020E3
:1022BC0010B50446FFF748FFA8230A4903FB041195
:1022CC00094A04EB840302EB8303D9601C74074BAB
:1022DC0003EBC42303F5006304EB840402EB8402D8
:1022EC00536010BD180200205C05002098090020E6
:1022FC0070B586B000F060FB104D114B5D61114B59
:10230C0005930123049300240394029401940094F4
:10231C000D4B4FF400620D49284600F0BDF80646FF
:10232C002B7C23F004032B74284603F0CFFA2046B1
:10233C00FFF7BEFF304606B070BD00BFC0020020E4
:10234C005C050020C070000875220008D81200201F
:10235C0008B50020FFF726FF164B83F30888164CB0
:10236C00636943F400736361F02384F82230002323
:10237C00E37723766376A37684F82030636A43F49C
:10238C00E0236362FEF7CAFCFEF7E2FD4FF0FF3379
:10239C00A362E362094800F0E1F8FEF7C9F90120F5
:1023AC00FFF700FF0220FFF7FDFEFFF7A1FFFFF78D
:1023BC0075FF00BF9811002000ED00E068030020BD
:1023CC00F8B50446EFF31187102383F31288BFF39B
:1023DC006F8F0568A84212D02E1E18BF012685B932
:1023EC0006BBA368E268934224D001221344A36085
:1023FC0000230BBB87F31188BFF36F8FF8BD00254B
:10240C00EAE76A682B6813605A6000232B606B60E4
:10241C002A7C22F002022A74AB6005F1180003F04A
:10242C0027FBDDE70023C5F8A030284603F04EFA61
:10243C000123DEE70022D9E73946024800F040FAD2
:10244C00DCE700BF8005002010B582B0EFF31181EE
:10245C00102484F31288BFF36F8F846844B1013C5D
:10246C00846081F31188BFF36F8F002002B010BD20
:10247C0053EA020406D0009201930246054800F08C
:10248C0003FAF3E781F31188BFF36F8F6FF00F003E
:10249C00ECE700BF800500202DE9F04F85B0044625
:1024AC000F4615461E46DDF838A0DDF83C90DDF8E9
:1024BC004080DDF84CB000F158038365C365129B76
:1024CC000422119903F08FF92A463946204603F06D
:1024DC007DF90546CDF80880CDF80490CDF800A024
:1024EC003346024639462046FEF7F2FC002363656C
:1024FC002666C4F864A0C4F86890C4F86C80EFF346
:10250C001182102383F31288BFF36F8F124B196A59
:10251C0021671C6282F31188BFF36F8FBBF1000F30
:10252C0013D01F22594604F1740003F008FB00235A
:10253C0084F89330084B9B685BB1D3F89430C4F8A3
:10254C009430284605B0BDE8F08F002384F8743031
:10255C00F0E7C4F89430F4E75C0500200123037421
:10256C0083810023C0F89430014B9860704700BF02
:10257C005C0500200A4A9368C3F89C006FF00A01BE
:10258C00C3F8A01007494B6843F080534B600023FD
:10259C0083F31188BFF36F8F9368D3F8A000704753
:1025AC005C05002000ED00E0037C90F91020002A6F
:1025BC0051DB13F01F0F4ED110B563F07F03037482
:1025CC00254A52F8183F93420ED100230CE05A686A
:1025DC0042600360106058601EE01A461E49C969CB
:1025EC008A420FD01B687BB173B190F90E1093F92E
:1025FC000E209142F1D0521A002AE8DC1A46002B28
:10260C00ECD1F0E70023EEE7134BDA6903F1180184
:10261C00016042601060D8610F4B53F8184F9C4218
:10262C000ED06CB10C4B9B681A7C12F01F0F0AD1A8
:10263C00DA897F2A07D9A2692AB9074A536109E0C6
:10264C00054BDC68EEE7A34202D0204600F0CEFA40
:10265C00014B5C6110BD70475C05002010B5037C1C
:10266C0090F91020002A14DB154B9A6853F8184F78
:10267C009C4219D0C4B1824219D0137C13F01F0FA5
:10268C0015D1D3897F2B12D9A36983B90C4B5A610D
:10269C0014E003F07F0303744268036813605A600C
:1026AC00002303604360DFE7054BDC68E3E7A242ED
:1026BC0002D0204600F09AFA014B5C6110BD00BFBD
:1026CC005C0500202DE9F84305460C46414B9E68FD
:1026DC00337C13F0600F2BD013F0200F2DD0082774
:1026EC001F4225D13B43337413F0800F27D1082FA1
:1026FC0030D04FF00009374B53F8188F98454ED017
:10270C00B8F1000F4BD0334B9B68434502D0404689
:10271C0000F06CFA2F4BC3F81480102F08D0304601
:10272C0001F0C5FE304600F0BBFAB9F1000F3AD10A
:10273C0084F31188BFF36F8F46E01027D0E703F0C6
:10274C007F0333747268336813605A6000233360FC
:10275C007360CCE7B3685BB17268336813605A601E
:10276C00002333607360327C22F002023274B36057
:10277C00304603F077F806F1580003F078F8154B63
:10278C009B689E4202D04FF00009B4E7EFF305833B
:10279C0013B94FF00009AEE74FF00109ABE70D4B51
:1027AC00D3F80C80AFE70C48FFF7D8FEC0E7EFF387
:1027BC001184102383F31288BFF36F8F03F004F896
:1027CC0084F31188BFF36F8F2B7C13F0600FEED165
:1027DC00BDE8F8835C05002068030020B3F1FF3FDF
:1027EC0008BFB2F1FF3F00D1704708B5024918305D
:1027FC0000F096FA08BD00BF8359000810B5214BB4
:10280C009A68DB699A4205D01368516812680A60AD
:10281C00516006E00023F8E71A4AD269934212D0BD
:10282C001B6893B1174A906890F90E1093F90E201B
:10283C009142F1D0521A002AEEDD5A6842600360D0
:10284C00106058600AE00023EBE70E4B9A68D969D8
:10285C0003F11800106051600A60DA61094B53F8FB
:10286C00184F9C420AD04CB1064B9B689C4202D03C
:10287C00204600F0BBF9034B5C6110BD014BDC68DA
:10288C00F2E700BF5C05002010B50C4611460A4863
:10289C0082680A4B1A60EFF31183102383F31288BA
:1028AC00BFF36F8FDDE90223806803F003F8204645
:1028BC00FFF760FE10BD00BF5C0500208005002006
:1028CC0008B50B4659B9EFF3058242B9064A50696F
:1028DC009268904203D00846FFF74CFE03E083F366
:1028EC001188BFF36F8F08BD5C05002008B5034647
:1028FC0050B9EFF305823AB9064A51699268914290
:10290C0002D0FFF737FE03E083F31188BFF36F8F1C
:10291C0008BD00BF5C0500200023EFF311811022DD
:10292C0082F31288BFF36F8F09E0064B9A68D37B52
:10293C00013BD37381F31188BFF36F8F0123002BFD
:10294C00F3D070475C05002038B50023EFF31185F8
:10295C00102282F31288BFF36F8F0EE0154BDC68E8
:10296C0017E0A24202D0204600F040F9114B5C6106
:10297C0085F31188BFF36F8F0123BBB90D4B9A6898
:10298C00D17B0131D17353F8184F9C42E6D0002C07
:10299C00E4D0137C13F01F0FE3D1D3897F2BE0D944
:1029AC00A369002BDDD1034B5A61E1E703F01FF85B
:1029BC0038BD00BF5C05002008B5024803F022F8C2
:1029CC0008BD00BF7005002038B5EFF3118510234A
:1029DC0083F31288BFF36F8F037C13F0040F04D1C1
:1029EC0085F31188BFF36F8F38BD0446183003F0A0
:1029FC003FF8237C23F0040323742046FFF7D4FD17
:102A0C0029460248FFF75CFFEEE700BF8005002077
:102A1C00014B9868704700BF5C0500202DE9F84316
:102A2C00838903F00107EFF31186102383F31288D7
:102A3C00BFF36F8F057C15F0080F1AD10446B14611
:102A4C0000F1580802F0DAFE10B345F020052574A9
:102A5C00EFF305839BB131462046FFF733FE67B198
:102A6C00002383F31188BFF36F8F0423184602DF12
:102A7C0003E086F31188BFF36F8FBDE8F8834146FE
:102A8C003F4B986802F0BCFE3046FFF773FDE6E75B
:102A9C0045F00803237413F0800F36D1A3685BB1A3
:102AAC006268236813605A60002323606360227C91
:102ABC0022F002022274A36004F1180002F0D8FF85
:102ACC00404602F0D4FE2E4B9A6894422AD000263F
:102ADC002B4B53F8185F9D422BD055B3AA4202D012
:102AEC00284600F083F8264B5D61204601F0DFFCA0
:102AFC00204600F0D5F8FEB9214B9B689C421FD0B4
:102B0C0089F31188BFF36F8FA9E705F07F0545F0B6
:102B1C00080525746268236813605A6000232360DB
:102B2C006360BBE7EFF305830BB90026D0E7012602
:102B3C00CEE7134BDD68D1E71248FFF70FFDDBE75B
:102B4C00EFF30583002BDBD1A38913F0010F12D017
:102B5C0089F31188BFF36F8F002383F31188BFF3C0
:102B6C006F8F0423184602DFEFF31189102383F3D0
:102B7C001288BFF36F8F4846FFF7FCFC6FE700BF6E
:102B8C005C050020680300200346027C12F01F0F36
:102B9C0010D10B4A90420FD00A4A106878B1DA89EA
:102BAC007F2A0BD893F90E20074B1B689A4206DA42
:102BBC0000207047002070470020704700207047AD
:102BCC0018020020F000002088050020044BC01AD9
:102BDC00C010044B03FB00F0034B01221A54704746
:102BEC0010040020ABAAAAAA8405002070B50C4BD7
:102BFC001E7CFFF7C9FF044606EB4603094D05EBA7
:102C0C00C305284602F034FF074B00229A5504B93D
:102C1C0070BD621ED3170549284600F081F8F7E70E
:102C2C005C0500201004002084050020D92B00082E
:102C3C0038B5EFF31185102383F31288BFF36F8F30
:102C4C00144B9C68144B1B68A34217D0124B0022E8
:102C5C001A60104B1B7C114AD35C53B12046FFF712
:102C6C0093FF30B1237C13F01F0F0FD02046FFF7DA
:102C7C00BDFF85F31188BFF36F8F38BD2046FFF77A
:102C8C00B5FF85F31188BFF36F8FF6E7FFF7B6FD3D
:102C9C00ECE700BF5C0500208005002084050020C7
:102CAC00EFF31181102383F31288BFF36F8F0A4B5C
:102CBC001B6A834204D11A6F074B1A6207E0134652
:102CCC0013B11A6F8242FAD10BB1026F1A6781F3FA
:102CDC001188BFF36F8F70475C050020034B186899
:102CEC00984200D070470020FCE700BFF4000020A1
:102CFC0030B1044A5268904201D0006870470020FD
:102D0C00704700BFF400002008B5044B1B680BB1E2
:102D1C00002008BDFFF70EF9FBE700BF8C05002073
:102D2C002DE9F04F83B0B3F1FF3F08BFB2F1FF3F85
:102D3C000ED0044691461F4681600023EFF3118AA2
:102D4C00102282F31288BFF36F8F1D46019335E07A
:102D5C00002501952846019903B0BDE8F08FFFF7D7
:102D6C00D3FF8046013547F10006451946EBE07666
:102D7C0025616661344A13685268ED1846EB02030C
:102D8C0001934FF0010B38E0C91A66EB02020161A6
:102D9C0042614368636020601C60446005E02B4B1B
:102DAC005A682360626014605C60FFF797FF84428E
:102DBC0037D08AF31188BFF36F8F0123002BC9D151
:102DCC004D460197002FCADA1F4B19685B686918CA
:102DDC0043EB07036FF00102521A4FF0FF3161EB26
:102DEC00030310461946012A73F1000301DA01208E
:102DFC000021206161614FF0000BFFF76FFF00288D
:102E0C00CDD001694669236962698B4272EB060E6B
:102E1C00BADB5B1A62EB060223616261FFF768FFA3
:102E2C00EDE70B4B1B68002BC3D1BBF1000F06D099
:102E3C00404602F002FE0021FEF7EAFFB9E7FFF779
:102E4C0063FF8046F4E700BF28040020F400002054
:102E5C008C05002070B5EFF31186102383F31288D4
:102E6C00BFF36F8F2A4B1860FFF738FF044623E03F
:102E7C00284A136851685B1941EBE5711360516086
:102E8C0000220023C4E90423204602F0BFFD86F390
:102E9C001188BFF36F8FA36820469847EFF3118614
:102EAC00102383F31288BFF36F8F194A13685B1BCF
:102EBC001360FFF713FF04463CB125696169144B9D
:102ECC001A68D317AA428B41D2DA44B123696269DA
:102EDC000F4909685B1A62EBE172236162610D4A6A
:102EEC000B4D2868136851681B1841EBE071136097
:102EFC00516000242C60204602F09FFD2146FEF715
:102F0C0087FF86F31188BFF36F8FFFF791FE70BDBB
:102F1C008C0500202804002010B50022EFF311844A
:102F2C00102383F31288BFF36F8F134611460CE006
:102F3C00FFF7EAFE074A13685168C31841EBE071CA
:102F4C0084F31188BFF36F8F0122002AF0D018464A
:102F5C0010BD00BF28040020EFF31183102282F370
:102F6C001288BFF36F8F026822B183F31188BFF30D
:102F7C006F8F70472DE9F04104461D46866AC26A80
:102F8C0056EA020105D0B2F1FF3F08BFB6F1FF3F90
:102F9C0028D1236B01332363236A6BB185F311882A
:102FAC00BFF36F8F236A20469847EFF311851023E8
:102FBC0083F31288BFF36F8F04F11803A469A34243
:102FCC0051D0002C4FD0204602F09BFC0023C4F8BB
:102FDC00A03085F31188BFF36F8F204602F076FC8A
:102FEC00BDE8F081013E42F1FF321746002A14DBA6
:102FFC0002F06DFD013041F10001801941EB070138
:10300C00012871F100010BDA6FF001024FF0FF3370
:10301C0017492046FFF784FEBBE700263746E7E753
:10302C0002F055FD013041F10001801941EB07011F
:10303C006FF0020383426FF000438B4103DA0022EE
:10304C004FF00043E4E702F042FD421C41F1000363
:10305C00911943EB07036FF00102521A4FF0FF3145
:10306C0061EB0303D4E785F31188BFF36F8FB7E7E8
:10307C00652F0008F8B51D46EFF31187102383F375
:10308C001288BFF36F8FB5F1FF3F08BFB2F1FF3F5E
:10309C0021D0064614462B46002D08DB012A73F17D
:1030AC00000301DA01240025013C45F1FF353046CF
:1030BC0002F0DEFCDDE90623C6E90A2300233363B4
:1030CC0022462B4606493046FFF72AFE87F3118825
:1030DC00BFF36F8FF8BD87F31188BFF36F8FF9E7DC
:1030EC00652F000808B5024801F078F908BD00BF4B
:1030FC00E07000082DE9F04101260746B24201DCE0
:10310C00BDE8F0813B461F4613F8014B002CF7D06D
:10311C00252CF8D11C78252C07F10207F2D00023BE
:10312C00DFF804819C461D461F2D18D8A4F1200EF3
:10313C00BEF1100F09D9A4F1300EBEF1090F1ED843
:10314C000A2404FB03E3202504E028FA0EFE1EF0FB
:10315C00010F06D017F8014B002CE5D128E07F2D8C
:10316C001CD8A4F1300EBEF1090FE9D9242C10D1D2
:10317C00BCF1000F46D0B34246D00023EAE724F05E
:10318C00040EBEF12A0FF8D06C2C09D145F0800545
:10319C00E0E724F0040EBEF12A0FEED06C2C22D006
:1031AC006C2C1BD8682C23D06A2C28D04C2C26D005
:1031BC00BCF1000FA4D0B445A0D144F02007A7F176
:1031CC00650CBCF1020F0B6801D9612F1ED10733BE
:1031DC0023F0070308330B6001368EE7742CB9D04B
:1031EC007A2CB7D0E4E72C0648BF45F40075CDE740
:1031FC00EC0548BF45F4007545F48075AAE745F425
:10320C002075A7E79C46B8E76324D6E7692C02D063
:10321C0007D8632C03D02F0601D5AC05D7D40433C3
:10322C00D9E7732CF6E700BF892801002DE9F04F90
:10323C0095B043680393837880469807CDE90812CC
:10324C0017D50D920B4600251F78A7B1252F16D048
:10325C0001330793039B414638469847002805F1F4
:10326C00010580F2398498F8023043F0040388F8A1
:10327C0002304FF0FF35284615B0BDE8F08F5F786F
:10328C009A1C252F0792E5D000242646A246A34679
:10329C00BBF11F0F32D8A7F12003102B0AD8DFE89F
:1032AC0003F02409092A0909091B0909092209271C
:1032BC0009091900A7F13003092B2DD92A2F39D16F
:1032CC0054B90D9B1BF0400F53F8042B0D9329D0D0
:1032DC00164601E04BF0010B079B13F8017B07939B
:1032EC00002FD5D15BE04BF0020B4BF0040BF3E756
:1032FC004BF0080BF0E74BF0100BEDE7BBF17F0F39
:10330C003FD8A7F13003092BD8D81BF0400F03D0BE
:10331C000A2202FB0636DFE70A2202FB0A3A4BF0CE
:10332C00200BD9E7B2F1000AF9DACAF1000A4BF026
:10333C00280BD1E72E2F05D11BF0400F9BD14BF062
:10334C00400BC9E7242F1CD1002C00F04281099BB3
:10335C000D931BF0400F0AD1524608980DA9FFF7A8
:10336C00C9FE0D9B1A1DD3F800A00D92B4E732468E
:10337C0008980DA9FFF7BEFE0D9B1A1D1E680D9235
:10338C00AAE76C2F00F0128100F20981682F00F07F
:10339C0015816A2F00F01A814C2F00F0178134B17F
:1033AC00099B08980D9322460DA9FFF7A3FE002E4A
:1033BC0047F02009B8BF2BF0400BA9F16503BCBF47
:1033CC001FFA8BFB0026022B40F20881B9F1610F2A
:1033DC0040F06782FF4307F0200306930D9B0733F1
:1033EC0023F007031BF0400FD3E9000103F108029F
:1033FC0008BF4FF0FF36069B0D9200930EAA334682
:10340C0002F0D6FC0130C3B2B3424BF4C054049367
:10341C0001DB049B5E1E01230E9F0593A3464FF018
:10342C00700907F10903122B0DD907F16303C62BA1
:10343C0040F20F8107F2E73340F2CE72934294BF11
:10344C000323042305939DF83C2002F00C0312F097
:10345C00010240F019811BF0020F40F012811BF0A9
:10346C00040400F0F880002B40F0118120231BF4A1
:10347C00405F1FD1049A5032002E6A4408BF0126C7
:10348C00133A049921B112F8011D302900F036814C
:10349C001BF0100F049A18BF3246391DC0F233814D
:1034AC00B74280F23081BA424BF4005B40F32D817D
:1034BC007E1C961B1BF400520A9200F0288127EA0E
:1034CC00E774013403B10134002E00F02881721C22
:1034DC001444A245CCBFAAEB040400241BF0090F32
:1034EC0004D12C44A54240F01F81002443B118465E
:1034FC004146039B9847002805F10105FFF6B3AE42
:10350C001BF4006F13D0039B4146302098470028D2
:10351C00FFF6A9AE069BC3F178004146039B00F071
:10352C00F8009847002805F10205FFF69CAE1BF049
:10353C00080F05D12C44AC4240F0028125460024F2
:10354C000A9B002B00F01C8127EAE77AA7EB0A07FD
:10355C007642049BBB4284BF0EABFB180AF1FF3AC8
:10356C0088BF5879039B98BF3020564505F1010957
:10357C00414600F3EF809847002807F10107FFF65A
:10358C0072AEBAF1FF3F08D1039B41462E209847FB
:10359C000028FFF668AE05F102094D46D9E7742FF5
:1035AC003FF49AAE7A2F3FF497AEF8E61BF0800FFB
:1035BC0018BF4BF4007B4BF0800B8DE61BF4807F27
:1035CC0018BF4BF4007B4BF4807B85E64BF4207BDF
:1035DC0082E62646B3465446B2467DE6FF4307F0E4
:1035EC00200306930D9B073323F007031BF0400FBA
:1035FC0003F1080208BF0626B9F1650FD3E90001F3
:10360C000D9213D1731C0022DBB24BF4805B144679
:10361C00112BCDE9002428BF11230EAA00F0FCFACF
:10362C00C3B2049302230E9F0593FAE6B9F1660F19
:10363C0005D14BF4005B344601221123E8E7F3B2C9
:10364C00012B4FF0000238BF012314464FF06509DF
:10365C00DEE70223F6E6002B3FF409AFBAF1030FC5
:10366C003BDC9DF83C30A64E13F0080FA54B08BF71
:10367C001E463746B94617F8010BB0BBAE1BB1441A
:10368C007BE033BB2B23F2E62BBB2D23EFE6202272
:10369C00BAF1040F13DD1BF0080FAAF104040FD1CB
:1036AC002C44039B0492414620209847002805F1A6
:1036BC000105FFF6D8ADA542049AF2D19AB10024C7
:1036CC00039B414610469847002805F10105C8DACE
:1036DC00C9E52B22DCE72D22DAE71BF0080FAAF153
:1036EC000304BED1DCE71446BBE7069BC01A414677
:1036FC00039BC0B298470028BCDAB4E504990139A1
:10370C00C9B20491BDE6561ED4E60026D2E61BF4DF
:10371C00006F059A0CBF032405241444D2E61BF059
:10372C00100F18BF0134D4E60B934146039B2020A5
:10373C00984700280B9B05F10105BFF6D3AE92E527
:10374C00039B414630209847002805F10105BFF640
:10375C00F2AE88E598470028FFF685AD1BF0100FF8
:10376C000BD0BAF1FF3F08D105F1020941462E20DA
:10377C00039B98470028FFF676AD4D464C4433E248
:10378C009DF83D00039B414698470028FFF66BAD22
:10379C00002E69DD039B41462E2098470028FFF63A
:1037AC0062AD4FF0010A049B9A45BBBF0EAB53446C
:1037BC0030205879039B414698470028D346FFF6A2
:1037CC0052AD0AF1010A5645EDDA02355D44069B0D
:1037DC00A9EB03004146039BC0B298470028FFF6B3
:1037EC0042AD002FB4BF2D202B20039B4146B8BF08
:1037FC007F4298470028FFF636AD059B042B41D13C
:10380C004FF47A79B7FBF9F606F13000039B414689
:10381C00C0B29847002805F10305FFF624AD09FB5B
:10382C0016774FF06409B7FBF9F606F13000039BED
:10383C004146C0B29847002805F10105FFF613ADCB
:10384C0009FB16774FF00A09B7FBF9F606F13000C1
:10385C00039B4146C0B29847002805F10105FFF6CD
:10386C0002AD09FB167715E01BF0100F01D10135E5
:10387C00ADE7039B41462E209847002805F1020531
:10388C00A5DAF0E4059B032B05F10205C9D0059BD5
:10389C00012BD7D107F1300005F101094146C0B227
:1038AC0066E7A7F16303122B00F2FF80DFE813F049
:1038BC0013005700FD00FD00FD00FD005700FD004A
:1038CC00FD00FD00FD00FD001701F800FD00FD00EE
:1038DC002C00FD00B9000D9B1A1D1B680D928DF874
:1038EC00383001240EAF1BF0080F2ED03E19B9460C
:1038FC00B1452CD1EF1BB944AAEB04043DE700BF42
:10390C00CC710008C87100080D9B1A1D0D921F6820
:10391C00AB4B002F08BF1F461BF0400F14BF3146A6
:10392C004FF0FF31384602F01AF90446DBE7039BEF
:10393C004146202098470028FFF695AC013EB44242
:10394C00F5D35544AD1BB246D0E75646F7E719F808
:10395C00010B039B414698470028C9DA83E41BF00E
:10396C00800F0D9B35D01BF4007F2DD0073323F037
:10397C000703D3E9000103F108020D922BF01009A3
:10398C0000291FFA89F936DA404261EB410149F40A
:10399C0080690DF1380B0A235A4602F0ECF819F045
:1039AC00400FA0EB0B0B65D029F001025E4592B2E3
:1039BC0040F3B280002F00F0A98019F010033446B8
:1039CC00914626D002345CE01A1D18680D92C1177E
:1039DC00D4E71A1D1BF4807F19680D9201D108469B
:1039EC00F5E71BF4007F15BF48B208B241F3C011D4
:1039FC0041F3C031C2E750EA0103CAD11BF0400FBA
:103A0C00C7D0002EC5D12BF0110B1FFA8BF9344601
:103A1C00B34640F2064319EA03031CBF01340023EA
:103A2C002FE02BF0100B1FFA8BFB0A231BF08004EA
:103A3C000D9A57D01BF400711DBF073222F00702FC
:103A4C0002F10801101D19BF0D91D2E900010D9072
:103A5C00106850EA010252D12BF016091BF0400FEE
:103A6C001FFA89F94FD0002E4DD12BF0170B1FFAEE
:103A7C008BF9B34619F0100352D0002F4ED10BF135
:103A8C00010419F0080F5ED119F0010F06D0A24500
:103A9C006EDDAAEB040404EB0B06544622464DE003
:103AAC004BF0100B10237827C0E7B9F1780F04D135
:103ABC00C7F1780343F01003B8E7039B4146252078
:103ACC0098470028FFF6CFAB039B414638469847F2
:103ADC000028FFF6C8AB0235079BFFF7B5BB0823E0
:103AEC000027A3E7111D0D911BF480711068B0D055
:103AFC001BF400711ABFC0B2214680B2A9E72BF0AB
:103B0C00060B1FFA8BF90DF1380B45E729F011095B
:103B1C001FFA89F934467CE79146ABE75C4651E7DE
:103B2C005C4676E7CDE904234146039B2020984769
:103B3C000028FFF698AB049A059B01329245F1DC04
:103B4C002C1BA5181446F3B1039B41463020984713
:103B5C000028FFF688AB6FB90135A9462E44A6EBB9
:103B6C0009035B4521DC5D460EAE5DBBD944C3E663
:103B7C005E4693E7023541463846039B984700283A
:103B8C00EBDAFFF770BB40F2064319EA030FE4D0FF
:103B9C0019F0020F14BF2B20202019F4806F05F1AF
:103BAC000105414618BF2D20E7E7039B4146302015
:103BBC009847002809F10109D1DAFFF754BB00BF7F
:103BCC00D0710008013D039B705D41469847002869
:103BDC00CBDAFFF748BB039B4146202098470028CF
:103BEC0005F10105FFF63FAB631B002BF3DC73E71C
:103BFC001FB502AB0093074A4FF0CC3302F09EF88E
:103C0C00DDE90201C00840EA4170C90805B05DF861
:103C1C0004FB00BFCDCCCCCC2DE9F04F9BB00446BF
:103C2C0005920A460A93C2F30A559DF890300B93FD
:103C3C00D20FC1F313030992090D7DB950EA0302A7
:103C4C001BD1059A30235371099B156043F0020375
:103C5C001371012738461BB0BDE8F08F40F2FF729C
:103C6C0095424AD10343099B059A14BF43F00803BC
:103C7C0043F0040313710027ECE700F001020892F3
:103C8C004FEA83080122AC4D48EA907887009A46A7
:103C9C001646C5F1000B5846069200F011FAB5F124
:103CAC00FF3FACBF8146A0F10109ABEB090B09EB5F
:103CBC0005035846049300F009FA16A9A0F17D05F6
:103CCC00584600F023FA12AB069A0193A9EB0505AE
:103CDC0010AB0292009320462B4616AA514601F0D7
:103CEC0072FFB9F1010F04460D4600F2D280089B19
:103CFC00002B40F0C58001276BE043F4801A00F0E4
:103D0C0001024FEA8A080343A5F23545089248EAB6
:103D1C0090784FEA800749D140F2FE7319420CBFEC
:103D2C0001260026002D3246B3DB284600F0C2F9EE
:103D3C00032DC8BF0138049000F0C8F9049B7C30F7
:103D4C005D1B054416A9184600F054FA12AB0193FA
:103D5C0010AB009320462B46029616AA514601F052
:103D6C0032FF049B152B04460D4600F2868014ABE3
:103D7C00724A009338464FF0CC33414601F0DEFFD7
:103D8C00149B159A9B0843EA827303EB8303BB4293
:103D9C00DDE9109A0CD13846414600F09FF9049B9E
:103DAC0083428CBF00270127002612E00126B9E7C9
:103DBC00089B002B51D1013F48F1FF31B81B61F139
:103DCC00000100F08BF9049B089F83428CBF0026F6
:103DDC0001260B9B002B40F09180DDF828B04FF0B2
:103DEC000008CDE906884FF00A0ADDE91001FFF75B
:103DFC00FFFE129B0E93CDE90C0118461399FFF7A9
:103E0C00F7FE0C9B0D9A0F9198420B4693418146FD
:103E1C0080F08E8020462946FFF7EAFE0E9A0AFBB8
:103E2C0009F3934214BF002606F001060C9B109375
:103E3C000D9BCDE911390F9B1393079BB8F1000F24
:103E4C0014BF002707F0010701330AFB10485FFA83
:103E5C0088F8079304460D46C7E7B81C48F10001E3
:103E6C0000F03CF9049B83428CBF00200120B9EB8D
:103E7C0000006AF10002CDE9100200273E46A8E7D7
:103E8C00109B119A013B42F1FF32CDE91032012710
:103E9C008AE7B9F13E0FF0D84FF0FF33A9F12000BB
:103EAC0003FA09F203FA00F0C9F1200123FA01F137
:103EBC0002430A4303FA09F327EA030728EA020834
:103ECC0057EA08070CBF012700276DE700FB02FC2F
:103EDC00A1FB0012013362448C4275EB020CF5D24B
:103EEC00049ADDF828B01344259A1344D20F934258
:103EFC00B8BF13469B45A8BF9B4670E70A2100221A
:103F0C0001230846E8E70AFB03F0A2FB0A23013170
:103F1C000344944275EB0300F5D2594510DDBBF117
:103F2C00000F02D154EA05030AD00123069371E76E
:103F3C000A2200230121ECE7CCFBFFFFCDCCCCCC3B
:103F4C00002E2FD04FF00A0A129B13990D9318468E
:103F5C00FFF74EFE0D9B0C910AFB00F29A42814634
:103F6C0020D1DDE91001FFF743FE0E900D912046A4
:103F7C002946FFF73DFE0D9B0E9A1092CDE91139A3
:103F8C000C9B1393079BB8F1000F14BF002707F08D
:103F9C00010701330AFB10485FFA88F807930446BF
:103FAC000D46D1E7DDF81090079B9944002F5AD0AD
:103FBC00B8F1050F57D114F001034AD1069A32B962
:103FCC00DDE912239D4208BF94425FD0069B18196D
:103FDC004FF00A0445F10001002201262546A042BB
:103FEC0071EB020755D2EBB1B3451BDA0B9B6BB1EE
:103FFC00259ADDF828B006EB09031344012BB8BF52
:10400C0001239B45A8BF9B465E450BDD05304FF059
:10401C000A024FF0000341F10001FCF719F909F114
:10402C000109013E5E45A8BF5E4637B20FFA89F919
:10403C00059B09FA86F607F10508013E98444FF0F6
:10404C000009B9452CDB059B1A461E60099B1371B0
:10405C0000E6069B2BB9DDE912239D4208BF944272
:10406C0009D00123B3E7069B53B9DDE912239D4226
:10407C0008BF944204D1089B002BF2D1002EF0D043
:10408C00B8F1040F94BF00230123A0E74FF00408FC
:10409C00F1E705FB02F7A4FB054201363A449EE723
:1040AC000A220023FCF7D4F8303208F8012D09F16C
:1040BC000109C6E7014B5843800C7047413401009D
:1040CC00014B5843000D7047FB2E0B00024B58431D
:1040DC00C00C0130704700BF4F9312000A4A70B5F4
:1040EC0003464FF0CC3600204FF0333506FB03F47B
:1040FC0002FB0144A3FB023121449D4275EB0104F8
:10410C0001D30130F2E770BDCDCCCCCC2DE9F04F12
:10411C001A23354EB0FBF3FA03FB1A0389B004469D
:10412C000D4606EB0A1653B9D6E90023C1E9002364
:10413C00D6E90201C5E9020109B0BDE8F08F2B4AAE
:10414C0002EBC303D3E9008904AB0093D6E9022345
:10415C004046494601F0F2FD06AB0093D6E9002338
:10416C0083460F464046494601F0E8FDDDE906620C
:10417C0016EB0B0652EB07084FF0000328BF012388
:10418C00814633B1049B059A013342F10002CDE91B
:10419C00043220460391FFF799FF07461A2000FBD3
:1041AC000AF0FFF793FF3F1A3246434603990097F4
:1041BC00484601F0DEFD4FEA141C0D4A640004F081
:1041CC001E0352F82C40DC4004F00304241841F187
:1041DC000001C5E90041DDE9042300973046414662
:1041EC0001F0C7FDA6E700BFC8650008F864000829
:1041FC001C7100082DE9F04F1A27DFF8E4A000F13C
:10420C001905B5FBF7F56F433A1A4FEA051B89B050
:10421C0004460E460AEB05150AD1D5E90023C1E97F
:10422C000023D5E90201C6E9020109B0BDE8F08F0F
:10423C002C4B03EBC203D3E9008904AB0093D5E903
:10424C0002234046494601F079FD5AF80B206B6871
:10425C00013ACDE9020106A963F100030091404641
:10426C00494601F06BFDDDE906528A4602996D184C
:10427C00039952EB01084FF0000328BF012381463C
:10428C0033B1049B059A013342F10002CDE90432AB
:10429C003846FFF71BFF07462046FFF717FF3F1A6C
:1042AC002A46434600974846514601F062FD4FEAC4
:1042BC00141C0D4A640004F01E0352F82C40DC4020
:1042CC0004F003040134241841F10001C6E9004153
:1042DC00DDE9042300972846414601F04AFDA2E798
:1042EC0098660008F864000870710008704710B5F3
:1042FC00131D50F8234074B9C36801249440234320
:10430C00C360043240F82210CB001A1D89B28152CE
:10431C000633C15210BDE2000432835A4FEAC10C7D
:10432C000CF1040E20F80E300CF1060C20F80C40A9
:10433C00DB00063389B2C1528152EBE708B500EBC2
:10434C00C1035A885208B2FA82F2C2F11F02FFF777
:10435C00CEFF08BD70B50346043AC81D20F0070017
:10436C000A4422F00702121AD5081860856000234F
:10437C00C360B5FA85F1C1F1200EC1F124018900A9
:10438C00CE1DF10805E003F1040C002440F82C408C
:10439C0001337345F7DB4C00A4B244804FF0000CA2
:1043AC00A0F800C044F0010444806B1A4FEA430E9D
:1043BC0026F00704A51C20F805E0015322F00704A1
:1043CC00951C20F805C002440353538843F00103A5
:1043DC005380FFF7B3FF70BD002070470FB400B5DA
:1043EC0083B004A951F8040B0191FCF767F903B0F1
:1043FC005DF804EB04B070470FB400B583B004A9AA
:10440C0051F8040B0191FCF759F903B05DF804EB7A
:10441C0004B07047704708B501F089FB08BD08B5BA
:10442C0001F077FB08BD08B501460068FCF7DEF922
:10443C0008BD08B5FCF7F2F9FCF71CFA08BD002022
:10444C00704708B500231370CB1E092B1AD8DFE870
:10445C0003F005090D111919191919141146FCF756
:10446C00A1FB08BD0021FCF753FAFAE70021FCF789
:10447C00C9FAF6E7FCF73CFBF3E71146FCF7EEFB59
:10448C000020EEE7FCF7F4FB0020EAE708B540B2A9
:10449C00FCF7D2FC08BD08B5013140B2FCF7DAFCE0
:1044AC0008BD08B500210120FCF7A0F908BD6FF08C
:1044BC008500704761B662B680F31188BFF36F8FC9
:1044CC00704772B6002383F31188BFF36F8FBFF36D
:1044DC004F8F30BF62B6BFF36F8F704708B5FCF7D4
:1044EC006DFD002008BD08B5FCF78EFD08BD08B5B4
:1044FC00062201210020FCF7D3FD002211460620E4
:10450C00FFF7C9FF072201210846FCF7C9FD00226D
:10451C0011460720FFF7BFFF082201210220FCF7FC
:10452C00BFFD002211460820FFF7B5FF092201212B
:10453C000320FCF7B5FD002211460920FFF7ABFF65
:10454C000A2201210420FCF7ABFD002211460A20AF
:10455C00FFF7A1FF172205210846FCF7A1FD002259
:10456C0011461720FFF797FF282206210A20FCF797
:10457C0097FD002211462820FFF78DFF002008BD73
:10458C0001F01F0101208840704708B5024608461B
:10459C0002F0030304339B000F21994041EA92017E
:1045AC00FCF7B4FD08BD08B500F0030304339B0011
:1045BC000F2202FA03F343EA9000FCF7C3FD08BD97
:1045CC0010B430300B0A9B0003F00C03C45801F0FC
:1045DC001F014FF01F0C0CFA01FC24EA0C0CC2F367
:1045EC0084628A404CEA0202C25010BC704710B47C
:1045FC0014304B0E9B0003F00403C458C1F3045158
:10460C004FF0070C0CFA01FC24EA0C0C8A404CEA23
:10461C000202C25010BC70474900036813B19B8959
:10462C0003FB0111C3688B4201D3002070476FF06C
:10463C000B00704743681A68936823F0004323F01B
:10464C003F0343F0040393607047836813F0010F3A
:10465C0037D0836813F0040F0FD0836823F0004326
:10466C0023F03F0343F01003836000E02BB1836819
:10467C0013F00403FAD00123F8E7836813F0080F52
:10468C000FD0836823F0004323F03F0343F0200353
:10469C00836000E02BB1836813F00803FAD0012388
:1046AC00F8E7836823F0004323F03F0343F0020351
:1046BC00836000E02BB1836813F00103FAD001236F
:1046CC00F8E77047036923F4806323F0030319436D
:1046DC000161704770B504460D461646036903F038
:1046EC001C03994204D1036903F4F0739A4208D075
:1046FC002046FFF7AAFF236923F4FE7335432B43AF
:10470C00236170BD70B545682E68002400E001344B
:10471C0095F94030A34204DD087CAA6A125D9042F0
:10472C00F5D1A34216D0F36803F01803EA6A52F8E5
:10473C0024209A4201D1002070BD3046FFF785FF3E
:10474C00EB6A53F82430F26822F018021343F3603A
:10475C000020F1E76FF01500EEE708B5D0F89430C3
:10476C00C0F89830D0F89000FFF764FF08BD19B17D
:10477C00D0F89830C0F894307047FF2380F8A630FA
:10478C0080F8A730704710B44468C9B10A4643F6A4
:10479C00FF73994216D08B0B032B15D1002000E030
:1047AC000130072808DC00F1180334F8133043F407
:1047BC0040439A42F4D101E06FF0150010BC7047F1
:1047CC000020FBE70720F9E76FF01500F6E770B55E
:1047DC000C4645682E681146FFF7D5FF002809DB0B
:1047EC0095F9413053B1002B24DB013BDBB2012B9B
:1047FC0001D8002070BD6FF01500FBE7092C0DD817
:10480C000121A14041EA846104EB440441EA0451D2
:10481C0002463046FFF7EBFE0020EBE70121A140FA
:10482C0041EA846104EB44041E3C41EA045141F02A
:10483C000071EDE76FF01500DCE708B540304FF084
:10484C00FF324FF0FF33FDF7FFFD08BD10B50446F6
:10485C0050304FF0FF324FF0FF33FDF7F5FD00B154
:10486C002066206E10BD38B5856815F0010517D18E
:10487C00044601230360836823F0004323F03F03C5
:10488C0043F001038360236813F0010F0AD1013553
:10489C00642000F04AFF092DF5D96FF0730000E099
:1048AC00002038BD0020FCE770B50446466835682A
:1048BC002846FFF7CAFE01212046FCF719FD96F8A1
:1048CC00453013F0200F09D12046FCF7F3FC2846A5
:1048DC00FFF7C9FF002800DB002070BD0021204637
:1048EC00FCF706FDF0E738B505460C46436818683A
:1048FC0093F8452012F0100F19D10B7913F0200FFB
:10490C0021D12179C1F3401201F01F01FCF7BEFD4A
:10491C002378092B1AD16378042B1AD12179628858
:10492C0001F01F012846FFF752FFA8B938BD0A79DC
:10493C0012F0200FE5D093F8453013F0200FE0D1A2
:10494C006FF01500F2E76FF01500EFE76FF0150050
:10495C00ECE76FF01500E9E76FF01500E6E738B506
:10496C0084460D4600F1640E0C460FCCAEE80F00E9
:10497C002368CEF800300023CCF860302B6853B19C
:10498C000CF178040FCB84E80F00CCF864400023C2
:10499C00ACF8883018B96046FFF7DFFE38BD00234D
:1049AC00BFF35B8F5CE8002F4CE800310029F9D194
:1049BC00BFF35B8F6046FCF7A7FDEFE7F8B5054644
:1049CC000C46436806691F688B68C6F894304868C3
:1049DC00C6F8A000FBF756FCC0B286F8A400002372
:1049EC0086F8A53070B310282FD821462846FFF73B
:1049FC0089FE002808DB2846FCF7FAFC96F8A41080
:104A0C002046FFF709FE00B1F8BD617C2846FCF793
:104A1C008BFC0028F8D1A37C83B93846FFF723FF21
:104A2C0010233B607B6843F004037B6021463046D7
:104A3C00FFF795FF3046FFF709FFE5E72846FFF73C
:104A4C0033FFEAE76FF01500DEE76FF01500DBE7E8
:104A5C0070B505460E460469002211462046FFF744
:104A6C00ECFE31462846FFF7A9FF054604F140004D
:104A7C00FDF7A6FC284670BD08B5836C03B108BDD4
:104A8C004030FDF79DFCFAE738B504460D46FFF7BC
:104A9C0074FE05B1256604F15000FDF791FC38BD9C
:104AAC0000B583B001AA00F0C6FB002805DB019B12
:104ABC0000221979186800F0D7FB03B05DF804FBED
:104ACC00F8B50446076945682E68C7F89000FF23BF
:104ADC0087F8A63087F8A730FCF74EFC0021686AEF
:104AEC00FFF7DEFF00282BDB95F8453013F0040FA1
:104AFC0005D0B36823F0204323F03F03B36095F94E
:104B0C0044303BB1B36823F0104323F03F0343F030
:104B1C008053B36095F94430012B15D06B6803B109
:104B2C0098472046FFF7C0FEF36823F47C63F360DC
:104B3C003046FFF78AFD3846FFF79EFF0020F8BD90
:104B4C0010F1020FFBD1CFE7142000F0EEFDE5E7EA
:104B5C0008B5BFF35B8F50E8003F5A1C40E80021BA
:104B6C000029F8D1BFF35B8F1BB16FF00F03036605
:104B7C0008BDFFF7F2FDFBE708B50838FFF7E8FFC3
:104B8C0008BD08B5002211461220FFF784FC122044
:104B9C00FFF77CFC08BD10B50446436EFBB108461C
:104BAC00E36F43B1B4F8882004F1640198470128FD
:104BBC000DD002280ED0B4F88830B4F8842093427B
:104BCC0012D20133A4F8883000210B4604E00121F5
:104BDC00002301E0002101234BB1A36F0BBB00218B
:104BEC002046FFF751FF10BD00210123F4E72046BA
:104BFC00FFF7BDFDA36F1BB92046FFF7AEFDF2E733
:104C0C00BFF35B8F54E8003F5A1E44E80021002993
:104C1C00F8D1BFF35B8F012BE5DD2046FFF79DFD3F
:104C2C00E1E704F1080000F061FFD8E701460069F4
:104C3C004B681B681A6812F0100F01D010221A6012
:104C4C001A6812F0040F18D010B51A6CD0F8943002
:104C5C009C1CC0F894401A8090F8A5300133DBB24C
:104C6C0080F8A53090F8A420934200D010BD00230A
:104C7C0080F8A530FFF78FFFF8E77047B0FBF1F035
:104C8C0002FB00F0B0FBF3F07047B0FBF1F07047A3
:104C9C00002070470B88C3F30B0303F6B872C2F302
:104CAC000B02182A15D882B003F1804303F50433A4
:104CBC004A68186802431A600B88C3F30B0303F1AC
:104CCC00804303F504331B680193019B002002B061
:104CDC0070476FF0850070470B88C3F30B0303F626
:104CEC00B872C2F30B02182A0AD803F1804303F5F9
:104CFC00043349681A6822EA01021A6000207047DE
:104D0C006FF0850070470C2807D841F6BA33C340C2
:104D1C0013F0010F04D0002070476FF0850070472E
:104D2C006FF08500704770B54C68C4F30445088873
:104D3C00C0F30B00FFF7E7FF002815DBA6B2FF2C32
:104D4C0013D006F1804202F50432C4F34151013113
:104D5C0001238B40013BAB40240EAC40116821EA8F
:104D6C0003031C431460002070BD0020FCE708B551
:104D7C000888C0F30B0000F6B873C3F30B03182BB1
:104D8C000BD800F1804000F5043002684B68934367
:104D9C0001D0012008BD0220FCE7FFF7B4FF08B1E9
:104DAC000120F7E70220F5E77047022070470B4619
:104DBC0039B11168196041688A4209D00023136027
:104DCC0070471368036041688A42F7D14360F5E786
:104DDC004360F3E708B50A460368002101E0194671
:104DEC001B682BB19342FAD1FFF7E1FF012000E0E1
:104DFC00002008BD38B505460C460321A047002805
:104E0C0006DB01212846A047002800DB002038BD26
:104E1C0010F1860FFBD1F4E770B504460D4616462B
:104E2C00036833B1FFF7D6FF70B91EB96FF01500E8
:104E3C0006E032B123682B602560636843B1002023
:104E4C0070BD6FF01500FBE7002EF3D10020F7E7E3
:104E5C0065600020F4E770B50E461546016821B177
:104E6C000C683CB131B90C4604E00C4602E0234618
:104E7C0021461C4671B18A682A4002D04B683046E4
:104E8C009847002CF3D02368002BF1D0002CEFD1E5
:104E9C002346EDE770BD08B5024608690430FFF7FC
:104EAC00DAFF08BD10F4003F14D010F0020F04D04C
:104EBC0010F0040F35D0502300E0102310F0100F29
:104ECC0002D043F4007312E010F0200F0FD043F423
:104EDC0080630CE010F4803F08D010F0100F14D158
:104EEC0010F0200303D04FF4806300E0302300F473
:104EFC00C060B0F5806F0ED0B0F5C06F08D0B0F5C3
:104F0C00007F0BD00B60002070474FF40073EEE76E
:104F1C0043F4C073F6E743F48073F3E743F0800384
:104F2C00F0E76FF08500704743685B681B690B60A6
:104F3C000020704743685B68586942400A40424011
:104F4C005A610020704743685B6899610020704784
:104F5C0043685B6899620020704743685B685A69D4
:104F6C00514059610020704708B500690430FFF7C3
:104F7C0053FF08BD08B5012911D007D819B9002174
:104F8C00FCF7DCFC07E06FF0850004E00239C9B2E5
:104F9C00012901D8002008BD6FF08500FBE7012135
:104FAC00FCF7CCFCF7E710B4046891FAA1F39BB1C1
:104FBC00B3FA83F35B004FF0030C0CFA03F324EA0F
:104FCC00030391FAA1F149B1B1FA81F149008A4088
:104FDC001343036010BC70472023EBE72021F5E757
:104FEC0010B4846891FAA1F39BB1B3FA83F35B001C
:104FFC004FF0030C0CFA03F324EA030391FAA1F12A
:10500C0049B1B1FA81F149008A401343836010BC65
:10501C0070472023EBE72021F5E710B4C46891FA20
:10502C00A1F39BB1B3FA83F35B004FF0030C0CFAC2
:10503C0003F324EA030391FAA1F149B1B1FA81F126
:10504C0049008A401343C36010BC70472023EBE730
:10505C002021F5E710B4046A91FAA1F39BB1B3FADD
:10506C0083F39B004FF00F0C0CFA03F324EA0303B9
:10507C0091FAA1F149B1B1FA81F189008A40134347
:10508C00036210BC70472023EBE72021F5E710B436
:10509C00446A090A91FAA1F39BB1B3FA83F39B001A
:1050AC004FF00F0C0CFA03F324EA030491FAA1F16C
:1050BC0049B1B1FA81F189008A401443446210BCB1
:1050CC0070472023EBE72021F5E72DE9F8430F4645
:1050DC001546984643685E6801248C4002F03009FE
:1050EC00C2F38013706820EA04008B401843706090
:1050FC00C2F3C11221463046FFF772FFC5F34122BD
:10510C0021463046FFF789FFB9F1200F07D04FEA4F
:10511C00191221463046FFF746FFBDE8F883072FEA
:10512C0005D8424621463046FFF794FFEFE742464A
:10513C0021463046FFF7ABFFE9E72DE9F04383B09A
:10514C0005460E461446D0F8108001A91046FFF70C
:10515C00A9FE074668BB14F440390BD0D8F80C30C4
:10516C0023FA06F212F0010F04D10122B2401343CC
:10517C00C8F80C3014F4003F05D014F4002F1CD1E7
:10518C0014F4802F1FD10023019A31462846FFF7D3
:10519C009CFFB9F1000F0CD1D8F80C3023FA06F2B1
:1051AC0012F0010F05D00122B24023EA0203C8F825
:1051BC000C30384603B0BDE8F0830121B1402846DD
:1051CC00FFF7C1FEDFE70121B1402846FFF7C0FE23
:1051DC00D9E738B504460D460846FFF7E4F9A04276
:1051EC0000D038BD29462046FFF7CAF90446FBF724
:1051FC00D5FF2046FCF72CF800212046FBF7D6FF04
:10520C00EFE7F8B507460D4616461C46FFF75DFF5F
:10521C00112C01D00020F8BD16F4006F05D001212F
:10522C00A9403846FFF78FFEF4E70121A940384624
:10523C00FFF78EFEEEE700B50368136001E008335C
:10524C001360136890F804C0D0F800E00EEBCC0C9F
:10525C00634505D293F805C08C45F0D1002001E0E0
:10526C006FF001005DF804FBF8B506460F4600240C
:10527C00254615E002F01F01102920D011291CD061
:10528C00530A1B0103F4F873C2F3431002F01F021C
:10529C0029461843FCF7C8FB002813DB0134E4B2A1
:1052AC00BC420ED206EBC40356F8342012F0100F99
:1052BC00E0D15D6845F02005E2E75D68E0E7302568
:1052CC00DEE70020F8BD43681868C1F34B1301F00A
:1052DC001F01C05801238B40184214BF0123002327
:1052EC0013700020704710B443681C68C1F34B1056
:1052FC0001F01F01235801228A4013432350002040
:10530C0010BC704710B443681C68C1F34B1001F01B
:10531C001F01235801228A4023EA02032350002054
:10532C0010BC704738B504460D46FFF7DCFF294624
:10533C002046FFF7E7FF002038BD08B58368DB681F
:10534C000BB1984708BD6FF05700FBE730B583B041
:10535C0043681C68E1B10D46586819698368DB68BD
:10536C009BB101AA984700280DDB236823F4004366
:10537C002360019B03EB5503B3FBF5F30F2B0AD909
:10538C009BB2E360002003B030BD6FF05700FAE72A
:10539C006FF01500F7E76FF01500F4E7436829B1DB
:1053AC001A68936843F48043936070471A68936853
:1053BC0023F4804393607047B0F5805F07D0B0F161
:1053CC00805F07D109B1012070470220704721B9D5
:1053DC000420704719B9032070470320704702203E
:1053EC0070472DE9F04104460D46476803691E6875
:1053FC000979012914D0022915D14FF480636A79F7
:10540C00012A15D0022A15D07AB14FF40052A8798E
:10541C00022812D0042816D0002968D1002014E0EC
:10542C004FF4C063EBE70023E9E74FF48052EEE75B
:10543C000022ECE74FF44052E9E709B1002004E008
:10544C004FF0805001E04FF48050E979012951D0A0
:10545C004FF0000C032914BF00210121AE424CD0A7
:10546C00D7F80080D8F8007007F4C06E734506D0EA
:10547C00D8F8007027F4C0673B43C8F80030636865
:10548C001F687B6803F440539A4204D07B6823F472
:10549C00405313437B6063681A68136803F010234E
:1054AC00984204D0136823F01023184310606368EB
:1054BC001A68936803F440739C4505D0936823F4F1
:1054CC0040734CEA0303936063681B689B6813F496
:1054DC00804300D00123003B18BF012399422AD1FD
:1054EC002968336899422AD10020BDE8F0814FF435
:1054FC008050AAE74FF4407CACE73E68316821F05D
:10550C00805121F4B051034319433160736823F483
:10551C0040531343736063681A68936823F44073B1
:10552C004CEA0303936029682046FFF70FFF00281D
:10553C00DBDB0020D9E72046FFF730FFD0E7204621
:10554C00FFF704FF0028D0DB2B6833600020CCE78A
:10555C0038B504460D4603691B681B680B6043682D
:10556C001B681B6803F4C063B3F5806F31D0B3F5CF
:10557C00C06F30D101232B7163681B685B6803F427
:10558C004053B3F5805F2AD0B3F5405F29D023B3E5
:10559C0003236B7163681B681868196801F4C06198
:1055AC0000F01020FFF708FFA87163681B689B6868
:1055BC0003F44073B3F5407F15D00023EB7163689F
:1055CC001B689B6813F4804F01D00323EB71002000
:1055DC0038BD0223CFE70023CDE70123D9E7002311
:1055EC00D7E70223D5E70123E8E708B54368186835
:1055FC00C36913F0080F01D008230362C36913F0C9
:10560C00200F02D09047002008BD4FF0FF30FBE781
:10561C0010B543681868C36913F0800FFBD0EFF323
:10562C001184102383F31288BFF36F8FC36913F0B7
:10563C00800F04D184F31188BFF36F8FEBE7904791
:10564C0084F31188BFF36F8F10BD436A0B707047E2
:10565C00C9B28162704743681B68D86910F00800B2
:10566C0000D00120DA6912F0010F01D040F00200E5
:10567C00DA6912F0020F01D040F00400DA6912F07E
:10568C00040F01D040F02000DA6912F4807F01D0C1
:10569C0040F0080010F0080F02D04FF480721A622C
:1056AC0010F0010F01D008221A6210F0020F01D085
:1056BC0001221A6210F0040F01D002221A6210F0BB
:1056CC00200F01D004221A62704708B5436858684D
:1056DC00196983681B680BB1984708BD6FF05700B8
:1056EC00FBE700B583B001AAFFF7A5FD002805DB99
:1056FC00019B002219791868FFF7B6FD03B05DF81D
:10570C0004FB38B504464568FFF7DFFF00280BDBC8
:10571C000021686AFFF7E5FF002805DB2046FCF74F
:10572C0071FA002800DB002038BD00B9704738B58D
:10573C000446FCF71FFC054604EB84042401FCF72B
:10574C0019FC401BA042FAD338BD10B5044643697E
:10575C0093B19847024630B100280BDBFF2A00DDDD
:10576C00FF22E3681A70E1684B7843F001034B7039
:10577C00504210BD4242F1E70022F4E760B1C36829
:10578C005A7812F0010F03D01B781BB10020704720
:10579C00002070470120704700207047EFF3118301
:1057AC00102383F31288BFF36F8FFEE708B5FFF762
:1057BC00F5FF08B5EFF31183102383F31288BFF3C1
:1057CC006F8FFEF77EFEF5E700BF704710B507320E
:1057DC0022F007028C182146FBF738F8073020F02E
:1057EC000700201A10BD10B4002484608381027459
:1057FC008173C4738461C46110BC7047002070470E
:10580C0038B504460D46FCF729FF237C43F0020310
:10581C00237435B3A5602B689D420DD100230BE09A
:10582C005A686260236014605C601AE01A4669680A
:10583C008A420FD01B687BB173B194F90E1093F9A7
:10584C000E209142F2D0521A002AE9DC1A46002BA3
:10585C00EDD1F0E70023EEE76B68256063601C6018
:10586C006C6038BD08B5183000F002F908BD70B591
:10587C000646046884421AD0DCB16268236813605F
:10588C005A60002525606560237C23F00203237495
:10589C00A56004F1180000F0EBF8C4F8A050204605
:1058AC00FCF782FE3468A642E6D12C46E4E70024DD
:1058BC00E2E770BD70B5044616461D46FFF7A0FF23
:1058CC0032462B462046FCF789FF70BD38B504469E
:1058DC000023EFF31185102282F31288BFF36F8F30
:1058EC0004E085F31188BFF36F8F012343B9204681
:1058FC00FFF784FF0028F4D12046FCF755FEF0E7B3
:10590C0038BD0023EFF31181102282F31288BFF30C
:10591C006F8F10E04268036813605A6000230360C5
:10592C004360027C22F002020274836081F31188CE
:10593C00BFF36F8F01231BB98368002BEAD1F5E706
:10594C00704708B5037C13F0280F13D183685BB143
:10595C004268036813605A60002303604360027C52
:10596C0022F0020202748360037C23F004030374AC
:10597C00FCF71AFE08BD38B5A0F118050023EFF3AB
:10598C001184102282F31288BFF36F8F07E0284630
:10599C00FFF7D7FF84F31188BFF36F8F0123002B20
:1059AC00F5D038BD01460023EFF3118C102282F3A1
:1059BC001288BFF36F8F184605E000208CF3118816
:1059CC00BFF36F8F01238BB908688142F5D0002893
:1059DC00F4D04268036813605A600023036043608C
:1059EC00027C22F0020202748360E7E7704708B57C
:1059FC00EFF31180102383F31288BFF36F8FFCF742
:105A0C0075FF08BD031D43608360704710B50446E5
:105A1C00FDF76EF948B102460369416920691B180C
:105A2C00606941EB00011361516162682368136086
:105A3C005A6000232360636010BD10B50446FDF767
:105A4C004DF978B1036942691B1B62EBE472B3F147
:105A5C00004F72F1000108DA002A01DB184610BD74
:105A6C000023FBE76FF00040F9E76FF00040F6E72A
:105A7C00F8B504460023EFF31187102282F3128845
:105A8C00BFF36F8F6FF015000CE0FDF73DF9FFF7DA
:105A9C00D4FF0021FCF7BCF9304687F31188BFF323
:105AAC006F8F01231E468BB92368002BF5D0FDF7B1
:105ABC0015F905462046FFF7A9FF00224FF00043D9
:105ACC00C4E90423A542E0D03046E6E7F8BD08B5AA
