:020000040800F2
:1000000048340020795C000811110108655C000883
:10001000655C0008655C0008655C00080000000085
:10002000000000000000000000000000395D000832
:10003000655C000800000000ED5C0008118C000801
:10004000A95E0008A95E0008A95E0008A95E000874
:10005000A95E0008A95E0008A95E0008A95E000864
:10006000A95E0008A95E0008A95E0008A95E000854
:10007000A95E0008A95E0008A95E0008A95E000844
:10008000A95E0008A95E0008A95E0008A95E000834
:10009000A95E0008A95E0008A95E0008A95E000824
:1000A000A95E0008A95E0008A95E0008A95E000814
:1000B000A95E0008A95E0008A95E0008A95E000804
:1000C000A95E0008A95E0008A95E0008A95E0008F4
:1000D000A95E0008A95E0008A95E0008A95E0008E4
:1000E000A95E0008A95E0008A95E0008A95E0008D4
:1000F000A95E0008A95E0008A95E0008A95E0008C4
:10010000A95E0008A95E0008A95E0008A95E0008B3
:10011000A95E0008A95E0008A95E0008A95E0008A3
:10012000A95E0008A95E0008A95E0008A95E000893
:10013000A95E0008A95E0008A95E0008A95E000883
:10014000A95E0008A95E0008A95E0008A95E000873
:10015000A95E0008A95E0008A95E0008A95E000863
:10016000A95E0008A95E0008A95E0008A95E000853
:10017000A95E0008A95E0008A95E0008A95E000843
:10018000A95E0008A95E0008A95E0008A95E000833
:10019000A95E0008A95E0008A95E0008A95E000823
:1001A000A95E0008A95E0008A95E0008A95E000813
:0C01B000A95E0008A95E0008A95E000816
:1001C00090F800F06DE9024520F007016FF0000C97
:1001D00010F0070491F820F040F049804FF000043F
:1001E0006FF00700D1E9002391F840F000F108001A
:1001F00082FA4CF2A4FA8CF283FA4CF3A2FA8CF352
:100200004BBBD1E9022382FA4CF200F10800A4FAB8
:100210008CF283FA4CF3A2FA8CF3E3B9D1E904230C
:1002200082FA4CF200F10800A4FA8CF283FA4CF343
:10023000A2FA8CF37BB9D1E9062301F1200182FAFD
:100240004CF200F10800A4FA8CF283FA4CF3A2FA03
:100250008CF3002BC6D0002A04BF04301A4612BA11
:10026000B2FA82F2FDE8024500EBD2007047D1E914
:10027000002304F00305C4F100004FEAC50514F0A3
:10028000040F91F840F00CFA05F562EA05021CBF74
:1002900063EA050362464FF00004A9E7000000008E
:1002A000A2EB0300704700BF02780B78012A28BF39
:1002B0009A42F5D16DE9044540EA0104CDE90267AF
:1002C0006FF0000C4FEA447212B380EA010414F09C
:1002D000070F6AD100F0070420F0070004F00305BF
:1002E00021F007014FEAC505F0E8042314F0040FDC
:1002F000F1E804670CFA05F462EA040266EA04060F
:100300000AD063EA0403624667EA0407664603E02C
:10031000F0E80423F1E8046782FA4CF582EA060467
:10032000A4FA8CF46CBB83FA4CF583EA0705A5FAB2
:100330008CF595B950E9022351E9026782FA4CF530
:1003400082EA0604A4FA8CF483FA4CF583EA0705E2
:10035000A5FA8CF52543DBD09CB92DBAB5FA85F406
:1003600024F0070427FA04F1DDE9026723FA04F315
:1003700003F0FF0001F0FF01FDE80445A0EB0100E0
:10038000704724BAB4FA84F424F0070426FA04F17E
:10039000DDE9026722FA04F202F0FF0001F0FF013A
:1003A000FDE80445A0EB0100704714F0030F3CD1B9
:1003B00010F0030428D150F8082B51F8083B82FABA
:1003C0004CF582EA0305A5FA8CF55DB950F8042CCA
:1003D00051F8043C82FA4CF582EA0305A5FA8CF543
:1003E000002DE8D02DBAB5FA85F424F0070423FADD
:1003F00004F122FA04F202F0FF0001F0FF01FDE82F
:100400000445A0EB010070474FEAC40420F003004C
:1004100050F8082B21F0030151F8083B0CFA04F4C2
:1004200062EA040263EA0403C9E710F003041AD085
:10043000A1EB040120F00300E40750F8042B06D0E0
:100440000FD28B785FFAA2F4E41A06D12BB1CB78E5
:100450005FFAB2F4E41A00D11BB920465DF8104BE4
:10046000704701F1040150F8042BCC0721F003017F
:1004700051F8043B48D824D222F07F4482FA4CF54C
:1004800094EA1325A5FA8CF50AD165B951F8043B15
:1004900084EA0204B4EB036F0ED150F8042BEBE7AF
:1004A0004FEA132355E035F07F454DD10878FDE83C
:1004B0000445C0F1000070474FEA126203F0FF03E9
:1004C00047E002EA1C4482FA4CF594EA1345A5FA87
:1004D0008CF50AD165B951F8043B84EA0204B4EB07
:1004E000034F0CD150F8042BEBE74FEA134330E0F5
:1004F00015EA1C4528D10B884FEA124229E04FEA41
:10050000124203EA1C4324E002F0FF0482FA4CF595
:1005100094EA1365A5FA8CF50AD165B951F8043B44
:1005200084EA0204B4EB032F09D150F8042BEBE763
:100530004FEA13630DE015F0FF0F05D10B684FEA8A
:10054000122223F07F4304E04FF00000FDE8044551
:10055000704712BA1BBA82FA4CF482EA0304A4FA76
:100560008CF5B5FA85F402FA04F203FA04F34FEAC3
:100570001260FDE80445A0EB136070470000000026
:1005800001F0FF01102A2BDB10F0070F08D010F844
:10059000013B013A8B422DD010F0070F42B3F6D148
:1005A000F0B441EA012141EA014122F007047FF061
:1005B00000070023F0E80256083C85EA010586EAB8
:1005C000010685FA47F5A3FA87F586FA47F6A5FAF4
:1005D00087F68EB9EED1F0BC01F0FF0102F0070200
:1005E00032B110F8013B013A83EA010313B1F8D1AB
:1005F0000020704701387047002D06BF354603388C
:10060000073815F0010F07D1013015F4807F02BFC4
:10061000013015F4C03F0130F0BC0138704700BF15
:10062000844641EA000313F003036DD1403A41D3FD
:1006300051F8043B40F8043B51F8043B40F8043BBC
:1006400051F8043B40F8043B51F8043B40F8043BAC
:1006500051F8043B40F8043B51F8043B40F8043B9C
:1006600051F8043B40F8043B51F8043B40F8043B8C
:1006700051F8043B40F8043B51F8043B40F8043B7C
:1006800051F8043B40F8043B51F8043B40F8043B6C
:1006900051F8043B40F8043B51F8043B40F8043B5C
:1006A00051F8043B40F8043B51F8043B40F8043B4C
:1006B000403ABDD2303211D351F8043B40F8043BEC
:1006C00051F8043B40F8043B51F8043B40F8043B2C
:1006D00051F8043B40F8043B103AEDD20C3205D3FC
:1006E00051F8043B40F8043B043AF9D2043208D0F4
:1006F000D2071CBF11F8013B00F8013B01D30B8866
:1007000003806046704700BF082A13D38B078DD043
:1007100010F003038AD0C3F10403D21ADB071CBF15
:1007200011F8013B00F8013B80D331F8023B20F87F
:10073000023B7BE7043AD9D3013A11F8013B00F8B8
:10074000013BF9D20B7803704B7843708B78837040
:100750006046704781F0004102E000BF83F0004333
:1007600030B54FEA41044FEA430594EA050F08BF4C
:1007700090EA020F1FBF54EA000C55EA020C7FEA10
:10078000645C7FEA655C00F0E2804FEA5454D4EB8D
:100790005555B8BF6D420CDD2C4480EA020281EA57
:1007A000030382EA000083EA010180EA020281EA8F
:1007B0000303362D88BF30BD11F0004F4FEA0131E1
:1007C0004FF4801C4CEA113102D0404261EB4101F0
:1007D00013F0004F4FEA03334CEA133302D0524276
:1007E00063EB430394EA050F00F0A780A4F1010432
:1007F000D5F1200E0DDB02FA0EFC22FA05F280186C
:1008000041F1000103FA0EF2801843FA05F3594151
:100810000EE0A5F120050EF1200E012A03FA0EFCD0
:1008200028BF4CF0020C43FA05F3C01851EBE371FA
:1008300001F0004507D54FF0000EDCF1000C7EEB17
:1008400000006EEB0101B1F5801F1BD3B1F5001F55
:100850000CD349085FEA30004FEA3C0C04F1010474
:100860004FEA445212F5800F80F09A80BCF1004F9D
:1008700008BF5FEA500C50F1000041EB045141EA1F
:10088000050130BD5FEA4C0C404141EB0101013CE8
:1008900028BFB1F5801FE9D291F0000F04BF0146D7
:1008A0000020B1FA81F308BF2033A3F10B03B3F1A9
:1008B00020020CDA0C3208DD02F1140CC2F10C0239
:1008C00001FA0CF021FA02F10CE002F11402D8BF97
:1008D000C2F1200C01FA02F120FA0CFCDCBF41EA63
:1008E0000C019040E41AA2BF01EB0451294330BD32
:1008F0006FEA04041F3C1CDA0C340EDC04F114040F
:10090000C4F1200220FA04F001FA02F340EA0300E5
:1009100021FA04F345EA030130BDC4F10C04C4F12B
:10092000200220FA02F001FA04F340EA030029460B
:1009300030BD21FA04F0294630BD94F0000F83F455
:10094000801306BF81F480110134013D4EE77FEA38
:10095000645C18BF7FEA655C29D094EA050F08BF84
:1009600090EA020F05D054EA000C04BF1946104665
:1009700030BD91EA030F1EBF0021002030BD5FEAA9
:10098000545C05D14000494128BF41F0004130BDD1
:1009900014F580043CBF01F5801130BD01F0004525
:1009A00045F0FE4141F470014FF0000030BD7FEA98
:1009B000645C1ABF194610467FEA655C1CBF0B4693
:1009C000024650EA013406BF52EA033591EA030FAA
:1009D00041F4002130BD00BF90F0000F04BF0021A2
:1009E000704730B54FF4806404F132044FF00005D5
:1009F0004FF0000150E700BF90F0000F04BF00214E
:100A0000704730B54FF4806404F1320410F00045B3
:100A100048BF40424FF000013EE700BF42004FEAAE
:100A2000E2014FEA31014FEA02701FBF12F07F432B
:100A300093F07F4F81F06051704732F07F4208BFE2
:100A4000704793F07F4F04BF41F40021704730B5E9
:100A50004FF4607401F0004521F000411CE700BF35
:100A600050EA010208BF704730B54FF000050AE0B8
:100A700050EA010208BF704730B511F0004502D5B9
:100A8000404261EB41014FF4806404F132045FEABB
:100A9000915C3FF4D8AE4FF003025FEADC0C18BF64
:100AA00003325FEADC0C18BF033202EBDC02C2F156
:100AB000200300FA03FC20FA02F001FA03FE40EAE8
:100AC0000E0021FA02F11444BDE600BF70B54FF0EC
:100AD000FF0C4CF4E06C1CEA11541DBF1CEA1355CA
:100AE00094EA0C0F95EA0C0F00F0DEF82C4481EA32
:100AF000030621EA4C5123EA4C5350EA013518BF52
:100B000052EA033541F4801143F4801338D0A0FB3E
:100B100002CE4FF00005E1FB02E506F00042E0FBEB
:100B200003E54FF00006E1FB03569CF0000F18BFF1
:100B30004EF0010EA4F1FF04B6F5007F64F5407499
:100B400004D25FEA4E0E6D4146EB060642EAC6212C
:100B500041EA55514FEAC52040EA5E504FEACE2E99
:100B6000B4F1FD0C88BFBCF5E06F1ED8BEF1004F9C
:100B700008BF5FEA500E50F1000041EB045170BD18
:100B800006F0004646EA010140EA020081EA03015C
:100B9000B4EB5C04C2BFD4EB0C0541EA045170BD58
:100BA00041F480114FF0000E013C00F3AB8014F1D2
:100BB000360FDEBF002001F0004170BDC4F100041B
:100BC000203C35DA0C341BDC04F11404C4F120059C
:100BD00000FA05F320FA04F001FA05F240EA0200F7
:100BE00001F0004221F0004110EBD37021FA04F62D
:100BF00042EB06015EEA430E08BF20EAD37070BDE7
:100C0000C4F10C04C4F1200500FA04F320FA05F045
:100C100001FA04F240EA020001F0004110EBD37047
:100C200041F100015EEA430E08BF20EAD37070BDB7
:100C3000C4F1200500FA05F24EEA020E20FA04F390
:100C400001FA05F243EA020321FA04F001F000413F
:100C500021FA04F220EA020000EBD3705EEA430EB0
:100C600008BF20EAD37070BD94F0000F0FD101F0DF
:100C70000046400041EB010111F4801F08BF013C18
:100C8000F7D041EA060195F0000F18BF704703F056
:100C90000046520043EB030313F4801F08BF013DDD
:100CA000F7D043EA0603704794EA0C0F0CEA135599
:100CB00018BF95EA0C0F0CD050EA410618BF52EA53
:100CC0004306D1D181EA030101F000414FF0000059
:100CD00070BD50EA410606BF1046194652EA430667
:100CE00019D094EA0C0F02D150EA013613D195EADB
:100CF0000C0F05D152EA03361CBF104619460AD123
:100D000081EA030101F0004141F0FE4141F470012C
:100D10004FF0000070BD41F0FE4141F4780170BD1C
:100D200070B54FF0FF0C4CF4E06C1CEA11541DBF81
:100D30001CEA135594EA0C0F95EA0C0F00F0A7F883
:100D4000A4EB050481EA030E52EA03354FEA0131B0
:100D500000F088804FEA03334FF0805545EA1313C3
:100D600043EA12634FEA022245EA111545EA10658B
:100D70004FEA00260EF000419D4208BF964244F122
:100D8000FD0404F5407402D25B084FEA3202B61A41
:100D900065EB03055B084FEA32024FF480104FF415
:100DA000002CB6EB020E75EB030E22BFB61A754689
:100DB00040EA0C005B084FEA3202B6EB020E75EB1C
:100DC000030E22BFB61A754640EA5C005B084FEA84
:100DD0003202B6EB020E75EB030E22BFB61A754651
:100DE00040EA9C005B084FEA3202B6EB020E75EB5C
:100DF000030E22BFB61A754640EADC0055EA060E1D
:100E000018D04FEA051545EA16754FEA06164FEA5F
:100E1000C30343EA52734FEAC2025FEA1C1CC0D10B
:100E200011F4801F0BD141EA00014FF000004FF098
:100E3000004CB6E711F4801F04BF01430020B4F159
:100E4000FD0C88BFBCF5E06F3FF6AFAEB5EB030C11
:100E500004BFB6EB020C5FEA500C50F1000041EB0E
:100E6000045170BD0EF0004E4EEA113114EB5C04DB
:100E7000C2BFD4EB0C0541EA045170BD41F48011AE
:100E80004FF0000E013C90E645EA060E8DE60CEAB6
:100E9000135594EA0C0F08BF95EA0C0F3FF43BAFD3
:100EA00094EA0C0F0AD150EA01347FF434AF95EA8A
:100EB0000C0F7FF425AF104619462CE795EA0C0F6E
:100EC00006D152EA03353FF4FDAE1046194622E73B
:100ED00050EA410618BF52EA43067FF4C5AE50EA15
:100EE00041047FF40DAF52EA43057FF4EBAE12E705
:100EF0004FF0FF3C06E000BF4FF0010C02E000BFE6
:100F00004FF0010C4DF804CD4FEA410C7FEA6C5CC8
:100F10004FEA430C18BF7FEA6C5C1BD001B050EA6B
:100F2000410C0CBF52EA430C91EA030F02BF90EA56
:100F3000020F0020704710F1000F91EA030F58BF15
:100F4000994208BF90422CBFD8176FEAE37040F077
:100F5000010070474FEA410C7FEA6C5C02D150EA15
:100F6000013C07D14FEA430C7FEA6C5CD6D152EAD0
:100F7000033CD3D05DF8040B704700BF8446104695
:100F800062468C461946634600E000BF01B5FFF794
:100F9000B7FF002848BF10F1000F01BD4DF808ED64
:100FA000FFF7F4FF0CBF012000205DF808FB00BF35
:100FB0004DF808EDFFF7EAFF34BF012000205DF88F
:100FC00008FB00BF4DF808EDFFF7E0FF94BF0120DC
:100FD00000205DF808FB00BF4DF808EDFFF7CEFFDD
:100FE00094BF012000205DF808FB00BF4DF808ED1C
:100FF000FFF7C4FF34BF012000205DF808FB00BFED
:101000004FEA410C7FEA6C5C02D150EA013C0AD104
:101010004FEA430C7FEA6C5C02D152EA033C02D1F6
:101020004FF0000070474FF0010070474FEA410257
:1010300012F5001215D211D56FF47873B3EB62522A
:1010400012D94FEAC12343F0004343EA505311F051
:10105000004F23FA02F018BF404270474FF00000E3
:10106000704750EA013005D111F0004008BF6FF021
:10107000004070474FF00000704700BF80F0004014
:1010800002E000BF81F0004142001FBF5FEA410360
:1010900092EA030F7FEA226C7FEA236C6AD04FEA60
:1010A0001262D2EB1363C1BFD218414048404140A5
:1010B000B8BF5B42192B88BF704710F0004F40F457
:1010C000000020F07F4018BF404211F0004F41F473
:1010D000000121F07F4118BF494292EA030F3FD03F
:1010E000A2F1010241FA03FC10EB0C00C3F1200352
:1010F00001FA03F100F0004302D5494260EB4000E1
:10110000B0F5000F13D3B0F1807F06D340084FEA4B
:10111000310102F10102FE2A51D2B1F1004F40EB40
:10112000C25008BF20F0010040EA030070474900A8
:1011300040EB0000013A28BFB0F5000FEDD2B0FA45
:1011400080FCACF1080CB2EB0C0200FA0CF0AABF68
:1011500000EBC25052421843BCBFD0401843704706
:1011600092F0000F81F4000106BF80F4000001320C
:10117000013BB5E74FEA41037FEA226C18BF7FEAE3
:10118000236C21D092EA030F04D092F0000F08BF25
:101190000846704790EA010F1CBF0020704712F00C
:1011A0007F4F04D1400028BF40F00040704712F14B
:1011B00000723CBF00F50000704700F0004343F0B0
:1011C000FE4040F4000070477FEA226216BF0846E6
:1011D0007FEA23630146420206BF5FEA412390EAA9
:1011E000010F40F4800070474FF0000304E000BF9F
:1011F00010F0004348BF40425FEA000C08BF704750
:1012000043F0964301464FF000001CE050EA010213
:1012100008BF70474FF000030AE000BF50EA010228
:1012200008BF704711F0004302D5404261EB410115
:101230005FEA010C02BF84460146002043F0B6433A
:1012400008BFA3F18053A3F50003BCFA8CF2083A5F
:10125000A3EBC25310DB01FA02FC634400FA02FC68
:10126000C2F12002BCF1004F20FA02F243EB02006F
:1012700008BF20F00100704702F1200201FA02FCD1
:10128000C2F1200250EA4C0021FA02F243EB0200C4
:1012900008BF20EADC7070474FF0FF0C1CEAD05208
:1012A0001EBF1CEAD15392EA0C0F93EA0C0F6FD0C9
:1012B0001A4480EA010C400218BF5FEA41211ED0A7
:1012C0004FF0006343EA501043EA5111A0FB013193
:1012D0000CF00040B1F5000F3EBF490041EAD37168
:1012E0005B0040EA010062F17F02FD2A1DD8B3F1E4
:1012F000004F40EBC25008BF20F00100704790F053
:10130000000F0CF0004C08BF49024CEA502040EAA4
:1013100051207F3AC2BFD2F1FF0340EAC25070476A
:1013200040F400004FF00003013A5DDC12F1190FA8
:10133000DCBF00F000407047C2F10002410021FA1A
:1013400002F1C2F1200200FA02FC5FEA310040F132
:10135000000053EA4C0308BF20EADC70704792F0AB
:10136000000F00F0004C02BF400010F4000F013AE3
:10137000F9D040EA0C0093F0000F01F0004C02BFDE
:10138000490011F4000F013BF9D041EA0C018FE74D
:101390000CEAD15392EA0C0F18BF93EA0C0F0AD053
:1013A00030F0004C18BF31F0004CD8D180EA010079
:1013B00000F00040704790F0000F17BF90F0004F12
:1013C000084691F0000F91F0004F14D092EA0C0FF4
:1013D00001D142020FD193EA0C0F03D14B0218BF87
:1013E000084608D180EA010000F0004040F0FE40CD
:1013F00040F40000704740F0FE4040F44000704769
:101400004FF0FF0C1CEAD0521EBF1CEAD15392EAE7
:101410000C0F93EA0C0F69D0A2EB030280EA010CD7
:1014200049024FEA402037D04FF0805343EA111170
:1014300043EA10130CF000408B4238BF5B0042F1CE
:101440007D024FF4000C8B4224BF5B1A40EA0C0073
:10145000B3EB510F24BFA3EB510340EA5C00B3EBA5
:10146000910F24BFA3EB910340EA9C00B3EBD10F93
:1014700024BFA3EBD10340EADC001B0118BF5FEAE5
:101480001C1CE0D1FD2A3FF650AF8B4240EBC2500E
:1014900008BF20F0010070470CF0004C4CEA5020CF
:1014A0007F32C2BFD2F1FF0340EAC250704740F41E
:1014B00000004FF00003013A37E792F0000F00F010
:1014C000004C02BF400010F4000F013AF9D040EA8E
:1014D0000C0093F0000F01F0004C02BF490011F422
:1014E000000F013BF9D041EA0C0195E70CEAD1531A
:1014F00092EA0C0F08D142027FF47DAF93EA0C0F01
:101500007FF470AF084676E793EA0C0F04D14B02E4
:101510003FF44CAF08466EE730F0004C18BF31F096
:10152000004CCAD130F000427FF45CAF31F0004390
:101530007FF43CAF5FE700BF4FF0FF3C06E000BF29
:101540004FF0010C02E000BF4FF0010C4DF804CD4C
:101550004FEA40024FEA41037FEA226C18BF7FEA5C
:10156000236C11D001B052EA530C18BF90EA010F5E
:1015700058BFB2EB030088BFC81738BF6FEAE170ED
:1015800018BF40F0010070477FEA226C02D15FEA89
:10159000402C05D17FEA236CE4D15FEA412CE1D0F5
:1015A0005DF8040B704700BF844608466146FFE7BC
:1015B0000FB5FFF7C9FF002848BF10F1000F0FBD9E
:1015C0004DF808EDFFF7F4FF0CBF012000205DF897
:1015D00008FB00BF4DF808EDFFF7EAFF34BF01201C
:1015E00000205DF808FB00BF4DF808EDFFF7E0FFB5
:1015F00094BF012000205DF808FB00BF4DF808ED06
:10160000FFF7D2FF94BF012000205DF808FB00BF68
:101610004DF808EDFFF7C8FF34BF012000205DF84A
:1016200008FB00BF7BB972B90029BEBF00204FF094
:10163000004106E008BF00281CBF6FF000414FF0DA
:10164000FF3000F077B8ADF1080C6DE904CE002949
:1016500009DB002B1ADB00F0A2F8DDF804E0DDE97D
:10166000022304B07047404261EB4101002B1BDBB9
:1016700000F095F8DDF804E0DDE9022304B0404213
:1016800061EB4101524263EB43037047524263EB0B
:10169000430300F084F8DDF804E0DDE9022304B040
:1016A000404261EB41017047524263EB430300F05B
:1016B00076F8DDF804E0DDE9022304B0524263EB82
:1016C0004303704753B94AB9002908BF00281CBF1B
:1016D0004FF0FF314FF0FF3000F02CB8ADF1080CA7
:1016E0006DE904CE00F05BF8DDF804E0DDE90223EB
:1016F00004B07047D0B5FFF791F90C4B00220646B5
:101700000F46FFF7E3F900F017F80446FFF764F916
:10171000074B0022FFF7DAF902460B4630463946FE
:10172000FFF71CF800F008F82146D0BD0000F03D9E
:101730000000F041704700BF4A0011D212F50012BC
:1017400011D20DD56FF47873B3EB62520ED44FEA19
:10175000C12343F0004343EA505323FA02F0704799
:101760004FF00000704750EA013002D14FF0FF30D7
:1017700070474FF00000704710B500210446FFF796
:1017800029FF20B92046BDE81040FFF7B3BF04F1A0
:101790000040FFF7AFFF404261EB410110BD2DE972
:1017A000F04786468C460846089E154674461946FC
:1017B000002B40F0C2808542B2FA82F245D94AB18C
:1017C000C2F1200300FA02FC2EFA03F3954043EA2B
:1017D0000C0C94404FEA154EA8B2BCFBFEF8230C4B
:1017E0000EFB18CC08FB00F943EA0C43994528D9B5
:1017F000EB1808F1FF3704D2994502D9A8F1020786
:101800002B44A3EB0903A4B2B3FBFEFC0EFB1C3379
:101810000CFB00F044EA0344A04214D92C190CF14B
:10182000FF3304D2A04202D9ACF102032C44241AA3
:1018300043EA07401EB1D440002334607360BDE822
:10184000F0874746DDE76346F1E792BB431B012182
:101850004FEA154EAFB2B3FBFEFC200C0EFB1C335F
:101860000CFB07F840EA0343984562D9EB180CF1EA
:10187000FF3004D2984502D9ACF102002B44A3EB0F
:101880000803A4B2B3FBFEFC0EFB1C330CFB07F7F2
:1018900044EA0344A7424ED92C190CF1FF3304D279
:1018A000A74202D9ACF102032C44E41B43EA0040F6
:1018B000C0E7C2F1200320FA03F1954090402EFAD0
:1018C00003F303434FEA154EAFB2B1FBFEFC0EFB30
:1018D0001C10190C0CFB07F841EA0041884504FA7A
:1018E00002F422D969180CF1FF3004D2884502D9DC
:1018F000ACF102002944A1EB08019BB2B1FBFEFC54
:101900000EFB1C110CFB07F743EA01439F420ED963
:10191000EB180CF1FF3104D29F4202D9ACF1020165
:101920002B44DB1B41EA004192E76046E3E7614656
:10193000F7E76046A3E76346B7E7834206D916B9DF
:10194000002108467BE7C6E900E0F9E7B3FA83F730
:101950008FB9834201D3724508D8BEEB020460EB15
:10196000030301209C461EB9002168E73846FAE7C8
:10197000C6E9004CF8E7C7F1200CBB4022FA0CF492
:101980001C432EFA0CF120FA0CF3B84001434FEA45
:1019900014490EFA07F5B3FBF9F81FFA84FE09FBA8
:1019A00018300B0C08FB0EFA43EA00439A4502FA82
:1019B00007F240D9E31808F1FF3004D29A4502D962
:1019C000A8F102002344A3EB0A0389B2B3FBF9F8A0
:1019D00009FB183308FB0EFE41EA03418E452CD962
:1019E000611808F1FF3304D28E4502D9A8F1020331
:1019F000214443EA0040A0FB0298A1EB0E014145BF
:101A0000CE46434602D306D14D4504D2B9EB020E71
:101A100068EB04030138002EA6D0B5EB0E0261EB93
:101A2000030101FA0CFC22FA07F34CEA0303F94024
:101A3000C6E9003198E74046C5E74346D9E70000CC
:101A400010B50468E217530143EAD4636101091B2E
:101A500063EB02035B0243EAD1534902091942EBEB
:101A6000030C4FEA8C1E4EEA916E8B015B1A6EEBF3
:101A70000C0E1B1942EB0E0241685B1842EBE1723F
:101A8000012B72F100011ADBD91842EB0200CB18CE
:101A900042EB0002110141EA13711801C01A61EB17
:101AA0000201890041EA90718000154BC01812A311
:101AB000D3E9002341F10001FFF7B4FD10BDD918AF
:101AC00042EB0200CB1842EB0002110141EA137114
:101AD0001801C01A61EB0201890041EA907180008F
:101AE000084BC01804A3D3E9002361F10001FFF7FC
:101AF00099FDE3E7AFF30080D8EF2F00000000006E
:101B0000ECF717001408E8FF38B50446002A43D064
:101B1000072A45D11D68E9174A0142EAD5624FEA12
:101B2000451CBCEB050C62EB0102520242EADC529E
:101B30004FEA4C2C1CEB050C41EB02004FEA801ED7
:101B40004EEA9C6E4FEA8C12B2EB0C026EEB000E6A
:101B5000521941EB0E015868831841EBE071012BDB
:101B600071F100020DDB124818180FA3D3E900230E
:101B700041F10001FFF756FD0146204605F06EFBDE
:101B800010E00C48181808A3D3E9002361F1000104
:101B9000FFF748FD0146F0E7198810F02BFD01E042
:101BA0006FF0850038BD00BF3AA39500000000002B
:101BB0009DD14A00632EB5FF2DE9F8430C46174628
:101BC0001D46032800F2D780DFE800F002274B6FA4
:101BD0001068FFF70DFB2946FFF75EFBFFF7CCFD12
:101BE0000546C017684BA5FB035603FB006664A3BC
:101BF000D3E9002328463146FFF714FD2060634AED
:101C0000002328463146FFF70DFD604A0023FFF709
:101C100009FD62600020BDE8F8835068FFF7E8FA2C
:101C20002946FFF739FBFFF7A7FD0546C017564BBE
:101C3000A5FB035603FB006651A3D3E90023284606
:101C40003146FFF7EFFC2060504A0023284631461A
:101C5000FFF7E8FC4D4A0023FFF7E4FC6260002038
:101C6000D9E79068FFF7C4FA2946FFF715FBFFF79D
:101C700083FD0546C017444BA5FB035603FB0066D6
:101C80003FA3D3E9002328463146FFF7CBFC206071
:101C90003E4A002328463146FFF7C4FC3B4A002356
:101CA000FFF7C0FC62600020B5E71068FFF7A0FAFC
:101CB0002946FFF7F1FAFFF75FFD8046C017324E65
:101CC000A8FB069806FB00882DA3D3E9002348460D
:101CD0004146FFF7A7FC20602C4A002348464146B6
:101CE000FFF7A0FC294A0023FFF79CFC626078689C
:101CF000FFF77EFA2946FFF7CFFAFFF73DFD804652
:101D0000C017A8FB069806FB00881DA3D3E9002393
:101D100048464146FFF786FCA0601C4A002348461F
:101D20004146FFF77FFC194A0023FFF77BFCE26086
:101D3000B868FFF75DFA2946FFF7AEFAFFF71CFD1A
:101D40000546C017A5FB065306FB00360CA3D3E9D6
:101D5000002328463146FFF765FC20610B4A00232B
:101D600028463146FFF75EFC084A0023FFF75AFC7D
:101D7000626100204FE76FF085004CE7AFF3008011
:101D80000010A5D4E80000003AA3950040420F00DF
:101D90002DE9F0410D4617461E460438032800F28F
:101DA0009581DFE800F0024587C91069FFF720FA46
:101DB0003146FFF771FACC49FFF722FBFFF7DCFC55
:101DC0000246C017931840EB00069C1840EB06062D
:101DD000360246EA14662402A41A66EB0006F601EF
:101DE00046EA5466E401A41A66EB0006B60046EA29
:101DF0009476A400A41A66EB0006F60046EA547630
:101E0000E400B5A3D3E9002320463146FFF70AFCDE
:101E10002860B3A3D3E9002320463146FFF702FC34
:101E2000B24A0023FFF7FEFB6A600020BDE8F081A4
:101E30005069FFF7DDF93146FFF72EFAAA49FFF79F
:101E4000DFFAFFF799FC0246C017931840EB000633
:101E50009C1840EB0606360246EA14662402A41AD1
:101E600066EB0006F60146EA5466E401A41A66EB46
:101E70000006B60046EA9476A400A41A66EB0006B3
:101E8000F60046EA5476E40093A3D3E90023204603
:101E90003146FFF7C7FB286091A3D3E90023204612
:101EA0003146FFF7BFFB914A0023FFF7BBFB6A6097
:101EB0000020BBE79069FFF79BF93146FFF7ECF98B
:101EC0008949FFF79DFAFFF757FC0246C0179318A0
:101ED00040EB00069C1840EB0606360246EA146604
:101EE0002402A41A66EB0006F60146EA5466E401F1
:101EF000A41A66EB0006B60046EA9476A400A41A7B
:101F000066EB0006F60046EA5476E40072A3D3E9D5
:101F1000002320463146FFF785FB286070A3D3E9F4
:101F2000002320463146FFF77DFB704A0023FFF770
:101F300079FB6A60002079E71069FFF759F93146AB
:101F4000FFF7AAF96849FFF75BFAFFF715FC0246AD
:101F5000C017931840EB00089C1840EB08084FEAA4
:101F6000082848EA14682402A41A68EB00084FEA1B
:101F7000C81848EA5468E401A41A68EB00084FEA5C
:101F8000880848EA9478A400A41A68EB00084FEA8D
:101F9000C80848EA5478E4004FA3D3E90023204658
:101FA0004146FFF73FFB28604DA3D3E900232046BD
:101FB0004146FFF737FB4D4A0023FFF733FB6A60CA
:101FC0007869FFF715F93146FFF766F94649FFF7DB
:101FD00017FAFFF7D1FB0346C017DC1840EB0008E7
:101FE000E41840EB08084FEA082848EA146824027D
:101FF000E41A68EB00084FEAC81848EA5468E4019C
:10200000E41A68EB00084FEA880848EA9478A400CC
:10201000E41A68EB00084FEAC80848EA5478E4007C
:102020002DA3D3E9002320464146FFF7FBFAA86021
:102030002BA3D3E9002320464146FFF7F3FA2B4AAE
:102040000023FFF7EFFAEA60B869FFF7D1F83146ED
:10205000FFF722F92449FFF7D3F9FFF78DFB02467A
:10206000C017931840EB00069C1840EB060636029A
:1020700046EA14662402A41A66EB0006F60146EA54
:102080005466E401A41A66EB0006B60046EA9476AC
:10209000A400A41A66EB0006F60046EA5476E400B3
:1020A0000DA3D3E9002320463146FFF7BBFA286190
:1020B0000BA3D3E9002320463146FFF7B3FA0B4ABE
:1020C0000023FFF7AFFA6A610020AFE66FF08500EA
:1020D000ACE600BFAFF3008000209BF35E10000071
:1020E00080A81201000000000000204140420F00C3
:1020F0002DE9F04F016C9FB016461F46CDE90467ED
:102100002B9D039049B1426C4A60012393400446E1
:102110008B600BF0B5FC00232364B7F10009B4BF5A
:10212000012300232B60764BBCBF29F00049CDF87A
:10213000149033EA090300F0AA80DDE90434002298
:10214000184621460023CDE90801FEF727FF804607
:1021500068B12A9A012313602C9B13B12C9A694B06
:102160001360694B0A930A981FB0BDE8F08F1CAB4F
:1021700001931DAB00930398DDE908230BF0B4FF36
:102180005FEA1955824640F09880DDE91C85454498
:1021900005F23243202B40F38383C3F1400309FA55
:1021A00003F905F2124326FA03F349EA0300FEF7A6
:1021B00013FC0123013DA1F1F8711193534B00224F
:1021C000FEF7CCFA48A3D3E90023FEF77FFC48A32F
:1021D000D3E90023FEF7C4FA064628460F46FEF769
:1021E0000BFC45A3D3E90023FEF770FC02460B4627
:1021F00030463946FEF7B4FA06460F46FEF716FF9C
:1022000000228346002330463946FEF7D1FE0028DF
:1022100040F01A83A8EB0508BBF1160F08F1FF3454
:1022200000F28B813A4D05EBCB05D5E90023DDE9C2
:102230000801FEF7BDFE002870D00023002C0BF132
:10224000FF3B1093C0F27E8100230B93BBF1000F84
:102250006ADA0B9BA3EB0B030B93CBF10003CDE9E5
:102260000EB3289B092B4FF0000B65D8052B40F3CC
:102270001C83043B28930025289B023B032B00F280
:102280002386DFE813F060045D04540438042A9ABE
:10229000C9F3130942F20F7359EA060913601CD1FE
:1022A0002C9B002B00F02B861A4B0A9308332C9A98
:1022B0000A9813601FB0BDE8F08FDDE90812C2F381
:1022C0001303084643F07F51CDF84480A5F2FF3553
:1022D000DDF8708041F4401170E72C9B002B40F03A
:1022E000E7830D4B0A933EE761436F63A787D23FB5
:1022F000B3C8608B288AC63FFB799F501344D33FF5
:102300000000F07F69690108686901080000F83F72
:10231000086001083479010840790108B8F1000F1C
:1023200040F3608410900B9000230F93289BCDF80E
:1023300038B0092B5C4499D90023CDE92833012515
:102340004FF0FF330C950693039B00215964069BC5
:10235000189303980BF06EFB0A90002800F0BD85DF
:10236000039B0A9A1A64069B0E2B00F21581002D1E
:1023700000F012810E9A002A40F33B84B24D02F025
:102380000F0305EBC303D3E9008913461511DA05E2
:1023900040F1FA83AD4BDDE90801D3E90823FEF7EC
:1023A000BFFCCDE9120105F00F0503277DB1A74E53
:1023B000EB0708D540464946D6E90023FEF786FBE1
:1023C0000137804689466D1006F10806F0D1424675
:1023D0004B46DDE91201FEF7A3FC80468946109BBF
:1023E00043B19B4B002240464946FEF7E1FD0028E1
:1023F00040F0F1843846FEF7FFFA42464B46FEF7BE
:1024000065FB944B0022FEF7ABF9069B0646A1F153
:102410005077002B00F0A9800E9B1993069B129316
:102420000A9B894D49464046CDE914675E1CFEF77C
:10243000FDFD129905EBC10353E902120746CDE9F0
:102440001612FEF7D9FA02460B4640464946FEF7F9
:1024500085F989460C993037DDE916238046FFB2AD
:10246000002900F053847C490020FEF759FCDDE987
:102470001423FEF773F90A9D02460B46CDE9142397
:102480002F7042464B46FEF7B1FD002840F097847E
:10249000CDE91AB4CDF858A0129DDDE914AB0027A0
:1024A0002AE00137AF4280F2DE846C4B5046594639
:1024B0000022FEF70BFB694B002282468B4640460A
:1024C0004946FEF703FB89468046FEF7AFFD04460A
:1024D000FEF792FA02460B4640464946FEF73EF9A1
:1024E000303406F8014B52465B4680468946FEF77B
:1024F0005FFD002840F0B48442464B46544900201A
:10250000FEF72CF952465B46FEF752FD0028C8D074
:10251000199BDDF858A00A9A374603F1010802E03A
:10252000974200F07C843E4617F8013D392BF7D0E6
:102530000133DBB23B70454675E10123002C10935B
:10254000BFF682AEC8F101030B9300247EE6384645
:10255000FEF752FA42464B46FEF7B8FA3D4B0022D0
:10256000FEF7FEF80646A1F150773D4B404649463E
:102570000022FEF7F3F832463B4680468946FEF7D6
:1025800035FD002840F05A8440464946324607F15E
:102590000043FEF70DFD28BB1D9B002BC0F292806F
:1025A0000E9A0E2A00F38E80274D0E9B05EBC30575
:1025B000D5E90034CDE90434299B002B19DA069BB8
:1025C000002B16DC0ED1264B0022DDE90401FEF7BC
:1025D0007DFA02460B46DDE90801FEF7F3FC002810
:1025E00000F02C844FF000090A9E4F46299BDD43E2
:1025F00025E2DDE90445DDE9088922462B4640460F
:102600004946FEF78DFBFEF711FD0646FEF7F4F98D
:1026100022462B46FEF75AFA0A9F0B4602464946C7
:102620004046FEF79BF806F1300307F8013B069B96
:10263000012B00F012830125CDF818A09946DDE9A1
:1026400004ABA8462CE000BF08600108E05F010869
:102650000000F03F00001C400000E03F000024406C
:102660000000144052465B4620462946FEF758FBC0
:10267000FEF7DCFC0646FEF7BFF952465B46FEF766
:1026800025FA08F101080B46024629462046FEF7C6
:1026900065F806F13003C84507F8013B00F0DB821E
:1026A000B94B0022FEF712FA0022002304460D4621
:1026B000FEF774FC0028D5D00E9DDDF818A001357A
:1026C0003E46B0E00C9A002A40F0D28000230F9DD5
:1026D0000B9E0C931F4656B1002C08DDA6420B9AA8
:1026E0003346A8BF2346D21A0B92F61AE41A0F9B60
:1026F00053B10C9B13B1002D40F0E88251460F9A64
:1027000003980BF04DFB8246039801210BF064FA0D
:102710008146BBF1000F40F0B681289B012B40F3AE
:10272000CC810120204410F01F0000F09A80C0F1FD
:102730002003042B40F3DA810B9BC0F11C000344FF
:102740000B93064404440B9B002B05DD5146039874
:102750001A460BF07FFB8246002C05DD49460398A4
:1027600022460BF077FB8146109B002B40F07081D6
:10277000069B002B40F348810C9B002B40F0A4806B
:102780000E9D0135DDF82880069CDDF80CB0012691
:1027900007E0514600230A2258460BF07BF9013628
:1027A0008246494650460AF05FFFA64200F13003D8
:1027B00008F8013BEDDB069A002AC8BF16460A9AC4
:1027C000D8BF012602EB060B0024514601220398D4
:1027D00004930BF03FFB494682460BF0B3FB002805
:1027E00040F3E3810A9A02E05A4500F0E9815E462F
:1027F0000BF1FF3B16F8013C392BF5D001338BF878
:102800000030DDF80C80494640460BF039F957B1ED
:102810002CB1BC4203D0214640460BF031F903985D
:1028200039460BF02DF9039851460BF029F9002396
:1028300033702A9B1D602C9B002B3FF494AC0A98AC
:102840001E601FB0BDE8F08F5846FEF7D5F832463F
:102850003B46FEF7A3FB00287FF4DCAC0BF1FF3B0B
:10286000D8E41C230B9A1A440B921E441C446AE7BA
:10287000289A012A40F3A981069A0F9B551EAB4264
:10288000C0F26B81002AA3EB050580F2DD820B9B71
:10289000069A9E1A039801210BF09EF907461AE743
:1028A000C3F1200306FA03F081E40125E4E439468C
:1028B000002303980A220BF0EDF8189B002B074623
:1028C00040F3EF820E950693002E00F33F81BBF19B
:1028D000000F40F0DF81B8460A9E069C731E1C4420
:1028E000049B0C9403F00103039C0F93494650464C
:1028F0000AF0BAFE3946834650460BF023FB4246A7
:102900004946054620460BF03DFBC26801460BF1E7
:102910003003002A3AD1089050460B930BF012FB7B
:102920000899069020460BF0ABF8069A0B9B002AFC
:102930005AD1289A1AB90F9A002A00F09A82002DCB
:1029400045DB0C9AB346B2420BF8013B00F0B9816B
:10295000514600230A2220460BF09CF84745824648
:1029600039464FF000034FF00A02204636D00BF0F4
:1029700091F84146074600230A2220460BF08AF8C8
:102980005E468046B2E700BF0000244003980693ED
:102990000BF076F8002D069B06DB049A289902F0CE
:1029A00001020D432A432AD1514601220398049380
:1029B0000BF050FA494682460BF0C4FA0028049BFB
:1029C00040F3E880392B00F02F820BF131030E9D8C
:1029D00006F8013B3C460135474612E70BF05AF832
:1029E0005E460746804681E7002DC0F27D82289929
:1029F0000D430F990D4300F07782002AA1DD392B9A
:102A000000F012820133E2E7289B022B7FF7B4AE7D
:102A1000069B002B40F01D814946052203980BF0D0
:102A200039F80146814650460BF08CFA002840F3F5
:102A300010810A9E0E9D312306F8013B0135039853
:102A4000494601350BF01CF8002F7FF4E8AEEAE6AA
:102A5000494650460BF076FA0028BFF689AE51463B
:102A6000002303980A220BF015F80E9B5D1E0C9BA9
:102A70008246002B7FF41BAF189B002B40F3FF8195
:102A80000E9D06937EE601465A4603980BF088F9A0
:102A9000289B012B81466CDD4FF0000BD9F81030DC
:102AA00009EB830318690BF045F8C0F1200039E603
:102AB000924B0A930333FFF7FABB049B002B7FF47E
:102AC00030AEDDE90412C2F31303002B7FF429AE0C
:102AD0008B4B134023B10B9B01330B930134012328
:102AE000BBF1000F40F0AE819B461AE63FF42BAEDF
:102AF000C0F13C03B6E601230C93299B0E9A1344C4
:102B000018930133012B1E460693B8BF0126172EDA
:102B100040F3D581012204235B0003F11400B0428D
:102B2000114602F10102F7D9039B596411E4012314
:102B30000C93299B002B33DD189306931E46E6E782
:102B400000230C93D9E700230C93F2E7394603984E
:102B500032460BF07FF90746B9E60F9B069A0F95B0
:102B6000EB1A9B440B9B1E46134414440B93002505
:102B700090E6049B002B8FD1DDE90401C1F3130320
:102B80000A46002B88D1A3E7DDE908230227CDE917
:102B900012230BE47FF41BAFDA077FF518AF11E7C0
:102BA000012329930693FFF7CFBB03D1049BDB07D7
:102BB0003FF518AE5E461BF8013D302BFAD020E6FB
:102BC0000A9A3123013513701BE6119A002A00F08E
:102BD000F98003F233430B9A0F9D16461A441C44A6
:102BE0000B9257E6C8F1010304460B931090FFF7D0
:102BF0009BBB00F0EB800E9B424D5E4206F00F0344
:102C000005EBC303D3E90023DDE90801FDF75EFF0F
:102C10003511CDE9120100F04D813B4E0023022712
:102C200080468946E80709D5D6E90023404649464B
:102C3000FDF74CFF01378046894601236D1006F1F0
:102C40000806EFD1002B7FF4CAABDDE91289FFF74C
:102C5000C6BB0A9ECAE4DDF818A00E9D02460B46CC
:102C6000FDF77EFD02460B46CDE906230135DDE981
:102C70000423A846FEF7BAF940B9DDE90423DDE9EB
:102C80000601FEF78BF918B1F10701D50A9A4AE45B
:102C90003E46C8E5796803980AF0CCFE0546002850
:102CA00000F026813B6902339A0007F10C010C30D9
:102CB000FDF7B6FC0398294601220BF0CBF88046BD
:102CC0000AE60E9D3C46013547467EE5DDF80C8060
:102CD00039462A4640460BF063F8524601460746FD
:102CE00040460AF0A7FF5146824640460AF0C8FE19
:102CF0000F9B5B1B0F933FF407ADFFE44079010886
:102D00000000F07F08600108E05F0108DDE91401C0
:102D1000FDF7DCFE0A9B1F70129B012BCDE90C0115
:102D200000F0C680129F0A9BCDF844B01F447C4B34
:102D3000002240464946FDF7C9FE89468046FEF717
:102D400075F98346FDF758FE0BF1300B02460B4632
:102D500040464946FDF702FD06F801BBB7428046F2
:102D60008946E4D1DDF844B06E4B0022DDE90C0168
:102D7000FDF7F6FC02460B4640464946FEF736F99B
:102D8000002867D1DDE90C2366490020FDF7E6FC49
:102D900002460B4640464946FEF70AF948B91D9BD4
:102DA000002BFFF693AC0E9B0E2B3FF78FACFFF77B
:102DB000FCBB3E46013F16F8013C302BF9D0199D73
:102DC000013530E51C9BC3F1360304E7DDE90889D2
:102DD0000227FFF704BB069B002B3FF4B8AB189B00
:102DE000002B7FF7D9AB0E9A1293013A4C4B1992F4
:102DF000404600224946FDF769FE80468946781C18
:102E0000FDF7FAFD42464B46FDF760FE464B0022B9
:102E1000FDF7A6FC0646A1F15077FFF701BB08F1CC
:102E200001083123FFF786BB0E9D0A9AB34639236A
:102E30003C460BF8013B01354746D8E44FF000090A
:102E40004F46F6E59B4629E60B9B1E461344144469
:102E50000B931FE5199B0A9A03F10108FFF763BB67
:102E6000DDF858A0ABE7DDE91AB4DDF858A0FFF7AC
:102E700093BB392BD8D0002D3FF7A7ADA7E5289BF2
:102E8000022B0ADC189B069349460E9D0AF0ECFBC8
:102E90000A9A00F1300313708DE4189B06930E9587
:102EA000B6E5289B022BF8DC189B0E9506930BE5E4
:102EB000374659E7DDE912890227FFF790BA039BED
:102EC00000215964FFF745BA039B00255D6429463C
:102ED00018460AF0AFFD0A90A8B9144B1448002216
:102EE0004FF4D5710BF01AFA002A7FF770AD5BE54D
:102EF0000E4B0F482A4640F2EA210BF00FFA0D4B19
:102F00000A93FFF730B9039B0A9A1A644FF0FF3314
:102F10000122299518930C920693FFF73DBB00BF41
:102F2000000024400000E03F00001C4044790108FC
:102F3000587901083479010838B5836805699C69B6
:102F40007CB112F4000F06D02D6801238B401D4286
:102F500001D082F0C062044B134002F0B072A0476F
:102F600038BD6FF05700FBE74000000608B5024887
:102F700007F07EF808BD00BFB80B002030B583B065
:102F800000F0F00041EA000444F00C038DF8043036
:102F90000C4D2723012201A928460CF0F7FF012040
:102FA00007F03EFE44F008048DF805402723012277
:102FB0000DF1050128460CF0E9FF322007F030FE44
:102FC00003B030BDB459010870B58EB032238DF80E
:102FD0002F300DF07FF83A480DF062F83CE09DF894
:102FE0003140240224B29DF830301C439DF8335008
:102FF0002D022DB29DF832301D439DF8356036020A
:1030000036B29DF834301E4301200DF02DF8022019
:103010000DF050F8009523462A4A202103A808F015
:1030200031FD80200DF020F803A80DF039F833466B
:10303000254A202103A808F025FDC0200DF014F832
:1030400003A80DF02DF833462A4621461F480DF0FF
:1030500018F9C8200DF02EF84FF0FF324FF0FF3373
:103060001B4807F049F801200CF0FEFF02200DF08C
:1030700021F880200CF0F8FF16480DF011F8C02060
:103080000CF0F2FF14480DF00BF84FF448700DF0FF
:1030900011F8062301930CAB009301230DF12F02CD
:1030A00053210E480CF080FF002898D001200CF02E
:1030B000DBFF0B480CF0F4FF0A480DF0E2F8C8E71C
:1030C000D0600108006101080C6101081861010865
:1030D000B80B0020E0600108F06001089859010871
:1030E000386101084461010810B582B0154812F03A
:1030F0003CF810B9002002B010BD134812F035F8AA
:103100000028F7D040F62D03ADF8043053230222F7
:1031100001A90D480CF03AFF0C4C4FF480312046C9
:103120000CF08DFF4FF0B86120460CF053FF0849BA
:10313000084B4B604FF400538B6007480CF08AFF3C
:10314000D8E700BFB4590108985901086C6101081B
:10315000581400206D2F00080C5901082DE9F04F7C
:1031600091B005920293134602F004020092C3F359
:10317000C20210F00303019340F02B8280468A467E
:103180000132041D00284FD0B8F1000F05D0A4EB88
:1031900008030433534500F21F82029B5D1E019B0E
:1031A00004930693039300264FF0FF3B0427B94690
:1031B000B8F1000F01D0029B2360531E0793002A31
:1031C00040F35D81059B13F0020228D00120A4EB9F
:1031D00008018B081AB1B1F5007F80F003820399D2
:1031E0000F2900F20282B8F1000F00F06081DBB21B
:1031F00001F140026A4402F8103C02F820BC0028A9
:1032000000F0518163F07F0301F140026A4402F84B
:10321000103C049B01330493039B01330393043458
:103220000022CC4640463DE001F0070A5444CAF172
:10323000080AA9E7002634E0002632E0002630E044
:103240000827BC462DE025292BD10BF1010B0126C7
:103250000427BC4625E04729EED82A2914D32A3969
:10326000C9B24FF0010E0EFA01F14FF6DA7E11EA03
:103270000E0F16D111F0625F40F0C08011F0010F07
:1032800040F08C8000260CE0252903D10BF1FF3B98
:10329000002606E001D9002603E0202901D02329D9
:1032A000CCD11D466B1C6978002900F01981002ED5
:1032B000C9D07A29BED84C29CDD34C392E2961D812
:1032C0000FF2040E5EF821F0A332000885330008E7
:1032D00085330008853300088533000885330008EE
:1032E00085330008853300088533000885330008DE
:1032F00085330008853300089533000885330008BE
:1033000085330008853300088533000885330008BD
:10331000853300088533000885330008FD33000835
:10332000853300089533000895330008FD33000805
:10333000FD330008FD330008A33200089533000870
:103340004132000885330008A332000885330008A5
:1033500059340008953300085934000885330008B3
:1033600085330008613400088F3300089533000866
:10337000853300088533000895330008853300083D
:103380008933000800268CE70427BC4689E7042718
:10339000BC4686E729786C2924D000263C44013CB1
:1033A000B4FBF7F407FB04F420B1211A6144514542
:1033B00000F21581002A58D1BCF1040F00F088807A
:1033C000BCF1080F40F014811A99073121F0070170
:1033D00001F108051A95D1E9008908B1C4E900890D
:1033E00008345EE713F8021C6C2903D0002604277A
:1033F000BC46D3E700260827BC46CFE729784C29EE
:103400001AD01A99073121F0070101F108061A961E
:10341000D1E90067073424F0070440B1211A0831CC
:10342000514513D829784C2913D0C4E900670834D2
:1034300000260827BC4634E71A99073121F0070116
:1034400001F108061A96D1E90067E3E76FF01B0067
:10345000BCE0C4E90067EAE700260427BC469DE714
:10346000324600260427BC4698E7E14680461A9A71
:10347000111D1A9112680292079A1D4698E6624B36
:10348000029A9A4204D3614B9A420AD3002300E085
:103490000023002B7FF496AE059B03F00202002070
:1034A00095E60123F5E7069B01330693B4E610B1D8
:1034B0000AF1010AB0E6009B13B10AF1020AABE679
:1034C0000298FCF77DFE0AEB000303F1020AA3E673
:1034D0001A990D1D1A95096800B121600434E0E6BF
:1034E0008046231AB3F5806F80F0858090B100226A
:1034F00002609B080370009B83B1069BC370049B12
:1035000088F802301BBB019DDDF80C90DDF810B08F
:10351000029F3DE05344A3F1080057E0069B43702F
:10352000EDE701339842EED903F140026A4412F804
:10353000101C12F9102C002AF3DA01F07F01A4EB21
:1035400008020132524559D804F8011BE9E7019BF2
:103550000398E7E7009B43B305F140036B4413F87E
:10356000203C04F8013B019EA4EB080333440133E3
:10357000534546D805F140036B4413F8103C04F85A
:10358000013B324639462046FDF74AF834440135BE
:10359000A94519D9BBF1000FDCD005F140036B44FC
:1035A00013F9103C002BD5DAF1E705F140036B4429
:1035B00013F8103C58F82370002248F823203846AE
:1035C000FCF7FEFD461CCFE7A4EB080011B0BDE8F8
:1035D000F08F6FF00D00F9E76FF01B00F6E76FF06A
:1035E0001B00F3E76FF01500F0E76FF01500EDE753
:1035F0006FF01500EAE76FF01500E7E76FF01B00CA
:10360000E4E76FF01B00E1E728570108B07A0108F2
:103610002DE9F04F97B000AF8346BA613B61D7F810
:103620008030C3F3C0033B62F96011B90CF08AFD2E
:10363000F8609BF80260B14636B1D7F8803013F0DD
:10364000010F0DD1002300E000239BF803207A62D4
:1036500042B1D7F8802012F0020F22D1002202E0FE
:103660000123F2E7002202B9EBB19BF80050AA0057
:10367000BA60DBF804207A610BEB8505BA69F2B118
:10368000002B40F00481B9F1000F00F00F81D7F852
:10369000803013F0040F40F00D810020F8610646E1
:1036A000F9E00122DFE7BB691BB13A69F9685846C6
:1036B0009847FC6820465C37BD46BDE8F08FFC6843
:1036C000E3B94D4400233B6123E004440135013656
:1036D0004E451AD22A7800235BF822201946B86991
:1036E0000CF045FDBAF1000FEFD0D7F888309845BF
:1036F000EBD22AF8180008F10108E6E70026C7F81F
:103700001C80B046D7F884A0E2E7C7F81080D7F84D
:103710001C80D7F8803003F00503FB604FF0000AEF
:10372000A146C7F81CB09CE000253B6A7BB9002D80
:1037300079D0D7F8803013F0010F79D1FB68002BD6
:103740006FD10223A9EB030988E00125EDE7594673
:1037500078690CF052FD0028E9D06C46002387F808
:103760002C30022387F82D308AB0694611F11002FF
:1037700037D012251AB1042D01DDB34B4B61002364
:1037800087F82830022387F829306ABB112D45DDE0
:10379000122362B1042087F82C00002087F82D0046
:1037A00087F82E00012087F82F00F86A08616FF370
:1037B00000086FF341086FF382086FF3C508022118
:1037C00061F38818C3F30A0363F353286FF31F5898
:1037D000002341469D4801F031FBA546A9F10209AD
:1037E0003CE06FF00045C5E72B46082D01DD786908
:1037F00088610C2B01DDC1F81CB001F12003002011
:1038000009E000F1300C07F1280EF4441CF830CC2C
:1038100003F801CB01300128F3D9B7E76FF01B03A0
:10382000B7E701238EE7D7F8803013F0020F15D0E9
:10383000002322461946B8690CF099FCD7F8843069
:1038400053B13B69D7F88820934205D2D7F884203A
:1038500022F8130001333B61013881440AF1010A67
:1038600035467B6A9A4510D22E4616F802BB6B7815
:10387000FA6952F82340764B9C42FFF455AF754BE2
:103880009C42FFF462AF00254FE74C4612E707F178
:1038900044000023FB6118B14A462946FCF7C0FEEC
:1038A0004D444FF00008C7F804901EE00020F86176
:1038B0000646F0E7FE6107F134000026EBE700253D
:1038C0003B6A33BB002D3BD0D7F8803013F0010F9B
:1038D00026D0731C06F1300207F12801561806F8AD
:1038E000149CDEB208F1010825467B6A98454AD24D
:1038F0002C4614F802AB95F801905BF82930544A35
:103900009342DCD3534A934201D30025D8E70125E3
:10391000D6E7514678690CF070FC0028D2D0E1E778
:10392000D7F8803013F0040FDCD0FA69531C303222
:1039300007F128010A4402F8249CDBB2FB61D1E7BD
:10394000D7F8803013F0020F09D0731C06F1300253
:1039500007F12801561806F8149CDEB2C2E7F86990
:10396000431C00F1300107F128028A1802F824AC48
:1039700002460232D2B2FA6107F1580252FA83F3D8
:1039800003F8249CAEE7D7F804909BF8003087F842
:1039900054309BF80130334487F85530D7F88030E5
:1039A00013F0020F0ED1FB69C3F3470387F85730BA
:1039B000D7F8803013F0010F06D113F0040F3ED179
:1039C000002302E00023F1E7002387F85630DBF8FC
:1039D00000003863786DCBF80000D7F810804246BD
:1039E000B9685846D7F818A0D047041EFFF662AE53
:1039F000386BCBF80000C7F810804246F96907F130
:103A00003400D04700285EDB04EB0008B968494465
:103A10007B6A01EB4301D7F810904A46FB68591ABC
:103A20002846D047041EFFF645AE08EB04054FF0CC
:103A30000008C7F824B0B3465446CA4621E0FB69E3
:103A4000C3E74FF0000909E07C610108F45E01085A
:103A500028570108B07A01084FF0000952460121A9
:103A600007F12C00A04700282FDB05444B463246C7
:103A7000514620460CF07BFB002828DB054408F16A
:103A80000108D84518D208F1300307F12802134481
:103A900013F8143C87F82C307A6A52F82360D7F870
:103AA0008430002BCDD0D7F888309845D4D2D7F8C1
:103AB000843033F81890D1E73A6900210846BB6991
:103AC00098472C46F6E50446F4E50446F2E504463C
:103AD000F0E500BF014B1860704700BF980600205A
:103AE00010B586B004460390049100210591009121
:103AF00003A9064800F0D8FA059B049A934201DA1C
:103B00000022E254059806B010BD00BF4D02010826
:103B100084460268002006E000EB8000013203EBDF
:103B20004003A3F1300013780349C95C11F0040F7E
:103B3000F2D1CCF800207047D577010884460846BA
:103B4000012226E09CF8003043F004038CF800309A
:103B5000F2B101301CE09CF8003043F008038CF80F
:103B60000030F5E79CF8003043F010038CF800308B
:103B7000EEE79CF8003043F020038CF80030E7E7D4
:103B80009CF8003043F040038CF80030E0E700225E
:103B900042B30378203B102BF9D801A151F823F050
:103BA000653B00088F3B00088F3B0008733B000813
:103BB0008F3B00088F3B00088F3B00088F3B0008BD
:103BC0008F3B00088F3B00088F3B0008573B0008E5
:103BD0008F3B0008453B00088F3B00088F3B0008E7
:103BE000813B00089CF8003003F04403442B00D0D4
:103BF00070479CF800306FF386138CF80030F7E7BD
:103C00002DE9F84F05460C46934699460A9ED07812
:103C1000254B13F800A00AF0030A0CF045FD0746F7
:103C200014E0BAF1010F20D0D2B25732D2B23270C2
:103C30003A46434628462146FDF744FDBD4274F10D
:103C4000000416D34E4514D905460C464FF0000823
:103C50003A46434628462146FDF734FD013E092AEF
:103C6000DFD8D2B23032D2B2E1E7D2B23732D2B2FA
:103C7000DDE79BF8003013F0200F03D0082F04D0AD
:103C8000102F09D03046BDE8F88F9BF8023043F082
:103C900008038BF80230F5E79BF8023043F010037D
:103CA0008BF80230EEE700BFD57701082DE9F04F21
:103CB00087B017461E46DDF8449002460B1E07DB10
:103CC000397811F0080F14D02B211098017002E000
:103CD0002D211098017097F80380C3F30A54C3F3A1
:103CE0001303049205935CB952EA030126D1002123
:103CF00007E011F0100FEED0202110980170EAE7D4
:103D0000002140F2FF7084421AD0B8F1460F5BD018
:103D1000DB0243EA5253D20204920593104623F089
:103D200000430593224343EAE4752A435ED0002909
:103D300056D000185B41049005934DE00121E0E767
:103D4000134324D19F4B13F8083003F00303012BD6
:103D500011D0692389F800306E2389F80130662379
:103D600089F8023009F103023B786FF386133B7048
:103D7000129B1A6081E1492389F800304E2389F8AB
:103D80000130462389F8023009F10302ECE78D4B3C
:103D900013F8083003F00303012B0AD06E2389F8CF
:103DA0000030612289F8012089F8023009F103020C
:103DB000DAE74E2389F80030412289F8012089F89A
:103DC000023009F10302CFE74FF06608A0E7013C9B
:103DD000DB18524104930592049B059A002AF6DAF7
:103DE000A4F2FE34059B43F000430593002517E041
:103DF000059B049A520842EAC3725B080492059339
:103E000021460134B3F1333FF2D29C0044EA92746C
:103E10009000801843EB0403049005938C1C013D33
:103E200014F1020FE4DB14E0049B0233059A42F123
:103E300000020493059204A80CF0F0FB013C01354C
:103E40000499059B49185B4104910593013C002BA3
:103E5000F6DA002CE8DCC4F10401059A1C34A1F167
:103E60002000049BCB4002FA04F4234322FA00F022
:103E70000343CA4004930592B8F1670F13D0B8F119
:103E8000470F10D04FF0000BB8F1660F29D0741C0B
:103E9000102303939C4200DD1C4600224FF0006378
:103EA000CDE9002327E015F1030F01DBB54211DD59
:103EB000A8F102085FFA88F8002E00DD013E3B7889
:103EC000C3F3401B13F0200F08D1002EDCDD4FF0B0
:103ED000010BD9E7761B4FF06608F0E74FF0000BB7
:103EE000D2E7AC19D4D5102303930024D5E7684654
:103EF0000CF0B0FB544604F1FF3A002CF7D1049BC0
:103F0000009A9B18059A019942EB010204930592CD
:103F10004FF0FF3199426FF07043934106D3B8F1EF
:103F2000660F38D1002D31DDCA460BE004A80CF035
:103F300091FB0135F3E703A904A80CF097FB0AF8FD
:103F4000010B013D002D02DD039B002BF3DC7D60A6
:103F500025463B7813F0200F01D1002E02DD2E23E1
:103F60000AF8013B002D36DA002E34DD6B427B600F
:103F70009E4200DA7E607B68F61A002BD4BF0023D5
:103F80000123BA7863F34512BA7024E0CA4630239D
:103F90000AF8013BDDE703A904A80CF067FBCA4659
:103FA0000AF8010B302800D0013D3B7813F0200FB8
:103FB00001D1002E0FDD2E2389F8013009F1020A0C
:103FC00009E000BFD577010803A904A80CF04EFB57
:103FD0000AF8010B013E002E02DD039B002BF3DCEF
:103FE000BE60BBF1000F09D00023BB6053469A4668
:103FF00013F8012D302AFAD02E2A42D0B8F1650FDD
:1040000002D0B8F1450F2AD18AF80080002D3ADBA2
:104010002B238AF801300AF1020A632D0CDD204AB5
:1040200082FB0532EB17C3EB621303F130020AF88F
:10403000012B642202FB13551A4A82FB0532EB174F
:10404000C3EBA20303F130028AF8002003EB8303E1
:10405000A5EB430330338AF801300AF1020A7B688A
:10406000002B17DD0124BB7864F38613BB70129B11
:10407000C3F800A000238AF80030484607B0BDE826
:10408000F08F9A46BAE76D422D238AF801300AF183
:10409000020AC2E7BB68002BE5DD0124E3E700BFAD
:1040A0001F85EB51676666662DE9F04F97B00646AF
:1040B0000D4690460593002498F80000002800F073
:1040C0004883252808D02946B0470028C0F24283FB
:1040D000013408F10108EFE70023089309930A93DC
:1040E0000B930C930D930DF1550207928DF81B3035
:1040F00041460AA80CF070FA81469DF8293013F069
:10410000010F00F09E80059B1A1D05921F68002F6D
:10411000C0F28F809DF8293013F0040F00F0A380C7
:10412000059B1A1D0592D3F800A0BAF1000FC0F24A
:10413000918000230B930C939DF82A3003F0070322
:10414000042B00F099809DF82A3003F007039DF8B6
:104150002910C1F3C301012B00F09E80022B00F057
:10416000E380042B00F03481032B00F04B819DF899
:10417000282012F0030F40F04B819DF82B30253B97
:10418000532B00F2FD81DFE813F04F01FB01FB012F
:10419000FB01FB01FB01FB01FB01FB01FB01FB013F
:1041A000FB01FB01FB01FB01FB01FB01FB01FB012F
:1041B000FB01FB01FB01FB01FB01FB01FB01FB011F
:1041C000FB01FD01FB01FB01FB01FD01FD01FD0107
:1041D000FB01FB01FB01FB01FB01FB01FB01FB01FF
:1041E000FB01FB01FB01FB01FB01FB01FB01FB01EF
:1041F000CA01FB01FB01FB01FB01FB01FB01FB0110
:10420000FB01FD01FB01B501BE01FD01FD01FD0149
:10421000FB01BE01FB01FB01FB01FB01F601CA0131
:104220009C01FB01FB015701FB01CA01FB01FB01E2
:10423000CA019DF8283043F004038DF828307F42EE
:1042400068E79DF92830002B02DB4FF0FF3761E76C
:104250000B9F5FE79DF829306FF341038DF82930FC
:104260004FF0FF3A65E713F0020F02D0DDF830A0FF
:104270005FE74FF0FF3A5CE79DF8293013F0020F3B
:104280007FF461AF9DF92930002B02DB4FF0060A65
:1042900059E74FF00D0A56E7CB1E042B04D8DFE890
:1042A00003F00B1D29353500059B1A1D05921B686F
:1042B000DA170893099206E0059B1A1D05921B6800
:1042C000DA1708930992012928D002297FF44FAF09
:1042D000BDF92030DA170893099248E7059B0733A8
:1042E00023F0070303F108020592D3E90023CDE987
:1042F0000823E8E7059B073323F0070303F10802CF
:104300000592D3E90023CDE90823DCE7059B1A1DBC
:1043100005921B68DA1708930992D4E79DF92030BB
:10432000DA170893099222E7CB1E042B04D8DFE8A2
:1043300003F00B1F35414100059B1A1D05921B68B8
:104340000893002309931EE09DF82B30632B07D0C0
:10435000059B1A1D05921B6808930023099312E020
:10436000059B1A1D05921B680893002309930AE018
:10437000059B073323F0070303F108020592D3E9F5
:104380000023CDE9082301291CD002297FF4EFAED8
:10439000BDF82030089300230993E8E6059B073316
:1043A00023F0070303F108020592D3E90023CDE9C6
:1043B0000823E8E7059B1A1D05921B680893002354
:1043C0000993E0E79DF82030089300230993CEE697
:1043D00008290BD0059B073323F0070303F10802DC
:1043E0000592D3E90023CDE90823C0E6059B0733F6
:1043F00023F0070303F108020592D3E90023CDE976
:104400000823B4E6059B1A1D05921B680893AEE6C7
:104410004B464246294630460CF07AF90028C0F255
:1044200099810444C84647E629462520B04700281C
:10443000C0F290810134A3E0DDF82080BAF1000FD2
:104440003ADA4046FBF7BCFE40440790B8F1000F53
:1044500000F09680079BA3EB08039DF81B0000B1BA
:1044600001339DF82A1011F0100F00F09A800233EA
:104470000B9A134411F0400F01D00C9A1344002FF3
:1044800040F3A780FF1A9DF8283013F0040F40F086
:10449000A08013F0400F00F09580002800F0958078
:1044A0002946B0470028C0F25581013400238DF819
:1044B0001B304FF0300A8AE05146404607F0B8FB07
:1044C000C2E7089820B9A54B0793A3F10508C1E7F7
:1044D000079B00930FAB0AAA0021FFF791FB8046D0
:1044E0009DF82A3043F010038DF82A3078238DF898
:1044F0002B301DE0089B8DF83C300DF13D030793F8
:104500000DF13C08A6E712F0080F24D02B238DF8FC
:104510001B30089A099B002B24DB08920993079B08
:1045200000930FAB0AAADDE90801FFF769FB80469B
:10453000BAF1000F8ADB079BA3EB08039DF8282044
:104540006FF386128DF828209A457FF67FAFAAEB8D
:1045500003030B937AE712F0100FDAD020238DF8C3
:104560001B30D6E72D218DF81B10524263EB43031D
:1045700008920993D3E7224608990AA80CF0A9F8F3
:10458000C84699E507AB02930FAB01930DF11B03EE
:10459000009353460AAADDE90801FFF787FB80462E
:1045A00054E711F0080F3FF463AF013360E70134C3
:1045B0003B465F1E002B0CDD29465046B0470028C5
:1045C000F5DAC7E04FF0200A01E04FF0300A3B4631
:1045D000EFE79DF81B0028B12946B0470028C0F23C
:1045E000B98001349DF82A3013F0400F74D09DF942
:1045F0002930002B0FDB98F80000594B1B5C13F09F
:10460000040F15D02946B0470028C0F2A38001341A
:1046100008F10108EFE798F80000702845D0294616
:10462000B0470028C0F29680013408F10108F2E793
:10463000DDF82CA09DF82A3013F0200F12D098F846
:1046400000002E281DD098F80000454B1B5C13F08D
:10465000040F2AD02946B04700287BDB013408F13B
:104660000108F0E70AF1FF3BBAF1000F07DD294628
:104670003020B04700286DDB0134DA46F2E7DA4635
:10468000DDE72946B047002864DB013408F1010862
:104690000AF1FF3BBAF1000FD5DD29463020B047C3
:1046A000002857DB0134DA46F2E70C9B03F1FF3AAE
:1046B000002B07DD29463020B04700284ADB0134B3
:1046C0005346F3E7079B4246294630460CF020F854
:1046D00000283FDB044432E09DF82A30C3F3001287
:1046E000C3F3C0031A4305D029463020B047002841
:1046F00030DB01349DF82A3013F0100F06D0294624
:104700009DF82B00B047002824DB01340B9B03F1FC
:10471000FF3A002B07DD29463020B047002819DB7F
:1047200001345346F3E7079B4246294630460BF0D7
:10473000EFFF00280EDB044401E00134013F002FAD
:1047400005DD29462020B0470028F6DA02E0C846F9
:10475000B2E4204617B0BDE8F08F00BF396201080F
:10476000D5770108034A536823F002035360002001
:10477000704700BF002004E0084B1A6842F4007242
:104780001A601A6842F480621A601A6842F48072F1
:104790001A60034B034A1A60704700BF00200240B2
:1047A000A009002000093D0038B505460B4C00E08B
:1047B00010340B4B9C420FD263685B79002BF7D00F
:1047C000294620460CF0DFFA0028F1D023681B6848
:1047D000294620469847EBE738BD00BF745F0108C3
:1047E000845F010870B506460D46084C04E02A4671
:1047F0003146204698471034054B9C4204D223682A
:104800009B69002BF3D1F6E770BD00BF745F010810
:10481000845F010808B510F055FF0022431819D233
:1048200013440D4AA2FB03CE2EF0030C0CEB9E0C9E
:10483000A3EB0C03C01A61F100014FF0CC3300FB75
:1048400003F302FB0133A0FB02021344400840EAD9
:10485000C37008BD0122E3E7CDCCCCCC2DE9F041FB
:10486000074605460AE007EA0807144B03EB061360
:104870005B680422196820460CF0C5FAD5B195FA98
:10488000A5F6B6FA86F60D4C04EB06140123B340E8
:104890006FEA030825EA0305237B002BEED03301E2
:1048A000064AD3581B69002BDDD0204698470028C4
:1048B000E4D1D8E73846BDE8F08100BF745F010855
:1048C0002DE9F04180460F461F4BBFF35B8F53E845
:1048D000005F6A1C43E800210029F8D1BFF35B8F19
:1048E0006DBB1A4C002607E0636804221968204655
:1048F0000CF089FA01361034154B9C4211D2237BFF
:10490000002BF7D020460CF032FA23681B69002BED
:10491000EAD0204698470028E6D00123B3401D4343
:10492000E8E7B8F1000F0BD055B12846FFF796FF26
:104930000546002FF8D00A200CF027FAF4E70025EE
:104940002846BDE8F08100BF78140020745F01089C
:10495000845F010808B5064B186018B1054B1B6849
:10496000092B00DC08BD044805F082FBFAE700BF14
:104970006C14002074140020C80B002008B50248F5
:1049800005F076FB08BD00BFC80B002030B589B02C
:1049900000220F490F4810F0A4FE0F4D0022002303
:1049A000CDE90623002404940E230393029401947A
:1049B00000940A4B4FF440720949284610F0BDFCA0
:1049C0000849284605F012FD204609B030BD00BF59
:1049D0007D49000830110020800C00206D4D00083A
:1049E000481D002060620108014B53F82000704709
:1049F0007C62010848B108B5054A1060054B196092
:104A0000084600F011FD002008BD6FF0150070474A
:104A10009C0600206814002008B5054B1B781BB1CC
:104A2000034B01221A7008BD024805F021FBF7E78D
:104A300040190020C80B002008B5104BBFF35B8F56
:104A400053E8001F013143E80012002AF8D1BFF3F8
:104A50005B8F30B90A4810F050FE0A4805F008FB99
:104A600008BD094BBFF35B8F53E8001F013943E8D2
:104A70000012002AF8D1BFF35B8FEBE7701400201F
:104A800030110020C80B002074140020064B0020B9
:104A90000146BFF35B8F53E8000F43E80012002A82
:104AA000F9D1BFF35B8F70477014002038B5FFF762
:104AB000EDFF0546094C00E01034094B9C420BD237
:104AC00063685B79002BF7D023685B68002BF3D019
:104AD000294620469847EFE738BD00BF745F0108BC
:104AE000845F0108034B18680028D4BF0020012010
:104AF000704700BF7014002010B5044C04492046D4
:104B00000BF073FF034B1C6010BD00BF540B002063
:104B1000686201086414002008B500230C4A137071
:104B20000C4A13600C4A13604FF47A710B48FFF77C
:104B300061FFFFF7E1FF0A4A06E0094BD31A1B1198
:104B4000013351680B711032064B9A42F5D308BD00
:104B5000411900207014002074140020154800082A
:104B6000745F0108845F010808B5014601480CF034
:104B70001CF908BD540B002008B502480CF018F8C9
:104B800008BD00BF540B002008B50146024B186851
:104B90000CF011F908BD00BF6414002008B50248EC
:104BA0000CF00DF908BD00BF540B002010B582B009
:104BB00000220023CDE900232C4B187808B902B05D
:104BC00010BD68460CF013F9044680B1FFF7ECFD08
:104BD0002046FFF7D9FF264BBFF35B8F53E8001F3A
:104BE000013943E80012002AF8D1BFF35B8FFFF7C9
:104BF00079FF58B91F4A1368516813F57A7341F168
:104C0000000113605160FFF7C9FFD8E710F05AFDAB
:104C10000022431827D21344174AA2FB034C2CF05E
:104C2000030404EB9C041B1BC01A61F100014FF04C
:104C3000CC3300FB03F302FB0133A0FB020213445D
:104C4000400840EAC3705B080A490A684968801A4C
:104C500063EB010340F2E932904273F10003C9D3E0
:104C6000FFF724FFC6E70122D5E700BF4019002067
:104C70007414002028110020CDCCCCCC0F4B1B7815
:104C800003B1704710B500210120FFF719FE0C4C4D
:104C900000E010340B4B9C4208D263685B79002B18
:104CA000F7D023689B6820469847F2E7FFF77EFF1E
:104CB0000028FBD1014B01221A7010BD41190020C0
:104CC000745F0108845F010810B582B01A4BBFF30E
:104CD0005B8F53E8002F511C43E800100028F8D1E7
:104CE000BFF35B8F154B1B7863B9154B1B68B3B1D2
:104CF000BAB1092A13D1134810F0FFFC124805F08D
:104D0000B7F90CE0EFF31184102383F31288BFF39B
:104D10006F8FFFF74BFF84F31188BFF36F8F02B0E3
:104D200010BD00220023CDE9002342F210720023BF
:104D3000044806F015FBF2E7741400204119002026
:104D40006C14002030110020C80B002010B5044660
:104D5000044B1B689847A060214603480CF04BF8B1
:104D600010BD00BF9C060020540B00202DE9F0412F
:104D700000210846FFF7A4FD804640B14FF4FA76C3
:104D8000002705F0A7FFFFF7E5FD002515E04FF030
:104D9000FF364FF0FF37F4E74046FFF75FFD8046F0
:104DA00070B94FF0FF364FF0FF3709E02C4632461E
:104DB0003B46094805F0A0F92546B8F1000FEBD1B4
:104DC000FFF7F4FE04460028F6D1002DEED00021B6
:104DD0000846FFF707FDEAE7C80B00200248034B2F
:104DE000C01AC008704700BF745F0108C45E0108A4
:104DF00010B50C46FFF7F2FFA04203D9024B53F85F
:104E0000340010BD0020FCE7C45E010800B589B085
:104E1000059206930023079362B1074A0C9B029305
:104E20000B9B01930A9B009305ABFEF7F1FB09B0C6
:104E30005DF804FB0022F1E71D0E01082DE9F04F9B
:104E40008BB004AF05461E468846C1F34A24002CA9
:104E500000F0898091460022FA603A617A61042369
:104E60000293FB1801930A23009307F10C032146D8
:104E70004846FEF7CDFBB0F5006F58D3D9F80410C3
:104E80006D4600233B7302237B738AB004AC14F19C
:104E9000100217D012201AB1042801DD3B4B6361C8
:104EA00000233B7002237B70CAB10346082800DD53
:104EB000A1610C2B02DD40F2FF73E36104F12003DA
:104EC00000210AE06FF00040E5E701F118063E44DA
:104ED00016F8186C03F8016B01310129F5D9112876
:104EE00022DD122342B10421397300217973B97391
:104EF0000121F973F868206100216FF300016FF35D
:104F000041016FF382016FF3C501022060F3881144
:104F1000C3F30A0363F353210023C1F313011C48B5
:104F20000BF0F2FFAD462DE06FF01B03DAE760F304
:104F30005328C0F30A0A0AEB1850173020F0070074
:104F40008008FFF711FE8346B0B104230293FB18DB
:104F500001930A230093534600F11002214648466C
:104F6000FFF754FF08E004EB1154173424F0070452
:104F7000A008FFF7F9FD83463346424629465846C6
:104F80000BF065FF1C37BD46BDE8F08F9C62010841
:104F9000245F01082DE9F04F85B080460D46174685
:104FA0001E46DDF838B0DDF84090B9F1000F41D071
:104FB000119B039300934B460F9A10210020FEF79C
:104FC000CDF8B0F5006F2DD282460BEB00031733FE
:104FD00023F0070300246FF300046FF341046FF321
:104FE000820468F3C50467F3881460F353246BF3F9
:104FF0001F549808FFF7B8FD074650B11030B9F1BB
:10500000000F06D0119B00934B460F9A5146FEF7B6
:10501000A5F833462246294638460BF018FF05B05E
:10502000BDE8F08F40F2FF73034A022103480BF002
:1050300060FFF4E70020C7E7DC620108245F010895
:10504000406820B1034BC01A40F3CF0070474FF0C7
:10505000FF307047C45E01080EB400B584B001464D
:1050600005AB53F8042B0393002000900348FFF78F
:105070001BF804B05DF804EB03B070473F0F010864
:1050800010B584B011F0440F05D01A4B1B6833B92A
:10509000002004B010BD1849FFF7DEFFF9E71749FB
:1050A0000968B2FBF1F2B2FBF3FC03FB1C224FF4E4
:1050B0007A7E0EFB02F2B2FBF3F403FB14210EFB2B
:1050C00001F1B1FBF3F10E4AA2FB0C32D20A4FF40C
:1050D000616303FB12CC0B4BA3FB0CE35B09029156
:1050E0000194C3EB0311ACEB810100910649FFF77A
:1050F000B3FFCEE780140020146301087C14002065
:10510000C5B3A291898888882063010861B108B578
:105110002AB1064A52F8232012B9054A00E0044A8F
:105120000449FFF799FF08BD704700BFC463010839
:105130003C630108446301082DE9F0410546174628
:10514000069EDDF81C8081B900242EB1324611493B
:105150002846FFF781FF0444B8F1000F14D06FB167
:10516000099B042B13D00C4909E00C4B099A53F806
:1051700022200B49FFF770FF0446E6E70649424646
:105180002846FFF769FF04442046BDE8F081054941
:10519000F5E700BF5C6301084C630108D8630108B0
:1051A00054630108486301082DE9F04F87B00546B4
:1051B0000C46049205939DF84C7001F0020B01F02F
:1051C000010AC1F3C00801F480790BF01AFE18B38C
:1051D000024616492846FFF73FFF0646BBF1000F7F
:1051E0001CD13A46514628460BF0DCFEB9F1000FBF
:1051F00001D0002311930397129B0293119B0193FB
:10520000109B00930023049A41462846FFF794FF21
:10521000304407B0BDE8F08F0026DFE7059A21464D
:105220002846FFF72DFF0644DBE700BF6063010857
:1052300011F0100F0BD108B511F0200F03D0044965
:10524000FFF70AFF08BD0349FFF706FFFAE77047BB
:10525000EC6D0108646301082DE9F04105460F4635
:10526000164698460699FFF7E3FF0024444505DA01
:1052700024492846FFF7F0FE0134F7E7002409E04F
:1052800020492846FFF7E8FE0BE01F492846FFF7B4
:10529000E3FE01340F2C0CDC002C02DD14F0070FB0
:1052A000EED0B442F1D23A5D18492846FFF7D4FE59
:1052B000EFE717492846FFF7CFFE002409E0114920
:1052C0002846FFF7C9FE0BE012492846FFF7C4FE47
:1052D00001340F2C13DC002C02DD14F0070FEED08C
:1052E000B44207D23A5D0C4B9B5C13F0970FEBD1A5
:1052F0002E22E9E703492846FFF7AEFEE8E7BDE8BE
:10530000F08100BF586301087063010868630108F9
:105310007463010878630108D57701082DE9F0412D
:1053200084B004469DF82C500C9F0E9E95B9012B1D
:105330001ED019484FF0000827B13B4622461749B6
:105340000AF02BFFC6B905BB20460BF0E1FD04B007
:10535000BDE8F08103950A980290019300920B46F4
:1053600000220F992046FFF71FFF80460C48E3E715
:105370000B484FF00008DFE70F9B0093434632468F
:105380000D9920460BF026FEDDE72A460F992046B0
:105390000BF014FED8E700BF770F0108950F010846
:1053A0003F0F01082DE9F04383B00646056842F23D
:1053B0000F738B4228BF0B46184A052168460AF036
:1053C0006EFF04467368D3F804900B27DFF8508013
:1053D00005E04A4639464046A8473F1A8044002F18
:1053E000F7D17368D3F804806F4605E04246214642
:1053F0003846A847241A0744002CF7D173685F6821
:105400001B24084E05E03A4621463046A847241A98
:105410000644002CF7D103B0BDE8F083F064010826
:10542000986301087C630108074B01221A6004E0BD
:105430004008054A13685B001360044B9842F7D894
:10544000034B1860704700BF7C14002040420F00DF
:105450008014002070B506460D46002405E0315D3D
:10546000044883685B6898470134AC42F7D3284608
:1054700070BD00BF6059010808B50348034A121AFD
:1054800000210BF037FE08BDD80B00204419002086
:1054900008B50648064A121A06490BF02FFE0648C0
:1054A000064A121A06490BF029FE08BD000000202A
:1054B000D80B0020B07A0108000000200000002076
:1054C000B07A01082DE9F04182B000AF0446D0F86F
:1054D00000E0D0F804C085686E468AB06B4613F1D0
:1054E000100200F0888014218AB10846042903DDE7
:1054F000DFF81C81C3F81480082801DDC3F818E028
:105500000C2801DDC3F81CC0102800DD1D62132922
:1055100074DD14253AB10521397100217971B97111
:10552000F9717868186100216FF300016FF3410190
:105530006FF382016FF3C501012363F38811C5F393
:105540000A0565F353216FF31F5100233148FFF71C
:1055500075FCB546D4F80CC026696569E8468AB082
:105560006B4613F110024CD0142182B10846042975
:1055700003DDDFF8A4E0C3F814E0082801DDC3F878
:1055800018C00C2800DDDE61102800DD1D62132923
:105590003ADD14253AB10521397100217971B971CB
:1055A000F9717868186100216FF300016FF3410110
:1055B0006FF382016FF3C501012666F38811C5F30D
:1055C0000A0565F353216FF31F51124D002328463E
:1055D000FFF734FCC546E369104A314628460BF014
:1055E00088FCA3690E4A314628460BF082FC083736
:1055F000BD46BDE8F0816FF0004175E76FF01B0517
:1056000088E76FF00041B0E76FF01B05C2E700BF0D
:10561000406401083C5F010870640108A06401084F
:10562000B064010838B504460D4611B10846FFF7CD
:1056300049FF012C04D02946204604F00BFA38BD5E
:10564000EFF30583103B034A012103480BF051FCA3
:10565000F1E700BFE06401083C5F010830BFFFF7DD
:10566000FDBF00BF054B5A699B689A4204D0044AAB
:10567000536843F080535360704700BFCC1800203C
:1056800000ED00E081690D4B5A6942F480725A6165
:10569000BFF34F8FBFF36F8F31F8021C5A6922F4AA
:1056A00080725A61BFF34F8FBFF36F8F4DF6027355
:1056B000994201D0002070470120704700ED00E0C2
:1056C0004FF0000C83F800C002F07F4CBCF17F4F1C
:1056D00014D102F00C0CBCF1080F04D012F0080F2A
:1056E00009D00846704708B5054A012105480BF066
:1056F000F6FB002008BD01221A7070470020704799
:10570000F46401083C5F010808B52B4A01212B48CD
:105710000BF0E5FB2A4B9B6A13F0007F21D11D2083
:10572000274B9B6A13F0807F22D1254B9B6A13F491
:10573000002F24D1224B9B6A13F4802F26D1204BBB
:105740009B6A13F4003F28D11D4B9B6A13F4803FE2
:105750002AD11B4A936A6FEA03436FEA13439362A9
:1057600008BD184A012115480BF0B9FB1E20D7E7E8
:10577000154A012111480BF0B2FB1F20D5E7134A4F
:1057800001210E480BF0ABFB2120D3E7104A012189
:105790000A480BF0A4FB2220D1E70E4A012107485A
:1057A0000BF09DFB2320CFE70B4A012103480BF0B0
:1057B00096FB2420CDE700BF206501083C5F01086F
:1057C00000ED00E0386501084C65010868650108D6
:1057D00088650108B0650108CC65010808B500239B
:1057E0000B70034A012103480BF079FB08BD00BF91
:1057F000F86501083C5F010890B583B000AF0F2940
:1058000023DC2F4C103900233B7102237B718AB0BB
:10581000EC461CF110021AD0122022B1042802DD3D
:10582000284BCCF8143000233B7002237B70E2B18C
:105830000346082801DDCCF818400C2B01DDCCF81C
:105840001C100CF1200300210DE01F4CDAE76FF073
:105850000040E2E701F1080404EB070E1EF808EC33
:1058600003F801EB01310129F4D9112824DD1223B9
:105870004AB10421397100217971B9710121F9719D
:105880007868CCF8100000216FF300016FF341013C
:105890006FF382016FF3C501012060F38811C3F338
:1058A0000A0363F353216FF31F5100230748FFF7E7
:1058B000C5FA0C37BD4690BD6FF01B03D8E700BF9B
:1058C0001C66010850660108346601083C5F010847
:1058D000F8B505460F461446394A012139480BF000
:1058E000FEFA394B9B6A13F0100F31D11026364B5C
:1058F0009B6A13F0080F32D1334B9B6A13F0020FEF
:1059000034D1314B9B6A13F0010F4BD12E4B9B6A64
:1059100013F0200F4DD12C4B9B6A13F0100F01D1C7
:10592000294B9B6A284B9B6A13F0200F04D0264A10
:10593000536A23F400535362234A936A43F0FF03EC
:105940009362012128460BF0E9FB20703046F8BD38
:105950001E4A01211B480BF0C2FA1126C7E71C4A58
:10596000012118480BF0BBFA1226C5E7194A01219C
:1059700014480BF0B4FA144A536B926A12F0800F79
:1059800001D11326BDE7144A01210E480BF0B1FAEC
:1059900037B10D4A936A23F0800393621326B0E770
:1059A0001326AEE70D4A012106480BF098FA14269B
:1059B000ACE70B4A012103480BF091FA1526AAE740
:1059C000646601083C5F010800ED00E07C660108A8
:1059D000B0660108C4660108DC660108F4660108C7
:1059E00014670108F8B505460F461446374A0121E9
:1059F00037480BF074FA374B9B6A13F4805F25D15C
:105A00001626344B9B6A13F4006F26D1314B9B6AE8
:105A100013F4007F28D12F4B9B6A13F4806F3FD182
:105A20002C4B9B6A13F4807F41D12A4B9B6A13F461
:105A3000005F43D1274A936A43F47F439362012175
:105A400028460BF06BFB20703046F8BD224A01213E
:105A50001F480BF044FA1726D3E7204A01211C48BF
:105A60000BF03DFA1826D1E71D4A012118480BF02A
:105A700036FA184A936B926A12F4004F01D1192634
:105A8000C9E7184A012112480BF033FA37B1114A1D
:105A9000936A23F4004393621926BCE71926BAE7F8
:105AA000114A01210A480BF01AFA1A26B8E70F4AE0
:105AB000012107480BF013FA1B26BBE70C4A012112
:105AC00003480BF00CFA1C26B4E700BF446701083A
:105AD0003C5F010800ED00E05C670108B06601086A
