:020000040800F2
:1000000018200020610A0008BB3700084D0A0008CC
:100010004D0A00084D0A00084D0A000800000000C3
:100020000000000000000000000000002D0B000890
:100030004D0A000800000000D50A0008711B0008E6
:10004000A90C0008A90C0008A90C0008A90C0008BC
:10005000A90C0008A90C0008A90C0008A90C0008AC
:10006000A90C0008A90C0008A90C0008A90C00089C
:10007000A90C0008A90C0008A90C0008A90C00088C
:10008000A90C0008A90C0008A90C0008A90C00087C
:10009000A90C0008A90C0008A90C0008A90C00086C
:1000A000A90C0008A90C0008A90C0008A90C00085C
:1000B000A90C0008A90C0008A90C0008A90C00084C
:1000C000A90C0008A90C0008A90C0008A90C00083C
:1000D000A90C0008A90C0008A90C0008A90C00082C
:1000E000A90C0008A90C0008A90C0008A90C00081C
:1000F000A90C0008A90C0008A90C0008A90C00080C
:10010000A90C0008A90C0008A90C0008A90C0008FB
:10011000A90C0008A90C0008A90C0008A90C0008EB
:10012000A90C0008A90C0008A90C0008A90C0008DB
:10013000A90C0008A90C0008A90C0008A90C0008CB
:10014000A90C0008A90C0008A90C0008A90C0008BB
:10015000A90C0008A90C0008A90C0008A90C0008AB
:10016000A90C0008A90C0008A90C0008A90C00089B
:10017000A90C0008A90C0008A90C0008A90C00088B
:10018000A90C0008A90C0008A90C0008A90C00087B
:10019000A90C0008A90C0008A90C0008A90C00086B
:1001A000A90C0008A90C0008A90C0008A90C00085B
:0C01B000A90C0008A90C0008A90C00080C
:1001BC0070B50446451C11E001221BE04C4B1B683A
:1001CC00A3423FD000264B4802F058F8002E00F016
:1001DC0089804FF47A70002102F0ECFC4FF0FF3272
:1001EC004FF0FF33434801F0C9FF04F0B5FF002284
:1001FC004318E1D21344404EA6FB032C2CF003020F
:10020C0002EB9C029B1AC01A61F100024FF0CC3138
:10021C0000FB01F106FB0211A0FB06031944400888
:10022C0040EAC1704908354B1A685B6890429941A5
:10023C00C4DA304802F022F84FF4FA70002102F0D0
:10024C00B9FCCBE72E4E32680132326029462D487C
:10025C0003F090FA26490A6801322B4B83FB020308
:10026C00A3EBE27303EB4303D31A0B603268274909
:10027C0081FB0231D317C3EB6113642101FB132300
:10028C000BB101269FE704F067FF0022431827D229
:10029C001344194EA6FB032C2CF0030202EB9C0218
:1002AC009B1AC01A61F100014FF0CC3200FB02F234
:1002BC0006FB0122A0FB06031A44430843EAC2735F
:1002CC00520840F6B8315B1842F100020B490B6042
:1002DC004A600B4B19680E4803F04CFA012672E782
:1002EC000122D5E76420002102F064FC76E700BF10
:1002FC006805002028010020CDCCCCCC400100208A
:10030C006C050020AC580008565555551F85EB510F
:10031C00C85800082DE9704388B01C4803F02AFA2D
:10032C004FF000084FF00009194DCDE90689002463
:10033C000494052603960294019400942B464FF4E2
:10034C0080621449144804F0BDFDCDE9068904947B
:10035C00039602940194012300932B464FF4806280
:10036C000E490F4804F0AEFDCDE9068904940396BE
:10037C0002940194022300932B464FF480620949A6
:10038C00094804F09FFD08B0BDE87083E4580008EC
:10039C00BD010008D80E002098020020D80A0020C9
:1003AC00F0010020D80600204801002008B5024BBF
:1003BC001B68984708BD00BF00000020014B186067
:1003CC00704700BF0000002000B585B00A4600232E
:1003DC00009301930293039302238DF80230044B94
:1003EC0001930146684602F0F1FE05B05DF804FB8E
:1003FC00B903000880B505460E461746984602F02C
:10040C0039FC034600F05AFC0446DFF8189049F812
:10041C000030424639463046A84754F8090000F0EF
:10042C0039FB00BF08000000034A536823F00203A5
:10043C0053600020704700BF002004E0084B1A688E
:10044C0042F400721A601A6842F480621A601A68E8
:10045C0042F480721A60034B034A1A60704700BF63
:10046C0000200240F800002000093D0008B50348B8
:10047C00034A121A002103F08CF908BD4001002038
:10048C00D406002008B50648064A121A064903F09D
:10049C0084F90648064A121A064903F07EF908BD8B
:1004AC00000000203C0100208461000800000020B6
:1004BC00000000208461000810B50446836842687F
:1004CC000168094803F056F963692269E168074835
:1004DC0003F050F9E169064803F04CF9A1690548AD
:1004EC0003F048F910BD00BF045900083459000846
:1004FC00645900087459000838B504460D4611B10A
:10050C000846FFF7D9FF012C04D02946204601F0FC
:10051C00E3FC38BDEFF305811039024803F02AF9EA
:10052C00F3E700BFA459000830BFFFF7FDBF00BFC1
:10053C0038B50446054D2A46054904F011FE054A16
:10054C000021601904F01AFE38BD00BF0000000045
:10055C00A45800080400000070B50646064D074B71
:10056C001D444C1B2046FFF7E3FF083CC6F898409F
:10057C0005F1080070BD00BF000000000400000081
:10058C00054B5A699B689A4204D0044A536843F05D
:10059C0080535360704700BF9C06002000ED00E0C4
:1005AC0081690D4B5A6942F480725A61BFF34F8FC7
:1005BC00BFF36F8F31F8021C5A6922F480725A61B2
:1005CC00BFF34F8FBFF36F8F4DF60273994201D07B
:1005DC00002070470120704700ED00E04FF0000C48
:1005EC0083F800C002F07F4CBCF17F4F12D102F0B7
:1005FC000C0CBCF1080F04D012F0080F07D0084601
:10060C00704708B5044803F0B5F8002008BD012276
:10061C001A70704700207047B8590008F8B50546A5
:10062C000F461446324803F0A5F8324B9B6A13F080
:10063C00100F31D110262F4B9B6A13F0080F30D1BD
:10064C002C4B9B6A13F0020F30D12A4B9B6A13F090
:10065C00010F43D1274B9B6A13F0200F43D1254B3D
:10066C009B6A13F0100F01D1224B9B6A214B9B6AA2
:10067C0013F0200F04D01F4A536A23F40053536223
:10068C001C4A936A43F0FF0393620121284603F04E
:10069C0094F820703046F8BD174803F06BF811261B
:1006AC00C9E7164803F066F81226C9E7144803F0A8
:1006BC0061F8104B596B9B6A13F0800F01D1132614
:1006CC00C3E7104803F056F837B10A4A936A23F08F
:1006DC00800393621326B8E71326B6E70A4803F0A3
:1006EC0049F81426B6E7094803F044F81526B6E78E
:1006FC00E459000800ED00E0FC590008305A0008ED
:10070C00445A0008605A0008785A0008985A0008A1
:10071C00F8B505460F4614462F4803F02BF82F4B1F
:10072C009B6A13F4805F25D116262C4B9B6A13F41D
:10073C00006F24D1294B9B6A13F4007F24D1274BE3
:10074C009B6A13F4806F37D1244B9B6A13F4807F20
:10075C0037D1224B9B6A13F4005F37D11F4A936A3F
:10076C0043F47F4393620121284603F026F820705E
:10077C003046F8BD1A4802F0FDFF1726D5E7194898
:10078C0002F0F8FF1826D5E7174802F0F3FF134BD9
:10079C00996B9B6A13F4004F01D11926CFE71348CC
:1007AC0002F0E8FF37B10D4A936A23F400439362D9
:1007BC001926C4E71926C2E70D4802F0DBFF1A26FA
:1007CC00C2E70C4802F0D6FF1B26C7E70A4802F026
:1007DC00D1FF1C26C2E700BFC85A000800ED00E09C
:1007EC00E05A0008305A0008F45A0008105B000860
:1007FC00285B0008445B0008985A000808B5244898
:10080C0002F0B8FF234B9B6A13F0007F21D11D200F
:10081C00204B9B6A13F0807F20D11E4B9B6A13F4F4
:10082C00002F20D11B4B9B6A13F4802F20D1194B26
:10083C009B6A13F4003F20D1164B9B6A13F4803F44
:10084C0020D1144A936A6FEA03436FEA134393620D
:10085C0008BD114802F08EFF1E20D9E70F4802F0A8
:10086C0089FF1F20D9E70E4802F084FF2120D9E729
:10087C000C4802F07FFF2220D9E70B4802F07AFFE8
:10088C002320D9E7094802F075FF2420D9E700BFDF
:10089C00605B000800ED00E07C5B0008905B0008EA
:1008AC00AC5B0008CC5B0008F45B0008105C000833
:1008BC0070B506460D46264802F05CFF00232B70EF
:1008CC00244BDC6A14F002040AD1224BDB6A002BA5
:1008DC000BDB204BDC6A14F080440AD1204670BD3F
:1008EC001D4802F047FF0024F8E71C4802F042FFC5
:1008FC00F4E71B4802F03EFF3046FFF751FE98B973
:10090C00144B9B6A13F0FF0F14D1124B9C6A14F416
:10091C007F4416D10F4B9B6AB3F5803FDED3304634
:10092C00FFF76CFF0446D9E731680E4802F022FF4E
:10093C003468D3E72A4601213046FFF76FFE0446A0
:10094C00CCE72A4601213046FFF7E2FE0446C5E714
:10095C003C5C000800ED00E0545C0008785C00088A
:10096C00885C0008A85C000808B500230B700248DE
:10097C0002F000FF08BD00BFC85C000808B50A46BD
:10098C000F2905DC0349103A034802F0F3FE08BDB9
:10099C000249F8E7F05C0008245D0008085D0008D7
:1009AC0030B58BB01F4B5D68C5F30805002383F38E
:1009BC001188BFF36F8F0DF12603FFF70FFE04466E
:1009CC000DF12702294602F0FAFE9DF827300BB1F3
:1009DC000BB030BD05460DF1040C20686168A268AF
:1009EC00E368ACE80F0020696169A269E369ACE8CF
:1009FC000F009DF826304BB1089BC3F308025AB97F
:100A0C006FEA53236FEA4323089305E0089B23F412
:100A1C00FF7323F00103089301A92846FFF76CFD2F
:100A2C00D6E700BF00ED00E0044B5A6942F010021B
:100A3C005A615A6922F008025A61704700ED00E0D1
:100A4C00EFF30880EFF3098101B57246FFF7A8FFB9
:100A5C0001BD00BF0C4880F3088800200B490870CA
:100A6C00102080F311880A484FF40061401880F37D
:100A7C000988EFF314800221084380F31488BFF334
:100A8C006F8F00F08FF8000018200020D006002097
:100A9C00D812002008B50A4B9B68834202D002F0A2
:100AAC00EFF808BDEFF30583002BF8D0054B5A681F
:100ABC0042F080525A605A6A22F400425A62EEE7BF
:100ACC009C06002000ED00E012498A684FF03000CF
:100ADC001044EFF3098C80E8F01F102080F312888B
:100AEC00BFF36F8F0C4F4FF000664A698A603E600F
:100AFC00D2F89800094C2060D2F89C000023C2F870
:100B0C009C3080F3118802F1300090E8F01F8CF3D8
:100B1C00098870479C06002004ED00E07005002059
:100B2C001EF0040F0CBFEFF30880EFF3098081690E
:100B3C0011F8021C0229FFD001B5724602F031FEF9
:100B4C0001BD00BF002807DB00F01F024009012394
:100B5C009340024A42F82030704700BF00E100E0A9
:100B6C00002808DB0901C9B200F1604000F56140C2
:100B7C0080F80013704700F00F000901C9B2014B57
:100B8C001954704714ED00E0044B23F07F03044A22
:100B9C009360BFF34F8FBFF36F8F70470000000857
:100BAC0000ED00E008B5FFF7EFFF0B4AD2F88830F4
:100BBC0023F47003C2F88830EFF3148323F004039A
:100BCC0083F31488BFF36F8FFFF750FCFFF75AFCC9
:100BDC0000F04AF801F09AFA00ED00E010B4A2F12E
:100BEC0020040E4942F8081C21F0010142F8081CAF
:100BFC0042F8203C019B42F81C3C029B42F8183CFA
:100C0C00039B42F8143C4FF0807342F8043C04659B
:100C1C000023C0F89C3010BC704700BF01040008D2
:100C2C0000B50E4615460B4B9860D0F898200A4B31
:100C3C001A602C4686F309880020044B98472046FE
:100C4C00002100220023024C204700003D38000800
:100C5C00010400089C06002070050020014B1022A6
:100C6C001A61704700ED00E0002206E003F00F036C
:100C7C000949194410230B7601325E2A0ADC53B25F
:100C8C00002BF3DB03F1604303F56143102183F880
:100C9C000013F1E7704700BFFCEC00E008B5EFF380
:100CAC000583103B044A02EBC301496852F8330038
:100CBC008847FFF765FC08BDC4540008014800686C
:100CCC00704700007005002008B5024B1B68984760
:100CDC00002008BD74050020034B1860034A93786C
:100CEC0043F0020393707047740500200400002049
:100CFC0008B5064921F00701C1F1005202F5403256
:100D0C00034802F0F3FC002008BD00BF1F200020A8
:100D1C007805002000B583B0094B93E8030002ABC3
:100D2C0003E90300074B9B681B682BB16946054818
:100D3C00984703B05DF804FB6FF05700F9E700BF6C
:100D4C00A45800082053000800F01F020123934010
:100D5C003F2811D81F2807D8084A5269934301D05D
:100D6C000020704701207047044A526B934301D016
:100D7C00002070470120704700207047000401409C
:100D8C0000F01F02012393403F2809D81F2803D8E5
:100D9C00054A536100207047034A53630020704793
:100DAC006FF01500704700BF00040140002399420A
:100DBC000ADD10B400EB030C044C04F80C200133D6
:100DCC009942F7DC10BC7047704700BF140000203C
:100DDC00F8B50746002401E00134E4B27B78A34265
:100DEC0017D93D7866193046FFF7AEFF0028F3D0CF
:100DFC003046FFF7C5FF074B53F83620002AEBD0DF
:100E0C0006F01F0503EBC60359680120A840904764
:100E1C00E2E7F8BD8405002001F0030C0CF102029E
:100E2C000A4B53F822200B0C22EA114193FAA3F33C
:100E3C004BB1B3FA83F3984001430CF1020C034A13
:100E4C0042F82C1070472023F5E700BF000001404A
:100E5C0000F003030233074A52F82320030C02EA82
:100E6C00104093FAA3F31BB1B3FA83F3D840704745
:100E7C002023FBE70000014008B5034668B1B0FA37
:100E8C0080F2C2F11F02D2B205498856054A116898
:100E9C000B43136002F0B8FC08BDFF22F4E700BF5F
:100EAC001400002000040140024A136823EA0003E6
:100EBC001360704700040140032926D8DFE801F0D5
:100ECC00020C151E114B9A6822EA00029A60DA682D
:100EDC0022EA0002DA6070470C4B9A6802439A606F
:100EEC00DA6822EA0002DA607047084BDA680243DB
:100EFC00DA609A6822EA00029A607047034B9A689B
:100F0C0002439A60DA681043D860704700040140CD
:100F1C0010B498B1B0FA80F3C3F11F03DBB29C4656
:100F2C000D4850F8330088420AD088B90A4B43F870
:100F3C003C1003EBCC035A6010BC7047FF23EEE768
:100F4C00054C04EBC3035B689342EED10020F3E73E
:100F5C006FF00F00F0E700BF8405002060B1B0FA1D
:100F6C0080F3C3F11F03DBB2044A002142F83310B3
:100F7C0002EBC30251607047FF23F5E784050020A4
:100F8C00104B1B6813F4806F0ED10E4A136843F498
:100F9C008073136001E0012B06D00A4B1B6813F41D
:100FAC008063F8D00123F6E7064A936823F0030325
:100FBC0043F001039360034B9B6803F00C03042B79
:100FCC00F9D17047001002401C4B1B6813F4806F62
:100FDC000ED11A4A136843F48073136001E0012B9D
:100FEC0006D0164B1B6813F48063F8D00123F6E788
:100FFC00124AD2F8943043F00103C2F8943001E065
:10100C00012B07D00D4BD3F8943013F00203F7D01B
:10101C000123F5E70949D1F8982042F00102C1F803
:10102C00982001E0012A07D0044AD2F8982012F047
:10103C000202F7D01A46F5E7704700BF00100240D5
:10104C0070B50C461546404B1E680121304602F027
:10105C007CFC2388C3F30B03013B5F2B6ED8DFE8CA
:10106C0003F044585B5F666240696B6D464F6D6D73
:10107C006D6D6D6D6D6D6D6D6D6D6D6D6D6D6D6D94
:10108C006D6D6D6D6D6D6D6D6D6D6D6D6D6D6D6D84
:10109C006D6D6D6D6D6D6D6D6D6D6D6D6D6D6D6D74
:1010AC006D6D6D6D6D6D6D6D6D306D6D6D306D6DDE
:1010BC006D3E6D6D6D6D6D6D6D406D6D6D406D6DDD
:1010CC006D422E602368B3F5805F3AD32A68C3F370
:1010DC0013330133B2FBF3F22A60002030E02E60B0
:1010EC00F0E72860EEE72860ECE72E60EAE700F016
:1010FC00B3F802232822042102F020FC2860E1E747
:10110C0000F0AAF802232822042102F017FC286020
:10111C00D8E700232B60D5E74FF4FA432B60D1E7D7
:10112C000A4B2B60CEE702F013FC2860CAE7084B91
:10113C002B60C7E72E60C5E72E60C3E76FF0850014
:10114C0070BD0020FCE700BFF80000200024F40074
:10115C00006CDC0210B51B4B9B6803F00C030C2BD2
:10116C0005D0184A136823F08073136008E0FFF76A
:10117C0007FF144A936823F0F0039360F1E733B14F
:10118C00104B1B6813F00073F9D00123F7E70D4CDB
:10119C00E36823F4C003E360E36843F48013E36083
:1011AC0000F05EF8236843F08073236001E0012BAC
:1011BC0006D0044B1B6813F00073F8D00123F6E73C
:1011CC0010BD00BF0010024038B500F073F81E4C83
:1011DC00204602F049FC00F0BFFD1C4B9B68C3F39A
:1011EC0003131B4AD35C20FA03F513781C41A54268
:1011FC0022D3FFF7E9FEFFF7ADFF144B9A6822F0FC
:10120C00F0029A609A6842F003029A600F4B9B6856
:10121C0003F00C030C2BF9D1A54211D20D4B0A4A49
:10122C001A600A4B9A6822F4E0629A609A6822F477
:10123C0060529A60002038BD204600F0E7FDD8E7E8
:10124C00204600F0E3FDE9E700B4C40400100240BE
:10125C0000610008F8000020004870470024F400EA
:10126C0008B5104AD2F8803023F48073C2F880306D
:10127C0002F0FBFB0C4BD9680C4A0A4040F420509E
:10128C0040F030000243DA60DA6842F48012DA602F
:10129C00D968074A0A400243DA60DA6842F0807281
:1012AC00DA6008BD00700040001002400C809FFF07
:1012BC000C80FFF982B0064B9A6D42F080529A6511
:1012CC009B6D03F080530193019B02B0704700BFEC
:1012DC000010024010B504460A2806D0E1B20648B8
:1012EC0083685B689847204610BD034883685B6839
:1012FC000D219847F2E700BF7054000810B5044C5C
:10130C002046FFF7E9FC2046FFF758F810BD00BF58
:10131C00E112000808B5054803F07EFD18B1FFF78F
:10132C00EDFF002008BD6FF01200FBE770540008C1
:10133C0008B5436841B103F10C010B4B9B681B686A
:10134C005BB10948984708BD03F10C01064B9B683B
:10135C005B682BB104489847F5E76FF05700F2E74C
:10136C006FF05700EFE700BF2053000808B5044AA0
:10137C00536843F400735360024902F09BFB08BDB1
:10138C0000700040413C00082DE9F84380460F46B0
:10139C0016461C46D0F80490D9F8080002F0AEFAB4
:1013AC00B6F5001F0FD00546B6F5800F2DD0B4F161
:1013BC00806F26D0B4F1C06F25D0B4F1007F09D076
:1013CC006FF015041AE03946D9F8080002F061FDF7
:1013DC00002413E0022642460F492846FFF798FDE9
:1013EC000446A8B9D9F80810384602F08CFA3146F0
:1013FC002846FFF761FD2846FFF73EFD2046BDE875
:10140C00F8830126E7E70326E5E76FF08504F5E7A7
:10141C006FF00F04F2E700BF633B0008B0F5D07F1C
:10142C0017D2F8B504460D46164603090A4A52F877
:10143C0023705FB1384603F0EFFC38B133462A46CF
:10144C0004F00F01384602F03CFDF8BD6FF01200BD
:10145C00FBE76FF015007047C85E00082DE9F843F4
:10146C0006460C4643681D680369D3F800900B7957
:10147C00012B17D0022B18D14FF480616279012A0D
:10148C0018D0022A18D092B14FF4005794F8068065
:10149C00B8F1020F13D0B8F1040F16D0002B62D1A3
:1014AC00002014E04FF4C061E8E70021E6E74FF4B8
:1014BC008057EBE70027E9E74FF44057E6E70BB11D
:1014CC00002004E04FF0805001E04FF48050A3F175
:1014DC00030C5FFA8CFCBCF1010F65D913B1B8F1A8
:1014EC00040F64D0B7F5805F42D0B7F5405F41D0B0
:1014FC00002F3BD003239A425CD102F0BDFD804506
:10150C005BD1E379D3B1012B36D0032B58D1314BBE
:10151C009D4213D0A3F574439D420FD003F5806315
:10152C009D420BD003F580639D4207D003F5806389
:10153C009D4203D003F540539D4244D12B6823F0C8
:10154C0001032B602146304602F0ABFD00283DDB49
:10155C002B6843F001032B6094E8030089E8030037
:10156C000020BDE8F8834FF48050B0E70123C2E7B8
:10157C000023C0E70223BEE7164A9542DED0A2F54F
:10158C0074429542DAD002F580629542D6D002F5CB
:10159C0080629542D2D002F580629542CED002F59F
:1015AC0040529542B1D1C9E76FF08500D9E76FF091
:1015BC008500D6E76FF08500D3E76FF08500D0E7A4
:1015CC006FF08500CDE76FF08500CAE76FF08500FE
:1015DC00C7E700BF0038014008B5024A02F065FEBB
:1015EC0008BD00BF1743000808B5024A02F070FEA0
:1015FC0008BD00BF1D43000870B504460D461646D5
:10160C0043681B681868196801F4C06100F0102069
:10161C0002F032FD042806D0044B324629462046FF
:10162C0002F0B3FE70BD6FF08500FBE7E9430008E4
:10163C0070B504460D46164643681B681868196851
:10164C0001F4C06100F0102002F016FD042806D051
:10165C00044B32462946204602F0C3FE70BD6FF0A3
:10166C008500FBE72B44000843681A6802F1080365
:10167C0053E8003F43F0010302F1080040E8003159
:10168C000029F3D10F4B9A420FD0A3F574439A4221
:10169C000BD003F580639A4207D003F580639A421E
:1016AC0003D003F580639A4203D1536843F040039F
:1016BC00536052E8003F43F4807342E80031002944
:1016CC00F7D170470038014043681A6802F10803EB
:1016DC0053E8003F23F0010302F1080040E8003119
:1016EC000029F3D10F4B9A420FD0A3F574439A42C1
:1016FC000BD003F580639A4207D003F580639A42BE
:10170C0003D003F580639A4203D1536823F040035E
:10171C00536052E8003F23F4807342E80031002903
:10172C00F7D1704700380140F8B5064645682C687B
:10173C0003691F68236823F001032360A86803F082
:10174C006BFB002878D0E968A86802F056FC54E8D6
:10175C00003F43F00C0344E80032002AF7D139462D
:10176C00304602F09EFC002869DB2B7E1BB1A3687F
:10177C0043F00803A3606B7E1BB1636843F4004322
:10178C006360AB7E1BB1636843F480336360EB7EB4
:10179C001BB1636843F4003363602B7F83B32B4B23
:1017AC009C4213D0A3F574439C420FD003F5806385
:1017BC009C420BD003F580639C4207D003F58063F9
:1017CC009C4203D003F540539C423BD173681A688A
:1017DC00936843F4804393606A7F236823F07873A3
:1017EC0043EA42532360AA7F236823F4F81343EAA5
:1017FC0002432360EB7F1BB1A36843F40043A36057
:10180C0095F820301BB1236843F000532360236804
:10181C0043F00103236000E033B9E36913F40013D0
:10182C00FAD00123F8E72AB9E26912F48002FAD05F
:10183C001A46F8E70020F8BD6FF01200FBE76FF0D6
:10184C001500F8E76FF01500F5E700BF0038014010
:10185C002DE9F04383B00D461746D0F80480066995
:10186C00D8F8004033688B4226D0B1F80490C9F305
:10187C00451102F05DFF002800F0D88019F4004FEC
:10188C002ED1636823F010036360D8F808106A4BFC
:10189C009B68DB684BB301AA67489847002824DB98
:1018AC0000239C46072B23D85A1C0198D04029684A
:1018BC0081421DD21346F4E78B8813F4006F06D0D7
:1018CC003AB1236823F4444343F44043236000209B
:1018DC0087E0236823F4444343F400432360F6E792
:1018EC00636843F010036360CFE76FF0040078E0A7
:1018FC00BCF1070F00F29D80226822F040022260AA
:10190C004E4A52F82320236823F0380313432360F4
:10191C00AB8813F0020F17D0236843F00203236047
:10192C00AB8813F0040F14D0236843F00103236039
:10193C00AB8813F4006F18D087B1236823F44443A9
:10194C0043F44043236014E0236823F00203236034
:10195C00E6E7236823F001032360E9E7236823F417
:10196C00444343F40043236003E0236823F44443DB
:10197C002360AB8813F0100F36D0236843F080033C
:10198C002360236823F4005323602B7D23B998F83C
:10199C00183013F0040F2CD0236843F40073236029
:1019AC00636823F004036360AB8813F0010F38D035
:1019BC00236823F482732360AB88C3F34513043B81
:1019CC001F4A52F82330626822F47062134363603A
:1019DC00012386F85C30636843F4805363603560A0
:1019EC00002003B0BDE8F083236823F0800323605C
:1019FC00C7E7AB8813F0010F08D0236823F40073FA
:101A0C002360636823F004036360CDE7236823F449
:101A1C00007343F480232360636843F00403636022
:101A2C00C2E7236843F482732360C5E76FF0850037
:101A3C00D7E76FF01500D4E720530008AC5F00081F
:101A4C009C60000838B50446056943685B69984793
:101A5C00284603F001F80249204602F0E3FD38BDA8
:101A6C00711A0008F8B5044607694668032903D8BB
:101A7C00DFE801F01D05342F6FF085052FE0002104
:101A8C0003F07AF9051E2ADBB168164B9B681B68BC
:101A9C0053B114489847054608BB384603F040F943
:101AAC0000281CDA05461AE06FF0570517E0B168FC
:101ABC000C4B9B685B684BB10A489847054670B95C
:101ACC000121204603F058F9054608E06FF0570550
:101ADC0005E0012103F050F9054600E000252846F9
:101AEC00F8BD00BF205300084FF0E0239969186936
:101AFC009A6909B90C4B19680AB90B4B1A6810F49E
:101B0C00803F01D1914208D208490B680648006811
:101B1C0003440B604FF0E0231B69034B1B689B1ABB
:101B2C00024A10681844704798060020940600205A
:101B3C00094B102283F82320084B4FF4FA521A60F9
:101B4C000020074B18604FF0E02341F63F725A61BA
:101B5C00986107221A61704700ED00E0980600209A
:101B6C0094060020684620F007018D4619B5FFF752
:101B7C00BBFF12480368124A516814681B1941F1E3
:101B8C00000113605160002202600E490A68981A25
:101B9C000D4BA3FB0030400A4FF4FA5300FB03F348
:101BAC00D2184B6843F100030A604B6001F084FAD1
:101BBC00FEF7E6FCBDE81940854670479406002008
:101BCC004803002040030020D34D6210F8B50029D3
:101BDC004DD0B0F1FF3F3FD03F4B1C6801284EDD8C
:101BEC0040F631039842A8BF1846461EEFF3118504
:101BFC00102383F31288BFF36F8FFFF775FF4FF03D
:101C0C00E0239F69354A13685168C31841F10001FC
:101C1C00136051600021324A1160324A11685A1A1D
:101C2C002FD44FF4FA5000FB062202F5F9521F3262
:101C3C002D4EA6FB0262520AC91A00FB02110A467B
:101C4C00B1F5806F38BF4FF48062284B994236D97A
:101C5C00214B264A1A6018E04FF0E022136923F05A
:101C6C00010313611C4B4FF07F421A6026E01A4BA4
:101C7C001C68B0F1FF3FB1D14FF40360B0E7002610
:101C8C00B4E7154B4FF480621A604FF0E02399696A
:101C9C00114A1268013A5A6100229A618F4211D29C
:101CAC00641A3C440D4A136851681B1941F1000138
:101CBC001360516085F31188BFF36F8FF8BD064B2D
:101CCC001A60E2E77F1A054A13685168DB1941F183
:101CDC00000113605160EDE79806002048030020D6
:101CEC009406002040030020D34D621000DCFF005E
:101CFC0038B5EFF31185102383F31288BFF36F8F80
:101D0C00084B1C68084B1B68E41AFFF7EDFE2044D7
:101D1C0085F31188BFF36F8F044BA3FB0030400A8F
:101D2C0038BD00BF4803002040030020D34D621093
:101D3C0038B5EFF31185102383F31288BFF36F8F3F
:101D4C00044B1C68FFF7D0FE204485F31188BFF3C9
:101D5C006F8F38BD48030020284A9368D26802F080
:101D6C00030213F00C030AD00C2B06D0042B1FD04B
:101D7C00082B20D00020024610E0012AF6D11F4A81
:101D8C00126812F0080F0CD11C4AD2F89420C2F33E
:101D9C0003221B4951F8222043B100200C2B0DD0FB
:101DAC007047164A1268C2F30312F2E71046F5E7C1
:101DBC0014480022F2E714480022EFE70F4BDB68CF
:101DCC0003F00303022B16D0032B00D10E4A0B4950
:101DDC00CB68C3F303130133C868C0F3062002FBBE
:101DEC0000F0B0FBF3F0CB68C3F3416301335B004D
:101DFC00B0FBF3F0D4E7034AE9E700BF0010024060
:101E0C00D06000080024F40000127A00421E274B18
:101E1C009A4249D8264B1B6803F4C063B3F5007F84
:101E2C000BD0244B984229D8234B984235D8234BBE
:101E3C00984235D80021084622E0214B98420ED812
:101E4C00204B98420ED8204B98420ED81F4B9842EC
:101E5C000ED81F4B98420ED80021084610E00521E1
:101E6C0000200DE0042100200AE00321002007E0FF
:101E7C000221002004E00121002001E000210120CA
:101E8C00144A136823F00F030B431360136803F019
:101E9C000F03994207D00120704702210020EFE781
:101EAC0001210020ECE7704701207047FF0D270748
:101EBC000070004080BA8C010024F40000127A00FB
:101ECC0000E1F50500B4C40400879303005A6202D4
:101EDC00002D31010020024038B5EFF3118510239D
:101EEC0083F31288BFF36F8F054B9C6802F0ACFF35
:101EFC0085F31188BFF36F8F2046FEF7CBFD38BDFD
:101F0C009C06002010B586B0A823104C03FB00449F
:101F1C0000EB800C0E4B03EB8C030E4A0592012256
:101F2C0004920F22039200220292019200930A4B18
:101F3C004FF4A072094901EB8C11204600F06EFAA7
:101F4C00237C23F00403237406B010BD500300203F
:101F5C009C060020106100085B4E0008D81A002077
:101F6C0038B505460B4B53F8204002E023689847E0
:101F7C0008346B1C074A52F82330A34209D9606815
:101F8C000028F3D0037E13F0010FF1D102F02BFFE8
:101F9C00EEE738BD2061000808B553EA020102D112
:101FAC0000F044FE08BD0249183000F0EBFFF9E7E1
:101FBC004F50000810B586B0184C14E0636A0593B6
:101FCC00236A0493E3690393A369029363690193FE
:101FDC0023690093E368A2686168206800F01EFA28
:101FEC0023685C6530340E4B9C42E7D300F0FCFC5C
:101FFC000A4C00E030340A4B9C420BD2A26AE36AD2
:10200C00B3F1FF3F08BFB2F1FF3FF3D02068FFF7F9
:10201C00C3FFEFE700F000FD06B010BDBC57000891
:10202C00BC57000808B50A4B01221A700320FFF7B1
:10203C0097FF01F0C3F80420FFF792FFFFF7BAFFF8
:10204C00FEF768F9034A938923F00103938108BDD5
:10205C00D0060020F803002008B50146014A0248CA
:10206C00FEF7DEFD31200008F803002010B5044611
:10207C00FFF748FFA8230A4903FB0411094A04EBA4
:10208C00840302EB8303D9601C74074B03EBC4235A
:10209C0003F5006304EB840402EB8402536010BD6F
:1020AC00500300209C060020D812002070B586B08A
:1020BC0000F0EAFC104D114B5D61114B05930123AF
:1020CC000493002403940294019400940D4B4FF458
:1020DC0080620D49284600F0A1F906462B7C23F0BE
:1020EC0004032B74284602F077FF2046FFF7BEFF4F
:1020FC00304606B070BD00BFF80300209C060020DF
:10210C001861000831200008181C002008B50020B8
:10211C00FFF726FF164B83F30888164C636943F4CC
:10212C0000736361F02384F822300023E377237675
:10213C006376A37684F82030636A43F4E023636209
:10214C00FEF772FCFEF78AFD4FF0FF33A362E362E9
:10215C00094800F0C5F9FEF771F90120FFF700FFFF
:10216C000220FFF7FDFEFFF7A1FFFFF775FF00BF91
:10217C00D81A002000ED00E0A00400202DE9F04169
:10218C0082B00446EFF31187102181F31288BFF35C
:10219C006F8FC16899B9002950D1364B9B6893F960
:1021AC000E3023610131E160324B9B68A36087F3F1
:1021BC001188BFF36F8F002002B0BDE8F081164686
:1021CC001D4682682B4B9B689A42E4D055EA060167
:1021DC0036D092F90E80414693F90E0002F044FE7F
:1021EC00804534DC4FF000080096019522463946B4
:1021FC00214800F00BFB0028DED0EFF311851023F3
:10220C0083F31288BFF36F8FA36843B323689C4298
:10221C0023D013B3216993F90E0002F025FE014679
:10222C00204602F02CFEE8B9B8F1000F1AD185F364
:10223C001188BFF36F8F6FF00A00BDE72369B0E719
:10224C0087F31188BFF36F8F6FF00F00B4E701466F
:10225C00204602F014FE8046C6E72169E0E7B8F19B
:10226C00000FE4D02946044800F092FB6FF00A00FE
:10227C00A2E700BF9C060020C0060020F8B58368CA
:10228C00002B47D00446264A9268934245D1C36836
:10229C00012B04D9013BC36000252846F8BDEFF3A0
:1022AC001186102383F31288BFF36F8F016902F03C
:1022BC00E6FD2768BC420CD03D1E18BF012557B95E
:1022CC00A760CDB90023E36086F31188BFF36F8F4D
:1022DC00E3E70027F0E77A683B6813605A60002355
:1022EC003B607B603A7C22F002023A74BB6007F1DF
:1022FC00180002F0FEFEE3E797F90E30236100258B
:10230C00C7F8A050384602F067FE3146054800F089
:10231C003FFBC2E76FF01505BFE74FF0FF35BCE799
:10232C009C060020C0060020F8B50446EFF3118788
:10233C00102383F31288BFF36F8F0568A84212D065
:10234C002E1E18BF012685B906BBA368E26893420E
:10235C0024D001221344A36000230BBB87F3118804
:10236C00BFF36F8FF8BD0025EAE76A682B6813602E
:10237C005A6000232B606B602A7C22F002022A74C4
:10238C00AB6005F1180002F0B4FEDDE70023C5F8E0
:10239C00A030284602F020FE0123DEE70022D9E718
:1023AC003946024800F0F4FADCE700BFC006002012
:1023BC0010B582B0EFF31181102484F31288BFF3AF
:1023CC006F8F846844B1013C846081F31188BFF342
:1023DC006F8F002002B010BD53EA020406D00092A9
:1023EC0001930246054800F011FAF3E781F31188D6
:1023FC00BFF36F8F6FF00F00ECE700BFC00600203B
:10240C0008B553EA020102D100F010FC08BD0249E4
:10241C00183000F0B7FDF9E74F5000082DE9F04FE8
:10242C0085B004460F4615461E46DDF838A0DDF88B
:10243C003C90DDF84080DDF84CB000F1580383652A
:10244C00C365129B0422119902F031FD2A463946CC
:10245C00204602F01FFD0546CDF80880CDF804900B
:10246C00CDF800A03346024639462046FEF7B6FBAF
:10247C00002363652666C4F864A0C4F86890C4F8A9
:10248C006C80EFF31182102383F31288BFF36F8FEC
:10249C00124B196A21671C6282F31188BFF36F8F8C
:1024AC00BBF1000F13D01F22594604F1740002F047
:1024BC006DFE002384F89330084B9B685BB1D3F816
:1024CC009430C4F89430284605B0BDE8F08F002352
:1024DC0084F87430F0E7C4F89430F4E79C060020DC
:1024EC000123037483810023C0F89430014B98605E
:1024FC00704700BF9C0600200A4A9368C3F89C00F2
:10250C006FF00A01C3F8A01007494B6843F08053E1
:10251C004B60002383F31188BFF36F8F9368D3F85C
:10252C00A00070479C06002000ED00E0037C90F9B1
:10253C001020002A51DB13F01F0F4ED110B563F0A1
:10254C007F030374254A52F8183F93420ED100239F
:10255C000CE05A6842600360106058601EE01A4636
:10256C001E49C9698A420FD01B687BB173B190F9BF
:10257C000E1093F90E209142F1D0521A002AE8DC89
:10258C001A46002BECD1F0E70023EEE7134BDA6987
:10259C0003F11801016042601060D8610F4B53F8D1
:1025AC00184F9C420ED06CB10C4B9B681A7C12F0ED
:1025BC001F0F0AD1DA897F2A07D9A2692AB9074ADB
:1025CC00536109E0054BDC68EEE7A34202D02046DC
:1025DC0000F03EFC014B5C6110BD70479C06002076
:1025EC0010B5037C90F91020002A14DB154B9A6867
:1025FC0053F8184F9C4219D0C4B1824219D0137CA5
:10260C0013F01F0F15D1D3897F2B12D9A36983B96E
:10261C000C4B5A6114E003F07F03037442680368A7
:10262C0013605A60002303604360DFE7054BDC68EE
:10263C00E3E7A24202D0204600F00AFC014B5C61A9
:10264C0010BD00BF9C0600202DE9F84305460C4642
:10265C00414B9E68337C13F0600F2BD013F0200F8E
:10266C002DD008271F4225D13B43337413F0800F24
:10267C0027D1082F30D04FF00009374B53F8188F63
:10268C0098454ED0B8F1000F4BD0334B9B68434567
:10269C0002D0404600F0DCFB2F4BC3F81480102F07
:1026AC0008D0304601F0C1F8304600F02BFCB9F1EF
:1026BC00000F3AD184F31188BFF36F8F46E01027D7
:1026CC00D0E703F07F0333747268336813605A6089
:1026DC00002333607360CCE7B3685BB17268336816
:1026EC0013605A60002333607360327C22F0020264
:1026FC003274B360304602F03BFC06F1580002F035
:10270C003CFC154B9B689E4202D04FF00009B4E78D
:10271C00EFF3058313B94FF00009AEE74FF0010951
:10272C00ABE70D4BD3F80C80AFE70C48FFF7D8FEA6
:10273C00C0E7EFF31184102383F31288BFF36F8F7C
:10274C0002F090FB84F31188BFF36F8F2B7C13F096
:10275C00600FEED1BDE8F8839C060020A004002099
:10276C00B3F1FF3F08BFB2F1FF3F00D1704708B58E
:10277C000249183000F006FC08BD00BF4F5000089D
:10278C0010B5214B9A68DB699A4205D013685168E1
:10279C0012680A60516006E00023F8E71A4AD26911
:1027AC00934212D01B6893B1174A906890F90E109F
:1027BC0093F90E209142F1D0521A002AEEDD5A689C
:1027CC0042600360106058600AE00023EBE70E4B98
:1027DC009A68D96903F11800106051600A60DA61D7
:1027EC00094B53F8184F9C420AD04CB1064B9B68CE
:1027FC009C4202D0204600F02BFB034B5C6110BDC9
:10280C00014BDC68F2E700BF9C06002010B50C46BB
:10281C0011460A4882680A4B1A60EFF311831023A1
:10282C0083F31288BFF36F8FDDE90223806802F017
:10283C00C7FB2046FFF760FE10BD00BF9C060020C2
:10284C00C00600202DE9F04104460E460023EFF3AC
:10285C001185102282F31288BFF36F8F1F4650E050
:10286C0003F07F0323746268236813605A600023AB
:10287C002360636071B2A173237C63F07F032374C4
:10288C00424A52F8183F93420ED100230CE05A688A
:10289C006260236014605C601CE01A463B48C069AF
:1028AC0082420DD01B686BB163B193F90E2091423B
:1028BC00F3D0521A002AEADC1A46002BEED1F2E7CA
:1028CC000023F0E7314BDA6903F1180121606260F3
:1028DC001460DC612D4B53F8188F984520D0B8F15B
:1028EC00000F1DD0294B9B68984502D0404600F044
:1028FC00AFFA264BC3F8148085F31188BFF36F8FA2
:10290C000123002B3FD1237C03F01F02002A0CBFB4
:10291C0001270027A4D013F0020F05D1A673EBE713
:10292C001A4BD3F80C80DDE7A1686268236813604A
:10293C005A6000232360636070B2A0730B689942E5
:10294C000DD100230BE05A686260236014605C6058
:10295C00D2E79C464A6894450DD01B686BB163B1B5
:10296C0093F90E209042F4D0121A002AEBDC9C460C
:10297C00002BEFD1F2E70023F0E74B682160636096
:10298C001C604C60B8E73846BDE8F0819C0600201E
:10299C0008B50B4659B9EFF3058242B9064A50699E
:1029AC009268904203D00846FFF7A6FD03E083F33C
:1029BC001188BFF36F8F08BD9C06002008B5034635
:1029CC0050B9EFF305823AB9064A516992689142BF
:1029DC0002D0FFF791FD03E083F31188BFF36F8FF3
:1029EC0008BD00BF9C0600200023EFF311811022CC
:1029FC0082F31288BFF36F8F09E0064B9A68D37B82
:102A0C00013BD37381F31188BFF36F8F0123002B2C
:102A1C00F3D070479C06002038B50023EFF31185E6
:102A2C00102282F31288BFF36F8F0EE0154BDC6817
:102A3C0017E0A24202D0204600F00AFA114B5C616A
:102A4C0085F31188BFF36F8F0123BBB90D4B9A68C7
:102A5C00D17B0131D17353F8184F9C42E6D0002C36
:102A6C00E4D0137C13F01F0FE3D1D3897F2BE0D973
:102A7C00A369002BDDD1034B5A61E1E702F0F8FAB0
:102A8C0038BD00BF9C06002008B5024802F0FBFAD6
:102A9C0008BD00BFB006002038B5EFF31184102339
:102AAC0083F31288BFF36F8F224B9A68DB699A42CB
:102ABC0005D01368516812680A60516006E0002363
:102ACC00F8E71C4AD269934212D01B6893B1194A99
:102ADC00906890F90E1093F90E209142F1D0521A91
:102AEC00002AEEDD5A6842600360106058600AE00C
:102AFC000023EBE70F4B9A68D96903F118001060BB
:102B0C0051600A60DA610B4B53F8185F9D420DD08F
:102B1C0065B1084B9B689D4202D0284600F098F99D
:102B2C00044B5D612046FFF7E7FC38BD014BDD68C7
:102B3C00EFE700BF9C060020F8B551EA000328D04F
:102B4C0005460C46EFF31187102383F31288BFF36D
:102B5C006F8F154EB068154B1860FFF741FDB068CC
:102B6C002A4623461249183000F00CFA0446B26883
:102B7C00137C43F0040313743846FFF7BDFCB368B1
:102B8C009A6ADB6AB3F1004F08BF002A05D0002017
:102B9C00F8BDFFF781FF0020FAE702F0D9FA201AFE
:102BAC000028F5DC0020F3E79C060020C00600207E
:102BBC004F50000838B504460D46FFF7BDFF0346DD
:102BCC002046B5F1FF3F08BFB4F1FF3F28D0DA171C
:102BDC0013F1090042F100030021C21821D20A446A
:102BEC001149A1FB024525F0030404EB9504121BCB
:102BFC00801A63F100034FF0CC3200FB02F201FBB0
:102C0C000322A0FB01010A44430843EAC2735208A1
:102C1C001846B3F1004F72F1000201D36FF000407F
:102C2C0038BD0121DBE700BFCDCCCCCC38B5EFF300
:102C3C001185102383F31288BFF36F8F037C13F07D
:102C4C00040F04D185F31188BFF36F8F38BD044690
:102C5C00183002F04EFA237C23F004032374204630
:102C6C00FFF764FC29460248FFF792FEEEE700BF2F
:102C7C00C0060020014B9868704700BF9C060020DE
:102C8C002DE9F843838903F00107EFF31186102334
:102C9C0083F31288BFF36F8F057C15F0080F1AD1E0
:102CAC000446B14600F1580802F02EF910B345F075
:102CBC0020052574EFF305839BB131462046FFF7C1
:102CCC00C3FC67B1002383F31188BFF36F8F042318
:102CDC00184602DF03E086F31188BFF36F8FBDE85F
:102CEC00F88341463F4B986802F010F93046FFF7E5
:102CFC0003FCE6E745F00803237413F0800F36D18C
:102D0C00A3685BB16268236813605A600023236078
:102D1C006360227C22F002022274A36004F118008A
:102D2C0002F0E7F9404602F028F92E4B9A689442DB
:102D3C002AD000262B4B53F8185F9D422BD055B34D
:102D4C00AA4202D0284600F083F8264B5D6120464B
:102D5C0000F06BFD204600F0D5F8FEB9214B9B68C6
:102D6C009C421FD089F31188BFF36F8FA9E705F040
:102D7C007F0545F0080525746268236813605A6066
:102D8C00002323606360BBE7EFF305830BB90026D8
:102D9C00D0E70126CEE7134BDD68D1E71248FFF7E9
:102DAC009FFBDBE7EFF30583002BDBD1A38913F04B
:102DBC00010F12D089F31188BFF36F8F002383F3B7
:102DCC001188BFF36F8F0423184602DFEFF31189CC
:102DDC00102383F31288BFF36F8F4846FFF78CFBE9
:102DEC006FE700BF9C060020A00400200346027C75
:102DFC0012F01F0F10D10B4A90420FD00A4A1068E4
:102E0C0078B1DA897F2A0BD893F90E20074B1B680F
:102E1C009A4206DA00207047002070470020704765
:102E2C000020704750030020FC000020C806002042
:102E3C00044BC01AC010044B03FB00F0034B0122DF
:102E4C001A54704748050020ABAAAAAAC406002051
:102E5C0070B50C4B1E7CFFF7C9FF044606EB46030E
:102E6C00094D05EBC305284602F043F9074B002238
:102E7C009A5504B970BD621ED3170549284600F057
:102E8C0081F8F7E79C06002048050020C4060020C6
:102E9C003D2E000838B5EFF31185102383F312880B
:102EAC00BFF36F8F144B9C68144B1B68A34217D055
:102EBC00124B00221A60104B1B7C114AD35C53B18D
:102ECC002046FFF793FF30B1237C13F01F0F0FD078
:102EDC002046FFF7BDFF85F31188BFF36F8F38BD18
:102EEC002046FFF7B5FF85F31188BFF36F8FF6E728
:102EFC00FFF746FCECE700BF9C060020C006002054
:102F0C00C4060020EFF31181102383F31288BFF362
:102F1C006F8F0A4B1B6A834204D11A6F074B1A62DC
:102F2C0007E0134613B11A6F8242FAD10BB1026F4C
:102F3C001A6781F31188BFF36F8F70479C060020CE
:102F4C00034B1868984200D070470020FCE700BF84
:102F5C000001002030B1044A5268904201D0006850
:102F6C0070470020704700BF0001002008B5044BDB
:102F7C001B680BB1002008BDFEF7BAFEFBE700BFD3
:102F8C00CC0600202DE9F04F83B0B3F1FF3F08BF12
:102F9C00B2F1FF3F0ED0044691461F4681600023DC
:102FAC00EFF3118A102282F31288BFF36F8F1D4644
:102FBC00019335E0002501952846019903B0BDE841
:102FCC00F08FFFF7D3FF8046013547F10006451916
:102FDC0046EBE07625616661344A13685268ED1859
:102FEC0046EB020301934FF0010B38E0C91A66EB74
:102FFC000202016142614368636020601C604460AE
:10300C0005E02B4B5A682360626014605C60FFF72C
:10301C0097FF844237D08AF31188BFF36F8F012357
:10302C00002BC9D14D460197002FCADA1F4B1968E6
:10303C005B68691843EB07036FF00102521A4FF0FB
:10304C00FF3161EB030310461946012A73F10003AB
:10305C0001DA01200021206161614FF0000BFFF7C4
:10306C006FFF0028CDD001694669236962698B42E4
:10307C0072EB060EBADB5B1A62EB0602236162612D
:10308C00FFF768FFEDE70B4B1B68002BC3D1BBF1BF
:10309C00000F06D0404602F011F80021FEF796FD15
:1030AC00B9E7FFF763FF8046F4E700BF6005002037
:1030BC0000010020CC06002070B5EFF31186102320
:1030CC0083F31288BFF36F8F2A4B1860FFF738FF1A
:1030DC00044623E0284A136851685B1941EBE571FB
:1030EC001360516000220023C4E90423204601F040
:1030FC00CEFF86F31188BFF36F8FA36820469847E5
:10310C00EFF31186102383F31288BFF36F8F194AE4
:10311C0013685B1B1360FFF713FF04463CB1256972
:10312C006169144B1A68D317AA428B41D2DA44B1A5
:10313C00236962690F4909685B1A62EBE1722361CA
:10314C0062610D4A0B4D2868136851681B1841EBDE
:10315C00E0711360516000242C60204601F0AEFF3A
:10316C002146FEF733FD86F31188BFF36F8FFFF70F
:10317C0091FE70BDCC0600206005002010B5002229
:10318C00EFF31184102383F31288BFF36F8F134670
:10319C0011460CE0FFF7EAFE074A13685168C318A2
:1031AC0041EBE07184F31188BFF36F8F0122002A89
:1031BC00F0D0184610BD00BF6005002008B50248CD
:1031CC0000F0D8FA08BD00BF386100082DE9F04FB7
:1031DC008DB043680293837815469A07804640F178
:1031EC000D8100240E78002E00F00A81252E0BD0C4
:1031FC004B1C03930134029B4146304698470028F0
:10320C00C0F2F6800399EDE74E788B1C252E0393C4
:10321C00F0D00027B946BB46BBF11F0F38D8A6F13A
:10322C002003102B0AD8DFE803F02A09093009091A
:10323C00092109090928092D09091F00A6F13003E4
:10324C00092B33D92A2E37D11BF0400F55F8043BEC
:10325C0040F08280002BA7BF4BF0200B9946C3F1A6
:10326C0000094BF0280B01E04BF0010B039B13F80A
:10327C00016B0393002ECFD130E04BF0020B4BF0DF
:10328C00040BF3E74BF0080BF0E74BF0100BEDE7FA
:10329C00BBF17F0F19D8A6F13003092BD2D81BF044
:1032AC00400F03D00A2101FB0737DFE70A2101FB9E
:1032BC0009394BF0200BD9E72E2E06D11BF0400F0D
:1032CC0040F09E804BF0400BD0E76C2E31D02BD8C9
:1032DC00682E36D06A2E3CD04C2E3AD0002F46F0B9
:1032EC002003B8BF2BF04002A3F16501BCBF1FFA4D
:1032FC0082FB0027022901D9612B2FD1073525F03C
:10330C000705DFF8ACA2083507271BF0080F66D0BD
:10331C000AEB070B56465E4563D1A4EB0A0A06EB93
:10332C000A02A9EB07096FE1742E9FD07A2E9DD06B
:10333C00D4E71BF0800F18BF4BF4007B4BF0800BD5
:10334C0094E71BF4807F18BF4BF4007B4BF4807B1D
:10335C008CE74BF4207B89E71F4687E7A6F16301D6
:10336C00122900F2F080DFE811F013004F00EE009C
:10337C00EE00EE00EE004F00EE00EE00EE00EE0070
:10338C00EE00FE00E900EE00EE001B00EE00AF00C8
:10339C0055F8043B8DF8183001270DF1180AB4E7E5
:1033AC0055F804AB834BBAF1000F08BF9A461BF0DB
:1033BC00400F14BF39464FF0FF31504601F0F6FE76
:1033CC000746A2E7029B41462020984700280FDBC6
:1033DC00013EB742F6D34C44A41BB14698E74E4687
:1033EC00F7E716F8010B029B41469847002892DA42
:1033FC0098F8023043F0040388F802304FF0FF34A1
:10340C0020460DB0BDE8F08F1BF0800F34D01BF4BC
:10341C00007F2CD0073525F00705AA4669685AF8B5
:10342C00080B2BF010050029ADB237DA404261EBE6
:10343C00410145F480650DF1180B0A235A4601F041
:10344C00C1FEA0EB0B0301936B0662D5019B25F02B
:10345C0001019F4289B240F3A180002E00F09980B7
:10346C0015F0100240F09C80BB460D4623E0AA46A6
:10347C005AF8040BC117D4E7AA461BF4807F5AF8FC
:10348C00041B01D10846F5E71BF4007F15BF48B2B9
:10349C0008B241F3C01141F3C031C2E750EA010355
:1034AC00C9D11BF0400FC6D0002FC4D12BF0110294
:1034BC0095B2BB46019740F2064115EA01021CBFCA
:1034CC000BF1010B00222CE02BF010021FFA82FBF7
:1034DC000A231BF0800C49D01BF400711DBF07356B
:1034EC0025F00705AA46AA461ABF5AF8080B6968C0
:1034FC005AF8040B50EA010545D12BF016051BF0C8
:10350C00400FADB242D0002F40D12BF0170295B234
:10351C00019715F0100248D0019B002E42D103F107
:10352C00010B29075AD4EB0706D5D9456FDD019954
:10353C00A9EB0B035F18CB465B4649E04BF0100B35
:10354C0010237826C5E7782B04D1C6F1780343F015
:10355C001003BEE7029B4146252098470028FFF642
:10356C0047AF023447E608230026B2E7AA461BF40D
:10357C0080715AF8040BBDD01BF400711ABFC0B295
:10358C00614680B2B6E72BF0060295B20DF1180B2E
:10359C0054E725F01105ADB2BB468CE70D46B8E7F4
:1035AC003B460D4603F1020BBBE7DDF804B082E7A6
:1035BC007A61000873610008CDE904324146029B30
:1035CC00202098470028FFF613AF049B059A01337F
:1035DC009945F1DCA4EB0B01CC189B460AB3029B7A
:1035EC004146302098470028FFF602AF8EB90134CF
:1035FC002744019B391B994224DC1D465DBB019A73
:10360C00A9EB0B09224455461446914435E0019F21
:10361C0092E7023441463046029B98470028E7DA8D
:10362C00E6E640F206410D42E2D015F0020F14BF5F
:10363C002B20202015F4806F04F10104414618BFA3
:10364C002D20E9E7029B414630209847002804F1E1
:10365C000104CEDACCE606AB013D4146585D029B37
:10366C0098470028CADAC3E6029B414620209847B7
:10367C00002804F10104FFF6BBAEA9EB0403002BF8
:10368C00F2DCBFE5704710B5131D50F8234074B938
:10369C00C368012494402343C360043240F82210D1
:1036AC00CB001A1D89B281520633C15210BDE20003
:1036BC000432835A4FEAC10C0CF1040E20F80E3080
:1036CC000CF1060C20F80C40DB00063389B2C15219
:1036DC008152EBE708B500EBC1035A885208B2FAE5
:1036EC0082F2C2F11F02FFF7CEFF08BD70B5034690
:1036FC00043AC81D20F007000A4422F00702121AEF
:10370C00D508186085600023C360B5FA85F1C1F156
:10371C00200EC1F124018900CE1DF10805E003F152
:10372C00040C002440F82C4001337345F7DB4C00AB
:10373C00A4B244804FF0000CA0F800C044F0010487
:10374C0044806B1A4FEA430E26F00704A51C20F8A0
:10375C0005E0015322F00704951C20F805C0024433
:10376C000353538843F001035380FFF7B3FF70BD3D
:10377C00002070470FB400B583B004A951F8040BB6
:10378C000191FCF721FE03B05DF804EB04B0704727
:10379C00704708B501F0F2FC08BD08B501F0E0FC7B
:1037AC0008BD08B501460068FCF7A6FE08BD08B5C3
:1037BC00FCF7BAFEFCF7E4FE08BD0020704708B524
:1037CC0000231370CB1E092B1AD8DFE803F0050970
:1037DC000D111919191919141146FDF769F808BDBD
:1037EC000021FCF71BFFFAE70021FCF791FFF6E73D
:1037FC00FDF704F8F3E71146FDF7B6F80020EEE705
:10380C00FDF7BCF80020EAE708B540B2FDF79AF9DD
:10381C0008BD08B5013140B2FDF7A2F908BD08B5E5
:10382C0000210120FCF768FE08BD6FF08500704791
:10383C0061B662B680F31188BFF36F8F704772B6B2
:10384C00002383F31188BFF36F8FBFF34F8F30BF0B
:10385C0062B6BFF36F8F704708B5FDF735FA0020DD
:10386C0008BD08B5FDF756FA08BD08B506220121BA
:10387C000020FDF79BFA002211460620FFF7C9FF36
:10388C00072201210846FDF791FA00221146072074
:10389C00FFF7BFFF082201210220FDF787FA002263
:1038AC0011460820FFF7B5FF092201210320FDF77F
:1038BC007DFA002211460920FFF7ABFF0A220121F5
:1038CC000420FDF773FA002211460A20FFF7A1FF2E
:1038DC00172205210846FDF769FA00221146172028
:1038EC00FFF797FF282206210A20FDF75FFA002236
:1038FC0011462820FFF78DFF002008BD01F01F01A5
:10390C0001208840704708B50246084602F00303C0
:10391C0004339B000F21994041EA9201FDF77CFA98
:10392C0008BD08B500F0030304339B000F2202FA14
:10393C0003F343EA9000FDF78BFA08BDB0FBF1F0FE
:10394C0002FB00F0B0FBF3F07047B0FBF1F07047F6
:10395C00002070470B88C3F30B0303F6B872C2F355
:10396C000B02182A15D882B003F1804303F50433F7
:10397C004A68186802431A600B88C3F30B0303F1FF
:10398C00804303F504331B680193019B002002B0B4
:10399C0070476FF0850070470B88C3F30B0303F679
:1039AC00B872C2F30B02182A0AD803F1804303F54C
:1039BC00043349681A6822EA01021A600020704731
:1039CC006FF0850070470C2807D841F6BA33C34016
:1039DC0013F0010F04D0002070476FF08500704782
:1039EC006FF08500704770B54C68C4F304450888C7
:1039FC00C0F30B00FFF7E7FF002815DBA6B2FF2C86
:103A0C0013D006F1804202F50432C4F34151013166
:103A1C0001238B40013BAB40240EAC40116821EAE2
:103A2C0003031C431460002070BD0020FCE708B5A4
:103A3C000888C0F30B0000F6B873C3F30B03182B04
:103A4C000BD800F1804000F5043002684B689343BA
:103A5C0001D0012008BD0220FCE7FFF7B4FF08B13C
:103A6C000120F7E70220F5E77047022070470B466C
:103A7C0039B11168196041688A4209D0002313607A
:103A8C0070471368036041688A42F7D14360F5E7D9
:103A9C004360F3E708B50A460368002101E01946C4
:103AAC001B682BB19342FAD1FFF7E1FF012000E034
:103ABC00002008BD38B505460C460321A047002858
:103ACC0006DB01212846A047002800DB002038BD7A
:103ADC0010F1860FFBD1F4E770B504460D4616467F
:103AEC00036833B1FFF7D6FF70B91EB96FF015003C
:103AFC0006E032B123682B602560636843B1002077
:103B0C0070BD6FF01500FBE7002EF3D10020F7E736
:103B1C0065600020F4E770B50E461546016821B1CA
:103B2C000C683CB131B90C4604E00C4602E023466B
:103B3C0021461C4671B18A682A4002D04B68304637
:103B4C009847002CF3D02368002BF1D0002CEFD138
:103B5C002346EDE770BD08B5024608690430FFF74F
:103B6C00DAFF08BD10F4003F14D010F0020F04D09F
:103B7C0010F0040F35D0502300E0102310F0100F7C
:103B8C0002D043F4007312E010F0200F0FD043F476
:103B9C0080630CE010F4803F08D010F0100F14D1AB
:103BAC0010F0200303D04FF4806300E0302300F4C6
:103BBC00C060B0F5806F0ED0B0F5C06F08D0B0F516
:103BCC00007F0BD00B60002070474FF40073EEE7C2
:103BDC0043F4C073F6E743F48073F3E743F08003D8
:103BEC00F0E76FF08500704743685B681B690B60FA
:103BFC000020704743685B68586942400A40424065
:103C0C005A610020704743685B68996100207047D7
:103C1C0043685B6899620020704743685B685A6927
:103C2C00514059610020704708B500690430FFF716
:103C3C0053FF08BD08B5012911D007D819B90021C7
:103C4C00FDF776FB07E06FF0850004E00239C9B29E
:103C5C00012901D8002008BD6FF08500FBE7012188
:103C6C00FDF766FBF7E710B4046891FAA1F39BB17A
:103C7C00B3FA83F35B004FF0030C0CFA03F324EA62
:103C8C00030391FAA1F149B1B1FA81F149008A40DB
:103C9C001343036010BC70472023EBE72021F5E7AA
:103CAC0010B4846891FAA1F39BB1B3FA83F35B006F
:103CBC004FF0030C0CFA03F324EA030391FAA1F17D
:103CCC0049B1B1FA81F149008A401343836010BCB9
:103CDC0070472023EBE72021F5E710B4C46891FA74
:103CEC00A1F39BB1B3FA83F35B004FF0030C0CFA16
:103CFC0003F324EA030391FAA1F149B1B1FA81F17A
:103D0C0049008A401343C36010BC70472023EBE783
:103D1C002021F5E710B4046A91FAA1F39BB1B3FA30
:103D2C0083F39B004FF00F0C0CFA03F324EA03030C
:103D3C0091FAA1F149B1B1FA81F189008A4013439A
:103D4C00036210BC70472023EBE72021F5E710B489
:103D5C00446A090A91FAA1F39BB1B3FA83F39B006D
:103D6C004FF00F0C0CFA03F324EA030491FAA1F1BF
:103D7C0049B1B1FA81F189008A401443446210BC04
:103D8C0070472023EBE72021F5E72DE9F8430F4698
:103D9C001546984643685E6801248C4002F0300951
:103DAC00C2F38013706820EA04008B4018437060E3
:103DBC00C2F3C11221463046FFF772FFC5F3412210
:103DCC0021463046FFF789FFB9F1200F07D04FEAA3
:103DDC00191221463046FFF746FFBDE8F883072F3E
:103DEC0005D8424621463046FFF794FFEFE742469E
:103DFC0021463046FFF7ABFFE9E72DE9F04383B0EE
:103E0C0005460E461446D0F8108001A91046FFF75F
:103E1C00A9FE074668BB14F440390BD0D8F80C3017
:103E2C0023FA06F212F0010F04D10122B24013431F
:103E3C00C8F80C3014F4003F05D014F4002F1CD13A
:103E4C0014F4802F1FD10023019A31462846FFF726
:103E5C009CFFB9F1000F0CD1D8F80C3023FA06F204
:103E6C0012F0010F05D00122B24023EA0203C8F878
:103E7C000C30384603B0BDE8F0830121B140284630
:103E8C00FFF7C1FEDFE70121B1402846FFF7C0FE76
:103E9C00D9E738B504460D460846FFF742FDA04267
:103EAC0000D038BD29462046FFF728FD0446FCF714
:103EBC00FBFF2046FDF752F800212046FCF7FCFFE3
:103ECC00EFE7F8B507460D4616461C46FFF75DFFB3
:103EDC00112C01D00020F8BD16F4006F05D0012183
:103EEC00A9403846FFF78FFEF4E70121A940384678
:103EFC00FFF78EFEEEE700B50368136001E00833B0
:103F0C001360136890F804C0D0F800E00EEBCC0CF2
:103F1C00634505D293F805C08C45F0D1002001E033
:103F2C006FF001005DF804FBF8B506460F4600245F
:103F3C00254615E002F01F01102920D011291CD0B4
:103F4C00530A1B0103F4F873C2F3431002F01F026F
:103F5C0029461843FDF762FA002813DB0134E4B25A
:103F6C00BC420ED206EBC40356F8342012F0100FEC
:103F7C00E0D15D6845F02005E2E75D68E0E73025BB
:103F8C00DEE70020F8BD43681868C1F34B1301F05D
:103F9C001F01C05801238B40184214BF012300237A
:103FAC0013700020704710B443681C68C1F34B10A9
:103FBC0001F01F01235801228A4013432350002093
:103FCC0010BC704710B443681C68C1F34B1001F06F
:103FDC001F01235801228A4023EA020323500020A8
:103FEC0010BC704738B504460D46FFF7DCFF294678
:103FFC002046FFF7E7FF002038BD08B58368DB6873
:10400C000BB1984708BD6FF05700FBE730B583B094
:10401C0043681C68E1B10D46586819698368DB6810
:10402C009BB101AA984700280DDB236823F40043B9
:10403C002360019B03EB5503B3FBF5F30F2B0AD95C
:10404C009BB2E360002003B030BD6FF05700FAE77D
:10405C006FF01500F7E76FF01500F4E7436829B12E
:10406C001A68936843F48043936070471A689368A6
:10407C0023F4804393607047B0F5805F07D0B0F1B4
:10408C00805F07D109B1012070470220704721B928
:10409C000420704719B90320704703207047022091
:1040AC0070472DE9F04104460D46476803691E68C8
:1040BC000979012914D0022915D14FF480636A794A
:1040CC00012A15D0022A15D07AB14FF40052A879E2
:1040DC00022812D0042816D0002968D1002014E040
:1040EC004FF4C063EBE70023E9E74FF48052EEE7AF
:1040FC000022ECE74FF44052E9E709B1002004E05C
:10410C004FF0805001E04FF48050E979012951D0F3
:10411C004FF0000C032914BF00210121AE424CD0FA
:10412C00D7F80080D8F8007007F4C06E734506D03D
:10413C00D8F8007027F4C0673B43C8F800306368B8
:10414C001F687B6803F440539A4204D07B6823F4C5
:10415C00405313437B6063681A68136803F01023A1
:10416C00984204D0136823F010231843106063683E
:10417C001A68936803F440739C4505D0936823F444
:10418C0040734CEA0303936063681B689B6813F4E9
:10419C00804300D00123003B18BF012399422AD150
:1041AC002968336899422AD10020BDE8F0814FF488
:1041BC008050AAE74FF4407CACE73E68316821F0B0
:1041CC00805121F4B051034319433160736823F4D7
:1041DC0040531343736063681A68936823F4407305
:1041EC004CEA0303936029682046FFF70FFF002871
:1041FC00DBDB0020D9E72046FFF730FFD0E7204675
:10420C00FFF704FF0028D0DB2B6833600020CCE7DD
:10421C0038B504460D4603691B681B680B60436880
:10422C001B681B6803F4C063B3F5806F31D0B3F522
:10423C00C06F30D101232B7163681B685B6803F47A
:10424C004053B3F5805F2AD0B3F5405F29D023B338
:10425C0003236B7163681B681868196801F4C061EB
:10426C0000F01020FFF708FFA87163681B689B68BB
:10427C0003F44073B3F5407F15D00023EB716368F2
:10428C001B689B6813F4804F01D00323EB71002053
:10429C0038BD0223CFE70023CDE70123D9E7002364
:1042AC00D7E70223D5E70123E8E708B54368186888
:1042BC00C36913F0080F01D008230362C36913F01C
:1042CC00200F02D09047002008BD4FF0FF30FBE7D5
:1042DC0010B543681868C36913F0800FFBD0EFF377
:1042EC001184102383F31288BFF36F8FC36913F00B
:1042FC00800F04D184F31188BFF36F8FEBE79047E5
:10430C0084F31188BFF36F8F10BD436A0B70704735
:10431C00C9B28162704743681B68D86910F0080005
:10432C0000D00120DA6912F0010F01D040F0020038
:10433C00DA6912F0020F01D040F00400DA6912F0D1
:10434C00040F01D040F02000DA6912F4807F01D014
:10435C0040F0080010F0080F02D04FF480721A627F
:10436C0010F0010F01D008221A6210F0020F01D0D8
:10437C0001221A6210F0040F01D002221A6210F00E
:10438C00200F01D004221A6270472DE9F84315461C
:10439C0042681768FA6912F0800F1DD00E469846D5
:1043AC00EFF31189102383F31288BFF36F8F00246E
:1043BC002B1B002B09DDFB6913F0800F05D0224667
:1043CC0031463846C0470134F2E789F31188BFF310
:1043DC006F8F2046BDE8F8830024FAE78B5C83627C
:1043EC0070472DE9F041884616461F4643681D6804
:1043FC000024331B002B0FDDEB6913F0200F0BD0C7
:10440C00224641462846B8470134EB6913F0080FA1
:10441C00EFD008232B62ECE72046BDE8F081436A1D
:10442C008B54704743681A6852E8003F43F04003CE
:10443C0042E800310029F7D1704743681A6852E806
:10444C00003F23F0400342E800310029F7D17047C8
:10445C0043681B68DA6912F0800F05D01B6813F0F3
:10446C00400F03D001207047002070470020704798
:10447C0043681B68D86910F0400000D001207047D9
:10448C0043681A6852E8003F43F0200342E80031C9
:10449C000029F7D1704743681A6852E8003F23F0AF
:1044AC00200342E800310029F7D1704743681B68AC
:1044BC00D86910F0200000D00120704743681B68B9
:1044CC00DA6912F0200F03D01A6812F0200F09D10C
:1044DC00DA6912F0400F07D01B6813F0400F05D1BA
:1044EC000020704701207047002070470120704762
:1044FC0001207047036959609A60704708B50269DA
:10450C0053680BB19168984708BD08B54368586863
:10451C00196983681B680BB1984708BD6FF0570089
:10452C00FBE700B583B001AAFFF7E5FC002805DB2B
:10453C00019B002219791868FFF7F6FC03B05DF8AF
:10454C0004FB38B504464568FFF7DFFF00280EDB97
:10455C000021686AFFF7E5FF002808DB2046FDF71D
:10456C00E3F8002803DBAB6A20469847002038BDEF
:10457C0008B5002211462520FFF74BF92520FFF73F
:10458C0043F908BD38B513468568046912F4801FD9
:10459C0007D012F4402F04D012F0010F01D082F496
:1045AC00402323F4801213F0010F0AD023684FF03C
:1045BC00010C0CFA01FC43EA0C0323602B689847AE
:1045CC0038BD23684FF0010C0CFA01FC23EA0C03F4
:1045DC002360F3E708B503468C4600681979DA883E
:1045EC0042EA0C02FFF7CEFF08BD08B532B1012339
:1045FC0003FA01F18368DB68984708BD012303FACD
:10460C0001F183681B699847F7E710B503691C68CB
:10461C0001238B401C4202D0B2FA82F25209FFF7FE
:10462C00E4FF10BD38B505460C460321A047002811
:10463C0006DB01212846A047002800DB002038BDFE
:10464C0010F1860FFBD1F4E730B404E008340460B9
:10465C000C68013C0C600C684CB1046865689D42A8
:10466C00F4D3B5FBF3F515600368186801E000207E
:10467C00106030BC704770B5044615461E460A469D
:10468C0009B30B68636303B35368A363334604F144
:10469C00480204F1380104F13400FFF7D5FF6064DF
:1046AC00ADB12B68E363A3B16B682364334604F1AB
:1046BC00500204F1400104F13C00FFF7C5FFE06437
:1046CC000023236370BD0B46DCE70023DDE72B469C
:1046DC00E8E70023E9E70246002005E0536B03EB13
:1046EC00C1035B6818440131936B8B42F6D8704759
:1046FC000246002005E0D36B03EBC1035B68184452
:10470C000131136C8B42F6D87047836813F0010F9C
:10471C0001D0037BF9E7036823F04003036000E05A
:10472C002BB1036813F04003FAD00123F8E770476C
:10473C0043681B69022B0BD0032B0FD0012B01D02C
:10474C000020704704391C298CBF002001207047C1
:10475C0004390C298CBF002001207047082905D092
:10476C00102901D0002070470120704701207047AC
:10477C00C0F34510082803D9102803D8022070472D
:10478C00012070470420704738B505460C460B686D
:10479C009888FFF7EDFF02281ED0012815D0616C18
:1047AC0039B3A26C02B10A78D2B22A730125A26C79
:1047BC004AB1954207D8521BA264E2B1626C12B1A5
:1047CC0005FB00226264284638BD94F85C20012A5F
:1047DC00E5D9626D012AE2D9616C41B1A26C02B1DA
:1047EC000A8892B2AA810225B5FBF0F5DFE7002218
:1047FC00F7E70022D8E7626B08326263A26B013ADA
:10480C00A263034604F1480204F1380104F13400B8
:10481C00FFF71AFF6064D6E738B505460C460B68FF
:10482C009888FFF7A5FF022811D0012808D02A7B11
:10483C00D2B2E16C19B3236D1BB30A70012510E0E1
:10484C0094F85C20012AF2D9A26D012AEFD9EA680A
:10485C0092B2E16C11B1236D03B10A800225B5FB54
:10486C00F0F5226D4AB1954207D8521B226552B120
:10487C00E26C12B105FB0022E264284638BD01252A
:10488C00EFE70125EDE7E26B0832E263226C013AB7
:10489C002264034604F1500204F1400104F13C008F
:1048AC00FFF7D2FEE064E8E7836C1BB9036D1BB91C
:1048BC00002070470120704701207047836813F473
:1048CC00B87F01D100207047836813F0400F0AD0E5
:1048DC0082B0C3680193019B83680193019B6FF0C5
:1048EC00040002B070476FF004007047037E13F0B1
:1048FC00010F25D170B504460D460068066806F414
:10490C004446B6F5004F01D109E02BB9836813F08A
:10491C000203FAD00123F8E72946FFF735FFB6F575
:10492C00404F01D10AE033B92068836813F00103CA
:10493C00F9D00123F7E72946FFF76EFF002070BD81
:10494C000020704738B504460D46836813F0020FFB
:10495C0001D08B6C83B9636823F080036360A36818
:10496C0013F0010F07D0EB6C2BB12B6D1BB129464B
:10497C002046FFF751FF38BDFFF706FFEFE710B5F4
:10498C0004460B689B8813F0010F03D1FFF7AEFFB1
:10499C0018B105E00068FFF7D5FF2068FFF78EFF20
:1049AC0010BD03688A6C9AB90A6D8AB11A6822F430
:1049BC00444242F400421A601A6842F040021A6003
:1049CC005A6842F020025A605A6842F040025A601B
:1049DC0000207047002070470368EBB110B5044607
:1049EC00187D70B171B91AB99A8812F4805F08D128
:1049FC00186900F0E8F923680022197B9868FFF722
:104A0C0004FE10BD0122197B9868FFF7FEFD236898
:104A1C00186900F0D8F9F4E7704708B5002200696E
:104A2C00FFF7DAFF08BD38B50D4643681C682368EC
:104A3C0043F0400323600121FFF7EFFF636843F06D
:104A4C00200363601DB9636843F0400363606368CF
:104A5C0043F08003636038BD10B504460122002189
:104A6C00FFF7BAFFA36903B110BD636004F1100036
:104A7C00FDF75AFCF8E710B544680069FFF7ECFF46
:104A8C002068FFF742FE002010BD08B503681BB17B
:104A9C009B8813F4005F04D1002343601030FDF7B2
:104AAC0043FC08BDF0B583B006460F4643681C684E
:104ABC000569636823F080036360636823F0400337
:104ACC006360636823F020036360A36813F0010F35
:104ADC0001D0237BF9E7236803F48273B3F5827F5B
:104AEC0019D0A36813F0200F06D0A3680193019B83
:104AFC00236823F0400323602B689B8813F4805FAA
:104B0C001DD02F6305F12000FDF70EFC03B0F0BDA6
:104B1C002046FFF7FAFDA36813F0800F0AD0236834
:104B2C0013F0400F06D0236803F44443B3F5004F51
:104B3C00F1D1EDE700213046FFF76FFFD1E72046BA
:104B4C00FFF7E3FDDDE72DE9F04104464568076911
:104B5C002E682B7E13F0010F03D0336813F0400F37
:104B6C0031D03046FFF7AAFE8046A0B93846FFF791
:104B7C009BFEA8B9356815F4444503D13846FFF7B8
:104B8C0093FEE0B1B5F5404F16D0B5F5004F1AD1F4
:104B9C003B6DC3B913E001462046FFF783FF12E0DB
:104BAC0039462846FFF7EBFE80460028E2D0014646
:104BBC002046FFF777FF06E0BB6C002BE5D14146A2
:104BCC002046FFF76FFFBDE8F08138B50446049D21
:104BDC00AB8813F4005F08D083694BB94368AB42D0
:104BEC0001D0002302E0012300E0002313B138BD03
:104BFC000023FBE704F110004FF0FF324FF0FF33BE
:104C0C00FDF7D6FB6560F2E738B504460021FFF7E7
:104C1C0062FD054600212046FFF76AFDA84238BF19
:104C2C0028464FF4FA5303FB00F1204650F8203B82
:104C3C001B68B1FBF3F1C8318B0F8A00521843F19A
:104C4C00000392185B41FDF7B3FB08B9206B38BD2C
:104C5C006FF07300FBE72DE9F04F83B007460E466B
:104C6C009A4605699346EAB100960E9B0D9A9DF8FB
:104C7C0030102846FFF7A9FFD7F80480D8F8009029
:104C8C00BBF1000218BF012231463846FCF7E0FDAB
:104C9C00044658B121462846FFF7F7FE204603B0DC
:104CAC00BDE8F08F002BDFD10024F7E7B088FFF7C9
:104CBC005FFD0346524659462846FFF7DCFCD9F8FF
:104CCC00006006F44446BAFA8AF149093846FFF7FF
:104CDC00AAFE08E0002CDDD12846FFF7E5FD0028F0
:104CEC00D8D0002ED6D02846FFF78EFF04460028D9
:104CFC00D0D1B6F5404FEDD129464046FFF751FED5
:104D0C000446D9F8006006F44446E3E710B584B0D5
:104D1C000024029401940094FFF79DFF04B010BD91
:104D2C0038B50546846800E00834AB68EA6803EBE4
:104D3C00C2039C420BD2206800F06EF848B14FF4CD
:104D4C00B0112046FFF746FC0028EDDA00E0002009
:104D5C0038BD6FF01200FBE700B583B001AAFFF776
:104D6C00CAF8002805DB019B002219791868FFF7A7
:104D7C00DBF803B05DF804FB38B50C464568FFF76B
:104D8C0029FE08B1002038BD21466868FFF7E4FF12
:104D9C00012CF8D110F1020FF5D10020F3E708B582
:104DAC00002205212320FEF734FD2320FEF72CFDE5
:104DBC0008BD08B5002205213320FEF72AFD33205B
:104DCC00FEF722FD08BD00B9704738B50446FCF764
:104DDC00AFFF054604EB84042401FCF7A9FF401B3C
:104DEC00A042FAD338BD10B50446436993B1984735
:104DFC00024630B100280BDBFF2A00DDFF22E368FE
:104E0C001A70E1684B7843F001034B70504210BDAF
:104E1C004242F1E70022F4E760B1C3685A7812F01D
:104E2C00010F03D01B781BB1002070470020704786
:104E3C000120704700207047EFF31183102383F398
:104E4C001288BFF36F8FFEE708B5FFF7F5FF08B5C3
:104E5C00EFF31183102383F31288BFF36F8FFEF7E8
:104E6C00EEFCF5E700BF7047884200DA014611F10D
:104E7C00800F01DB084670476FF07F00704708B564
:104E8C00806890F90E308B4201D1002008BDFDF7EF
:104E9C00D9FCFBE710B5073222F007028C1821462B
:104EAC00FBF75AFB073020F00700201A10BD10B496
:104EBC0000248460838102748173C4738461C4612F
:104ECC0010BC7047F0B587B00446129E139D0027A6
:104EDC000597109F04970F9F03970E9F02970D9FA6
:104EEC0001970C9F0097FDF799FAB5F1FF3F08BFAA
:104EFC00B6F1FF3F02D1204607B0F0BD32462B463B
:104F0C002046FDF77DFAF6E70020704738B50446D9
:104F1C000D46FDF765FB237C43F00203237435B388
:104F2C00A5602B689D420DD100230BE05A6862608E
:104F3C00236014605C601AE01A4669688A420FD0DC
:104F4C001B687BB173B194F90E1093F90E2091424A
:104F5C00F2D0521A002AE9DC1A46002BEDD1F0E708
:104F6C000023EEE76B68256063601C606C6038BDE5
:104F7C0008B5183000F0BDF808BD70B506460468D9
:104F8C0084421AD0DCB16268236813605A60002531
:104F9C0025606560237C23F002032374A56004F173
:104FAC00180000F0A6F8C4F8A0502046FDF7BEFA91
:104FBC003468A642E6D12C46E4E70024E2E770BD53
:104FCC0070B5044616461D46FFF7A0FF32462B4629
:104FDC002046FDF7C5FB70BD38B504460023EFF342
:104FEC001185102282F31288BFF36F8F04E085F3D2
:104FFC001188BFF36F8F012343B92046FFF784FF5D
:10500C000028F4D12046FDF791FAF0E738BD08B539
:10501C00037C13F0280F13D183685BB142680368DB
:10502C0013605A60002303604360027C22F002028A
:10503C0002748360037C23F004030374FDF776FA97
:10504C0008BD38B5A0F118050023EFF31184102228
:10505C0082F31288BFF36F8F07E02846FFF7D7FF64
:10506C0084F31188BFF36F8F0123002BF5D038BD6B
:10507C0008B5EFF31180102383F31288BFF36F8F01
:10508C00FDF79CFC08BD031D43608360704710B5A1
:10509C000446FDF75FFF48B1024603694169206988
:1050AC001B18606941EB0001136151616268236850
:1050BC0013605A6000232360636010BD10B5044672
:1050CC00FDF73EFF78B1036942691B1B62EBE4728A
:1050DC00B3F1004F72F1000108DA002A01DB184627
:1050EC0010BD0023FBE76FF00040F9E76FF00040C4
:1050FC00F6E7F8B504460023EFF31187102282F38C
:10510C001288BFF36F8F6FF015000CE0FDF72EFFC8
:10511C00FFF7D4FF0021FCF759FD304687F31188C7
:10512C00BFF36F8F01231E468BB92368002BF5D07C
:10513C00FDF706FF05462046FFF7A9FF00224FF0BA
:10514C000043C4E90423A542E0D03046E6E7F8BDAD
:10515C0008B5FEF713F808BD08B5FEF70FF808BD43
:10516C000A44914200F1FF3300D1704710B511F899
:10517C00014B03F8014F9142F9D110BD0244034693
:10518C00934200D1704703F8011BF9E710B50139C0
:10519C00044632B111F8013F00F8013B013A002BF3
:1051AC00F7D10021FFF7EAFF204610BD10B50246EB
:1051BC0001448A42134603D01C780132002CF8D1EA
:1051CC00181A10BDF0B5C3F137070446FFB203F04F
:1051DC001F031046082BE6B233D0102B3ED06508C7
:1051EC00A40844EA817445EAC1752D194FEA91026D
:1051FC0042EB5102290941EA02716D1842EB12127D
:10520C00290A41EA02616D1842EB1222290C41EA8B
:10521C0002416D1842EB1242AD1842F10002EC084B
:10522C0044EA4274D10804EB8402A6EB4205EDB2C9
:10523C00092D0CD90134A5F10A0541F10001EDB29B
:10524C0012E0E40844EA417406F00705C908303559
:10525C0054EA010200F8015BBCD1F0BD240944EA18
:10526C00017406F00F050909092D84BFED19EDB283
:04527C00EDE700005A
:105280000000000020530008350400080000000062
:10529000000000003C5300080000000038540008E3
:1052A000000000001C5400080000000054540008D6
:1052B00000000000585300080000000000540008DF
:1052C00000000000C853000800000000AC530008B4
:1052D0000000000090530008000000007453000814
:1052E00000000000E45300087738000800000000C8
:1052F00000000000705400082113000800000000A6
:105300003D1B000800000000FD0C0008000000002C
:1053100000000000A8540008000000008C540008A1
:10532000745D000800000000F85700080A01002022
:1053300000000000D511000800000000305F0008E8
:10534000445F0008E05700081E0100200000000034
:105350000000000000000000385D000800000000B0
:105360000000000008010020000000006F38000865
:1053700000000000845D0008145E0008BC570008AF
:105380000C01002004060020791300080000000032
:10539000945D0008285E0008BC5700080E0100203C
:1053A000140600207913000800000000A45D000826
:1053B0003C5E0008BC5700081001002024060020B5
:1053C0007913000800000000B45D0008505E00087A
:1053D000BC57000812010020340600207913000891
:1053E00000000000C45D0008645E0008BC570008AF
:1053F000140100204406002079130008000000007A
:10540000D45D0008785E0008BC5700081601002033
:10541000540600207913000800000000E45D000835
:105420008C5E0008BC5700081801002064060020AC
:105430007913000800000000F45D0008A05E000879
:10544000BC5700081A0100207406002079130008D8
:1054500000000000045E0008B45E0008BC570008AD
:105460001C010020840600207913000800000000C1
:10547000485F0008585F0008145800082001002009
:10548000240000204F45000800000000CC5F000809
:10549000FC5F0008F05700082201002038000020BF
:1054A000511A000800000000DC5F0008506000088E
:1054B000F05700082401002098000020511A00082D
:0454C00000000000E8
:1054C400000000002B380008000000002B38000802
:1054D400000000002B380008000000002B380008F2
:1054E400000000002B380008000000002B380008E2
:1054F400705D0008DD0D00086C5D0008DD0D00081E
:10550400685D0008DD0D0008645D0008DD0D00081D
:10551400605D0008DD0D0008000000002B38000865
:10552400000000002B380008000000002B380008A1
:10553400000000002B380008000000002B38000891
:10554400000000002B380008000000002B38000881
:10555400000000002B380008000000002B38000871
:10556400000000002B380008000000002B38000861
:10557400000000002B3800085C5D0008DD0D000809
:10558400000000002B380008000000002B38000841
:10559400000000002B380008000000002B38000831
:1055A400000000002B380008000000002B38000821
:1055B400000000002B380008000000002B38000811
:1055C400000000002B380008000000002B38000801
:1055D400000000002B380008A8540008534B0008B2
:1055E400000000002B38000870540008094500082A
:1055F400000000002B380008000000002B380008D1
:10560400585D0008DD0D0008000000002B3800087C
:10561400000000002B380008000000002B380008B0
:10562400000000002B380008000000002B380008A0
:10563400000000002B380008000000002B38000890
:10564400000000002B380008000000002B38000880
:10565400000000002B3800088C540008534B00084D
:10566400000000002B380008000000002B38000860
:10567400000000002B380008000000002B38000850
:10568400000000002B380008000000002B38000840
:10569400000000002B380008000000002B38000830
:1056A400000000002B380008000000002B38000820
:1056B400000000002B380008000000002B38000810
:1056C400000000002B380008000000002B38000800
:1056D400000000002B380008000000002B380008F0
:1056E400000000002B380008000000002B380008E0
:1056F400000000002B380008000000002B380008D0
:10570400000000002B380008000000002B380008BF
:10571400000000002B380008000000002B380008AF
:10572400000000002B380008000000002B3800089F
:10573400000000002B380008000000002B3800088F
:10574400000000002B380008000000002B3800087F
:10575400000000002B380008000000002B3800086F
:10576400000000002B380008000000002B3800085F
:10577400000000002B380008000000002B3800084F
:10578400000000002B380008000000002B3800083F
:10579400000000002B380008000000002B3800082F
:1057A400000000002B380008000000002B3800081F
:0857B400000000002B38000882
:1057BC00073E0008F53B0008013C0008133C0008BC
:1057CC001D3C0008273C000895130008353C0008D8
:0457DC0000000000C9
:1057E000933F0008B33F0008D13F0008F13F000895
:0857F000194D0008834A00086E
:1057F80061390008A5390008000000004D100008B4
:0C5808003B3A000800000000F3390008E3
:10581400E5150008F515000823430008691400087D
:105824001D420008051600083D1600083144000812
:10583400474400085D4400088D440008A344000860
:105844007D440008B944000875160008D516000800
:0C585400C9440008FD440008014500089C
:10586000040000000F00000001000000080000001C
:105870002000000060000000700000001000000028
:105880000C0000000E00000050000000740000003A
:105890009C000000FFFFFFFFFFFFFFFFFFFFFFFF78
:0458A000FFFFFFFF08
:1058A40060000000010000005468726561642025F6
:1058B40064202D3E20636F756E74203D2025640A9C
:1058C40000000000636F756E74203D2025642C7306
:1058D400746F702033207365636F6E64730A000005
:1058E4005374617274203320746872656164732028
:1058F40077697468206D757465782E2E2E0A000001
:1059040072302F61313A20203078253038782020C9
:1059140072312F61323A20203078253038782020B7
:1059240072322F61333A20203078253038780A00DB
:1059340072332F61343A2020307825303878207241
:1059440031322F69703A202030782530387820722F
:1059540031342F6C723A20203078253038780A00A0
:1059640020787073723A20203078253038780A0015
:105974004661756C74696E6720696E7374727563C1
:1059840074696F6E20616464726573732028723168
:10599400352F7063293A203078253038780A000092
:1059A400556E68616E646C6564204952516E3A208C
:1059B40025640A00535053454C20696E2074687264
:1059C400656164206D6F646520646F6573206E6F1C
:1059D4007420696E646963617465205053500A00D1
:1059E4002A2A2A2A2A204D5055204641554C542013
:1059F4002A2A2A2A2A0A00002020537461636B6928
:105A04006E67206572726F722028636F6E7465789A
:105A1400742061726561206D696768742062652015
:105A24006E6F742076616C6964290A002020556EBB
:105A3400737461636B696E67206572726F720A00BA
:105A44002020446174612041636365737320566947
:105A54006F6C6174696F6E0A0000000020204D4D68
:105A640046415220416464726573733A203078254C
:105A7400780A00002020496E737472756374696F2C
:105A84006E204163636573732056696F6C6174693A
:105A94006F6E0A002020466C6F6174696E672D700A
:105AA4006F696E74206C617A7920737461746520F7
:105AB400707265736572766174696F6E2065727257
