:020000040800F2
:10000000B01A0020490A0008F9330008350A000830
:10001000350A0008350A0008350A0008000000000B
:10002000000000000000000000000000150B0008A8
:10003000350A000800000000BD0A0008C1180008C9
:10004000910C0008910C0008910C0008910C00081C
:10005000910C0008910C0008910C0008910C00080C
:10006000910C0008910C0008910C0008910C0008FC
:10007000910C0008910C0008910C0008910C0008EC
:10008000910C0008910C0008910C0008910C0008DC
:10009000910C0008910C0008910C0008910C0008CC
:1000A000910C0008910C0008910C0008910C0008BC
:1000B000910C0008910C0008910C0008910C0008AC
:1000C000910C0008910C0008910C0008910C00089C
:1000D000910C0008910C0008910C0008910C00088C
:1000E000910C0008910C0008910C0008910C00087C
:1000F000910C0008910C0008910C0008910C00086C
:10010000910C0008910C0008910C0008910C00085B
:10011000910C0008910C0008910C0008910C00084B
:10012000910C0008910C0008910C0008910C00083B
:10013000910C0008910C0008910C0008910C00082B
:10014000910C0008910C0008910C0008910C00081B
:10015000910C0008910C0008910C0008910C00080B
:10016000910C0008910C0008910C0008910C0008FB
:10017000910C0008910C0008910C0008910C0008EB
:10018000910C0008910C0008910C0008910C0008DB
:10019000910C0008910C0008910C0008910C0008CB
:1001A000910C0008910C0008910C0008910C0008BB
:0C01B000910C0008910C0008910C000854
:1001BC0000B583B009E0002200230DF107010748C8
:1001CC0004F0CBF80A2003F06DF80DF10701044B95
:1001DC00186803F00EF80028EDD0F3E76800002053
:1001EC000000002010B582B031E0294C012205211D
:1001FC00204603F04AF842F21070002102F07EFA19
:10020C0000220521204603F040F820E0214C012279
:10021C000E21204603F039F842F21070002102F052
:10022C006DFA00220E21204603F02FF80FE01A4C35
:10023C0000220321204603F028F842F2107000211E
:10024C0002F05CFA01220321204603F01EF84FF065
:10025C00FF324FF0FF330DF10701104801F0A6FEFD
:10026C000028F4D19DF807100D29F0D00A29EED002
:10027C000B4803F09EF89DF80730312BB5D0322B8C
:10028C00C4D0332BD3D0074803F093F8DFE700BF7B
:10029C00EC480008D04800087C48000868000020A2
:1002AC009C4D0008B44D000808B5284B186804F0A4
:1002BC0027F868B3264804F023F870B3254804F0F7
:1002CC001FF870B3244804F01BF870B34FF4B0114E
:1002DC00224802F0BFFF00282BDB4FF4B01120485E
:1002EC0002F0B8FF002828DB4FF4B0111D4802F0D3
:1002FC00B1FF002825DB1C4803F05BF81B4803F01A
:10030C0058F81B4803F055F81A4803F052F802E06D
:10031C00194803F04EF8002008BD184803F049F8BE
:10032C00F9E7174803F045F8F5E7164803F041F8EC
:10033C00F1E7154803F03DF8EDE7144803F039F800
:10034C00E9E7134803F035F8E5E700BF00000020AB
:10035C00EC480008D04800087C480008284F0008EA
:10036C00204F0008184F0008844E0008A04E0008CB
:10037C00C04E0008E04E0008D04D0008E84D0008C3
:10038C00004E0008184E0008304E00084C4E000875
:10039C00684E000808B5024B1B68984708BD00BFA3
:1003AC0004000020014B1860704700BF04000020BF
:1003BC0000B585B00A460023009301930293039382
:1003CC0002238DF80230044B01930146684602F07B
:1003DC00B3FC05B05DF804FBA103000880B505462D
:1003EC000E461746984602F0E9F9034600F05AFC0F
:1003FC000446DFF8189049F800304246394630463A
:10040C00A84754F8090000F039FB00BF08000000B1
:10041C00034A536823F0020353600020704700BF67
:10042C00002004E0084B1A6842F400721A601A6843
:10043C0042F480621A601A6842F480721A60034BAC
:10044C00034A1A60704700BF002002403C000020A5
:10045C0000093D0008B50348034A121A002102F0B6
:10046C00B7FF08BD900000206C05002008B50648B9
:10047C00064A121A064902F0AFFF0648064A121A3B
:10048C00064902F0A9FF08BD0000002090000020E2
:10049C00B45600080000002000000020B4560008EC
:1004AC0010B50446836842680168094802F081FF70
:1004BC0063692269E168074802F07BFFE16906483D
:1004CC0002F077FFA169054802F073FF10BD00BF71
:1004DC00304F0008604F0008904F0008A04F0008F4
:1004EC0038B504460D4611B10846FFF7D9FF012C6B
:1004FC0004D02946204601F083FB38BDEFF305817B
:10050C001039024802F055FFF3E700BFD04F000846
:10051C0030BFFFF7FDBF00BF38B50446054D2A4676
:10052C00054904F06AF8054A0021601904F073F8D3
:10053C0038BD00BF00000000944D0008040000000E
:10054C0070B50646064D074B1D444C1B2046FFF765
:10055C00E3FF083CC6F8984005F1080070BD00BFE9
:10056C000000000004000000054B5A699B689A4289
:10057C0004D0044A536843F080535360704700BF63
:10058C003405002000ED00E081690D4B5A6942F4FE
:10059C0080725A61BFF34F8FBFF36F8F31F8021C1B
:1005AC005A6922F480725A61BFF34F8FBFF36F8F79
:1005BC004DF60273994201D000207047012070471C
:1005CC0000ED00E04FF0000C83F800C002F07F4C0F
:1005DC00BCF17F4F12D102F00C0CBCF1080F04D00F
:1005EC0012F0080F07D00846704708B5044802F00F
:1005FC00E0FE002008BD01221A70704700207047F1
:10060C00E44F0008F8B505460F461446324802F090
:10061C00D0FE324B9B6A13F0100F31D110262F4BAA
:10062C009B6A13F0080F30D12C4B9B6A13F0020F0E
:10063C0030D12A4B9B6A13F0010F43D1274B9B6A95
:10064C0013F0200F43D1254B9B6A13F0100F01D1EF
:10065C00224B9B6A214B9B6A13F0200F04D01F4A3C
:10066C00536A23F4005353621C4A936A43F0FF030A
:10067C0093620121284602F0BFFE20703046F8BD7F
:10068C00174802F096FE1126C9E7164802F091FEB3
:10069C001226C9E7144802F08CFE104B596B9B6A6A
:1006AC0013F0800F01D11326C3E7104802F081FE2E
:1006BC0037B10A4A936A23F0800393621326B8E792
:1006CC001326B6E70A4802F074FE1426B6E709486A
:1006DC0002F06FFE1526B6E71050000800ED00E0A2
:1006EC00285000085C500008705000088C5000081E
:1006FC00A4500008C4500008F8B505460F4614462F
:10070C002F4802F056FE2F4B9B6A13F4805F25D1C5
:10071C0016262C4B9B6A13F4006F24D1294B9B6A31
:10072C0013F4007F24D1274B9B6A13F4806F37D1CD
:10073C00244B9B6A13F4807F37D1224B9B6A13F4B2
:10074C00005F37D11F4A936A43F47F4393620121C0
:10075C00284602F051FE20703046F8BD1A4802F0CF
:10076C0028FE1726D5E7194802F023FE1826D5E7F0
:10077C00174802F01EFE134B996B9B6A13F4004F43
:10078C0001D11926CFE7134802F013FE37B10D4AF9
:10079C00936A23F4004393621926C4E71926C2E72F
:1007AC000D4802F006FE1A26C2E70C4802F001FEC4
:1007BC001B26C7E70A4802F0FCFD1C26C2E700BF57
:1007CC00F450000800ED00E00C5100085C500008EB
:1007DC00205100083C510008545100087051000889
:1007EC00C450000808B5244802F0E3FD234B9B6A73
:1007FC0013F0007F21D11D20204B9B6A13F0807FCA
:10080C0020D11E4B9B6A13F4002F20D11B4B9B6AEB
:10081C0013F4802F20D1194B9B6A13F4003F20D185
:10082C00164B9B6A13F4803F20D1144A936A6FEAEB
:10083C0003436FEA1343936208BD114802F0B9FDFC
:10084C001E20D9E70F4802F0B4FD1F20D9E70E484F
:10085C0002F0AFFD2120D9E70C4802F0AAFD2220BE
:10086C00D9E70B4802F0A5FD2320D9E7094802F08F
:10087C00A0FD2420D9E700BF8C51000800ED00E05A
:10088C00A8510008BC510008D8510008F8510008C4
:10089C00205200083C52000870B506460D4626480A
:1008AC0002F087FD00232B70244BDC6A14F0020449
:1008BC000AD1224BDB6A002B0BDB204BDC6A14F0D9
:1008CC0080440AD1204670BD1D4802F072FD002400
:1008DC00F8E71C4802F06DFDF4E71B4802F069FDD7
:1008EC003046FFF751FE98B9144B9B6A13F0FF0F7B
:1008FC0014D1124B9C6A14F47F4416D10F4B9B6A93
:10090C00B3F5803FDED33046FFF76CFF0446D9E7E2
:10091C0031680E4802F04DFD3468D3E72A460121B8
:10092C003046FFF76FFE0446CCE72A4601213046DD
:10093C00FFF7E2FE0446C5E76852000800ED00E050
:10094C0080520008A4520008B4520008D452000887
:10095C0008B500230B70024802F02BFD08BD00BF48
:10096C00F452000808B50A460F2905DC0349103A71
:10097C00034802F01EFD08BD0249F8E71C530008AD
:10098C00505300083453000830B58BB01F4B5D68D2
:10099C00C5F30805002383F31188BFF36F8F0DF1A6
:1009AC002603FFF70FFE04460DF12702294602F03D
:1009BC0025FD9DF827300BB10BB030BD05460DF170
:1009CC00040C20686168A268E368ACE80F00206939
:1009DC006169A269E369ACE80F009DF826304BB160
:1009EC00089BC3F308025AB96FEA53236FEA4323F7
:1009FC00089305E0089B23F4FF7323F0010308938D
:100A0C0001A92846FFF76CFDD6E700BF00ED00E01A
:100A1C00044B5A6942F010025A615A6922F00802DA
:100A2C005A61704700ED00E0EFF30880EFF30981A5
:100A3C0001B57246FFF7A8FF01BD00BF0C4880F35B
:100A4C00088800200B490870102080F311880A4890
:100A5C004FF40061401880F30988EFF314800221F1
:100A6C00084380F31488BFF36F8F00F08FF80000F9
:100A7C00B01A002068050020700D002008B50A4B44
:100A8C009B68834202D001F09FFE08BDEFF3058303
:100A9C00002BF8D0054B5A6842F080525A605A6AC3
:100AAC0022F400425A62EEE73405002000ED00E02B
:100ABC0012498A684FF030001044EFF3098C80E83B
:100ACC00F01F102080F31288BFF36F8F0C4F4FF084
:100ADC0000664A698A603E60D2F89800094C206032
:100AEC00D2F89C000023C2F89C3080F3118802F1EC
:100AFC00300090E8F01F8CF3098870473405002013
:100B0C0004ED00E0080400201EF0040F0CBFEFF30E
:100B1C000880EFF30980816911F8021C0229FFD0CB
:100B2C0001B5724602F05CFC01BD00BF002807DB7A
:100B3C0000F01F02400901239340024A42F8203082
:100B4C00704700BF00E100E0002808DB0901C9B2D2
:100B5C0000F1604000F5614080F80013704700F030
:100B6C000F000901C9B2014B1954704714ED00E094
:100B7C00044B23F07F03044A9360BFF34F8FBFF302
:100B8C006F8F70470000000800ED00E008B5FFF71C
:100B9C00EFFF0B4AD2F8883023F47003C2F8883088
:100BAC00EFF3148323F0040383F31488BFF36F8FE4
:100BBC00FFF750FCFFF75AFC00F04AF801F03AF945
:100BCC0000ED00E010B4A2F120040E4942F8081C1C
:100BDC0021F0010142F8081C42F8203C019B42F82C
:100BEC001C3C029B42F8183C039B42F8143C4FF00F
:100BFC00807342F8043C04650023C0F89C3010BCA0
:100C0C00704700BFE903000800B50E4615460B4BB4
:100C1C009860D0F898200A4B1A602C4686F3098805
:100C2C000020044B98472046002100220023024C50
:100C3C00204700007B340008E9030008340500203D
:100C4C0008040020014B10221A61704700ED00E0EF
:100C5C00002206E003F00F030949194410230B7618
:100C6C0001325E2A0ADC53B2002BF3DB03F1604342
:100C7C0003F56143102183F80013F1E7704700BFBF
:100C8C00FCEC00E008B5EFF30583103B044A02EBE3
:100C9C00C301496852F833008847FFF765FC08BD6B
:100CAC004049000801480068704700000804002013
:100CBC0008B5024B1B689847002008BD0C040020A7
:100CCC00034B1860034A937843F002039370704708
:100CDC000C0400200800002008B5064921F007018B
:100CEC00C1F1005202F54032034802F01EFB002015
:100CFC0008BD00BFC11A00201004002000B583B04D
:100D0C00094B93E8030002AB03E90300074B9B6814
:100D1C001B682BB169460548984703B05DF804FB86
:100D2C006FF05700F9E700BF944D0008B847000872
:100D3C0000F01F02012393403F2811D81F2807D829
:100D4C00084A5269934301D0002070470120704734
:100D5C00044A526B934301D0002070470120704726
:100D6C00002070470004014000F01F020123934053
:100D7C003F2809D81F2803D8054A53610020704723
:100D8C00034A5363002070476FF01500704700BF93
:100D9C0000040140002399420ADD10B400EB030C5F
:100DAC00044C04F80C2001339942F7DC10BC70475A
:100DBC00704700BF18000020F8B50746002401E07A
:100DCC000134E4B27B78A34217D93D7866193046DA
:100DDC00FFF7AEFF0028F3D03046FFF7C5FF074BF7
:100DEC0053F83620002AEBD006F01F0503EBC603A0
:100DFC0059680120A8409047E2E7F8BD1C04002088
:100E0C0001F0030C0CF102020A4B53F822200B0CDC
:100E1C0022EA114193FAA3F34BB1B3FA83F398404E
:100E2C0001430CF1020C034A42F82C1070472023AA
:100E3C00F5E700BF0000014000F003030233074A4E
:100E4C0052F82320030C02EA104093FAA3F31BB1CF
:100E5C00B3FA83F3D84070472023FBE7000001402E
:100E6C0008B5034668B1B0FA80F2C2F11F02D2B2E3
:100E7C0005498856054A11680B43136002F0E3FAE2
:100E8C0008BDFF22F4E700BF180000200004014059
:100E9C00024A136823EA0003136070470004014000
:100EAC00032926D8DFE801F0020C151E114B9A68B5
:100EBC0022EA00029A60DA6822EA0002DA607047DD
:100ECC000C4B9A6802439A60DA6822EA0002DA60F4
:100EDC007047084BDA680243DA609A6822EA00022B
:100EEC009A607047034B9A6802439A60DA68104321
:100EFC00D86070470004014010B498B1B0FA80F388
:100F0C00C3F11F03DBB29C460D4850F833008842F6
:100F1C000AD088B90A4B43F83C1003EBCC035A6057
:100F2C0010BC7047FF23EEE7054C04EBC3035B6872
:100F3C009342EED10020F3E76FF00F00F0E700BF13
:100F4C001C04002060B1B0FA80F3C3F11F03DBB2C4
:100F5C00044A002142F8331002EBC302516070477F
:100F6C00FF23F5E71C040020104B1B6813F4806F63
:100F7C000ED10E4A136843F48073136001E0012B09
:100F8C0006D00A4B1B6813F48063F8D00123F6E7F4
:100F9C00064A936823F0030343F001039360034B69
:100FAC009B6803F00C03042BF9D17047001002402E
:100FBC001C4B1B6813F4806F0ED11A4A136843F450
:100FCC008073136001E0012B06D0164B1B6813F4E1
:100FDC008063F8D00123F6E7124AD2F8943043F03C
:100FEC000103C2F8943001E0012B07D00D4BD3F86C
:100FFC00943013F00203F7D00123F5E70949D1F837
:10100C00982042F00102C1F8982001E0012A07D093
:10101C00044AD2F8982012F00202F7D01A46F5E7EB
:10102C00704700BF0010024070B50C461546404B8F
:10103C001E680121304602F0A7FA2388C3F30B0384
:10104C00013B5F2B6ED8DFE803F044585B5F6662B0
:10105C0040696B6D464F6D6D6D6D6D6D6D6D6D6D2C
:10106C006D6D6D6D6D6D6D6D6D6D6D6D6D6D6D6DA4
:10107C006D6D6D6D6D6D6D6D6D6D6D6D6D6D6D6D94
:10108C006D6D6D6D6D6D6D6D6D6D6D6D6D6D6D6D84
:10109C006D306D6D6D306D6D6D3E6D6D6D6D6D6D1D
:1010AC006D406D6D6D406D6D6D422E602368B3F5B6
:1010BC00805F3AD32A68C3F313330133B2FBF3F2E4
:1010CC002A60002030E02E60F0E72860EEE7286010
:1010DC00ECE72E60EAE700F0B3F8022328220421A3
:1010EC0002F04BFA2860E1E700F0AAF8022328226C
:1010FC00042102F042FA2860D8E700232B60D5E7E0
:10110C004FF4FA432B60D1E70A4B2B60CEE702F089
:10111C003EFA2860CAE7084B2B60C7E72E60C5E78C
:10112C002E60C3E76FF0850070BD0020FCE700BFA8
:10113C003C0000200024F400006CDC0210B51B4BBA
:10114C009B6803F00C030C2B05D0184A136823F092
:10115C008073136008E0FFF707FF144A936823F0CD
:10116C00F0039360F1E733B1104B1B6813F000737D
:10117C00F9D00123F7E70D4CE36823F4C003E360D7
:10118C00E36843F48013E36000F05EF8236843F0F7
:10119C008073236001E0012B06D0044B1B6813F015
:1011AC000073F8D00123F6E710BD00BF0010024019
:1011BC0038B500F073F81E4C204602F074FA00F0BB
:1011CC005FFC1C4B9B68C3F303131B4AD35C20FAD4
:1011DC0003F513781C41A54222D3FFF7E9FEFFF774
:1011EC00ADFF144B9A6822F0F0029A609A6842F0B4
:1011FC0003029A600F4B9B6803F00C030C2BF9D184
:10120C00A54211D20D4B0A4A1A600A4B9A6822F475
:10121C00E0629A609A6822F460529A60002038BDAD
:10122C00204600F087FCD8E7204600F083FCE9E775
:10123C0000B4C40400100240305600083C000020EA
:10124C00004870470024F40008B5104AD2F88030EA
:10125C0023F48073C2F8803002F026FA0C4BD96864
:10126C000C4A0A4040F4205040F030000243DA604F
:10127C00DA6842F48012DA60D968074A0A400243FD
:10128C00DA60DA6842F08072DA6008BD0070004003
:10129C00001002400C809FFF0C80FFF982B0064BBF
:1012AC009A6D42F080529A659B6D03F080530193C6
:1012BC00019B02B0704700BF0010024010B50446FD
:1012CC000A2806D0E1B2064883685B689847204636
:1012DC0010BD034883685B680D219847F2E700BF97
:1012EC000849000810B5044C2046FFF7E9FC2046DD
:1012FC00FFF758F810BD00BFC912000808B5054823
:10130C0002F0FEFF18B1FFF7EDFF002008BD6FF0F3
:10131C001200FBE70849000808B5436841B103F126
:10132C000C010B4B9B681B685BB10948984708BDC7
:10133C0003F10C01064B9B685B682BB10448984782
:10134C00F5E76FF05700F2E76FF05700EFE700BFDB
:10135C00B847000808B5044A536843F40073536057
:10136C00024902F0C6F908BD007000407F38000841
:10137C002DE9F84380460F4616461C46D0F80490DB
:10138C00D9F8080002F0D9F8B6F5001F0FD00546C1
:10139C00B6F5800F2DD0B4F1806F26D0B4F1C06FAC
:1013AC0025D0B4F1007F09D06FF015041AE039464E
:1013BC00D9F8080002F08CFB002413E00226424608
:1013CC000F492846FFF798FD0446A8B9D9F808102C
:1013DC00384602F0B7F831462846FFF761FD28463B
:1013EC00FFF73EFD2046BDE8F8830126E7E703261C
:1013FC00E5E76FF08504F5E76FF00F04F2E700BF47
:10140C00A1370008B0F5D07F17D2F8B504460D46C9
:10141C00164603090A4A52F823705FB1384602F0A7
:10142C006FFF38B133462A4604F00F01384602F0FC
:10143C0067FBF8BD6FF01200FBE76FF0150070470B
:10144C001C5500082DE9F84306460C4643681D68F8
:10145C000369D3F800900B79012B17D0022B18D10C
:10146C004FF480616279012A18D0022A18D092B107
:10147C004FF4005794F80680B8F1020F13D0B8F16E
:10148C00040F16D0002B62D1002014E04FF4C06181
:10149C00E8E70021E6E74FF48057EBE70027E9E7A0
:1014AC004FF44057E6E70BB1002004E04FF08050BA
:1014BC0001E04FF48050A3F1030C5FFA8CFCBCF1FB
:1014CC00010F65D913B1B8F1040F64D0B7F5805F83
:1014DC0042D0B7F5405F41D0002F3BD003239A4256
:1014EC005CD102F06EFC80455BD1E379D3B1012B6A
:1014FC0036D0032B58D1314B9D4213D0A3F57443F6
:10150C009D420FD003F580639D420BD003F58063A1
:10151C009D4207D003F580639D4203D003F54053F1
:10152C009D4244D12B6823F001032B6021463046A9
:10153C0002F05CFC00283DDB2B6843F001032B60C0
:10154C0094E8030089E803000020BDE8F8834FF419
:10155C008050B0E70123C2E70023C0E70223BEE7B7
:10156C00164A9542DED0A2F574429542DAD002F5C5
:10157C0080629542D6D002F580629542D2D002F5B7
:10158C0080629542CED002F540529542B1D1C9E766
:10159C006FF08500D9E76FF08500D6E76FF0850016
:1015AC00D3E76FF08500D0E76FF08500CDE76FF0E3
:1015BC008500CAE76FF08500C7E700BF003801401F
:1015CC0008B5024A02F016FD08BD00BF61400008D4
:1015DC0008B5024A02F021FD08BD00BF67400008B3
:1015EC0070B504460D46164643681B6818681968A2
:1015FC0001F4C06100F0102002F0E3FB042806D0D7
:10160C00044B32462946204602F064FD70BD6FF053
:10161C008500FBE73341000870B504460D461646BD
:10162C0043681B681868196801F4C06100F0102049
:10163C0002F0C7FB042806D0044B3246294620464C
:10164C0002F074FD70BD6FF08500FBE7754100087A
:10165C0043681A6802F1080353E8003F43F00103A2
:10166C0002F1080040E800310029F3D10F4B9A42F7
:10167C000FD0A3F574439A420BD003F580639A42C2
:10168C0007D003F580639A4203D003F580639A4236
:10169C0003D1536843F04003536052E8003F43F4D6
:1016AC00807342E800310029F7D1704700380140BF
:1016BC0043681A6802F1080353E8003F23F0010362
:1016CC0002F1080040E800310029F3D10F4B9A4297
:1016DC000FD0A3F574439A420BD003F580639A4262
:1016EC0007D003F580639A4203D003F580639A42D6
:1016FC0003D1536823F04003536052E8003F23F4B6
:10170C00807342E800310029F7D17047003801405E
:10171C00F8B5064645682C6803691F68236823F0F2
:10172C0001032360A86802F0EBFD002878D0E9687B
:10173C00A86802F007FB54E8003F43F00C0344E8B0
:10174C000032002AF7D13946304602F04FFB002810
:10175C0069DB2B7E1BB1A36843F00803A3606B7E8F
:10176C001BB1636843F400436360AB7E1BB16368D9
:10177C0043F480336360EB7E1BB1636843F4003346
:10178C0063602B7F83B32B4B9C4213D0A3F5744324
:10179C009C420FD003F580639C420BD003F5806311
:1017AC009C4207D003F580639C4203D003F5405361
:1017BC009C423BD173681A68936843F480439360EE
:1017CC006A7F236823F0787343EA42532360AA7F2D
:1017DC00236823F4F81343EA02432360EB7F1BB125
:1017EC00A36843F40043A36095F820301BB1236831
:1017FC0043F000532360236843F00103236000E0AF
:10180C0033B9E36913F40013FAD00123F8E72AB9CA
:10181C00E26912F48002FAD01A46F8E70020F8BD0B
:10182C006FF01200FBE76FF01500F8E76FF0150092
:10183C00F5E700BF003801404FF0E02399691869C3
:10184C009A6909B90C4B19680AB90B4B1A6810F450
:10185C00803F01D1914208D208490B6806480068C4
:10186C0003440B604FF0E0231B69034B1B689B1A6E
:10187C00024A106818447047300500202C050020DF
:10188C00094B102283F82320084B4FF4FA521A60AC
:10189C000020074B18604FF0E02341F63F725A616D
:1018AC00986107221A61704700ED00E030050020B6
:1018BC002C050020684620F007018D4619B5FFF76E
:1018CC00BBFF12480368124A516814681B1941F196
:1018DC00000113605160002202600E490A68981AD8
:1018EC000D4BA3FB0030400A4FF4FA5300FB03F3FB
:1018FC00D2184B6843F100030A604B6001F080F989
:10190C00FEF732FEBDE81940854670472C050020D5
:10191C00E8010020E0010020D34D6210F8B5002949
:10192C004DD0B0F1FF3F3FD03F4B1C6801284EDD3E
:10193C0040F631039842A8BF1846461EEFF31185B6
:10194C00102383F31288BFF36F8FFFF775FF4FF0EF
:10195C00E0239F69354A13685168C31841F10001AF
:10196C00136051600021324A1160324A11685A1AD0
:10197C002FD44FF4FA5000FB062202F5F9521F3215
:10198C002D4EA6FB0262520AC91A00FB02110A462E
:10199C00B1F5806F38BF4FF48062284B994236D92D
:1019AC00214B264A1A6018E04FF0E022136923F00D
:1019BC00010313611C4B4FF07F421A6026E01A4B57
:1019CC001C68B0F1FF3FB1D14FF40360B0E70026C3
:1019DC00B4E7154B4FF480621A604FF0E02399691D
:1019EC00114A1268013A5A6100229A618F4211D24F
:1019FC00641A3C440D4A136851681B1941F10001EB
:101A0C001360516085F31188BFF36F8FF8BD064BDF
:101A1C001A60E2E77F1A054A13685168DB1941F135
:101A2C00000113605160EDE730050020E801002053
:101A3C002C050020E0010020D34D621000DCFF00DB
:101A4C0038B5EFF31185102383F31288BFF36F8F32
:101A5C00084B1C68084B1B68E41AFFF7EDFE20448A
:101A6C0085F31188BFF36F8F044BA3FB0030400A42
:101A7C0038BD00BFE8010020E0010020D34D62100A
:101A8C00284A9368D26802F0030213F00C030AD0C0
:101A9C000C2B06D0042B1FD0082B20D00020024684
:101AAC0010E0012AF6D11F4A126812F0080F0CD16F
:101ABC001C4AD2F89420C2F303221B4951F822206D
:101ACC0043B100200C2B0DD07047164A1268C2F39C
:101ADC000312F2E71046F5E714480022F2E7144827
:101AEC000022EFE70F4BDB6803F00303022B16D049
:101AFC00032B00D10E4A0B49CB68C3F303130133FC
:101B0C00C868C0F3062002FB00F0B0FBF3F0CB6812
:101B1C00C3F3416301335B00B0FBF3F0D4E7034A3A
:101B2C00E9E700BF00100240005600080024F40052
:101B3C0000127A00421E274B9A4249D8264B1B684A
:101B4C0003F4C063B3F5007F0BD0244B984229D823
:101B5C00234B984235D8234B984235D80021084660
:101B6C0022E0214B98420ED8204B98420ED8204BA5
:101B7C0098420ED81F4B98420ED81F4B98420ED845
:101B8C000021084610E0052100200DE00421002072
:101B9C000AE00321002007E00221002004E00121DB
:101BAC00002001E000210120144A136823F00F03E8
:101BBC000B431360136803F00F03994207D0012005
:101BCC00704702210020EFE701210020ECE770476D
:101BDC0001207047FF0D27070070004080BA8C0170
:101BEC000024F40000127A0000E1F50500B4C404EE
:101BFC0000879303005A6202002D3101002002403D
:101C0C0038B5EFF31185102383F31288BFF36F8F70
:101C1C00054B9C6802F08CFB85F31188BFF36F8F2A
:101C2C002046FEF72BFF38BD3405002010B586B0DA
:101C3C00A823104C03FB004400EB800C0E4B03EB71
:101C4C008C030E4A0592012204920F220392002269
:101C5C000292019200930A4B4FF4A072094901EBD6
:101C6C008C11204600F024FA237C23F00403237407
:101C7C0006B010BDF00100203405002040560008CD
:101C8C00434300087015002038B505460B4B53F83C
:101C9C00204002E02368984708346B1C074A52F82E
:101CAC002330A34209D960680028F3D0037E13F0D7
:101CBC00010FF1D102F00BFBEEE738BD50560008D6
:101CCC0008B553EA020102D100F054FD08BD0249E7
:101CDC00183000F0FBFEF9E7E144000810B586B0BF
:101CEC00184C14E0636A0593236A0493E369039325
:101CFC00A36902936369019323690093E368A26863
:101D0C006168206800F0D4F923685C6530340E4BB0
:101D1C009C42E7D300F00CFC0A4C00E030340A4B38
:101D2C009C420BD2A26AE36AB3F1FF3F08BFB2F147
:101D3C00FF3FF3D02068FFF7C3FFEFE700F010FC84
:101D4C0006B010BD384C0008984C000808B50A4B7A
:101D5C0001221A700320FFF797FF00F0D3FF042035
:101D6C00FFF792FFFFF7BAFFFEF79EFA034A93893B
:101D7C0023F00103938108BD680500209802002020
:101D8C0008B50146014A0248FEF73EFF591D0008FE
:101D9C009802002010B50446FFF748FFA8230A4913
:101DAC0003FB0411094A04EB840302EB8303D9609F
:101DBC001C74074B03EBC42303F5006304EB84048E
:101DCC0002EB8402536010BDF001002034050020AA
:101DDC00700D002070B586B000F0FAFB104D114B61
:101DEC005D61114B05930123049300240394029429
:101DFC00019400940D4B4FF480620D49284600F07D
:101E0C0057F906462B7C23F004032B74284602F06A
:101E1C002CFB2046FFF7BEFF304606B070BD00BF5E
:101E2C00980200203405002048560008591D00086F
:101E3C00B016002008B50020FFF726FF164B83F3E1
:101E4C000888164C636943F400736361F02384F8CB
:101E5C0022300023E37723766376A37684F8203050
:101E6C00636A43F4E0236362FEF7D2FDFEF7EAFEF9
:101E7C004FF0FF33A362E362094800F07BF9FEF7F1
:101E8C00D1FA0120FFF700FF0220FFF7FDFEFFF75C
:101E9C00A1FFFFF775FF00BF7015002000ED00E0FB
:101EAC00400300202DE9F04F83B004460D469DF809
:101EBC00309000F1080AEFF31187102181F312889A
:101ECC00BFF36F8FB846006AE168884259D2266822
:101EDC00B44221D0B6F1000B18BF4FF0010BEEB994
:101EEC00BBF1000F2AD1B9F1000F38D1A2692369D7
:101EFC009A4243D0A069A268801AA061294602F0D8
:101F0C007CFB236A0133236288F31188BFF36F8F44
:101F1C00584603B0BDE8F08F0026DBE772683368E3
:101F2C0013605A60002333607360327C22F002022B
:101F3C003274B360304602F00BFAD1E7A26829463E
:101F4C00706902F05AFB0024C6F8A040304602F03B
:101F5C008CFA3946504600F0BFFAA346D8E7A2687F
:101F6C002946E06902F049FBE369A2681344E36186
:101F7C0062699342C5D12369E361C2E76369A361D6
:101F8C00B8E753EA020102D16FF0220BBCE7064915
:101F9C0089684D610092019322463946504600F003
:101FAC007FFA8346B4E700BF340500202DE9F041E9
:101FBC0082B00446084604F10807EFF31186102599
:101FCC0085F31288BFF36F8F256A65B953EA020156
:101FDC0060D16FF0220586F31188BFF36F8F28460E
:101FEC0002B0BDE8F081A268A16902F006FBA3690A
:101FFC00A2681344A361626993422AD0236A013B0D
:10200C002362D4F80080444526D0B8F1000518BFEF
:10201C000125B8F1000F22D1002DDCD0A268D8F830
:10202C001410E06902F0E9FAE369A2681344E36171
:10203C00626993422BD0236A013323620025C8F8CE
:10204C00A050404602F011FA3146384600F044FAEE
:10205C00C5E72369A361D1E74FF00008D5E7D8F8AD
:10206C000420D8F8003013605A600023C8F8003000
:10207C00C8F8043098F8102022F0020288F81020DA
:10208C00C8F8083008F1180002F07CFAC4E723699C
:10209C00E361D0E7054989684861009201932246C3
:1020AC003146384600F0FCF9054698E73405002027
:1020BC002DE9F04F85B004460F4615461E46DDF857
:1020CC0038A0DDF83C90DDF84080DDF84CB000F134
:1020DC0058038365C365129B0422119902F052F9CF
:1020EC002A463946204602F040F90546CDF80880CC
:1020FC00CDF80490CDF800A0334602463946204670
:10210C00FEF760FD002363652666C4F864A0C4F87E
:10211C006890C4F86C80EFF31182102383F312885B
:10212C00BFF36F8F124B196A21671C6282F31188FF
:10213C00BFF36F8FBBF1000F13D01F22594604F170
:10214C00740002F070FA002384F89330084B9B68FB
:10215C005BB1D3F89430C4F89430284605B0BDE890
:10216C00F08F002384F87430F0E7C4F89430F4E76F
:10217C00340500200123037483810023C0F89430BC
:10218C00014B9860704700BF340500200A4A9368E1
:10219C00C3F89C006FF00A01C3F8A01007494B6804
:1021AC0043F080534B60002383F31188BFF36F8F90
:1021BC009368D3F8A00070473405002000ED00E0D0
:1021CC00037C90F91020002A51DB13F01F0F4ED125
:1021DC0010B563F07F030374254A52F8183F9342FD
:1021EC000ED100230CE05A68426003601060586006
:1021FC001EE01A461E49C9698A420FD01B687BB182
:10220C0073B190F90E1093F90E209142F1D0521A3D
:10221C00002AE8DC1A46002BECD1F0E70023EEE7AD
:10222C00134BDA6903F11801016042601060D86148
:10223C000F4B53F8184F9C420ED06CB10C4B9B6853
:10224C001A7C12F01F0F0AD1DA897F2A07D9A269EA
:10225C002AB9074A536109E0054BDC68EEE7A34253
:10226C0002D0204600F098FB014B5C6110BD70471A
:10227C003405002010B5037C90F91020002A14DBE3
:10228C00154B9A6853F8184F9C4219D0C4B182422E
:10229C0019D0137C13F01F0F15D1D3897F2B12D9B2
:1022AC00A36983B90C4B5A6114E003F07F030374E8
:1022BC004268036813605A60002303604360DFE7E1
:1022CC00054BDC68E3E7A24202D0204600F064FB39
:1022DC00014B5C6110BD00BF340500202DE9F843B3
:1022EC0005460C46414B9E68337C13F0600F2BD097
:1022FC0013F0200F2DD008271F4225D13B433374F8
:10230C0013F0800F27D1082F30D04FF00009374B36
:10231C0053F8188F98454ED0B8F1000F4BD0334B73
:10232C009B68434502D0404600F036FB2F4BC3F868
:10233C001480102F08D0304601F096F8304600F08B
:10234C0085FBB9F1000F3AD184F31188BFF36F8F7D
:10235C0046E01027D0E703F07F03337472683368CC
:10236C0013605A60002333607360CCE7B3685BB1D1
:10237C007268336813605A60002333607360327C78
:10238C0022F002023274B360304602F03AF806F1E1
:10239C00580002F03BF8154B9B689E4202D04FF060
:1023AC000009B4E7EFF3058313B94FF00009AEE76A
:1023BC004FF00109ABE70D4BD3F80C80AFE70C489D
:1023CC00FFF7D8FEC0E7EFF31184102383F31288D4
:1023DC00BFF36F8F01F0BAFF84F31188BFF36F8FD7
:1023EC002B7C13F0600FEED1BDE8F8833405002090
:1023FC0040030020B3F1FF3F08BFB2F1FF3F00D113
:10240C00704708B50249183000F060FB08BD00BFEA
:10241C00E144000810B5214B9A68DB699A4205D05B
:10242C001368516812680A60516006E00023F8E7EF
:10243C001A4AD269934212D01B6893B1174A90681A
:10244C0090F90E1093F90E209142F1D0521A002AF5
:10245C00EEDD5A6842600360106058600AE00023A9
:10246C00EBE70E4B9A68D96903F1180010605160C4
:10247C000A60DA61094B53F8184F9C420AD04CB1F0
:10248C00064B9B689C4202D0204600F085FA034B19
:10249C005C6110BD014BDC68F2E700BF3405002025
:1024AC0010B50C4611460A4882680A4B1A60EFF3C5
:1024BC001183102383F31288BFF36F8FDDE902239E
:1024CC00806801F0C6FF2046FFF760FE10BD00BF1C
:1024DC00340500205805002008B50B4659B9EFF318
:1024EC00058242B9064A50699268904203D0084668
:1024FC00FFF74CFE03E083F31188BFF36F8F08BD29
:10250C003405002008B5034650B9EFF305823AB9FB
:10251C00064A51699268914202D0FFF737FE03E0F8
:10252C0083F31188BFF36F8F08BD00BF3405002003
:10253C000023EFF31181102282F31288BFF36F8F07
:10254C0009E0064B9A68D37B013BD37381F3118866
:10255C00BFF36F8F0123002BF3D07047340500209D
:10256C0038B50023EFF31185102282F31288BFF3E4
:10257C006F8F0EE0154BDC6817E0A24202D02046AC
:10258C0000F00AFA114B5C6185F31188BFF36F8F71
:10259C000123BBB90D4B9A68D17B0131D17353F830
:1025AC00184F9C42E6D0002CE4D0137C13F01F0F84
:1025BC00E3D1D3897F2BE0D9A369002BDDD1034B69
:1025CC005A61E1E701F09DFF38BD00BF34050020E2
:1025DC0008B5024801F0A0FF08BD00BF4805002067
:1025EC0038B5EFF31184102383F31288BFF36F8F88
:1025FC00224B9A68DB699A4205D0136851681268BD
:10260C000A60516006E00023F8E71C4AD269934245
:10261C0012D01B6893B1194A906890F90E1093F977
:10262C000E209142F1D0521A002AEEDD5A68426017
:10263C000360106058600AE00023EBE70F4B9A68C8
:10264C00D96903F11800106051600A60DA610B4B14
:10265C0053F8185F9D420DD065B1084B9B689D42A5
:10266C0002D0284600F098F9044B5D612046FFF734
:10267C008DFD38BD014BDD68EFE700BF3405002050
:10268C00F8B551EA000328D005460C46EFF3118744
:10269C00102383F31288BFF36F8F154EB068154B60
:1026AC001860FFF7E7FDB0682A4623461249183038
:1026BC0000F00CFA0446B268137C43F00403137464
:1026CC003846FFF763FDB3689A6ADB6AB3F1004FD3
:1026DC0008BF002A05D00020F8BDFFF781FF0020BD
:1026EC00FAE701F07EFF201A0028F5DC0020F3E762
:1026FC003405002058050020E144000838B5044694
:10270C000D46FFF7BDFF03462046B5F1FF3F08BF5E
:10271C00B4F1FF3F28D0DA1713F1090042F100039E
:10272C000021C21821D20A441149A1FB024525F00F
:10273C00030404EB9504121B801A63F100034FF0A1
:10274C00CC3200FB02F201FB0322A0FB01010A4484
:10275C00430843EAC27352081846B3F1004F72F1B2
:10276C00000201D36FF0004038BD0121DBE700BF50
:10277C00CDCCCCCC38B5EFF31185102383F3128874
:10278C00BFF36F8F037C13F0040F04D185F3118812
:10279C00BFF36F8F38BD0446183001F0F3FE237C75
:1027AC0023F0040323742046FFF70AFD2946024850
:1027BC00FFF792FEEEE700BF58050020014B98682A
:1027CC00704700BF340500202DE9F843838903F0DE
:1027DC000107EFF31186102383F31288BFF36F8F79
:1027EC00057C15F0080F1AD10446B14600F15808C3
:1027FC0001F0D3FD10B345F020052574EFF30583EC
:10280C009BB131462046FFF769FD67B1002383F386
:10281C001188BFF36F8F0423184602DF03E086F3A1
:10282C001188BFF36F8FBDE8F88341463F4B986822
:10283C0001F0B5FD3046FFF7A9FCE6E745F00803CB
:10284C00237413F0800F36D1A3685BB162682368E0
:10285C0013605A60002323606360227C22F0020222
:10286C002274A36004F1180001F08CFE404601F0C4
:10287C00CDFD2E4B9A6894422AD000262B4B53F850
:10288C00185F9D422BD055B3AA4202D0284600F0C7
:10289C0083F8264B5D61204600F0E6FD204600F0F3
:1028AC00D5F8FEB9214B9B689C421FD089F3118847
:1028BC00BFF36F8FA9E705F07F0545F00805257478
:1028CC006268236813605A60002323606360BBE76F
:1028DC00EFF305830BB90026D0E70126CEE7134BA7
:1028EC00DD68D1E71248FFF745FCDBE7EFF3058322
:1028FC00002BDBD1A38913F0010F12D089F31188BF
:10290C00BFF36F8F002383F31188BFF36F8F042302
:10291C00184602DFEFF31189102383F31288BFF3FB
:10292C006F8F4846FFF732FC6FE700BF340500207D
:10293C00400300200346027C12F01F0F10D10B4AFB
:10294C0090420FD00A4A106878B1DA897F2A0BD8E6
:10295C0093F90E20074B1B689A4206DA0020704749
:10296C00002070470020704700207047F0010020C5
:10297C004000002060050020044BC01AC010044B1E
:10298C0003FB00F0034B01221A547047E8030020AC
:10299C00ABAAAAAA5C05002070B50C4B1E7CFFF7F5
:1029AC00C9FF044606EB4603094D05EBC305284653
:1029BC0001F0E8FD074B00229A5504B970BD621E68
:1029CC00D3170549284600F081F8F7E734050020B5
:1029DC00E80300205C0500208529000838B5EFF3DA
:1029EC001185102383F31288BFF36F8F144B9C68EF
:1029FC00144B1B68A34217D0124B00221A60104BC9
:102A0C001B7C114AD35C53B12046FFF793FF30B1C6
:102A1C00237C13F01F0F0FD02046FFF7BDFF85F36B
:102A2C001188BFF36F8F38BD2046FFF7B5FF85F3D4
:102A3C001188BFF36F8FF6E7FFF7ECFCECE700BFF4
:102A4C0034050020580500205C050020EFF31181AF
:102A5C00102383F31288BFF36F8F0A4B1B6A8342D8
:102A6C0004D11A6F074B1A6207E0134613B11A6FA1
:102A7C008242FAD10BB1026F1A6781F31188BFF34E
:102A8C006F8F704734050020034B1868984200D0B4
:102A9C0070470020FCE700BF4400002030B1044A1E
:102AAC005268904201D0006870470020704700BF08
:102ABC004400002008B5044B1B680BB1002008BD76
:102ACC00FEF7BEFFFBE700BF640500202DE9F04FC9
:102ADC0083B0B3F1FF3F08BFB2F1FF3F0ED0044605
:102AEC0091461F4681600023EFF3118A102282F376
:102AFC001288BFF36F8F1D46019335E000250195B9
:102B0C002846019903B0BDE8F08FFFF7D3FF80464C
:102B1C00013547F10006451946EBE0762561666103
:102B2C00344A13685268ED1846EB020301934FF0D8
:102B3C00010B38E0C91A66EB02020161426143687D
:102B4C00636020601C60446005E02B4B5A68236076
:102B5C00626014605C60FFF797FF844237D08AF3A1
:102B6C001188BFF36F8F0123002BC9D14D460197FC
:102B7C00002FCADA1F4B19685B68691843EB07030F
:102B8C006FF00102521A4FF0FF3161EB0303104654
:102B9C001946012A73F1000301DA0120002120619A
:102BAC0061614FF0000BFFF76FFF0028CDD001697A
:102BBC004669236962698B4272EB060EBADB5B1ABB
:102BCC0062EB060223616261FFF768FFEDE70B4BD6
:102BDC001B68002BC3D1BBF1000F06D0404601F09F
:102BEC00B6FC0021FEF79AFEB9E7FFF763FF8046BB
:102BFC00F4E700BF0004002044000020640500201E
:102C0C0070B5EFF31186102383F31288BFF36F8F27
:102C1C002A4B1860FFF738FF044623E0284A136854
:102C2C0051685B1941EBE571136051600022002380
:102C3C00C4E90423204601F073FC86F31188BFF32A
:102C4C006F8FA36820469847EFF31186102383F308
:102C5C001288BFF36F8F194A13685B1B1360FFF761
:102C6C0013FF04463CB125696169144B1A68D317EC
:102C7C00AA428B41D2DA44B1236962690F490968CF
:102C8C005B1A62EBE172236162610D4A0B4D28689D
:102C9C00136851681B1841EBE071136051600024FC
:102CAC002C60204601F053FC2146FEF737FE86F3DC
:102CBC001188BFF36F8FFFF791FE70BD6405002084
:102CCC000004002010B50022EFF31184102383F3CD
:102CDC001288BFF36F8F134611460CE0FFF7EAFE24
:102CEC00074A13685168C31841EBE07184F31188EB
:102CFC00BFF36F8F0122002AF0D0184610BD00BF21
:102D0C000004002008B5024800F053FB08BD00BFCA
:102D1C006856000810B5064C05E0A26861682046AC
:102D2C0001F063FC1434034B9C42F6D3002010BD1D
:102D3C0068000020680000202DE9F04F8DB043683A
:102D4C000293837815469A07804640F10D81002442
:102D5C000E78002E00F00A81252E0BD04B1C03930D
:102D6C000134029B4146304698470028C0F2F68059
:102D7C000399EDE74E788B1C252E0393F0D000279A
:102D8C00B946BB46BBF11F0F38D8A6F12003102B58
:102D9C000AD8DFE803F02A090930090909210909D1
:102DAC000928092D09091F00A6F13003092B33D975
:102DBC002A2E37D11BF0400F55F8043B40F082808F
:102DCC00002BA7BF4BF0200B9946C3F100094BF029
:102DDC00280B01E04BF0010B039B13F8016B0393E1
:102DEC00002ECFD130E04BF0020B4BF0040BF3E78D
:102DFC004BF0080BF0E74BF0100BEDE7BBF17F0F3E
:102E0C0019D8A6F13003092BD2D81BF0400F03D0F0
:102E1C000A2101FB0737DFE70A2101FB09394BF0D7
:102E2C00200BD9E72E2E06D11BF0400F40F09E80D0
:102E3C004BF0400BD0E76C2E31D02BD8682E36D00F
:102E4C006A2E3CD04C2E3AD0002F46F02003B8BF4F
:102E5C002BF04002A3F16501BCBF1FFA82FB0027D7
:102E6C00022901D9612B2FD1073525F00705DFF891
:102E7C00ACA2083507271BF0080F66D00AEB070B2E
:102E8C0056465E4563D1A4EB0A0A06EB0A02A9EB8F
:102E9C0007096FE1742E9FD07A2E9DD0D4E71BF0DA
:102EAC00800F18BF4BF4007B4BF0800B94E71BF4A6
:102EBC00807F18BF4BF4007B4BF4807B8CE74BF48A
:102ECC00207B89E71F4687E7A6F16301122900F2F0
:102EDC00F080DFE811F013004F00EE00EE00EE0082
:102EEC00EE004F00EE00EE00EE00EE00EE00FE00F5
:102EFC00E900EE00EE001B00EE00AF0055F8043BBD
:102F0C008DF8183001270DF1180AB4E755F804AB09
:102F1C00834BBAF1000F08BF9A461BF0400F14BF49
:102F2C0039464FF0FF31504601F08DFB0746A2E7C2
:102F3C00029B41462020984700280FDB013EB742F8
:102F4C00F6D34C44A41BB14698E74E46F7E716F867
:102F5C00010B029B41469847002892DA98F8023000
:102F6C0043F0040388F802304FF0FF3420460DB0D4
:102F7C00BDE8F08F1BF0800F34D01BF4007F2CD0F9
:102F8C00073525F00705AA4669685AF8080B2BF097
:102F9C0010050029ADB237DA404261EB410145F42E
:102FAC0080650DF1180B0A235A4601F058FBA0EB73
:102FBC000B0301936B0662D5019B25F001019F4227
:102FCC0089B240F3A180002E00F0998015F0100218
:102FDC0040F09C80BB460D4623E0AA465AF8040BF1
:102FEC00C117D4E7AA461BF4807F5AF8041B01D101
:102FFC000846F5E71BF4007F15BF48B208B241F351
:10300C00C01141F3C031C2E750EA0103C9D11BF032
:10301C00400FC6D0002FC4D12BF0110295B2BB4685
:10302C00019740F2064115EA01021CBF0BF1010B9E
:10303C0000222CE02BF010021FFA82FB0A231BF05B
:10304C00800C49D01BF400711DBF073525F0070516
:10305C00AA46AA461ABF5AF8080B69685AF8040B14
:10306C0050EA010545D12BF016051BF0400FADB20F
:10307C0042D0002F40D12BF0170295B2019715F0DA
:10308C00100248D0019B002E42D103F1010B2907FD
:10309C005AD4EB0706D5D9456FDD0199A9EB0B0383
:1030AC005F18CB465B4649E04BF0100B102378269B
:1030BC00C5E7782B04D1C6F1780343F01003BEE7C3
:1030CC00029B4146252098470028FFF647AF023463
:1030DC0047E608230026B2E7AA461BF480715AF88B
:1030EC00040BBDD01BF400711ABFC0B2614680B294
:1030FC00B6E72BF0060295B20DF1180B54E725F04C
:10310C001105ADB2BB468CE70D46B8E73B460D4604
:10311C0003F1020BBBE7DDF804B082E7AA56000806
:10312C00A3560008CDE904324146029B2020984763
:10313C000028FFF613AF049B059A01339945F1DC87
:10314C00A4EB0B01CC189B460AB3029B41463020E2
:10315C0098470028FFF602AF8EB901342744019B33
:10316C00391B994224DC1D465DBB019AA9EB0B0966
:10317C00224455461446914435E0019F92E70234AF
:10318C0041463046029B98470028E7DAE6E640F2D3
:10319C0006410D42E2D015F0020F14BF2B20202067
:1031AC0015F4806F04F10104414618BF2D20E9E7A6
:1031BC00029B414630209847002804F10104CEDAE6
:1031CC00CCE606AB013D4146585D029B9847002872
:1031DC00CADAC3E6029B414620209847002804F136
:1031EC000104FFF6BBAEA9EB0403002BF2DCBFE538
:1031FC00704708B583681B680BB1984708BD6FF022
:10320C005700FBE738B513468568046912F4801F34
:10321C0007D012F4402F04D012F0010F01D082F429
:10322C00402323F4801213F0010F0AD023684FF0CF
:10323C00010C0CFA01FC43EA0C0323602B68984741
:10324C0038BD23684FF0010C0CFA01FC23EA0C0387
:10325C002360F3E708B503468C4600681979DA88D1
:10326C0042EA0C02FFF7CEFF08BD08B532B10123CC
:10327C0003FA01F18368DB68984708BD012303FA60
:10328C0001F183681B699847F7E710B503691C685F
:10329C0001238B401C4202D0B2FA82F25209FFF792
:1032AC00E4FF10BD08B520EAE073D9178A0042EAA2
:1032BC0093729800C01841EB020100184941FFF7C6
:1032CC001DFA08BD10B5131D50F8234074B9C3681E
:1032DC00012494402343C360043240F82210CB00F5
:1032EC001A1D89B281520633C15210BDE20004325C
:1032FC00835A4FEAC10C0CF1040E20F80E300CF17D
:10330C00060C20F80C40DB00063389B2C152815206
:10331C00EBE708B500EBC1035A885208B2FA82F207
:10332C00C2F11F02FFF7CEFF08BD70B50346043A89
:10333C00C81D20F007000A4422F00702121AD50813
:10334C00186085600023C360B5FA85F1C1F1200EC9
:10335C00C1F124018900CE1DF10805E003F1040C34
:10336C00002440F82C4001337345F7DB4C00A4B229
:10337C0044804FF0000CA0F800C044F001044480DD
:10338C006B1A4FEA430E26F00704A51C20F805E043
:10339C00015322F00704951C20F805C00244035386
:1033AC00538843F001035380FFF7B3FF70BD002037
:1033BC0070470FB400B583B004A951F8040B019108
:1033CC00FCF7F6FF03B05DF804EB04B070477047F0
:1033DC0008B501F020F908BD08B501F00EF908BDDB
:1033EC0008B501460068FDF77BF808BD08B5FDF788
:1033FC008FF8FDF7B9F808BD0020704708B5002319
:10340C001370CB1E092B1AD8DFE803F005090D1138
:10341C001919191919141146FDF73EFA08BD0021A6
:10342C00FDF7F0F8FAE70021FDF766F9F6E7FDF78E
:10343C00D9F9F3E71146FDF78BFA0020EEE7FDF71B
:10344C0091FA0020EAE708B540B2FDF76FFB08BD22
:10345C0008B5013140B2FDF777FB08BD08B5002176
:10346C000120FDF73DF808BD6FF08500704761B68F
:10347C0062B680F31188BFF36F8F704772B600236A
:10348C0083F31188BFF36F8FBFF34F8F30BF62B6DA
:10349C00BFF36F8F704708B5FDF70AFC002008BD1D
:1034AC0008B5FDF72BFC08BD08B50622012100204C
:1034BC00FDF770FC002211460620FFF7C9FF07221A
:1034CC0001210846FDF766FC002211460720FFF794
:1034DC00BFFF082201210220FDF75CFC00221146EF
:1034EC000820FFF7B5FF092201210320FDF752FC4C
:1034FC00002211460920FFF7ABFF0A22012104200C
:10350C00FDF748FC002211460A20FFF7A1FF172205
:10351C0005210846FDF73EFC002211461720FFF757
:10352C0097FF282206210A20FDF734FC00221146C1
:10353C002820FFF78DFF002008BD01F01F0101209E
:10354C008840704708B50246084602F0030304336E
:10355C009B000F21994041EA9201FDF751FC08BDF7
:10356C0008B500F0030304339B000F2202FA03F3A7
:10357C0043EA9000FDF760FC08BDB0FBF1F002FBE4
:10358C0000F0B0FBF3F07047B0FBF1F07047002097
:10359C0070470B88C3F30B0303F6B872C2F30B022C
:1035AC00182A15D882B003F1804303F504334A6816
:1035BC00186802431A600B88C3F30B0303F18043B2
:1035CC0003F504331B680193019B002002B0704784
:1035DC006FF0850070470B88C3F30B0303F6B872CA
:1035EC00C2F30B02182A0AD803F1804303F5043303
:1035FC0049681A6822EA01021A60002070476FF0CD
:10360C00850070470C2807D841F6BA33C34013F035
:10361C00010F04D0002070476FF0850070476FF0E9
:10362C008500704770B54C68C4F304450888C0F336
:10363C000B00FFF7E7FF002815DBA6B2FF2C13D019
:10364C0006F1804202F50432C4F3415101310123E9
:10365C008B40013BAB40240EAC40116821EA0303C4
:10366C001C431460002070BD0020FCE708B50888DE
:10367C00C0F30B0000F6B873C3F30B03182B0BD875
:10368C0000F1804000F5043002684B68934301D090
:10369C00012008BD0220FCE7FFF7B4FF08B10120B0
:1036AC00F7E70220F5E77047022070470B4639B167
:1036BC001168196041688A4209D000231360704771
:1036CC001368036041688A42F7D14360F5E74360B1
:1036DC00F3E708B50A460368002101E019461B68A8
:1036EC002BB19342FAD1FFF7E1FF012000E000205B
:1036FC0008BD38B505460C460321A047002806DB5B
:10370C0001212846A047002800DB002038BD10F11D
:10371C00860FFBD1F4E770B504460D4616460368D8
:10372C0033B1FFF7D6FF70B91EB96FF0150006E084
:10373C0032B123682B602560636843B1002070BDF3
:10374C006FF01500FBE7002EF3D10020F7E7656062
:10375C000020F4E770B50E461546016821B10C68DF
:10376C003CB131B90C4604E00C4602E0234621463C
:10377C001C4671B18A682A4002D04B683046984783
:10378C00002CF3D02368002BF1D0002CEFD1234672
:10379C00EDE770BD08B5024608690430FFF7DAFFA3
:1037AC0008BD10F4003F14D010F0020F04D010F03C
:1037BC00040F35D0502300E0102310F0100F02D06E
:1037CC0043F4007312E010F0200F0FD043F4806329
:1037DC000CE010F4803F08D010F0100F14D110F052
:1037EC00200303D04FF4806300E0302300F4C0606A
:1037FC00B0F5806F0ED0B0F5C06F08D0B0F5007F7B
:10380C000BD00B60002070474FF40073EEE743F4CD
:10381C00C073F6E743F48073F3E743F08003F0E7FB
:10382C006FF08500704743685B681B690B60002074
:10383C00704743685B68586942400A4042405A618D
:10384C000020704743685B689961002070474368AB
:10385C005B6899620020704743685B685A69514005
:10386C0059610020704708B500690430FFF753FF19
:10387C0008BD08B5012911D007D819B90021FDF7E9
:10388C004BFD07E06FF0850004E00239C9B2012955
:10389C0001D8002008BD6FF08500FBE70121FDF782
:1038AC003BFDF7E710B4046891FAA1F39BB1B3FAAE
:1038BC0083F35B004FF0030C0CFA03F324EA0303CD
:1038CC0091FAA1F149B1B1FA81F149008A4013434F
:1038DC00036010BC70472023EBE72021F5E710B400
:1038EC00846891FAA1F39BB1B3FA83F35B004FF0B8
:1038FC00030C0CFA03F324EA030391FAA1F149B186
:10390C00B1FA81F149008A401343836010BC7047BF
:10391C002023EBE72021F5E710B4C46891FAA1F35A
:10392C009BB1B3FA83F35B004FF0030C0CFA03F377
:10393C0024EA030391FAA1F149B1B1FA81F14900EA
:10394C008A401343C36010BC70472023EBE720214F
:10395C00F5E710B4046A91FAA1F39BB1B3FA83F3BF
:10396C009B004FF00F0C0CFA03F324EA030391FABB
:10397C00A1F149B1B1FA81F189008A401343036284
:10398C0010BC70472023EBE72021F5E710B4446A04
:10399C00090A91FAA1F39BB1B3FA83F39B004FF0A0
:1039AC000F0C0CFA03F324EA030491FAA1F149B1C8
:1039BC00B1FA81F189008A401443446210BC70470B
:1039CC002023EBE72021F5E72DE9F8430F461546B8
:1039DC00984643685E6801248C4002F03009C2F3BB
:1039EC008013706820EA04008B4018437060C2F3A7
:1039FC00C11221463046FFF772FFC5F34122214622
:103A0C003046FFF789FFB9F1200F07D04FEA1912A2
:103A1C0021463046FFF746FFBDE8F883072F05D84F
:103A2C00424621463046FFF794FFEFE742462146D7
:103A3C003046FFF7ABFFE9E72DE9F04383B00546CD
:103A4C000E461446D0F8108001A91046FFF7A9FEC7
:103A5C00074668BB14F440390BD0D8F80C3023FA65
:103A6C0006F212F0010F04D10122B2401343C8F840
:103A7C000C3014F4003F05D014F4002F1CD114F4B6
:103A8C00802F1FD10023019A31462846FFF79CFF57
:103A9C00B9F1000F0CD1D8F80C3023FA06F212F061
:103AAC00010F05D00122B24023EA0203C8F80C3002
:103ABC00384603B0BDE8F0830121B1402846FFF73A
:103ACC00C1FEDFE70121B1402846FFF7C0FED9E770
:103ADC0038B504460D460846FFF742FDA04200D01B
:103AEC0038BD29462046FFF728FD0446FDF7D0F9DE
:103AFC002046FDF727FA00212046FDF7D1F9EFE724
:103B0C00F8B507460D4616461C46FFF75DFF112C0F
:103B1C0001D00020F8BD16F4006F05D00121A9409A
:103B2C003846FFF78FFEF4E70121A9403846FFF72E
:103B3C008EFEEEE738B513468568046912F4801FD3
:103B4C0007D012F4402F04D012F0010F01D082F4F0
:103B5C00402323F4801213F0010F0AD023684FF096
:103B6C00010C0CFA01FC43EA0C0323602B68984708
:103B7C0038BD23684FF0010C0CFA01FC23EA0C034E
:103B8C002360F3E708B503468C4600681979DA8898
:103B9C0042EA0C02FFF7CEFF08BD08B532B1012393
:103BAC0003FA01F18368DB68984708BD012303FA27
:103BBC0001F183681B699847F7E710B503691C6826
:103BCC0001238B401C4202D0B2FA82F25209FFF759
:103BDC00E4FF10BD08B50B464168086898420BD944
:103BEC00486800EBC301003A18BF0122097950F86C
:103BFC003300FFF7E2FF08BD6FF01500FBE770B56F
:103C0C0045682B6813B10020002408E06FF0120007
:103C1C00FAE74FF4B0113046FFF7B4FF01342B68CC
:103C2C009C420CD258B96B6803EBC40653F83400B1
:103C3C0000F066FB0028ECD16FF01200EEE770BDCF
:103C4C0000B50368136001E008331360136890F843
:103C5C0004C0D0F800E00EEBCC0C634505D293F811
:103C6C0005C08C45F0D1002001E06FF001005DF83B
:103C7C0004FBF8B506460F460024254615E002F075
:103C8C001F01102920D011291CD0530A1B0103F449
:103C9C00F873C2F3431002F01F0229461843FDF7D4
:103CAC00B1FB002813DB0134E4B2BC420ED206EBAC
:103CBC00C40356F8342012F0100FE0D15D6845F0C3
:103CCC002005E2E75D68E0E73025DEE70020F8BD7F
:103CDC0043681868C1F34B1301F01F01C05801234E
:103CEC008B40184214BF012300231370002070472F
:103CFC0010B443681C68C1F34B1001F01F0123582A
:103D0C0001228A4013432350002010BC704710B48A
:103D1C0043681C68C1F34B1001F01F0123580122AA
:103D2C008A4023EA02032350002010BC704738B5A8
:103D3C0004460D46FFF7DCFF29462046FFF7E7FF58
:103D4C00002038BD08B58368DB680BB1984708BD07
:103D5C006FF05700FBE730B583B043681C68E1B1E6
:103D6C000D46586819698368DB689BB101AA9847AE
:103D7C0000280DDB236823F400432360019B03EB35
:103D8C005503B3FBF5F30F2B0AD99BB2E36000206C
:103D9C0003B030BD6FF05700FAE76FF01500F7E78E
:103DAC006FF01500F4E7436829B11A68936843F47F
:103DBC008043936070471A68936823F48043936040
:103DCC007047B0F5805F07D0B0F1805F07D109B1C3
:103DDC00012070470220704721B90420704719B99F
:103DEC000320704703207047022070472DE9F041F3
:103DFC0004460D46476803691E680979012914D0E9
:103E0C00022915D14FF480636A79012A15D0022A50
:103E1C0015D07AB14FF40052A879022812D0042898
:103E2C0016D0002968D1002014E04FF4C063EBE7F2
:103E3C000023E9E74FF48052EEE70022ECE74FF461
:103E4C004052E9E709B1002004E04FF0805001E056
:103E5C004FF48050E979012951D04FF0000C03291F
:103E6C0014BF00210121AE424CD0D7F80080D8F805
:103E7C00007007F4C06E734506D0D8F8007027F4B4
:103E8C00C0673B43C8F8003063681F687B6803F465
:103E9C0040539A4204D07B6823F4405313437B6015
:103EAC0063681A68136803F01023984204D01368EF
:103EBC0023F010231843106063681A68936803F4A6
:103ECC0040739C4505D0936823F440734CEA03037C
:103EDC00936063681B689B6813F4804300D00123D4
:103EEC00003B18BF012399422AD1296833689942B3
:103EFC002AD10020BDE8F0814FF48050AAE74FF49E
:103F0C00407CACE73E68316821F0805121F4B0511F
:103F1C00034319433160736823F4405313437360B4
:103F2C0063681A68936823F440734CEA0303936044
:103F3C0029682046FFF70FFF0028DBDB0020D9E7BC
:103F4C002046FFF730FFD0E72046FFF704FF00289C
:103F5C00D0DB2B6833600020CCE738B504460D4627
:103F6C0003691B681B680B6043681B681B6803F4C0
:103F7C00C063B3F5806F31D0B3F5C06F30D101237E
:103F8C002B7163681B685B6803F44053B3F5805F67
:103F9C002AD0B3F5405F29D023B303236B71636838
:103FAC001B681868196801F4C06100F01020FFF755
:103FBC0008FFA87163681B689B6803F44073B3F532
:103FCC00407F15D00023EB7163681B689B6813F46A
:103FDC00804F01D00323EB71002038BD0223CFE7C3
:103FEC000023CDE70123D9E70023D7E70223D5E748
:103FFC000123E8E708B543681868C36913F0080F94
:10400C0001D008230362C36913F0200F02D090473C
:10401C00002008BD4FF0FF30FBE710B5436818686F
:10402C00C36913F0800FFBD0EFF31184102383F3DB
:10403C001288BFF36F8FC36913F0800F04D184F320
:10404C001188BFF36F8FEBE7904784F31188BFF3B0
:10405C006F8F10BD436A0B707047C9B28162704795
:10406C0043681B68D86910F0080000D00120DA6999
:10407C0012F0010F01D040F00200DA6912F0020FC9
:10408C0001D040F00400DA6912F0040F01D040F0C6
:10409C002000DA6912F4807F01D040F0080010F0A3
:1040AC00080F02D04FF480721A6210F0010F01D089
:1040BC0008221A6210F0020F01D001221A6210F0CD
:1040CC00040F01D002221A6210F0200F01D004223A
:1040DC001A6270472DE9F843154642681768FA6969
:1040EC0012F0800F1DD00E469846EFF31189102365
:1040FC0083F31288BFF36F8F00242B1B002B09DD79
:10410C00FB6913F0800F05D0224631463846C04774
:10411C000134F2E789F31188BFF36F8F2046BDE8B5
:10412C00F8830024FAE78B5C836270472DE9F04139
:10413C00884616461F4643681D680024331B002B17
:10414C000FDDEB6913F0200F0BD0224641462846B9
:10415C00B8470134EB6913F0080FEFD008232B623A
:10416C00ECE72046BDE8F081436A8B547047436806
:10417C001A6852E8003F43F0400342E8003100293E
:10418C00F7D1704743681A6852E8003F23F04003A8
:10419C0042E800310029F7D1704743681B68DA699F
:1041AC0012F0800F05D01B6813F0400F03D00120D4
:1041BC007047002070470020704743681B68D8691F
:1041CC0010F0400000D00120704743681A6852E894
:1041DC00003F43F0200342E800310029F7D170473B
:1041EC0043681A6852E8003F23F0200342E800318C
:1041FC000029F7D1704743681B68D86910F020007C
:10420C0000D00120704743681B68DA6912F0200F58
:10421C0003D01A6812F0200F09D1DA6912F0400F9E
:10422C0007D01B6813F0400F05D100207047012008
:10423C0070470020704701207047012070470369C8
:10424C0059609A60704708B5026953680BB1916860
:10425C00984708BD08B543685868196983681B6896
:10426C000BB1984708BD6FF05700FBE700B583B062
:10427C0001AAFFF7E5FC002805DB019B0022197958
:10428C001868FFF7F6FC03B05DF804FB38B504467C
:10429C004568FFF7DFFF00280EDB0021686AFFF797
:1042AC00E5FF002808DB2046FDF732FA002803DB87
:1042BC00AB6A20469847002038BD08B5002211464D
:1042CC002520FFF7C5F82520FFF7BDF808BD10B570
:1042DC000446436993B19847024630B100280BDB82
:1042EC00FF2A00DDFF22E3681A70E1684B7843F087
:1042FC0001034B70504210BD4242F1E70022F4E73B
:10430C0060B1C3685A7812F0010F03D01B781BB14F
:10431C000020704700207047012070470020704734
:10432C00EFF31183102383F31288BFF36F8FFEE733
:10433C0008B5FFF7F5FF08B5EFF31183102383F3EE
:10434C001288BFF36F8FFFF799F8F5E700BF70473E
:10435C0008B5183000F016F908BD10B582B001246C
:10436C000094FDF79FFD02B010BD10B5073222F08E
:10437C0007028C182146FCF7E3F8073020F0070001
:10438C00201A10BD10B400248460838102748173E0
:10439C00C4738461C46110BC70470020704738B589
:1043AC0004460D46FDF766FF237C43F0020323749D
:1043BC0035B3A5602B689D420DD100230BE05A68E4
:1043CC006260236014605C601AE01A4669688A4275
:1043DC000FD01B687BB173B194F90E1093F90E20BA
:1043EC009142F2D0521A002AE9DC1A46002BEDD188
:1043FC00F0E70023EEE76B68256063601C606C607F
:10440C0038BD08B5183000F0BDF808BD70B50646CB
:10441C00046884421AD0DCB16268236813605A6065
:10442C00002525606560237C23F002032374A560BE
:10443C0004F1180000F0A6F8C4F8A0502046FDF7CF
:10444C00BFFE3468A642E6D12C46E4E70024E2E73E
:10445C0070BD70B5044616461D46FFF7A0FF3246E8
:10446C002B462046FDF7C6FF70BD38B50446002329
:10447C00EFF31185102282F31288BFF36F8F04E0E3
:10448C0085F31188BFF36F8F012343B92046FFF7E3
:10449C0084FF0028F4D12046FDF792FEF0E738BDEA
:1044AC0008B5037C13F0280F13D183685BB1426805
:1044BC00036813605A60002303604360027C22F09F
:1044CC00020202748360037C23F004030374FDF77F
:1044DC0077FE08BD38B5A0F118050023EFF3118461
:1044EC00102282F31288BFF36F8F07E02846FFF784
:1044FC00D7FF84F31188BFF36F8F0123002BF5D006
:10450C0038BD08B5EFF31180102383F31288BFF385
:10451C006F8FFDF7F7FF08BD031D43608360704785
:10452C0010B50446FEF7BAFA48B102460369416970
:10453C0020691B18606941EB0001136151616268CD
:10454C00236813605A6000232360636010BD10B5AC
:10455C000446FEF799FA78B1036942691B1B62EBBA
:10456C00E472B3F1004F72F1000108DA002A01DBAA
:10457C00184610BD0023FBE76FF00040F9E76FF021
:10458C000040F6E7F8B504460023EFF3118710223C
:10459C0082F31288BFF36F8F6FF015000CE0FEF7FB
:1045AC0089FAFFF7D4FF0021FDF7B8F9304687F3FD
:1045BC001188BFF36F8F01231E468BB92368002B24
:1045CC00F5D0FEF761FA05462046FFF7A9FF002259
:1045DC004FF00043C4E90423A542E0D03046E6E79F
:1045EC00F8BD08B5FEF76EFB08BD10B500F10C0464
:1045FC00C4600461FEF799FE10BD0A44914200F1BB
:10460C00FF3300D1704710B511F8014B03F8014F7F
:10461C009142F9D110BD02440346934200D1704738
:10462C0003F8011BF9E710B50139044632B111F852
:10463C00013F00F8013B013A002BF7D10021FFF7B5
:10464C00EAFF204610BD10B5024601448A421346CB
:10465C0003D01C780132002CF8D1181A10BDF0B51B
:10466C00C3F137070446FFB203F01F031046082BB3
:10467C00E6B233D0102B3ED06508A40844EA81740E
:10468C0045EAC1752D194FEA910242EB51022909F5
:10469C0041EA02716D1842EB1212290A41EA0261D9
:1046AC006D1842EB1222290C41EA02416D1842EBC3
:1046BC001242AD1842F10002EC0844EA4274D108EF
:1046CC0004EB8402A6EB4205EDB2092D0CD90134A2
:1046DC00A5F10A0541F10001EDB212E0E40844EA4B
:1046EC00417406F00705C908303554EA010200F898
:1046FC00015BBCD1F0BD240944EA017406F00F053E
:0C470C000909092D84BFED19EDB2EDE79D
:1047180000000000B84700081D0400080000000061
:10472800212D00080000000000000000D447000808
:1047380000000000B448000800000000EC48000831
:1047480000000000D0480008000000007C48000875
:1047580000000000F047000800000000984800082A
:1047680000000000604800080000000044480008FD
:104778000000000028480008000000000C4800085D
:10478800B5340008000000000000000008490008D7
:1047980009130008000000008D1800080000000040
:1047A800E50C000800000000000000002449000893
:1047B800A053000800000000E84C00084E0000204C
:1047C80000000000BD11000800000000845500082A
:1047D80098550008D84C000864000020000000002C
:1047E8000000000000000000645300080000000002
:1047F800000000004C00002000000000AD3400085C
:1048080000000000B053000840540008984C00080D
:10481800500000209C0400206113000800000000E4
:10482800C053000854540008984C00085200002057
:10483800AC0400206113000800000000D0530008F9
:1048480068540008984C000854000020BC0400205C
:104858006113000800000000E05300087C540008C1
:10486800984C000856000020CC0400206113000872
:1048780000000000F053000890540008984C00080D
:1048880058000020DC04002061130008000000002C
:1048980000540008A4540008984C00085A0000204E
:1048A800EC04002061130008000000001054000808
:1048B800B8540008984C00085C000020FC04002054
:1048C800611300080000000020540008CC540008C0
:1048D800984C00085E0000200C05002061130008B9
:1048E8000000000030540008E0540008984C00080C
:1048F800600000201C050020611300080000000073
:104908009C550008AC550008044D000866000020BE
:10491800280000209942000800000000F454000814
:10492800FC540008BC4C0008620000200000000095
:084938000B3C00080000000028
:10494000000000006934000800000000693400081D
:10495000000000006934000800000000693400080D
:1049600000000000693400080000000069340008FD
:104970009C530008C50D000898530008C50D000899
:1049800094530008C50D000890530008C50D000899
:104990008C530008C50D00080000000069340008B1
:1049A00000000000693400080000000069340008BD
:1049B00000000000693400080000000069340008AD
:1049C000000000006934000800000000693400089D
:1049D000000000006934000800000000693400088D
:1049E000000000006934000800000000693400087D
:1049F000000000006934000888530008C50D000855
:104A0000000000006934000800000000693400085C
:104A1000000000006934000800000000693400084C
:104A2000000000006934000800000000693400083C
:104A3000000000006934000800000000693400082C
:104A4000000000006934000800000000693400081C
:104A5000000000006934000800000000693400080C
:104A600000000000693400080849000853420008AB
:104A700000000000693400080000000069340008EC
:104A800084530008C50D00080000000069340008C8
:104A900000000000693400080000000069340008CC
:104AA00000000000693400080000000069340008BC
:104AB00000000000693400080000000069340008AC
:104AC000000000006934000800000000693400089C
:104AD000000000006934000800000000693400088C
:104AE000000000006934000800000000693400087C
:104AF000000000006934000800000000693400086C
:104B0000000000006934000800000000693400085B
:104B1000000000006934000800000000693400084B
:104B2000000000006934000800000000693400083B
:104B3000000000006934000800000000693400082B
:104B4000000000006934000800000000693400081B
:104B5000000000006934000800000000693400080B
:104B600000000000693400080000000069340008FB
:104B700000000000693400080000000069340008EB
:104B800000000000693400080000000069340008DB
:104B900000000000693400080000000069340008CB
:104BA00000000000693400080000000069340008BB
:104BB00000000000693400080000000069340008AB
:104BC000000000006934000800000000693400089B
:104BD000000000006934000800000000693400088B
:104BE000000000006934000800000000693400087B
:104BF000000000006934000800000000693400086B
:104C0000000000006934000800000000693400085A
:104C1000000000006934000800000000693400084A
:104C2000000000006934000800000000693400083A
:084C30000000000069340008D7
:104C3800380100207009002000040000BD010008B0
:104C48000000000000000000000000000700000055
:104C5800000000000C4F00080000000000000000E9
:104C6800900000207005002000040000F1010008F9
:104C78000000000000000000000000000700000025
:104C880000000000004F00080000000000000000C5
:104C9800453A0008333800083F3800085138000802
:104CA8005B380008653800087D1300087338000871
:044CB80000000000F8
:104CBC000000000000000000E13B000800000000C4
:0C4CCC00000000000000000000000000DC
:104CD800DD3C0008FD3C00081B3D00083B3D00088A
:104CE8009F350008E3350008000000003510000873
:0C4CF8007936000800000000313600088A
:104D0400CD150008DD1500086D4000085114000899
:104D1400673F0008ED150008251600087B410008D0
:104D240091410008A7410008D7410008ED4100085F
:104D3400C7410008034200085D160008BD160008BC
:0C4D440013420008474200084B420008E0
:104D5000040000000F000000010000000800000037
:104D60002000000060000000700000001000000043
:104D70000C0000000E000000500000007400000055
:104D80009C000000FFFFFFFFFFFFFFFFFFFFFFFF93
:044D9000FFFFFFFF23
:104D940060000000010000005B4D61696E5D2052FF
:104DA400656365697665643A2025630A000000003E
:104DB400506C6561736520747970652031206F7261
:104DC4002032206F7220330A0000000055415254F3
:104DD40020646576696365206E6F74207265616412
:104DE400790A00006C656430206465766963652027
:104DF4006E6F742072656164790A00006C656431B9
:104E040020646576696365206E6F742072656164E1
:104E1400790A00006C6564322064657669636520F4
:104E24006E6F742072656164790A00004661696C72
:104E3400656420746F20636F6E66696775726520A0
:104E44006C6564300A0000004661696C6564207416
:104E54006F20636F6E666967757265206C65643177
:104E64000A0000004661696C656420746F20636FFA
:104E74006E666967757265206C6564320A000000AD
:104E8400554152542051756575652044656D6F20F8
:104E9400537461727465642E0A000000547970655D
:104EA4002031202D3E206C656430204F4E20666FEB
:104EB400722031207365636F6E640A0054797065E3
:104EC4002032202D3E206C656431204F4E20666FC9
:104ED400722031207365636F6E640A0054797065C3
:104EE4002033202D3E206C656431204F4E20666FA8
:104EF400722031207365636F6E640A007468726592
:104F04006164625F69640000746872656164615F12
:104F1400696400007C48000803000000D0480008D1
:104F24000E000000EC4800080500000072302F61FC
:104F3400313A2020307825303878202072312F61A2
:104F4400323A2020307825303878202072322F6190
:104F5400333A20203078253038780A0072332F61B4
:104F6400343A2020307825303878207231322F6955
:104F7400703A2020307825303878207231342F6C04
:104F8400723A20203078253038780A0020787073FF
:104F9400723A20203078253038780A004661756CE2
:104FA40074696E6720696E737472756374696F6E69
:104FB400206164647265737320287231352F7063C5
:104FC400293A203078253038780A0000556E686117
:104FD4006E646C6564204952516E3A2025640A005F
:104FE400535053454C20696E207468726561642087
:104FF4006D6F646520646F6573206E6F7420696ED5
:10500400646963617465205053500A002A2A2A2A6D
:105014002A204D5055204641554C54202A2A2A2AEC
:105024002A0A00002020537461636B696E6720654F
:1050340072726F722028636F6E7465787420617267
:105044006561206D69676874206265206E6F7420E5
:1050540076616C6964290A002020556E737461635B
:105064006B696E67206572726F720A00202044615A
:105074007461204163636573732056696F6C617456
:10508400696F6E0A0000000020204D4D46415220F9
:10509400416464726573733A20307825780A00009D
:1050A4002020496E737472756374696F6E20416356
:1050B400636573732056696F6C6174696F6E0A005F
:1050C4002020466C6F6174696E672D706F696E7411
:1050D400206C617A792073746174652070726573D1
:1050E4006572766174696F6E206572726F720A0000
:1050F4002A2A2A2A2A20425553204641554C542014
:105104002A2A2A2A2A0A00002020537461636B6920
:105114006E67206572726F720A0000002020507260
:1051240065636973652064617461206275732065C9
:1051340072726F720A0000002020424641522041E0
:105144006464726573733A20307825780A0000002D
:105154002020496D707265636973652064617461B0
:1051640020627573206572726F720A002020496E86
:10517400737472756374696F6E20627573206572DF
:10518400726F720A000000002A2A2A2A2A20555324
:10519400414745204641554C54202A2A2A2A2A0AA6
:1051A4000000000020204469766973696F6E2062F4
:1051B40079207A65726F0A002020556E616C6967E8
:1051C4006E6564206D656D6F7279206163636573CC
:1051D400730A000020204E6F20636F70726F636546
:1051E40073736F7220696E737472756374696F6E12
:1051F400730A00002020496C6C6567616C206C6F39
:105204006164206F66204558435F52455455524EA1
:1052140020696E746F2050430A0000002020496CFE
:105224006C6567616C20757365206F6620746865B2
:1052340020455053520A00002020417474656D705B
:105244007420746F206578656375746520756E6469
:105254006566696E656420696E73747275637469DA
:105264006F6E0A002A2A2A2A2A20484152442046DC
:1052740041554C54202A2A2A2A2A0A002020427501
:1052840073206661756C74206F6E20766563746F2D
:1052940072207461626C6520726561640A000000AA
:1052A40020204465627567206576656E740A000087
:1052B40020204661756C7420657363616C61746948
:1052C4006F6E20287365652062656C6F77290A000C
:1052D400415243485F4558434550542077697468A8
:1052E40020726561736F6E2025780A0A0000000041
:1052F4002A2A2A2A2A204465627567206D6F6E69FE
:10530400746F7220657863657074696F6E202A2AE1
:105314002A2A2A0A000000005265736572766564C1
:1053240020457863657074696F6E20280000000062
:1053340053707572696F757320696E7465727275D6
:105344007074202849525120000000002A2A2A2A79
:105354002A20257320256429202A2A2A2A2A0A0099
:10536400696E746572727570742D636F6E74726F8A
:105374006C6C6572403430303130343030000000B1
:105384000A060000050500000401000003010000F6
:10539400020100000101000000010000726363408B
:1053A4003430303231303030000000006770696FC3
:1053B4004034383030323030300000006770696F6C
:1053C4004034383030316330300000006770696F2A
:1053D4004034383030313830300000006770696F45
:1053E4004034383030313430300000006770696F39
:1053F4004034383030313030300000006770696F2D
:105404004034383030306330300000006770696FEA
:105414004034383030303830300000006770696F05
:105424004034383030303430300000006770696FF9
:10543400403438303030303030000000FFFF00009E
:1054440000200048080000004C000000000100009B
:10545400FFFF0000001C0048070000004C00000093
:1054640080000000FFFF0000001800480600000054
:105474004C00000040000000FFFF00000014004842
:10548400050000004C00000020000000FFFF0000A9
:1054940000100048040000004C0000001000000050
:1054A400FFFF0000000C0048030000004C00000057
:1054B40008000000FFFF0000000800480200000090
:1054C4004C00000004000000FFFF0000000400483E
:1054D400010000004C00000002000000FFFF00007B
:1054E40000000048000000004C0000000100000023
:1054F4006C6564730000000003000000045500089C
:10550400EC48000805000000D04800080E00000028
:105514007C48000803000000EC480008D04800085C
:10552400B4480008984800087C480008604800080F
:1055340044480008284800080C48000800000000FF
:105544000000000000000000000000000000000057
:105554000000000000000000000000000000000047
:105564000000000000000000000000000000000037
:105574000000000000000000000000000000000027
:1055840072657365742D636F6E74726F6C6C657283
:10559400000000000010024073657269616C4034C1
:1055A400303031333830300000380140B84700081B
:1055B400D44700080E080000D85500080100000078
:1055C400000000000000000000000000E05500089A
:1055D400C74200086000000000400000E8550008D1
:1055E40001000000F055000802000000C70200009E
:1055F40000020000E702000000000000A086010095
:10560400400D0300801A060000350C0040420F00D4
:1056140080841E0000093D0000127A000024F4007A
:1056240000366E010048E801006CDC020000000056
:1056340000000000010203040607080969646C65A0
:10564400000000006D61696E00000000184700084A
:1056540018470008A0470008A8470008B8470008F2
:10566400B84700082A2A2A20426F6F74696E67209F
:105674005A6570687972204F53206275696C642092
:1056840076342E332E302D363739302D673064344E
:10569400613733343030633039202A2A2A0A00280B
:1056A4006E756C6C29002A666C6F61742A000000A8
:1056B40008490008BB33000800000000A3340008B8
:1056C4000000000000000000FFFFFFFFFFFFFFFFDE
:1056D400FFFFFFFFFFFFFFFF34000020000000007A
:1056E4000000000000C201000001030000093D00A9
:0C56F400C800000044000020440000201A
:105700000000000000000000000000000000000099
:0C5710000000000000000000000000008D
:10571C006800002068000020010000000A00000062
:10572C00B01A0020BA1A0020B01A0020B01A0020BB
:08573C00000000000000000065
:0457440015E015E077
:0400000508000A499C
:00000001FF
