:020000040800F2
:10000000D021002011250008F7740008FD24000805
:10001000FD240008FD240008FD2400080000000065
:10002000000000000000000000000000DD250008C6
:10003000FD2400080000000085250008413D00085F
:100040005927000859270008592700085927000890
:100050005927000859270008592700085927000880
:100060005927000859270008592700085927000870
:100070005927000859270008592700085927000860
:100080005927000859270008592700085927000850
:100090005927000859270008592700085927000840
:1000A0005927000859270008592700085927000830
:1000B0005927000859270008592700085927000820
:1000C0005927000859270008592700085927000810
:1000D0005927000859270008592700085927000800
:1000E00059270008592700085927000859270008F0
:1000F00059270008592700085927000859270008E0
:1001000059270008592700085927000859270008CF
:1001100059270008592700085927000859270008BF
:1001200059270008592700085927000859270008AF
:10013000592700085927000859270008592700089F
:10014000592700085927000859270008592700088F
:10015000592700085927000859270008592700087F
:10016000592700085927000859270008592700086F
:10017000592700085927000859270008592700085F
:10018000592700085927000859270008592700084F
:10019000592700085927000859270008592700083F
:1001A000592700085927000859270008592700082F
:0C01B000592700085927000859270008AB
:1001C00081F0004102E000BF83F0004330B54FEA08
:1001D00041044FEA430594EA050F08BF90EA020F75
:1001E0001FBF54EA000C55EA020C7FEA645C7FEA08
:1001F000655C00F0E2804FEA5454D4EB5555B8BF2B
:100200006D420CDD2C4480EA020281EA030382EA9B
:10021000000083EA010180EA020281EA0303362D2D
:1002200088BF30BD11F0004F4FEA01314FF4801C00
:100230004CEA113102D0404261EB410113F0004F12
:100240004FEA03334CEA133302D0524263EB4303C9
:1002500094EA050F00F0A780A4F10104D5F1200E67
:100260000DDB02FA0EFC22FA05F2801841F10001C2
:1002700003FA0EF2801843FA05F359410EE0A5F196
:1002800020050EF1200E012A03FA0EFC28BF4CF0C7
:10029000020C43FA05F3C01851EBE37101F000457D
:1002A00007D54FF0000EDCF1000C7EEB00006EEB8A
:1002B0000101B1F5801F1BD3B1F5001F0CD3490814
:1002C0005FEA30004FEA3C0C04F101044FEA44526B
:1002D00012F5800F80F09A80BCF1004F08BF5FEAF2
:1002E000500C50F1000041EB045141EA050130BDD2
:1002F0005FEA4C0C404141EB0101013C28BFB1F5E4
:10030000801FE9D291F0000F04BF01460020B1FA2E
:1003100081F308BF2033A3F10B03B3F120020CDA01
:100320000C3208DD02F1140CC2F10C0201FA0CF0DF
:1003300021FA02F10CE002F11402D8BFC2F1200C44
:1003400001FA02F120FA0CFCDCBF41EA0C019040FA
:10035000E41AA2BF01EB0451294330BD6FEA040443
:100360001F3C1CDA0C340EDC04F11404C4F120022E
:1003700020FA04F001FA02F340EA030021FA04F340
:1003800045EA030130BDC4F10C04C4F1200220FA97
:1003900002F001FA04F340EA0300294630BD21FAD5
:1003A00004F0294630BD94F0000F83F4801306BF9B
:1003B00081F480110134013D4EE77FEA645C18BF8F
:1003C0007FEA655C29D094EA050F08BF90EA020F26
:1003D00005D054EA000C04BF1946104630BD91EA1E
:1003E000030F1EBF0021002030BD5FEA545C05D121
:1003F0004000494128BF41F0004130BD14F5800460
:100400003CBF01F5801130BD01F0004545F0FE41D3
:1004100041F470014FF0000030BD7FEA645C1ABF08
:10042000194610467FEA655C1CBF0B46024650EA3F
:10043000013406BF52EA033591EA030F41F400216B
:1004400030BD00BF90F0000F04BF0021704730B5F1
:100450004FF4806404F132044FF000054FF00001C6
:1004600050E700BF90F0000F04BF0021704730B587
:100470004FF4806404F1320410F0004548BF40425C
:100480004FF000013EE700BF42004FEAE2014FEAB1
:1004900031014FEA02701FBF12F07F4393F07F4F8C
:1004A00081F06051704732F07F4208BF704793F08F
:1004B0007F4F04BF41F40021704730B54FF46074A2
:1004C00001F0004521F000411CE700BF50EA0102A5
:1004D00008BF704730B54FF000050AE050EA01024E
:1004E00008BF704730B511F0004502D5404261EBBE
:1004F00041014FF4806404F132045FEA915C3FF4FF
:10050000D8AE4FF003025FEADC0C18BF03325FEA9B
:10051000DC0C18BF033202EBDC02C2F1200300FA4C
:1005200003FC20FA02F001FA03FE40EA0E0021FA71
:1005300002F11444BDE600BF70B54FF0FF0C4CF45F
:10054000E06C1CEA11541DBF1CEA135594EA0C0F11
:1005500095EA0C0F00F0DEF82C4481EA030621EA4C
:100560004C5123EA4C5350EA013518BF52EA033587
:1005700041F4801143F4801338D0A0FB02CE4FF039
:100580000005E1FB02E506F00042E0FB03E54FF069
:100590000006E1FB03569CF0000F18BF4EF0010E61
:1005A000A4F1FF04B6F5007F64F5407404D25FEA5D
:1005B0004E0E6D4146EB060642EAC62141EA555110
:1005C0004FEAC52040EA5E504FEACE2EB4F1FD0C52
:1005D00088BFBCF5E06F1ED8BEF1004F08BF5FEAD0
:1005E000500E50F1000041EB045170BD06F0004682
:1005F00046EA010140EA020081EA0301B4EB5C042F
:10060000C2BFD4EB0C0541EA045170BD41F4801126
:100610004FF0000E013C00F3AB8014F1360FDEBF4B
:10062000002001F0004170BDC4F10004203C35DA27
:100630000C341BDC04F11404C4F1200500FA05F3AA
:1006400020FA04F001FA05F240EA020001F000424B
:1006500021F0004110EBD37021FA04F642EB0601C1
:100660005EEA430E08BF20EAD37070BDC4F10C04EB
:10067000C4F1200500FA04F320FA05F001FA04F2AF
:1006800040EA020001F0004110EBD37041F100019B
:100690005EEA430E08BF20EAD37070BDC4F12005A6
:1006A00000FA05F24EEA020E20FA04F301FA05F20E
:1006B00043EA020321FA04F001F0004121FA04F2B6
:1006C00020EA020000EBD3705EEA430E08BF20EA86
:1006D000D37070BD94F0000F0FD101F000464000C0
:1006E00041EB010111F4801F08BF013CF7D041EA42
:1006F000060195F0000F18BF704703F00046520046
:1007000043EB030313F4801F08BF013DF7D043EA16
:100710000603704794EA0C0F0CEA135518BF95EACC
:100720000C0F0CD050EA410618BF52EA4306D1D153
:1007300081EA030101F000414FF0000070BD50EA72
:10074000410606BF1046194652EA430619D094EAFC
:100750000C0F02D150EA013613D195EA0C0F05D1E6
:1007600052EA03361CBF104619460AD181EA03013A
:1007700001F0004141F0FE4141F470014FF00000F2
:1007800070BD41F0FE4141F4780170BD70B54FF08D
:10079000FF0C4CF4E06C1CEA11541DBF1CEA13550D
:1007A00094EA0C0F95EA0C0F00F0A7F8A4EB0504EF
:1007B00081EA030E52EA03354FEA013100F08880E6
:1007C0004FEA03334FF0805545EA131343EA1263AF
:1007D0004FEA022245EA111545EA10654FEA002664
:1007E0000EF000419D4208BF964244F1FD0404F51D
:1007F000407402D25B084FEA3202B61A65EB030579
:100800005B084FEA32024FF480104FF4002CB6EB35
:10081000020E75EB030E22BFB61A754640EA0C00B5
:100820005B084FEA3202B6EB020E75EB030E22BFF5
:10083000B61A754640EA5C005B084FEA3202B6EB36
:10084000020E75EB030E22BFB61A754640EA9C00F5
:100850005B084FEA3202B6EB020E75EB030E22BFC5
:10086000B61A754640EADC0055EA060E18D04FEA83
:10087000051545EA16754FEA06164FEAC30343EA23
:1008800052734FEAC2025FEA1C1CC0D111F4801FF0
:100890000BD141EA00014FF000004FF0004CB6E7E9
:1008A00011F4801F04BF01430020B4F1FD0C88BF88
:1008B000BCF5E06F3FF6AFAEB5EB030C04BFB6EB93
:1008C000020C5FEA500C50F1000041EB045170BD86
:1008D0000EF0004E4EEA113114EB5C04C2BFD4EBB3
:1008E0000C0541EA045170BD41F480114FF0000E37
:1008F000013C90E645EA060E8DE60CEA135594EAB3
:100900000C0F08BF95EA0C0F3FF43BAF94EA0C0FB5
:100910000AD150EA01347FF434AF95EA0C0F7FF42A
:1009200025AF104619462CE795EA0C0F06D152EA7E
:1009300003353FF4FDAE1046194622E750EA410662
:1009400018BF52EA43067FF4C5AE50EA41047FF473
:100950000DAF52EA43057FF4EBAE12E780F00040A2
:1009600002E000BF81F0004142001FBF5FEA410387
:1009700092EA030F7FEA226C7FEA236C6AD04FEA87
:100980001262D2EB1363C1BFD218414048404140CC
:10099000B8BF5B42192B88BF704710F0004F40F47E
:1009A000000020F07F4018BF404211F0004F41F49A
:1009B000000121F07F4118BF494292EA030F3FD066
:1009C000A2F1010241FA03FC10EB0C00C3F1200379
:1009D00001FA03F100F0004302D5494260EB400008
:1009E000B0F5000F13D3B0F1807F06D340084FEA73
:1009F000310102F10102FE2A51D2B1F1004F40EB68
:100A0000C25008BF20F0010040EA030070474900CF
:100A100040EB0000013A28BFB0F5000FEDD2B0FA6C
:100A200080FCACF1080CB2EB0C0200FA0CF0AABF8F
:100A300000EBC25052421843BCBFD040184370472D
:100A400092F0000F81F4000106BF80F40000013233
:100A5000013BB5E74FEA41037FEA226C18BF7FEA0A
:100A6000236C21D092EA030F04D092F0000F08BF4C
:100A70000846704790EA010F1CBF0020704712F033
:100A80007F4F04D1400028BF40F00040704712F172
:100A900000723CBF00F50000704700F0004343F0D7
:100AA000FE4040F4000070477FEA226216BF08460D
:100AB0007FEA23630146420206BF5FEA412390EAD0
:100AC000010F40F4800070474FF0000304E000BFC6
:100AD00010F0004348BF40425FEA000C08BF704777
:100AE00043F0964301464FF000001CE050EA01023B
:100AF00008BF70474FF000030AE000BF50EA010250
:100B000008BF704711F0004302D5404261EB41013C
:100B10005FEA010C02BF84460146002043F0B64361
:100B200008BFA3F18053A3F50003BCFA8CF2083A86
:100B3000A3EBC25310DB01FA02FC634400FA02FC8F
:100B4000C2F12002BCF1004F20FA02F243EB020096
:100B500008BF20F00100704702F1200201FA02FCF8
:100B6000C2F1200250EA4C0021FA02F243EB0200EB
:100B700008BF20EADC7070474FF0FF0C1CEAD0522F
:100B80001EBF1CEAD15392EA0C0F93EA0C0F6FD0F0
:100B90001A4480EA010C400218BF5FEA41211ED0CE
:100BA0004FF0006343EA501043EA5111A0FB0131BA
:100BB0000CF00040B1F5000F3EBF490041EAD3718F
:100BC0005B0040EA010062F17F02FD2A1DD8B3F10B
:100BD000004F40EBC25008BF20F00100704790F07A
:100BE000000F0CF0004C08BF49024CEA502040EACC
:100BF00051207F3AC2BFD2F1FF0340EAC250704792
:100C000040F400004FF00003013A5DDC12F1190FCF
:100C1000DCBF00F000407047C2F10002410021FA41
:100C200002F1C2F1200200FA02FC5FEA310040F159
:100C3000000053EA4C0308BF20EADC70704792F0D2
:100C4000000F00F0004C02BF400010F4000F013A0A
:100C5000F9D040EA0C0093F0000F01F0004C02BF05
:100C6000490011F4000F013BF9D041EA0C018FE774
:100C70000CEAD15392EA0C0F18BF93EA0C0F0AD07A
:100C800030F0004C18BF31F0004CD8D180EA0100A0
:100C900000F00040704790F0000F17BF90F0004F39
:100CA000084691F0000F91F0004F14D092EA0C0F1B
:100CB00001D142020FD193EA0C0F03D14B0218BFAE
:100CC000084608D180EA010000F0004040F0FE40F4
:100CD00040F40000704740F0FE4040F44000704790
:100CE0004FF0FF0C1CEAD0521EBF1CEAD15392EA0F
:100CF0000C0F93EA0C0F69D0A2EB030280EA010CFF
:100D000049024FEA402037D04FF0805343EA111197
:100D100043EA10130CF000408B4238BF5B0042F1F5
:100D20007D024FF4000C8B4224BF5B1A40EA0C009A
:100D3000B3EB510F24BFA3EB510340EA5C00B3EBCC
:100D4000910F24BFA3EB910340EA9C00B3EBD10FBA
:100D500024BFA3EBD10340EADC001B0118BF5FEA0C
:100D60001C1CE0D1FD2A3FF650AF8B4240EBC25035
:100D700008BF20F0010070470CF0004C4CEA5020F6
:100D80007F32C2BFD2F1FF0340EAC250704740F445
:100D900000004FF00003013A37E792F0000F00F037
:100DA000004C02BF400010F4000F013AF9D040EAB5
:100DB0000C0093F0000F01F0004C02BF490011F449
:100DC000000F013BF9D041EA0C0195E70CEAD15341
:100DD00092EA0C0F08D142027FF47DAF93EA0C0F28
:100DE0007FF470AF084676E793EA0C0F04D14B020C
:100DF0003FF44CAF08466EE730F0004C18BF31F0BE
:100E0000004CCAD130F000427FF45CAF31F00043B7
:100E10007FF43CAF5FE700BF4FF0FF3C06E000BF50
:100E20004FF0010C02E000BF4FF0010C4DF804CD73
:100E30004FEA40024FEA41037FEA226C18BF7FEA83
:100E4000236C11D001B052EA530C18BF90EA010F85
:100E500058BFB2EB030088BFC81738BF6FEAE17014
:100E600018BF40F0010070477FEA226C02D15FEAB0
:100E7000402C05D17FEA236CE4D15FEA412CE1D01C
:100E80005DF8040B704700BF844608466146FFE7E3
:100E90000FB5FFF7C9FF002848BF10F1000F0FBDC5
:100EA0004DF808EDFFF7F4FF0CBF012000205DF8BE
:100EB00008FB00BF4DF808EDFFF7EAFF34BF012043
:100EC00000205DF808FB00BF4DF808EDFFF7E0FFDC
:100ED00094BF012000205DF808FB00BF4DF808ED2D
:100EE000FFF7D2FF94BF012000205DF808FB00BF90
:100EF0004DF808EDFFF7C8FF34BF012000205DF872
:100F000008FB00BF7BB972B90029BEBF00204FF0BB
:100F1000004106E008BF00281CBF6FF000414FF001
:100F2000FF3000F077B8ADF1080C6DE904CE002970
:100F300009DB002B1ADB00F0B4F8DDF804E0DDE992
:100F4000022304B07047404261EB4101002B1BDBE0
:100F500000F0A7F8DDF804E0DDE9022304B0404228
:100F600061EB4101524263EB43037047524263EB32
:100F7000430300F096F8DDF804E0DDE9022304B055
:100F8000404261EB41017047524263EB430300F082
:100F900088F8DDF804E0DDE9022304B0524263EB97
:100FA0004303704753B94AB9002908BF00281CBF42
:100FB0004FF0FF314FF0FF3000F02CB8ADF1080CCE
:100FC0006DE904CE00F06DF8DDF804E0DDE9022300
:100FD00004B07047D0B5FFF757FA0C4B0022064615
:100FE0000F46FFF7A9FA00F017F80446FFF72AFAB0
:100FF000074B0022FFF7A0FA02460B46304639465F
:10100000FFF7E2F800F008F82146D0BD0000F03DFF
:101010000000F041704700BF4A0011D212F50012E3
:1010200011D20DD56FF47873B3EB62520ED44FEA40
:10103000C12343F0004343EA505323FA02F07047C0
:101040004FF00000704750EA013002D14FF0FF30FE
:1010500070474FF00000704710F8012B11F8013B6A
:10106000012A28BF9A42F7D0D01A7047034611F8D8
:10107000012B03F8012B002AF9D1704710B500218C
:101080000446FFF717FF20B92046BDE81040FFF7E0
:10109000A1BF04F10040FFF79DFF404261EB410119
:1010A00010BD2DE9F04786468C460846089E154639
:1010B00074461946002B40F0C2808542B2FA82F293
:1010C00045D94AB1C2F1200300FA02FC2EFA03F31B
:1010D000954043EA0C0C94404FEA154EA8B2BCFB75
:1010E000FEF8230C0EFB18CC08FB00F943EA0C4376
:1010F000994528D9EB1808F1FF3704D2994502D950
:10110000A8F102072B44A3EB0903A4B2B3FBFEFC36
:101110000EFB1C330CFB00F044EA0344A04214D93C
:101120002C190CF1FF3304D2A04202D9ACF1020316
:101130002C44241A43EA07401EB1D44000233460F3
:101140007360BDE8F0874746DDE76346F1E792BB91
:10115000431B01214FEA154EAFB2B3FBFEFC200C3E
:101160000EFB1C330CFB07F840EA0343984562D999
:10117000EB180CF1FF3004D2984502D9ACF1020013
:101180002B44A3EB0803A4B2B3FBFEFC0EFB1C3301
:101190000CFB07F744EA0344A7424ED92C190CF183
:1011A000FF3304D2A74202D9ACF102032C44E41B62
:1011B00043EA0040C0E7C2F1200320FA03F1954062
:1011C00090402EFA03F303434FEA154EAFB2B1FB42
:1011D000FEFC0EFB1C10190C0CFB07F841EA004149
:1011E000884504FA02F422D969180CF1FF3004D2C0
:1011F000884502D9ACF102002944A1EB08019BB259
:10120000B1FBFEFC0EFB1C110CFB07F743EA01438C
:101210009F420ED9EB180CF1FF3104D29F4202D944
:10122000ACF102012B44DB1B41EA004192E760462E
:10123000E3E76146F7E76046A3E76346B7E7834223
:1012400006D916B9002108467BE7C6E900E0F9E7B0
:10125000B3FA83F78FB9834201D3724508D8BEEB46
:10126000020460EB030301209C461EB9002168E7DD
:101270003846FAE7C6E9004CF8E7C7F1200CBB4056
:1012800022FA0CF41C432EFA0CF120FA0CF3B840AD
:1012900001434FEA14490EFA07F5B3FBF9F81FFAB8
:1012A00084FE09FB18300B0C08FB0EFA43EA0043DE
:1012B0009A4502FA07F240D9E31808F1FF3004D248
:1012C0009A4502D9A8F102002344A3EB0A0389B28C
:1012D000B3FBF9F809FB183308FB0EFE41EA0341A2
:1012E0008E452CD9611808F1FF3304D28E4502D9FE
:1012F000A8F10203214443EA0040A0FB0298A1EBBD
:101300000E014145CE46434602D306D14D4504D297
:10131000B9EB020E68EB04030138002EA6D0B5EB42
:101320000E0261EB030101FA0CFC22FA07F34CEA0E
:101330000303F940C6E9003198E74046C5E7434654
:10134000D9E700000000000010B50468E21753015F
:1013500043EAD4636101091B63EB02035B0243EAC6
:10136000D1534902091942EB030C4FEA8C1E4EEA95
:10137000916E8B015B1A6EEB0C0E1B1942EB0E0289
:1013800041685B1842EBE172012B72F100011ADB3C
:10139000D91842EB0200CB1842EB0002110141EADE
:1013A00013711801C01A61EB0201890041EA9071C2
:1013B0008000154BC01812A3D3E9002341F10001AE
:1013C000FFF7A0FD10BDD91842EB0200CB1842EB8D
:1013D0000002110141EA13711801C01A61EB020108
:1013E000890041EA90718000084BC01804A3D3E93A
:1013F000002361F10001FFF785FDE3E7AFF3008013
:10140000D8EF2F0000000000ECF717001408E8FFE9
:1014100038B50446002A43D0072A45D11D68E9178C
:101420004A0142EAD5624FEA451CBCEB050C62EB6F
:101430000102520242EADC524FEA4C2C1CEB050C32
:1014400041EB02004FEA801E4EEA9C6E4FEA8C127E
:10145000B2EB0C026EEB000E521941EB0E01586814
:10146000131841EBE071012B71F100020DDB124802
:1014700018180FA3D3E9002341F10001FFF742FD43
:101480000146204601F0BCFF10E00C48181808A3E4
:10149000D3E9002361F10001FFF734FD0146F0E7D5
:1014A000198807F0CEFB01E06FF0850038BD00BF62
:1014B0003AA39500000000009DD14A00632EB5FFBD
:1014C0002DE9F8430C4617461D46032800F2D78045
:1014D000DFE800F002274B6F1068FFF7F9FA2946A2
:1014E000FFF74AFBFFF7CAFD0546C017684BA5FB8F
:1014F000035603FB006664A3D3E900232846314664
:10150000FFF700FD2060634A002328463146FFF7BD
:10151000F9FC604A0023FFF7F5FC62600020BDE89B
:10152000F8835068FFF7D4FA2946FFF725FBFFF749
:10153000A5FD0546C017564BA5FB035603FB0066E9
:1015400051A3D3E9002328463146FFF7DBFC206096
:10155000504A002328463146FFF7D4FC4D4A002369
:10156000FFF7D0FC62600020D9E79068FFF7B0FA7F
:101570002946FFF701FBFFF781FD0546C017444BE5
:10158000A5FB035603FB00663FA3D3E900232846CF
:101590003146FFF7B7FC20603E4A0023284631461B
:1015A000FFF7B0FC3B4A0023FFF7ACFC6260002071
:1015B000B5E71068FFF78CFA2946FFF7DDFAFFF769
:1015C0005DFD8046C017324EA8FB069806FB0088DA
:1015D0002DA3D3E9002348464146FFF793FC206042
:1015E0002C4A002348464146FFF78CFC294A002339
:1015F000FFF788FC62607868FFF76AFA2946FFF710
:10160000BBFAFFF73BFD8046C017A8FB069806FB18
:1016100000881DA3D3E9002348464146FFF772FC2A
:10162000A0601C4A002348464146FFF76BFC194A5C
:101630000023FFF767FCE260B868FFF749FA294624
:10164000FFF79AFAFFF71AFD0546C017A5FB0653E8
:1016500006FB00360CA3D3E9002328463146FFF7EA
:1016600051FC20610B4A002328463146FFF74AFC13
:10167000084A0023FFF746FC626100204FE76FF045
:1016800085004CE7AFF300800010A5D4E80000000F
:101690003AA3950040420F002DE9F0410D46174650
:1016A0001E460438032800F29581DFE800F0024569
:1016B00087C91069FFF70CFA3146FFF75DFACC498C
:1016C000FFF70EFBFFF7DAFC0246C017931840EB5A
:1016D00000069C1840EB0606360246EA1466240211
:1016E000A41A66EB0006F60146EA5466E401A41A61
:1016F00066EB0006B60046EA9476A400A41A66EBF0
:101700000006F60046EA5476E400B5A3D3E90023C8
:1017100020463146FFF7F6FB2860B3A3D3E9002348
:1017200020463146FFF7EEFBB24A0023FFF7EAFB03
:101730006A600020BDE8F0815069FFF7C9F93146C1
:10174000FFF71AFAAA49FFF7CBFAFFF797FC024610
:10175000C017931840EB00069C1840EB06063602B3
:1017600046EA14662402A41A66EB0006F60146EA6D
:101770005466E401A41A66EB0006B60046EA9476C5
:10178000A400A41A66EB0006F60046EA5476E400CC
:1017900093A3D3E9002320463146FFF7B3FB28602B
:1017A00091A3D3E9002320463146FFF7ABFB914AD2
:1017B0000023FFF7A7FB6A600020BBE79069FFF7F3
:1017C00087F93146FFF7D8F98949FFF789FAFFF71A
:1017D00055FC0246C017931840EB00069C1840EBDE
:1017E0000606360246EA14662402A41A66EB0006D0
:1017F000F60146EA5466E401A41A66EB0006B60058
:1018000046EA9476A400A41A66EB0006F60046EABF
:101810005476E40072A3D3E9002320463146FFF753
:1018200071FB286070A3D3E9002320463146FFF7FF
:1018300069FB704A0023FFF765FB6A60002079E7C7
:101840001069FFF745F93146FFF796F96849FFF748
:1018500047FAFFF713FC0246C017931840EB000845
:101860009C1840EB08084FEA082848EA146824024C
:10187000A41A68EB00084FEAC81848EA5468E40163
:10188000A41A68EB00084FEA880848EA9478A40094
:10189000A41A68EB00084FEAC80848EA5478E40044
:1018A0004FA3D3E9002320464146FFF72BFB2860D6
:1018B0004DA3D3E9002320464146FFF723FB4D4AC1
:1018C0000023FFF71FFB6A607869FFF701F93146D3
:1018D000FFF752F94649FFF703FAFFF7CFFB03463C
:1018E000C017DC1840EB0008E41840EB08084FEA8A
:1018F000082848EA14682402E41A68EB00084FEA52
:10190000C81848EA5468E401E41A68EB00084FEA92
:10191000880848EA9478A400E41A68EB00084FEAC3
:10192000C80848EA5478E4002DA3D3E900232046F0
:101930004146FFF7E7FAA8602BA3D3E9002320462E
:101940004146FFF7DFFA2B4A0023FFF7DBFAEA6094
:10195000B869FFF7BDF83146FFF70EF92449FFF7E4
:10196000BFF9FFF78BFB0246C017931840EB000648
:101970009C1840EB0606360246EA14662402A41AB6
:1019800066EB0006F60146EA5466E401A41A66EB2B
:101990000006B60046EA9476A400A41A66EB000698
:1019A000F60046EA5476E4000DA3D3E9002320466E
:1019B0003146FFF7A7FA28610BA3D3E9002320469D
:1019C0003146FFF79FFA0B4A0023FFF79BFA6A6143
:1019D0000020AFE66FF08500ACE600BFAFF30080FB
:1019E00000209BF35E10000080A8120100000000A0
:1019F0000000204140420F002DE9F04182B0044632
:101A000090461F460F4A002340463946FFF77AFAB0
:101A100006460D460B4A002340463946FFF772FA48
:101A20001946002B0ADB0092019132462B462146D3
:101A3000054805F043FD02B0BDE8F081524263EB7A
:101A40004301F0E740420F0090D700082DE9F04F26
:101A500089B001908B4625E0A94803F025FA594644
:101A6000A84805F02BFD09B0BDE8F08F5946A648FF
:101A700005F024FDA24803F017FA642005F097FC56
:101A800010E05946A14805F019FD9D4803F00CFAF5
:101A9000642005F08CFC05E0994803F005FA642009
:101AA00005F085FC4FF0FF324FF0FF33944803F010
:101AB0007BF9974B1B78002BCED15946954805F002
:101AC000FDFC4FF47A7005F072FC93488368DB6884
:101AD0004C2198470028C9DB8F4883681B6902AAFC
:101AE000032198470028CCDB02A805F03FFC0646FE
:101AF000894604A805F03AFC0546884606A805F084
:101B000035FC04460F46DFF814A2DAF80020013253
:101B1000CAF800208248036841689B1949EB01011B
:101B2000036041607F48036841685B1948EB01012D
:101B3000036041607C48036841681B1947EB010161
:101B4000036041605946794805F0B8FC32464B467F
:101B50007748FFF751FF774E304605F0AFFC2A4635
:101B600043467548FFF748FF304605F0A7FC22467C
:101B70003B467248FFF740FF714805F09FFC019813
:101B800005F0EAFBDAF80030092B85DD644B1A68B2
:101B90005968CC1704F0030522F07043100F40EA97
:101BA000011020F07040034403EB11632B4465489F
:101BB000A0FB035626F0030505EB96055B1B24F0FE
:101BC00003042344D21A61EBE3714FF0CC3302FBE0
:101BD00003F300FB0131A2FB00230B44DC0FA4182C
:101BE00043F1000364085D1044EAC3744D4B1A6866
:101BF0005968CE1706F0030722F07043100F40EA31
:101C0000011020F07040034403EB11633B444D4846
:101C1000A0FB037C2CF0030707EB9C07DB1B26F0E3
:101C200003063344D21A61EBE3714FF0CC3302FB6D
:101C300003F300FB0131A2FB00230B44DE0FB618B7
:101C400043F1000376085F1046EAC376364B1A6804
:101C500058684FEAE07C0CF0030E22F07041130F3D
:101C600043EA001323F07043194401EB10617144FF
:101C7000344BA3FB01E828F0030E0EEB980EA1EB0A
:101C80000E012CF0030C6144521A60EBE1714FF02D
:101C9000CC3002FB00F003FB0101A2FB03230B4449
:101CA0004FEAD37818EB020843F100034FEA5808D3
:101CB00048EAC3784FEA63090A21234805F0FEFB8E
:101CC00022462B462148FFF797FE1D4C204605F083
:101CD000F5FB32463B461E48FFF78EFE204605F0D8
:101CE000EDFB42464B461B48FFF786FE204605F0BB
:101CF000E5FB194805F0E2FB054B01221A70CBE623
:101D000004040020A0D70008DCD70008F8D700089A
:101D10008C0C0020B8D70008D4CF00087008002031
:101D200028040020200400201804002010D80008F7
:101D300064D8000824D800086CD8000874D80008BB
:101D400028D80008CDCCCCCC34D8000860D8000806
:101D500068D8000870D8000878D800082DE97043CA
:101D600088B02F4805F0AAFB2E480AF07FFB002818
:101D70003FD02D480AF07AFB002840D02B480AF0CB
:101D800075FB00283FD04FF4B011294805F0D9FA6F
:101D900000283CDB4FF4B011264805F0D2FA0028A9
:101DA00039DB4FF000084FF00009234DCDE90689DB
:101DB00000240494052603960294204B01931C4BA7
:101DC00000932B464FF480621D491E480AF038FCF0
:101DD000CDE906890494039602941B4B0193154B9D
:101DE00000932B464FF48062184919480AF028FCEA
:101DF00002E0184805F062FB08B0BDE870831648A1
:101E000005F05CFBF8E7154805F058FBF4E71448CB
:101E100005F054FBF0E7134805F050FBECE700BF7A
:101E2000A0D80008D4CF000810CF0008BCCE00080E
:101E3000B0D90008A8D900084D1A000890D90008A8
:101E400090100020D80400209CD90008900C00209D
:101E500030040020CCD8000818D9000834D9000874
:101E600050D9000870D9000808B5024B1B68984784
:101E700008BD00BF00000020014B1860704700BF84
:101E80000000002000B585B00A46002300930193AE
:101E90000293039302238DF80230044B0193014611
:101EA000684604F0C5F905B05DF804FB691E00083A
:101EB00080B505460E461746984603F047FE034692
:101EC00000F05AFC0446DFF8189049F8003042460A
:101ED00039463046A84754F8090000F039FB00BFE6
:101EE00008000000034A536823F0020353600020F7
:101EF000704700BF002004E0084B1A6842F40072EB
:101F00001A601A6842F480621A601A6842F4807299
:101F10001A60034B034A1A60704700BF002002405A
:101F2000C403002000093D0008B50348034A121A03
:101F3000002105F0D2FA08BD18040020900C002002
:101F400008B50648064A121A064905F0CAFA0648B4
:101F5000064A121A064905F0C4FA08BD000000201E
:101F60001804002024E500080000002000000020E4
:101F700024E5000810B504468368426801680948F2
:101F800005F09CFA63692269E168074805F096FA52
:101F9000E169064805F092FAA169054805F08EFA54
:101FA00010BD00BFB8D90008E8D9000818DA000849
:101FB00028DA000838B504460D4611B10846FFF787
:101FC000D9FF012C04D02946204602F09BFD38BDE4
:101FD000EFF305811039024805F070FAF3E700BF0E
:101FE00058DA000830BFFFF7FDBF00BF38B5044620
:101FF000054D2A4605490AF0A3FC054A002160194F
:102000000AF0ACFC38BD00BF00000000E4D40008BA
:102010000400000070B50646064D074B1D444C1BDE
:102020002046FFF7E3FF083CC6F8984005F108009A
:1020300070BD00BF0000000004000000054B5A699D
:102040009B689A4204D0044A536843F0805353601B
:10205000704700BF500C002000ED00E081690D4B7F
:102060005A6942F480725A61BFF34F8FBFF36F8F8A
:1020700031F8021C5A6922F480725A61BFF34F8F03
:10208000BFF36F8F4DF60273994201D00020704765
:102090000120704700ED00E04FF0000C83F800C015
:1020A00002F07F4CBCF17F4F12D102F00C0CBCF15E
:1020B000080F04D012F0080F07D00846704708B583
:1020C000044805F0FBF9002008BD01221A70704792
:1020D000002070476CDA0008F8B505460F46144634
:1020E000324805F0EBF9324B9B6A13F0100F31D1F7
:1020F00010262F4B9B6A13F0080F30D12C4B9B6A94
:1021000013F0020F30D12A4B9B6A13F0010F43D119
:10211000274B9B6A13F0200F43D1254B9B6A13F08A
:10212000100F01D1224B9B6A214B9B6A13F0200FA9
:1021300004D01F4A536A23F4005353621C4A936A23
:1021400043F0FF0393620121284605F0DAF920707D
:102150003046F8BD174805F0B1F91126C9E7164811
:1021600005F0ACF91226C9E7144805F0A7F9104BA1
:10217000596B9B6A13F0800F01D11326C3E71048F7
:1021800005F09CF937B10A4A936A23F08003936201
:102190001326B8E71326B6E70A4805F08FF9142688
:1021A000B6E7094805F08AF91526B6E798DA000877
:1021B00000ED00E0B0DA0008E4DA0008F8DA000820
:1021C00014DB00082CDB00084CDB0008F8B50546E2
:1021D0000F4614462F4805F071F92F4B9B6A13F4F4
:1021E000805F25D116262C4B9B6A13F4006F24D1F7
:1021F000294B9B6A13F4007F24D1274B9B6A13F46D
:10220000806F37D1244B9B6A13F4807F37D1224BE8
:102210009B6A13F4005F37D11F4A936A43F47F43EC
:1022200093620121284605F06CF920703046F8BD14
:102230001A4805F043F91726D5E7194805F03EF985
:102240001826D5E7174805F039F9134B996B9B6AA7
:1022500013F4004F01D11926CFE7134805F02EF9EA
:1022600037B10D4A936A23F4004393621926C4E7F9
:102270001926C2E70D4805F021F91A26C2E70C48D5
:1022800005F01CF91B26C7E70A4805F017F91C26BC
:10229000C2E700BF7CDB000800ED00E094DB000833
:1022A000E4DA0008A8DB0008C4DB0008DCDB000877
:1022B000F8DB00084CDB000808B5244805F0FEF800
:1022C000234B9B6A13F0007F21D11D20204B9B6A7A
:1022D00013F0807F20D11E4B9B6A13F4002F20D176
:1022E0001B4B9B6A13F4802F20D1194B9B6A13F46C
:1022F000003F20D1164B9B6A13F4803F20D1144A33
:10230000936A6FEA03436FEA1343936208BD11486F
:1023100005F0D4F81E20D9E70F4805F0CFF81F20AC
:10232000D9E70E4805F0CAF82120D9E70C4805F096
:10233000C5F82220D9E70B4805F0C0F82320D9E7DB
:10234000094805F0BBF82420D9E700BF14DC0008D9
:1023500000ED00E030DC000844DC000860DC000830
:1023600080DC0008A8DC0008C4DC000870B5064664
:102370000D46264805F0A2F800232B70244BDC6A9A
:1023800014F002040AD1224BDB6A002B0BDB204B3A
:10239000DC6A14F080440AD1204670BD1D4805F067
:1023A0008DF80024F8E71C4805F088F8F4E71B488E
:1023B00005F084F83046FFF751FE98B9144B9B6A3C
:1023C00013F0FF0F14D1124B9C6A14F47F4416D102
:1023D0000F4B9B6AB3F5803FDED33046FFF76CFFAF
:1023E0000446D9E731680E4805F068F83468D3E749
:1023F0002A4601213046FFF76FFE0446CCE72A4605
:1024000001213046FFF7E2FE0446C5E7F0DC000894
:1024100000ED00E008DD00082CDD00083CDD0008D0
:102420005CDD000808B500230B70024805F046F893
:1024300008BD00BF7CDD000808B50A460F2905DC91
:102440000349103A034805F039F808BD0249F8E796
:10245000A4DD0008D8DD0008BCDD000830B58BB075
:102460001F4B5D68C5F30805002383F31188BFF394
:102470006F8F0DF12603FFF70FFE04460DF12702C3
:10248000294605F040F89DF827300BB10BB030BD60
:1024900005460DF1040C20686168A268E368ACE8A9
:1024A0000F0020696169A269E369ACE80F009DF83B
:1024B00026304BB1089BC3F308025AB96FEA532385
:1024C0006FEA4323089305E0089B23F4FF7323F08E
:1024D0000103089301A92846FFF76CFDD6E700BF6A
:1024E00000ED00E0044B5A6942F010025A615A694B
:1024F00022F008025A61704700ED00E0EFF3088017
:10250000EFF3098101B57246FFF7A8FF01BD00BFD7
:102510000C4880F3088800200B490870102080F3D5
:1025200011880A484FF40061401880F30988EFF3DE
:1025300014800221084380F31488BFF36F8F00F0EA
:102540008FF80000D02100208D0C00209014002076
:1025500008B50A4B9B68834202D003F0FDFA08BD20
:10256000EFF30583002BF8D0054B5A6842F08052F8
:102570005A605A6A22F400425A62EEE7500C002078
:1025800000ED00E012498A684FF030001044EFF38C
:10259000098C80E8F01F102080F31288BFF36F8F42
:1025A0000C4F4FF000664A698A603E60D2F898008E
:1025B000094C2060D2F89C000023C2F89C3080F3C4
:1025C000118802F1300090E8F01F8CF30988704701
:1025D000500C002004ED00E0740800201EF0040FF1
:1025E0000CBFEFF30880EFF30980816911F8021C3A
:1025F0000229FFD001B5724604F077FF01BD00BF8C
:10260000002807DB00F01F02400901239340024A23
:1026100042F82030704700BF00E100E0002808DBEE
:102620000901C9B200F1604000F5614080F8001373
:10263000704700F00F000901C9B2014B19547047EF
:1026400014ED00E0044B23F07F03044A9360BFF3D2
:102650004F8FBFF36F8F70470000000800ED00E060
:1026600008B5FFF7EFFF0B4AD2F8883023F4700368
:10267000C2F88830EFF3148323F0040383F3148843
:10268000BFF36F8FFFF750FCFFF75AFC00F04AF8DA
:1026900002F052FB00ED00E010B4A2F120040E495C
:1026A00042F8081C21F0010142F8081C42F8203CC5
:1026B000019B42F81C3C029B42F8183C039B42F8E9
:1026C000143C4FF0807342F8043C04650023C0F8CA
:1026D0009C3010BC704700BFB11E000800B50E460C
:1026E00015460B4B9860D0F898200A4B1A602C4680
:1026F00086F309880020044B9847204600210022D9
:102700000023024C2047000079750008B11E000824
:10271000500C002074080020014B10221A617047F1
:1027200000ED00E0002206E003F00F030949194420
:1027300010230B7601325E2A0ADC53B2002BF3DB46
:1027400003F1604303F56143102183F80013F1E7BF
:10275000704700BFFCEC00E008B5EFF30583103BC9
:10276000044A02EBC301496852F833008847FFF777
:1027700065FC08BD7CD00008014800687047000077
:102780007408002008B5024B1B689847002008BD5C
:1027900078080020034B1860034A937843F0020343
:1027A00093707047780800200400002008B506499F
:1027B00021F00701C1F1005202F54032034804F054
:1027C00039FE002008BD00BFD72500207C0800206E
:1027D00000B583B0094B93E8030002AB03E90300A3
:1027E000074B9B681B682BB169460548984703B0A7
:1027F0005DF804FB6FF05700F9E700BFE8D400086C
:10280000F8CD000800F01F02012393403F2811D8A3
:102810001F2807D8084A5269934301D00020704707
:1028200001207047044A526B934301D00020704747
:1028300001207047002070470004014000F01F0293
:10284000012393403F2809D81F2803D8054A536124
:1028500000207047034A5363002070476FF0150053
:10286000704700BF00040140002399420ADD10B404
:1028700000EB030C044C04F80C2001339942F7DC04
:1028800010BC7047704700BF14000020F8B5074621
:10289000002401E00134E4B27B78A34217D93D78EB
:1028A00066193046FFF7AEFF0028F3D03046FFF739
:1028B000C5FF074B53F83620002AEBD006F01F0562
:1028C00003EBC60359680120A8409047E2E7F8BD32
:1028D0008808002001F0030C0CF102020A4B53F8A7
:1028E00022200B0C22EA114193FAA3F34BB1B3FA65
:1028F00083F3984001430CF1020C034A42F82C1078
:1029000070472023F5E700BF0000014000F00303FB
:102910000233074A52F82320030C02EA104093FACC
:10292000A3F31BB1B3FA83F3D84070472023FBE72E
:102930000000014008B5034668B1B0FA80F2C2F168
:102940001F02D2B205498856054A11680B4313602D
:1029500004F0FEFD08BDFF22F4E700BF14000020D4
:1029600000040140024A136823EA00031360704721
:1029700000040140032926D8DFE801F0020C151EEF
:10298000114B9A6822EA00029A60DA6822EA000291
:10299000DA6070470C4B9A6802439A60DA6822EA60
:1029A0000002DA607047084BDA680243DA609A681E
:1029B00022EA00029A607047034B9A6802439A60C9
:1029C000DA681043D86070470004014010B498B131
:1029D000B0FA80F3C3F11F03DBB29C460D4850F8F8
:1029E000330088420AD088B90A4B43F83C1003EB05
:1029F000CC035A6010BC7047FF23EEE7054C04EB94
:102A0000C3035B689342EED10020F3E76FF00F0041
:102A1000F0E700BF8808002060B1B0FA80F3C3F18E
:102A20001F03DBB2044A002142F8331002EBC30259
:102A300051607047FF23F5E788080020104B1B68A2
:102A400013F4806F0ED10E4A136843F48073136041
:102A500001E0012B06D00A4B1B6813F48063F8D009
:102A60000123F6E7064A936823F0030343F00103CA
:102A70009360034B9B6803F00C03042BF9D1704760
:102A8000001002401C4B1B6813F4806F0ED11A4AD1
:102A9000136843F48073136001E0012B06D0164BDA
:102AA0001B6813F48063F8D00123F6E7124AD2F8CA
:102AB000943043F00103C2F8943001E0012B07D0B9
:102AC0000D4BD3F8943013F00203F7D00123F5E750
:102AD0000949D1F8982042F00102C1F8982001E09C
:102AE000012A07D0044AD2F8982012F00202F7D047
:102AF0001A46F5E7704700BF0010024070B50C465B
:102B00001546404B1E680121304604F0C2FD238863
:102B1000C3F30B03013B5F2B6ED8DFE803F044588F
:102B20005B5F666240696B6D464F6D6D6D6D6D6D7F
:102B30006D6D6D6D6D6D6D6D6D6D6D6D6D6D6D6DC5
:102B40006D6D6D6D6D6D6D6D6D6D6D6D6D6D6D6DB5
:102B50006D6D6D6D6D6D6D6D6D6D6D6D6D6D6D6DA5
:102B60006D6D6D6D6D306D6D6D306D6D6D3E6D6D3E
:102B70006D6D6D6D6D406D6D6D406D6D6D422E6056
:102B80002368B3F5805F3AD32A68C3F31333013364
:102B9000B2FBF3F22A60002030E02E60F0E72860FC
:102BA000EEE72860ECE72E60EAE700F0B3F80223D6
:102BB0002822042104F066FD2860E1E700F0AAF86D
:102BC00002232822042104F05DFD2860D8E70023B9
:102BD0002B60D5E74FF4FA432B60D1E70A4B2B600B
:102BE000CEE704F059FD2860CAE7084B2B60C7E721
:102BF0002E60C5E72E60C3E76FF0850070BD002032
:102C0000FCE700BFC40300200024F400006CDC02D9
:102C100010B51B4B9B6803F00C030C2B05D0184A16
:102C2000136823F08073136008E0FFF707FF144A6E
:102C3000936823F0F0039360F1E733B1104B1B6806
:102C400013F00073F9D00123F7E70D4CE36823F488
:102C5000C003E360E36843F48013E36000F05EF8D0
:102C6000236843F08073236001E0012B06D0044BFE
:102C70001B6813F00073F8D00123F6E710BD00BF06
:102C80000010024038B500F073F81E4C204604F0E6
:102C90008FFD01F077FE1C4B9B68C3F303131B4AA7
:102CA000D35C20FA03F513781C41A54222D3FFF729
:102CB000E9FEFFF7ADFF144B9A6822F0F0029A602C
:102CC0009A6842F003029A600F4B9B6803F00C0372
:102CD0000C2BF9D1A54211D20D4B0A4A1A600A4BAE
:102CE0009A6822F4E0629A609A6822F460529A60CC
:102CF000002038BD204601F09FFED8E7204601F0B5
:102D00009BFEE9E700B4C40400100240DCE30008C5
:102D1000C4030020004870470024F40008B5104A9E
:102D2000D2F8803023F48073C2F8803004F041FD83
:102D30000C4BD9680C4A0A4040F4205040F0300057
:102D40000243DA60DA6842F48012DA60D968074A2E
:102D50000A400243DA60DA6842F08072DA6008BD45
:102D600000700040001002400C809FFF0C80FFF9B3
:102D700082B0064B9A6D42F080529A659B6D03F0CB
:102D800080530193019B02B0704700BF00100240C6
:102D900010B504460A2806D0E1B2064883685B688D
:102DA0009847204610BD034883685B680D2198470B
:102DB000F2E700BF48CF000810B5044C2046FFF7EB
:102DC000E9FC2046FFF758F810BD00BF912D000820
:102DD00008B5054809F04AFB18B1FFF7EDFF0020E0
:102DE00008BD6FF01200FBE748CF000808B5436844
:102DF00041B103F10C010B4B9B681B685BB10948A7
:102E0000984708BD03F10C01064B9B685B682BB12A
:102E100004489847F5E76FF05700F2E76FF0570066
:102E2000EFE700BFF8CD000808B5044A536843F443
:102E300000735360024904F0E1FC08BD00700040DB
:102E40007D7900082DE9F84380460F4616461C465A
:102E5000D0F80490D9F8080004F0F4FBB6F5001F90
:102E60000FD00546B6F5800F2DD0B4F1806F26D077
:102E7000B4F1C06F25D0B4F1007F09D06FF0150414
:102E80001AE03946D9F8080004F0A7FE002413E040
:102E9000022642460F492846FFF798FD0446A8B986
:102EA000D9F80810384604F0D2FB31462846FFF71F
:102EB00061FD2846FFF73EFD2046BDE8F883012668
:102EC000E7E70326E5E76FF08504F5E76FF00F0409
:102ED000F2E700BF9F780008104B984213D00AD940
:102EE0000F4B984215D003F5C31303F520639842A6
:102EF00011D10A2070470B4B984206D00A4B9842DA
:102F000005D104207047062070470220704700203A
:102F10007047082070470020704700BF40420F00F4
:102F200040E13300A0860100801A0600F0B583B0AE
:102F30000E4643680569DF68002201925968194B03
:102F40009B68DB6853B3044601AA164898470028DB
:102F500024DB2E6205F110064FF0FF324FF0FF33F5
:102F6000304602F03BF83B6823F001033B6095F8E4
:102F70005210204604F0E9FE0199204600F054F872
:102F8000044695F851301BB13B6843F001033B60A8
:102F9000304601F0DFFF204603B0F0BD6FF00404BF
:102FA000F9E700BFF8CD000810B54468002160695A
:102FB00004F000FF002807DB6168054B9B681B6875
:102FC0001BB10348984700B910BD6FF00400FBE740
:102FD000F8CD0008104B984213D00AD90F4B9842F5
:102FE00015D003F5C31303F52063984211D10A20CD
:102FF00070470B4B984206D00A4B984205D10420EB
:103000007047062070470220704700207047082054
:1030100070470020704700BF40420F0040E133007E
:10302000A0860100801A06002DE9F84F8A464768FD
:10303000D0F81090D7F80CB0002400E00134FB6900
:10304000A3421AD9BE6904EB44054FEA850806EB92
:1030500085056868FFF7BEFFD9F820305B0883EA72
:10306000500313F0070FE9D156F808305345E5D166
:10307000AB68CBF81030002049E0D9F82030C3F31A
:103080004203012B0BD0022B47D140F2145C4FF4CA
:1030900016774FF4FA7640F2771501210BE041F2F2
:1030A0005C2C4FF47A6740F2E2464FF4FA75F4E78D
:1030B00001310F292FD8BAFBF1F21B4BB3FBF2F30E
:1030C000B7FBF3F2BCFBF3F0B5FBF3F4B6FBF3F3A1
:1030D000013AFF2AECD80138FF28E9D80F2C18D87C
:1030E000013B0F2B15D84D1E1B0503F4700343EA5B
:1030F0000573240404F470242343120292B2134390
:10310000C0B203430F290BD8CBF810300020BDE824
:10311000F88F0131CDE70023F4E76FF01500F6E7F3
:103120006FF01500F3E700BF00CA9A3BB0F5D07FFF
:1031300017D2F8B504460D46164603090A4A52F856
:1031400023705FB1384609F091F938B133462A4609
:1031500004F00F01384604F058FDF8BD6FF012007E
:10316000FBE76FF0150070472CE0000830B585B024
:1031700004468C469646104B0FCB04AD05E90F0074
:103180001CF4007F03D06FEA8C5C6FEA9C5C04AB9C
:1031900003EB8E0E5EF8103C03FB0CFC074A82FB2F
:1031A0000C324FEAEC73C3EBA2432360044A02FBE8
:1031B00013C3636005B030BDF0D4000883DE1B4349
:1031C00040420F0000B500690D2923D0102947D1D6
:1031D00041790379C91AB0F900C0B0F90AE0ACEB43
:1031E0000E0C0CFB01F1B0F90C00A0EB0E0091FBF2
:1031F000F0F10B4403EBD37149101160002B03F085
:103200000103B8BF5B42184901FB03F35360002080
:103210005DF804FB0189C388C91AB0F902C0B0F98E
:103220000EE0ACEB0E0C0CFB01F1B0F91000A0EBC2
:103230000E0091FBF0F10B441946002B0EDBC91078
:103240001160594203F0070301F0070158BF4B42D8
:10325000064901FB03F353600020D9E7D91DEEE7CF
:103260006FF08500D4E700BF20A1070048E8010007
:1032700070B582B0054646680DF10701304609F089
:10328000ACF8002831DB9DF80730BC2B2FD100248F
:10329000022C09D819491A4B53F83400FDF7DCFE0B
:1032A00010B10134E4B2F3E7032C23D0144B03EB49
:1032B000C4031979304609F05EF8002815DB0121B6
:1032C000304609F071F800280FDB0121304609F083
:1032D0008BF8002809DB1E20002102F0D7FB2846CE
:1032E00005F0DAF9002800DB002002B070BD6FF0B5
:1032F0001500FAE76FF01500F7E700BFECE00008F3
:1033000024E1000803690E2916D00D292CD1B3F948
:103310000430174880FB0310D917C1EB601108B2C5
:103320001060642000FB11331BB242F2107101FBEC
:1033300003F35360002070471B6818130D4981FB8D
:10334000001CD917C1EBAC01116001EB8101A0EBAE
:1033500041000949C3F30B0301FB03F31B1301FBFA
:1033600000335360002070476FF08500704700BF46
:103370001F85EB5167666666A086010000230B2B54
:1033800008D8064A32F81320824201D00133F6E70A
:10339000184670476FF01500704700BFB0E1000895
:1033A0000B2802D941F608207047024B33F8100071
:1033B000704700BFB0E100080023032B08D8064A7D
:1033C00032F81320824201D00133F6E718467047E5
:1033D0006FF01500704700BFA8E100080023042B20
:1033E00008D8064A32F81320824201D00133F6E7AA
:1033F000184670476FF01500704700BF94E1000851
:1034000070B5054606690846FFF7D6FF041E17DBB0
:10341000E1B2284605F0B8FB002813DB0B4B33F86C
:1034200014301801C01A61EB0101890041EA907162
:103430008000C01841F10001FDF760FBF06000243E
:10344000204670BD6FF00404FAE700BFA0E1000859
:1034500070B5064604690846FFF7C0FF051E22DB6B
:10346000E9B2304605F0B7FB00281EDB104B33F8FD
:10347000152013019B182CBF01210021C900DB007E
:10348000981841F1000189008000801A61F1000163
:10349000C90041EA5071C000801A61F10001FDF7D6
:1034A0002DFBE0610025284670BD6FF00405FAE7AA
:1034B00088E1000870B582B00446056905F094FC07
:1034C00000284FDB2B6A9B680DF107020F21204675
:1034D0009847002849DB9DF807306A2B48D1002126
:1034E000204605F051FB002845DB2F4BEB60002107
:1034F000204605F05AFB002840DB0421204605F059
:103500006AFB00283DDB294BEB610021204605F0DA
:1035100082FB002838DB2B6ADE68002307220A21A1
:103520002046B047002832DB2B6ADE68442346225F
:1035300012212046B04700282CDB2B6ADE681023BE
:103540001A4615212046B047002826DB2B6ADD6885
:1035500080231A4616212046A847002820DB002099
:1035600002B070BD6FF00400FAE76FF00400F7E7F7
:103570006FF00400F4E76FF00400F1E76FF004006F
:10358000EEE76FF00400EBE76FF00400E8E76FF0A0
:103590000400E5E76FF00400E2E76FF00400DFE706
:1035A0006FF00400DCE700BF0000744200B88845FB
:1035B00008B50269436805491162586808F056FF6A
:1035C00008B1002008BD6FF01200FBE7C8E1000859
:1035D00038B5836805699C697CB112F4000F06D088
:1035E0002D6801238B401D4201D082F0C062044B44
:1035F000134002F0B072A04738BD6FF05700FBE7F0
:103600004000000670B5044645680669E86808F0A1
:103610002DFF30B34FF4803105F10C0005F001FDB2
:103620002A7C01239340134A3263736306F12C0111
:10363000E86805F01DFD002816DB336ADD6803230A
:103640001A460D212046A847002810DBB4620A4B19
:10365000736460684FF0B8610C3005F0ADFC002079
:1036600070BD6FF01200FBE76FF00400F8E76FF039
:103670000400F5E7C7900008A190000803690F292E
:103680000CD0242916D0C9B2502929D04D3904298B
:1036900063D8DFE801F046392C625C00B3F8703182
:1036A000642B04D80123136000205060704700236E
:1036B0001360F9E7B3F870012949A1FB00C0800944
:1036C0001060B3F87031A1FB030189094FF47A70DF
:1036D00000FB11339BB200FB03F3536000207047E3
:1036E000B3F87C311B0A1360002050607047D3F898
:1036F00078118BB21B4800FB03F31B0C03EB114347
:103700001360002050607047D3F874118BB21548D5
:1037100000FB03F31B0C03EB11431360002050600C
:103720007047B3F872010E49A1FB00C08009106018
:10373000B3F87231A1FB030189094FF47A7000FBE1
:1037400011339BB200FB03F353600020704793F8E2
:10375000803113600020506070476FF08500704723
:10376000D34D621040420F002DE9F84306460C4647
:1037700043681D680369D3F800900B79012B17D0BB
:10378000022B18D14FF480616279012A18D0022AE5
:1037900018D092B14FF4005794F80680B8F1020F98
:1037A00013D0B8F1040F16D0002B62D1002014E022
:1037B0004FF4C061E8E70021E6E74FF48057EBE7FC
:1037C0000027E9E74FF44057E6E70BB1002004E09B
:1037D0004FF0805001E04FF48050A3F1030C5FFAEA
:1037E0008CFCBCF1010F65D913B1B8F1040F64D0A2
:1037F000B7F5805F42D0B7F5405F41D0002F3BD096
:1038000003239A425CD105F0FCFE80455BD1E3794D
:10381000D3B1012B36D0032B58D1314B9D4213D05D
:10382000A3F574439D420FD003F580639D420BD0F6
:1038300003F580639D4207D003F580639D4203D06A
:1038400003F540539D4244D12B6823F001032B60C4
:103850002146304605F0EAFE00283DDB2B6843F0A8
:1038600001032B6094E8030089E803000020BDE811
:10387000F8834FF48050B0E70123C2E70023C0E78C
:103880000223BEE7164A9542DED0A2F57442954265
:10389000DAD002F580629542D6D002F58062954278
:1038A000D2D002F580629542CED002F540529542C8
:1038B000B1D1C9E76FF08500D9E76FF08500D6E791
:1038C0006FF08500D3E76FF08500D0E76FF08500DB
:1038D000CDE76FF08500CAE76FF08500C7E700BF4E
:1038E0000038014008B5024A05F0A4FF08BD00BF3A
:1038F0009598000808B5024A05F0AFFF08BD00BF63
:103900009B980008F8B5064645682C6803691F684F
:10391000236823F001032360A86808F0A7FD0028AE
:1039200078D0E968A86805F02DFE54E8003F43F020
:103930000C0344E80032002AF7D13946304605F03E
:1039400075FE002869DB2B7E1BB1A36843F00803DA
:10395000A3606B7E1BB1636843F400436360AB7E7E
:103960001BB1636843F480336360EB7E1BB1636813
:1039700043F4003363602B7F83B32B4B9C4213D003
:10398000A3F574439C420FD003F580639C420BD097
:1039900003F580639C4207D003F580639C4203D00B
:1039A00003F540539C423BD173681A68936843F413
:1039B000804393606A7F236823F0787343EA42531D
:1039C0002360AA7F236823F4F81343EA02432360A9
:1039D000EB7F1BB1A36843F40043A36095F820304C
:1039E0001BB1236843F000532360236843F00103B5
:1039F000236000E033B9E36913F40013FAD0012324
:103A0000F8E72AB9E26912F48002FAD01A46F8E718
:103A10000020F8BD6FF01200FBE76FF01500F8E72B
:103A20006FF01500F5E700BF003801402DE9F043C5
:103A300083B00D461746D0F804800669D8F80040D8
:103A400033688B4226D0B1F80490C9F3451106F0D3
:103A500067F8002800F0D88019F4004F2ED1636871
:103A600023F010036360D8F808106A4B9B68DB688A
:103A70004BB301AA67489847002824DB00239C46E3
:103A8000072B23D85A1C0198D040296881421DD2A7
:103A90001346F4E78B8813F4006F06D03AB123681D
:103AA00023F4444343F440432360002087E0236829
:103AB00023F4444343F400432360F6E7636843F090
:103AC00010036360CFE76FF0040078E0BCF1070FEC
:103AD00000F29D80226822F0400222604E4A52F895
:103AE0002320236823F0380313432360AB8813F0AB
:103AF000020F17D0236843F002032360AB8813F052
:103B0000040F14D0236843F001032360AB8813F43F
:103B1000006F18D087B1236823F4444343F4404333
:103B2000236014E0236823F002032360E6E72368A0
:103B300023F001032360E9E7236823F4444343F4BB
:103B40000043236003E0236823F444432360AB88ED
:103B500013F0100F36D0236843F0800323602368EE
:103B600023F4005323602B7D23B998F8183013F009
:103B7000040F2CD0236843F400732360636823F0A0
:103B800004036360AB8813F0010F38D0236823F47B
:103B900082732360AB88C3F34513043B1F4A52F87A
:103BA0002330626822F4706213436360012386F855
:103BB0005C30636843F4805363603560002003B079
:103BC000BDE8F083236823F080032360C7E7AB8858
:103BD00013F0010F08D0236823F400732360636897
:103BE00023F004036360CDE7236823F4007343F4F8
:103BF00080232360636843F004036360C2E72368A3
:103C000043F482732360C5E76FF08500D7E76FF058
:103C10001500D4E7F8CD000844E2000834E30008BA
:103C200038B50446056943685B699847284606F03D
:103C30000BF90249204605F0EDFE38BD413C000875
:103C4000F8B5044607694668032903D8DFE801F0A0
:103C50001D05342F6FF085052FE0002106F084FA52
:103C6000051E2ADBB168164B9B681B6853B11448CC
:103C70009847054608BB384606F04AFA00281CDA81
:103C800005461AE06FF0570517E0B1680C4B9B68CA
:103C90005B684BB10A489847054670B90121204638
:103CA00006F062FA054608E06FF0570505E00121CD
:103CB00006F05AFA054600E000252846F8BD00BF88
:103CC000F8CD00084FF0E023996918699A6909B99D
:103CD0000C4B19680AB90B4B1A6810F4803F01D1DC
:103CE000914208D208490B680648006803440B60FB
:103CF0004FF0E0231B69034B1B689B1A024A1068B4
:103D0000184470474C0C0020480C0020094B10222E
:103D100083F82320084B4FF4FA521A600020074B17
:103D200018604FF0E02341F63F725A619861072214
:103D30001A61704700ED00E04C0C0020480C002098
:103D4000684620F007018D4619B5FFF7BBFF124802
:103D50000368124A516814681B1941F1000113608D
:103D60005160002202600E490A68981A0D4BA3FBAD
:103D70000030400A4FF4FA5300FB03F3D2184B68AB
:103D800043F100030A604B6002F016F9FEF756F9A2
:103D9000BDE8194085467047480C00208805002082
:103DA00080050020D34D6210F8B500294DD0B0F148
:103DB000FF3F3FD03F4B1C6801284EDD40F63103EA
:103DC0009842A8BF1846461EEFF31185102383F3CF
:103DD0001288BFF36F8FFFF775FF4FF0E0239F69E5
:103DE000354A13685168C31841F1000113605160EE
:103DF0000021324A1160324A11685A1A2FD44FF406
:103E0000FA5000FB062202F5F9521F322D4EA6FB96
:103E10000262520AC91A00FB02110A46B1F5806F0C
:103E200038BF4FF48062284B994236D9214B264A3D
:103E30001A6018E04FF0E022136923F001031361C8
:103E40001C4B4FF07F421A6026E01A4B1C68B0F101
:103E5000FF3FB1D14FF40360B0E70026B4E7154B44
:103E60004FF480621A604FF0E0239969114A12689A
:103E7000013A5A6100229A618F4211D2641A3C447D
:103E80000D4A136851681B1941F10001136051601C
:103E900085F31188BFF36F8FF8BD064B1A60E2E718
:103EA0007F1A054A13685168DB1941F1000113605C
:103EB0005160EDE74C0C002088050020480C0020E4
:103EC00080050020D34D621000DCFF0038B5EFF311
:103ED0001185102383F31288BFF36F8F084B1C6882
:103EE000084B1B68E41AFFF7EDFE204485F31188A8
:103EF000BFF36F8F044BA3FB0030400A38BD00BFF7
:103F00008805002080050020D34D621038B5EFF3FE
:103F10001185102383F31288BFF36F8F044B1C6845
:103F2000FFF7D0FE204485F31188BFF36F8F38BDB3
:103F30008805002015290AD8064BCB4013F0010F45
:103F400002D16FF0070070470174002070476FF0D6
:103F5000070070470B00300070B592B00546002294
:103F6000882105F055FA002385F8F0304FF47A7275
:103F7000A5F852214FF4C872A5F85421674AC5F834
:103F80005821674AC5F8D4202B6202A9284606F0BA
:103F900031FB0446A8B900238DF808308DF80930AC
:103FA00005F110060DF1080CBCE80F000FC6BCE8C7
:103FB0000F000FC6BCE80F000FC69CE80F0086E894
:103FC0000F006423A5F834314FF46173A5F836313E
:103FD0004FF4FA73A5F838314FF42063A5F83C315B
:103FE000012685F8506132468021284605F010FAF6
:103FF000044364B23246FF21284605F009FA04431F
:1040000064B200221146284605F002FA044364B265
:104010000DF107029121284605F02BFA044364B202
:104020009DF8073085F83A3132460021284605F0E0
:10403000EFF9044364B20022FF21284605F0E8F9B5
:10404000044364B200228021284605F0E1F90443CC
:1040500064B20026052E09DC44B90122B1B228461B
:1040600006F0CEF9204344B20136F3E71CB18CB11F
:10407000204612B070BD00220221284606F0C0F989
:1040800004460028F4D100220321284606F0B8F99E
:104090000446ECE700220421284606F0B1F9044664
:1040A0000028E5D100220521284606F0A9F904469A
:1040B0000028DDD14FF490120021284606F0F8F9CF
:1040C00004460028D4D14FF480420121284606F04E
:1040D000EFF904460028CBD14FF40C1202212846F8
:1040E00006F0E6F904460028C2D100220321284642
:1040F00006F0DEF904460028BAD1FF2285F8302107
:104100000121284605F084F9012385F8323104465F
:104110000028ADD1002385F81531A9E7856B010092
:10412000A47009002DE9F0418EB005460C460C2321
:104130000AAA142105F054F90646002840F09080A0
:104140000023A37523609DF832209DF8330000EB17
:10415000022080B263609DF82E309DF82F2002EB84
:10416000032292B25202E2609DF830109DF8313085
:1041700003EB01239BB25B0223619DF82A109DF89B
:104180002B3003EB01239BB2A3829DF82810B5F8D6
:1041900052C195F83171BCF57A7F26D000FB0CFC3A
:1041A0000CF5FA7C354880FB0CE04FEAEC7CCCEB5C
:1041B000A01C1FFA8CF0D5F820E095F81C80B8F10F
:1041C000000F12D01FFA8EF003FB00F04FEA202EF2
:1041D000B2EB202F48D01FFA8CFC02FB0CFCA2EBA8
:1041E0000E0EBCFBFEFC1FFA8CF0002F3FD08708A0
:1041F0002781C0B28001E0750DF137000190009475
:10420000284607F069FF304346B24EBB9DF837E0C1
:1042100084F818E003AF05F1500CBCE80F000FC79D
:104220009CE8070087E807002389ADF81430E37D98
:104230008DF823306389ADF8163063680493E36822
:10424000069323690793A38AADF820308DF824E004
:10425000503503AC0FCC0FC594E8070085E8070084
:1042600030460EB0BDE8F0812FB948F6E02020813D
:104270000020E075C0E742F2B820B8E7D34D6210E5
:1042800070B582B0064614461D460DF106020E2199
:1042900005F027F9BDF80610094A02EA41422260FA
:1042A00008B102B070BD0DF106020C21304605F0D8
:1042B00018F9BDF80620024B03EA42432B60F0E7F1
:1042C0000000FE1F70B582B090F8DA30013BDBB21F
:1042D000022B03D90025284602B070BD04460E46C5
:1042E0006B4601AA0121FFF7CBFF0546019BB3F501
:1042F0007F0F03D8009BB3F57F0FECD9002DEAD1D7
:104300002EB11149204607F069FE0546E3E7042275
:10431000FF21204605F07CF805436DB20022702194
:10432000204605F075F805436DB20022FF212046B6
:1043300005F06EF805436DB200228021204605F09D
:1043400067F805436DB2C6E70801002030B597B0A5
:1043500005464022002106A808F000FB0023ADF826
:1043600016308DF815308DF814300493012128464D
:1043700006F0B9FF95F8131195F81421012A03D816
:1043800013D0AAB90C2913D905AA04A9284606F006
:10439000C8FD38B995F8503173B9D5F84C11284695
:1043A00007F01CFE50B117B030BD2029ECD8E8E76B
:1043B000284606F032FCECE74A49F0E7002100917C
:1043C00004230A46284606F050FA0028EBD10122C1
:1043D000FF21284605F01CF804460DF11602842141
:1043E000284605F07EF8044364B20022FF212846E7
:1043F00005F00EF8044360B20028D4D1BDF81630A1
:104400001B01C5F8D43006A9284606F0F3F80028A9
:10441000C9D10DF11501284605F0D9FE0028C2D1F9
:104420009DF8153085F8313105F110040DF1180CA7
:10443000BCE80F000FC4BCE80F000FC4BCE80F00BD
:104440000FC49CE80F0084E80F000DF11502012154
:10445000284605F00EF80028A5D19DF8153085F8FE
:10446000303100221146284605F0CDFE00289AD1B1
:1044700000220221284605F0C6FE002893D103231E
:1044800085F832310DF10F020021284605F0B7FE04
:10449000002888D19DF80F3085F8E8300DF10F0223
:1044A0000121284605F0ABFE00287FF47CAF9DF883
:1044B0000F3085F8E03002AA0321284607F0EBF917
:1044C00000287FF470AF029BC5F8E43002AA0421F3
:1044D000284607F0E0F900287FF465AF029BC5F895
:1044E000DC3060E7C00200208009044B53F8203024
:1044F0000BB1012070470020704700BFB4030020BB
:10450000014801FB00F07047002F3A0010B50C463F
:104510001146FFF7F5FF00F5FA73064AA2FB0323E5
:104520009809DB094FF47A7202FB0433B3FBF0F015
:1045300010BD00BFD34D621010B50C461146FFF7F9
:10454000DFFF00F5FA70064BA3FB0020800904FB97
:1045500000F000F5FA70A3FB0030800910BD00BF29
:10456000D34D62102DE9F041079C089F099EB0F8D9
:104570005451D0F8580100FB05FC0CF1800C4FEAB7
:104580001C2C0CFB05F510465AB1520802EB812198
:10459000B1FBF0F101EB410101FB01F101F500413B
:1045A000080C069A03FB02F202F50042120C02FB11
:1045B00002F204F500431B0C03332649A1FB03134D
:1045C0009B08C3EBC303B3F5803F3FD2E31C2149F3
:1045D000A1FB03139B08C3EBC30303F500431B0CB0
:1045E00003FB03F3134403EB5703B3FBF7F39B0302
:1045F0007F335B08184AA2FB03239B0903FB00F4EB
:1046000004F5FA74154BA3FB0424A409240104F552
:10461000FA74A3FB04239F0905F12000800906F02A
:1046200027FE8046B4F57A7F12D30C4BA3FB0434EB
:1046300005EBD415B5FBF7F006F01AFEC6F80080BE
:10464000804500D930600020BDE8F081044BC9E707
:104650000020F1E7ABAAAAAA09040281D34D621097
:104660000000F0FF2DE9F04F8FB006468946069214
:104670000793036A0D930B694FF47A7404FB03F3F9
:104680000893CB6809930CAA07F017FD0DAA4946B9
:10469000304607F0FAFC8046DDF830B004FB0BF73B
:1046A00007F500473B0C05930D9B03FB04F4B4F5A1
:1046B000481F01D94FF44814B8F1000F38D1D6F88B
:1046C000DC300A9396F8E0502A4619463046FFF748
:1046D0001DFF8246D6F8E4300B9396F8E820194681
:1046E0003046FFF713FF082D33D003230AEB0005F4
:1046F00003FB05F5ED0205F5FA756F4BA3FB0525E8
:10470000AD0940F2776202FB05F505F5FA75A3FBEA
:104710000535AD090BF1800B4FEA1B230C9305FB0C
:1047200003FA0AF1800A4FEA1A2A2BF0FF030C93CE
:10473000B8F1000F09D1059B6BB9604B069A136065
:10474000C6F840310023079A136040460FB0BDE819
:10475000F08F0223CAE7BAF1000F01D14FF0010A2E
:10476000089B4FEA13484FEA0848059BB8FBF3F350
:10477000534A934200D913464FF4167202FB03F8D2
:104780000AEB4A00800006F073FD4FEA400BB9F8CF
:1047900008304C4A02FB03F33F0C3F04A7EB4404F0
:1047A00004F5FA74444AA2FB0414A40907F5FA7745
:1047B000A2FB0727BF092402B4FBF7F4240299F8EF
:1047C0001820002A60D1404AA2FB03239B0AC4F5AB
:1047D000803403FB04F404F50044240C04F5803415
:1047E000640804FB04F4A40B4FF4487004FB00F0CD
:1047F00000F50040000C08F500431B0C03FB03F31D
:1048000000FB003006F034FD030432332F4AA2FBD4
:1048100003235B09B3FBFBF340F6B53141F2883269
:1048200001FB03232A4FA7FB03277F0B294A93424F
:1048300001D94FF470470A9B0B9A134403F5FA739E
:10484000DFF87490A9FB03239809DB0903F5C8136B
:10485000B3FBF0F006F00CFD000200F5FA70A9FBC6
:104860000090800900FB00F007FB070006F000FD48
:104870004FF47A7303FB00F0BAF1000F07D00F4B2F
:10488000984205D90D4803E04FF48034ACE70B485B
:10489000069B1860C6F84001079B03930295CDF86C
:1048A00004804FF4487300932346099A0C993046CC
:1048B000FFF758FE804648E7D34D6210AE878F025F
:1048C000666666009A990600517BC6371F85EB51D4
:1048D0005917B7D10F279F2470B582B005460C46F3
:1048E0000A460DF1060107F019FDE8B99DF80630FA
:1048F0005BB1222B01D8202B19D1262B1DD81C4BA4
:1049000007CB20606160A26004E01A4B07CB2060F7
:104910006160A260184B03CB2062616204F1600207
:10492000C021284604F0A5FD90B102B070BD134B24
:1049300007CB20606160A260ECE7114E0FCE2060D3
:104940006160A260E3603068206133792375E1E73C
:104950000DF10702C221284604F08BFD012384F8E3
:1049600061309DF807301B0984F86230DDE700BF35
:1049700080E3000868E30008A4E3000874E300088B
:104980008CE30008284A9368D26802F0030213F00F
:104990000C030AD00C2B06D0042B1FD0082B20D0E0
:1049A0000020024610E0012AF6D11F4A126812F0D8
:1049B000080F0CD11C4AD2F89420C2F303221B49E1
:1049C00051F8222043B100200C2B0DD07047164A1D
:1049D0001268C2F30312F2E71046F5E7144800220A
:1049E000F2E714480022EFE70F4BDB6803F0030304
:1049F000022B16D0032B00D10E4A0B49CB68C3F310
:104A000003130133C868C0F3062002FB00F0B0FBBB
:104A1000F3F0CB68C3F3416301335B00B0FBF3F009
:104A2000D4E7034AE9E700BF00100240ACE3000806
:104A30000024F40000127A00421E274B9A4249D803
:104A4000264B1B6803F4C063B3F5007F0BD0244BE7
:104A5000984229D8234B984235D8234B984235D8D1
:104A60000021084622E0214B98420ED8204B984264
:104A70000ED8204B98420ED81F4B98420ED81F4B91
:104A800098420ED80021084610E0052100200DE0D4
:104A9000042100200AE00321002007E00221002079
:104AA00004E00121002001E000210120144A1368E4
:104AB00023F00F030B431360136803F00F039942B5
:104AC00007D00120704702210020EFE701210020DC
:104AD000ECE7704701207047FF0D2707007000408A
:104AE00080BA8C010024F40000127A0000E1F50580
:104AF00000B4C40400879303005A6202002D310100
:104B00000020024038B5EFF31185102383F312889B
:104B1000BFF36F8F054B9C6807F0C0FC85F31188CD
:104B2000BFF36F8F2046FDF713FD38BD500C0020FA
:104B300010B586B0A823104C03FB004400EB800C9A
:104B40000E4B03EB8C030E4A0592012204920F22B6
:104B5000039200220292019200930A4B4FF4A0723A
:104B6000094901EB8C11204600F0C4FB237C23F0A3
:104B70000403237406B010BD90050020500C0020E3
:104B8000ECE30008A3C40008901C002038B50546DB
:104B90000B4B53F8204002E02368984708346B1C05
:104BA000074A52F82330A34209D960680028F3D09D
:104BB000037E13F0010FF1D107F03FFCEEE738BDA3
:104BC000FCE3000808B553EA020102D100F09AFFA5
:104BD00008BD0249183001F055F9F9E7BFC70008D0
:104BE00010B586B0184C14E0636A0593236A0493E9
:104BF000E3690393A36902936369019323690093B3
:104C0000E368A2686168206800F074FB23685C6553
:104C100030340E4B9C42E7D300F052FE0A4C00E0C9
:104C200030340A4B9C420BD2A26AE36AB3F1FF3FD5
:104C300008BFB2F1FF3FF3D02068FFF7C3FFEFE7F3
:104C400000F056FE06B010BD74D3000874D30008FF
:104C500008B50A4B01221A700320FFF797FF01F0F5
:104C60002DFA0420FFF792FFFFF7BAFFFDF776F861
:104C7000034A938923F00103938108BD8D0C002022
:104C80003806002008B50146014A0248FDF726FD16
:104C9000514C00083806002010B50446FFF748FFC5
:104CA000A8230A4903FB0411094A04EB840302EB1D
:104CB0008303D9601C74074B03EBC42303F5006323
:104CC00004EB840402EB8402536010BD90050020C5
:104CD000500C00209014002070B586B000F040FE0B
:104CE000104D114B5D61114B05930123049300247A
:104CF00003940294019400940D4B4FF480620D498B
:104D0000284600F0F7FA06462B7C23F004032B74A8
:104D1000284607F01FFD2046FFF7BEFF304606B0CD
:104D200070BD00BF38060020500C0020F4E30008DE
:104D3000514C0008D01D002008B50020FFF726FFC9
:104D4000164B83F30888164C636943F40073636160
:104D5000F02384F822300023E37723766376A3766A
:104D600084F82030636A43F4E0236362FDF7BAFB02
:104D7000FDF7D2FC4FF0FF33A362E362094800F075
:104D80001BFBFDF7B9F80120FFF700FF0220FFF73A
:104D9000FDFEFFF7A1FFFFF775FF00BF901C00208D
:104DA00000ED00E0E00600202DE9F04182B004466D
:104DB000EFF31187102181F31288BFF36F8FC16861
:104DC00099B9002950D1364B9B6893F90E30236175
:104DD0000131E160324B9B68A36087F31188BFF318
:104DE0006F8F002002B0BDE8F08116461D46826834
:104DF0002B4B9B689A42E4D055EA060136D092F9D3
:104E00000E80414693F90E0007F058FB804534DCD4
:104E10004FF000080096019522463946214800F0DF
:104E200061FC0028DED0EFF31185102383F3128894
:104E3000BFF36F8FA36843B323689C4223D013B39F
:104E4000216993F90E0007F039FB0146204607F06F
:104E500040FBE8B9B8F1000F1AD185F31188BFF310
:104E60006F8F6FF00A00BDE72369B0E787F3118801
:104E7000BFF36F8F6FF00F00B4E70146204607F0D5
:104E800028FB8046C6E72169E0E7B8F1000FE4D0CF
:104E90002946044800F0E8FC6FF00A00A2E700BFD2
:104EA000500C0020740C0020F8B58368002B47D00C
:104EB0000446264A9268934245D1C368012B04D91F
:104EC000013BC36000252846F8BDEFF3118610238F
:104ED00083F31288BFF36F8F016907F0FAFA27682E
:104EE000BC420CD03D1E18BF012557B9A760CDB9F3
:104EF0000023E36086F31188BFF36F8FE3E7002799
:104F0000F0E77A683B6813605A6000233B607B607F
:104F10003A7C22F002023A74BB6007F1180007F0F5
:104F2000DCFCE3E797F90E3023610025C7F8A050B9
:104F3000384607F00FFC3146054800F095FCC2E703
:104F40006FF01505BFE74FF0FF35BCE7500C0020B0
:104F5000740C0020F8B50446EFF31187102383F397
:104F60001288BFF36F8F0568A84212D02E1E18BF9B
:104F7000012685B906BBA368E268934224D00122CA
:104F80001344A36000230BBB87F31188BFF36F8F1B
:104F9000F8BD0025EAE76A682B6813605A600023B1
:104FA0002B606B602A7C22F002022A74AB6005F150
:104FB000180007F092FCDDE70023C5F8A030284672
:104FC00007F0C8FB0123DEE70022D9E73946024893
:104FD00000F04AFCDCE700BF740C002010B582B082
:104FE000EFF31181102484F31288BFF36F8F84686C
:104FF00044B1013C846081F31188BFF36F8F0020BE
:1050000002B010BD53EA020406D00092019302469A
:10501000054800F067FBF3E781F31188BFF36F8F5A
:105020006FF00F00ECE700BF740C002080B338B5C0
:105030000D4604461C4B9A68D0F8A8309A421BD003
:1050400000231A46D4F8C430C3F38001C3F3C00070
:1050500013F0010F1FD001B102B300B109B3002357
:105060002B60D4F8B03073B11D60C4F8B050204646
:1050700007F05CFA012038BD07F0D1FA08B9012326
:10508000DFE70023DDE7C4F8B050C4F8AC50EEE72A
:105090006FF0150070476FF01200ECE76FF00F0033
:1050A000E9E76FF00F00E6E7500C002010B5C36889
:1050B00023F00203C360134B1C687CB1236803B167
:1050C0000CB100210FE02346FBE722460D4807F014
:1050D0001AFA04F10800FFF73DFF10BD2346F0E780
:1050E0001A461C461346002CF7D062688242ECD068
:1050F0002146002BF4D01A68002AF2D0002BF0D100
:105100001A46EEE7740C002070B584B00546EFF344
:105110001186102383F31288BFF36F8FD5F8AC404C
:10512000002C3FD02368C5F8AC30D5F8B0209442AD
:105130004DD0D5F8C43043F00203C5F8C430E3685D
:1051400043F00102E26023F0040343F00103E36053
:10515000636886F31188BFF36F8F20469847EFF39B
:105160001186102383F31288BFF36F8FE36823F057
:105170000103E36013F0100F44D1E36813F0020F52
:1051800044D1D5F8C43023F00203C5F8C430C3F3CA
:10519000002386F31188BFF36F8F002BB7D100F087
:1051A000E7FBB4E7D5F8C43023F00402C5F8C42007
:1051B00013F0040F0ED112F0100F14D00023C5F815
:1051C000C43086F31188BFF36F8F04B070BDC5F88B
:1051D000B030AEE705F1BC0400220121204607F003
:1051E00014FB0028F8D1002302934FF0FF324FF058
:1051F000FF33CDE9002305F1B4023146054800F044
:1052000061FD84E7204607F0D6F9B6E72046FFF7B0
:105210004DFFB6E77C0C002008B50146014807F0B9
:10522000E7F908BDA8070020F0B589B004460E9D37
:105230000020C4F8AC00C4F8B00004F1B400C4F815
:10524000B400C4F8B80004F1BC00C4F8BC00C4F851
:10525000C0003DB3287938BB0120C4F8C4004FF02A
:10526000FF364FF0FF37CDE9066700200490039327
:105270000290019000940E4B204607F0E1F955B1E1
:10528000296811B1204600F023F86B791BB1A3897E
:1052900043F00103A381204600F034FCC4F8A84089
:1052A00009B0F0BD0120D8E740F20110D5E700BFFA
:1052B0000951000808B553EA020102D100F022FCAE
:1052C00008BD0249183000F0DDFDF9E7BFC700084E
:1052D00010B5044640B11F2204F1740007F046FBEC
:1052E000002084F8930010BD014B9C68F3E700BFD9
:1052F000500C00202DE9F04F85B004460F461546AE
:105300001E46DDF838A0DDF83C90DDF84080DDF881
:105310004CB000F158038365C365129B04221199B8
:1053200007F083F92A463946204607F06BF905460F
:10533000CDF80880CDF80490CDF800A033460246A1
:1053400039462046FDF7A8F9002363652666C4F8B0
:1053500064A0C4F86890C4F86C80EFF31182102345
:1053600083F31288BFF36F8F124B196A21671C6297
:1053700082F31188BFF36F8FBBF1000F13D01F2290
:10538000594604F1740007F0F1FA002384F89330D1
:10539000084B9B685BB1D3F89430C4F8943028462E
:1053A00005B0BDE8F08F002384F87430F0E7C4F84E
:1053B0009430F4E7500C0020012303748381002310
:1053C000C0F89430014B9860704700BF500C00202B
:1053D0000A4A9368C3F89C006FF00A01C3F8A01052
:1053E00007494B6843F080534B60002383F31188D7
:1053F000BFF36F8F9368D3F8A0007047500C002064
:1054000000ED00E0037C90F91020002A51DB13F03E
:105410001F0F4ED110B563F07F030374254A52F875
:10542000183F93420ED100230CE05A68426003609B
:10543000106058601EE01A461E49C9698A420FD0A2
:105440001B687BB173B190F90E1093F90E20914255
:10545000F1D0521A002AE8DC1A46002BECD1F0E712
:105460000023EEE7134BDA6903F118010160426093
:105470001060D8610F4B53F8184F9C420ED06CB19E
:105480000C4B9B681A7C12F01F0F0AD1DA897F2A15
:1054900007D9A2692AB9074A536109E0054BDC68BC
:1054A000EEE7A34202D0204600F052FC014B5C61C3
:1054B00010BD7047500C002010B5037C90F91020EF
:1054C000002A14DB154B9A6853F8184F9C4219D0E8
:1054D000C4B1824219D0137C13F01F0F15D1D389A8
:1054E0007F2B12D9A36983B90C4B5A6114E003F0E6
:1054F0007F0303744268036813605A6000230360EB
:105500004360DFE7054BDC68E3E7A24202D02046B8
:1055100000F01EFC014B5C6110BD00BF500C002070
:105520002DE9F84305460C46414B9E68337C13F049
:10553000600F2BD013F0200F2DD008271F4225D14C
:105540003B43337413F0800F27D1082F30D04FF036
:105550000009374B53F8188F98454ED0B8F1000F1B
:105560004BD0334B9B68434502D0404600F0F0FBE4
:105570002F4BC3F81480102F08D0304601F0F9FFEC
:10558000304600F03FFCB9F1000F3AD184F31188A6
:10559000BFF36F8F46E01027D0E703F07F0333742B
:1055A0007268336813605A60002333607360CCE71D
:1055B000B3685BB17268336813605A60002333606C
:1055C0007360327C22F002023274B360304607F01E
:1055D0008DF806F1580007F08EF8154B9B689E4237
:1055E00002D04FF00009B4E7EFF3058313B94FF091
:1055F0000009AEE74FF00109ABE70D4BD3F80C8083
:10560000AFE70C48FFF7D8FEC0E7EFF31184102393
:1056100083F31288BFF36F8F06F04EFF84F3118877
:10562000BFF36F8F2B7C13F0600FEED1BDE8F883D2
:10563000500C0020E0060020B3F1FF3F08BFB2F19C
:10564000FF3F00D1704708B50249183000F01AFC3E
:1056500008BD00BFBFC7000810B5214B9A68DB69C1
:105660009A4205D01368516812680A60516006E0DA
:105670000023F8E71A4AD269934212D01B6893B10B
:10568000174A906890F90E1093F90E209142F1D0CC
:10569000521A002AEEDD5A684260036010605860BA
:1056A0000AE00023EBE70E4B9A68D96903F1180072
:1056B000106051600A60DA61094B53F8184F9C4240
:1056C0000AD04CB1064B9B689C4202D0204600F0A9
:1056D0003FFB034B5C6110BD014BDC68F2E700BF90
:1056E000500C002010B50C4611460A4882680A4B3F
:1056F0001A60EFF31183102383F31288BFF36F8FC7
:10570000DDE90223806807F019F82046FFF760FE04
:1057100010BD00BF500C00207C0C00202DE9F04192
:1057200004460E460023EFF31185102282F31288FF
:10573000BFF36F8F1F4650E003F07F03237462684E
:10574000236813605A6000232360636071B2A17301
:10575000237C63F07F032374424A52F8183F93423C
:105760000ED100230CE05A686260236014605C6014
:105770001CE01A463B48C06982420DD01B686BB1E1
:1057800063B193F90E209142F3D0521A002AEADC59
:105790001A46002BEED1F2E70023F0E7314BDA692D
:1057A00003F11801216062601460DC612D4B53F835
:1057B000188F984520D0B8F1000F1DD0294B9B6859
:1057C000984502D0404600F0C3FA264BC3F8148037
:1057D00085F31188BFF36F8F0123002B3FD1237C0A
:1057E00003F01F02002A0CBF01270027A4D013F0EA
:1057F000020F05D1A673EBE71A4BD3F80C80DDE757
:10580000A1686268236813605A60002323606360A4
:1058100070B2A0730B6899420DD100230BE05A6857
:105820006260236014605C60D2E79C464A689445DD
:105830000DD01B686BB163B193F90E209042F4D088
:10584000121A002AEBDC9C46002BEFD1F2E7002372
:10585000F0E74B68216063601C604C60B8E7384635
:10586000BDE8F081500C002008B50B4659B9EFF3A4
:10587000058242B9064A50699268904203D00846B0
:10588000FFF7A6FD03E083F31188BFF36F8F08BD18
:10589000500C002008B5034650B9EFF305823AB921
:1058A000064A51699268914202D0FFF791FD03E0E8
:1058B00083F31188BFF36F8F08BD00BF500C002029
:1058C0000023EFF31181102282F31288BFF36F8F50
:1058D00009E0064B9A68D37B013BD37381F31188AF
:1058E000BFF36F8F0123002BF3D07047500C0020C3
:1058F00038B50023EFF31185102282F31288BFF32D
:105900006F8F0EE0154BDC6817E0A24202D02046F4
:1059100000F01EFA114B5C6185F31188BFF36F8FA5
:105920000123BBB90D4B9A68D17B0131D17353F878
:10593000184F9C42E6D0002CE4D0137C13F01F0FCC
:10594000E3D1D3897F2BE0D9A369002BDDD1034BB1
:105950005A61E1E706F04AFF38BD00BF500C002055
:1059600008B5024806F04DFF08BD00BF640C0020DA
:1059700038B5EFF31184102383F31288BFF36F8FD0
:10598000224B9A68DB699A4205D013685168126805
:105990000A60516006E00023F8E71C4AD26993428E
:1059A00012D01B6893B1194A906890F90E1093F9C0
:1059B0000E209142F1D0521A002AEEDD5A68426060
:1059C0000360106058600AE00023EBE70F4B9A6811
:1059D000D96903F11800106051600A60DA610B4B5D
:1059E00053F8185F9D420DD065B1084B9B689D42EE
:1059F00002D0284600F0ACF9044B5D612046FFF769
:105A0000E7FC38BD014BDD68EFE700BF500C00201C
:105A1000F8B551EA000328D005460C46EFF311878C
:105A2000102383F31288BFF36F8F154EB068154BA8
:105A30001860FFF741FDB0682A4623461249183026
:105A400000F020FA0446B268137C43F00403137498
:105A50003846FFF7BDFCB3689A6ADB6AB3F1004FC2
:105A600008BF002A05D00020F8BDFFF781FF002005
:105A7000FAE706F061FF201A0028F5DC0020F3E7C2
:105A8000500C00207C0C0020BFC7000838B504462D
:105A90000D46FFF7BDFF03462046B5F1FF3F08BFA7
:105AA000B4F1FF3F28D0DA1713F1090042F10003E7
:105AB0000021C21821D20A441149A1FB024525F058
:105AC000030404EB9504121B801A63F100034FF0EA
:105AD000CC3200FB02F201FB0322A0FB01010A44CD
