:020000040800F2
:1000000020160020C5080008132F0008B1080008BA
:10001000B1080008B1080008B1080008000000009D
:10002000000000000000000000000000910900082E
:10003000B108000800000000390900080D1600088A
:100040000D0B00080D0B00080D0B00080D0B000830
:100050000D0B00080D0B00080D0B00080D0B000820
:100060000D0B00080D0B00080D0B00080D0B000810
:100070000D0B00080D0B00080D0B00080D0B000800
:100080000D0B00080D0B00080D0B00080D0B0008F0
:100090000D0B00080D0B00080D0B00080D0B0008E0
:1000A0000D0B00080D0B00080D0B00080D0B0008D0
:1000B0000D0B00080D0B00080D0B00080D0B0008C0
:1000C0000D0B00080D0B00080D0B00080D0B0008B0
:1000D0000D0B00080D0B00080D0B00080D0B0008A0
:1000E0000D0B00080D0B00080D0B00080D0B000890
:1000F0000D0B00080D0B00080D0B00080D0B000880
:100100000D0B00080D0B00080D0B00080D0B00086F
:100110000D0B00080D0B00080D0B00080D0B00085F
:100120000D0B00080D0B00080D0B00080D0B00084F
:100130000D0B00080D0B00080D0B00080D0B00083F
:100140000D0B00080D0B00080D0B00080D0B00082F
:100150000D0B00080D0B00080D0B00080D0B00081F
:100160000D0B00080D0B00080D0B00080D0B00080F
:100170000D0B00080D0B00080D0B00080D0B0008FF
:100180000D0B00080D0B00080D0B00080D0B0008EF
:100190000D0B00080D0B00080D0B00080D0B0008DF
:1001A0000D0B00080D0B00080D0B00080D0B0008CF
:0C01B0000D0B00080D0B00080D0B0008E3
:1001BC0008B5024801F01CFD08BD00BF5C00002022
:1001CC0008B54FF0FF324FF0FF33034801F054FDF8
:1001DC00024802F07BFEF4E75C000020904500082A
:1001EC0010B582B0084C00220849204603F04AFEA4
:1001FC0042F210720023CDE90023204602F052FB9C
:10020C00002002B010BD00BF18010020BD01000885
:10021C0008B5024B1B68984708BD00BF00000020C2
:10022C00014B1860704700BF0000002000B585B07E
:10023C000A460023009301930293039302238DF843
:10024C000230044B01930146684602F06BFB05B08B
:10025C005DF804FB1D02000880B505460E461746E6
:10026C00984601F0EDFF034600F05AFC0446DFF817
:10027C00189049F80030424639463046A84754F8A1
:10028C00090000F039FB00BF08000000034A536866
:10029C0023F0020353600020704700BF002004E0ED
:1002AC00084B1A6842F400721A601A6842F48062B1
:1002BC001A601A6842F480721A60034B034A1A607F
:1002CC00704700BF002002403000002000093D00B4
:1002DC0008B50348034A121A002102F006FE08BDB5
:1002EC0070000020DC04002008B50648064A121AEB
:1002FC00064902F0FEFD0648064A121A064902F0AB
:10030C00F8FD08BD000000206C000020084D00081E
:10031C000000002000000020084D000810B5044625
:10032C00836842680168094802F0D0FD636922695C
:10033C00E168074802F0CAFDE169064802F0C6FD13
:10034C00A169054802F0C2FD10BD00BFB045000810
:10035C00E0450008104600082046000838B5044661
:10036C000D4611B10846FFF7D9FF012C04D02946E0
:10037C00204601F0EBFA38BDEFF305811039024845
:10038C0002F0A4FDF3E700BF5046000830BFFFF7B2
:10039C00FDBF00BF38B50446054D2A46054903F09C
:1003AC007DFD054A0021601903F086FD38BD00BFB4
:1003BC0000000000884500080400000070B50646E7
:1003CC00064D074B1D444C1B2046FFF7E3FF083C32
:1003DC00C6F8984005F1080070BD00BF0000000091
:1003EC0004000000054B5A699B689A4204D0044AE9
:1003FC00536843F080535360704700BFA40400203F
:10040C0000ED00E081690D4B5A6942F480725A612B
:10041C00BFF34F8FBFF36F8F31F8021C5A6922F470
:10042C0080725A61BFF34F8FBFF36F8F4DF602731B
:10043C00994201D0002070470120704700ED00E088
:10044C004FF0000C83F800C002F07F4CBCF17F4FE2
:10045C0012D102F00C0CBCF1080F04D012F0080FF2
:10046C0007D00846704708B5044802F02FFD00205D
:10047C0008BD01221A7070470020704764460008BE
:10048C00F8B505460F461446324802F01FFD324BB4
:10049C009B6A13F0100F31D110262F4B9B6A13F06F
:1004AC00080F30D12C4B9B6A13F0020F30D12A4B22
:1004BC009B6A13F0010F43D1274B9B6A13F0200F5B
:1004CC0043D1254B9B6A13F0100F01D1224B9B6A31
:1004DC00214B9B6A13F0200F04D01F4A536A23F45C
:1004EC00005353621C4A936A43F0FF039362012149
:1004FC00284602F00EFD20703046F8BD174802F079
:10050C00E5FC1126C9E7164802F0E0FC1226C9E703
:10051C00144802F0DBFC104B596B9B6A13F0800FF4
:10052C0001D11326C3E7104802F0D0FC37B10A4AB8
:10053C00936A23F0800393621326B8E71326B6E779
:10054C000A4802F0C3FC1426B6E7094802F0BEFCC8
:10055C001526B6E79046000800ED00E0A846000816
:10056C00DC460008F04600080C4700082447000849
:10057C0044470008F8B505460F4614462F4802F0CC
:10058C00A5FC2F4B9B6A13F4805F25D116262C4BB0
:10059C009B6A13F4006F24D1294B9B6A13F4007FE0
:1005AC0024D1274B9B6A13F4806F37D1244B9B6A61
:1005BC0013F4807F37D1224B9B6A13F4005F37D141
:1005CC001F4A936A43F47F4393620121284602F049
:1005DC00A0FC20703046F8BD1A4802F077FC1726B4
:1005EC00D5E7194802F072FC1826D5E7174802F037
:1005FC006DFC134B996B9B6A13F4004F01D11926B8
:10060C00CFE7134802F062FC37B10D4A936A23F42A
:10061C00004393621926C4E71926C2E70D4802F07D
:10062C0055FC1A26C2E70C4802F050FC1B26C7E703
:10063C000A4802F04BFC1C26C2E700BF74470008B6
:10064C0000ED00E08C470008DC460008A0470008DD
:10065C00BC470008D4470008F0470008444700088E
:10066C0008B5244802F032FC234B9B6A13F0007F40
:10067C0021D11D20204B9B6A13F0807F20D11E4B73
:10068C009B6A13F4002F20D11B4B9B6A13F4802F11
:10069C0020D1194B9B6A13F4003F20D1164B9B6A57
:1006AC0013F4803F20D1144A936A6FEA03436FEA34
:1006BC001343936208BD114802F008FC1E20D9E7D1
:1006CC000F4802F003FC1F20D9E70E4802F0FEFB96
:1006DC002120D9E70C4802F0F9FB2220D9E70B487E
:1006EC0002F0F4FB2320D9E7094802F0EFFB2420A9
:1006FC00D9E700BF0C48000800ED00E028480008CE
:10070C003C4800085848000878480008A0480008F1
:10071C00BC48000870B506460D46264802F0D6FBCC
:10072C0000232B70244BDC6A14F002040AD1224BF8
:10073C00DB6A002B0BDB204BDC6A14F080440AD103
:10074C00204670BD1D4802F0C1FB0024F8E71C4890
:10075C0002F0BCFBF4E71B4802F0B8FB3046FFF795
:10076C0051FE98B9144B9B6A13F0FF0F14D1124B26
:10077C009C6A14F47F4416D10F4B9B6AB3F5803FEF
:10078C00DED33046FFF76CFF0446D9E731680E48DC
:10079C0002F09CFB3468D3E72A4601213046FFF770
:1007AC006FFE0446CCE72A4601213046FFF7E2FEF5
:1007BC000446C5E7E848000800ED00E000490008E1
:1007CC0024490008344900085449000808B500239E
:1007DC000B70024802F07AFB08BD00BF7449000898
:1007EC0008B50A460F2905DC0349103A034802F004
:1007FC006DFB08BD0249F8E79C490008D049000888
:10080C00B449000830B58BB01F4B5D68C5F30805C3
:10081C00002383F31188BFF36F8F0DF12603FFF7CD
:10082C000FFE04460DF12702294602F074FB9DF8D9
:10083C0027300BB10BB030BD05460DF1040C206810
:10084C006168A268E368ACE80F0020696169A2697D
:10085C00E369ACE80F009DF826304BB1089BC3F35D
:10086C0008025AB96FEA53236FEA4323089305E051
:10087C00089B23F4FF7323F00103089301A9284676
:10088C00FFF76CFDD6E700BF00ED00E0044B5A69A2
:10089C0042F010025A615A6922F008025A617047FC
:1008AC0000ED00E0EFF30880EFF3098101B572462B
:1008BC00FFF7A8FF01BD00BF0C4880F3088800209B
:1008CC000B490870102080F311880A484FF400611E
:1008DC00401880F30988EFF314800221084380F359
:1008EC001488BFF36F8F00F08FF8000020160020E3
:1008FC00D8040020E008002008B50A4B9B6883420E
:10090C0002D001F0A3FC08BDEFF30583002BF8D057
:10091C00054B5A6842F080525A605A6A22F40042DF
:10092C005A62EEE7A404002000ED00E012498A6848
:10093C004FF030001044EFF3098C80E8F01F1020CA
:10094C0080F31288BFF36F8F0C4F4FF000664A692B
:10095C008A603E60D2F89800094C2060D2F89C0066
:10096C000023C2F89C3080F3118802F1300090E82B
:10097C00F01F8CF309887047A404002004ED00E0FC
:10098C00780300201EF0040F0CBFEFF30880EFF388
:10099C000980816911F8021C0229FFD001B5724649
:1009AC0002F0ABFA01BD00BF002807DB00F01F020C
:1009BC00400901239340024A42F82030704700BF9F
:1009CC0000E100E0002808DB0901C9B200F1604039
:1009DC0000F5614080F80013704700F00F0009012A
:1009EC00C9B2014B1954704714ED00E0044B23F0CD
:1009FC007F03044A9360BFF34F8FBFF36F8F704731
:100A0C000000000800ED00E008B5FFF7EFFF0B4A0F
:100A1C00D2F8883023F47003C2F88830EFF31483D3
:100A2C0023F0040383F31488BFF36F8FFFF750FC9C
:100A3C00FFF75AFC00F04AF801F0A2F800ED00E0D4
:100A4C0010B4A2F120040E4942F8081C21F0010157
:100A5C0042F8081C42F8203C019B42F81C3C029BCB
:100A6C0042F8183C039B42F8143C4FF0807342F858
:100A7C00043C04650023C0F89C3010BC704700BFD8
:100A8C006502000800B50E4615460B4B9860D0F871
:100A9C0098200A4B1A602C4686F309880020044BD8
:100AAC0098472046002100220023024C20470000DA
:100ABC00952F000865020008A4040020780300208C
:100ACC00014B10221A61704700ED00E0002206E095
:100ADC0003F00F030949194410230B7601325E2AE7
:100AEC000ADC53B2002BF3DB03F1604303F56143E3
:100AFC00102183F80013F1E7704700BFFCEC00E015
:100B0C0008B5EFF30583103B044A02EBC3014968B7
:100B1C0052F833008847FFF765FC08BDB841000860
:100B2C0001480068704700007803002008B5024BAC
:100B3C001B689847002008BD7C030020034B1860FD
:100B4C00034A937843F00203937070477C030020B0
:100B5C000400002008B5064921F00701C1F100523C
:100B6C0002F54032034802F06DF9002008BD00BFC9
:100B7C00271600208003002000B583B0094B93E8B2
:100B8C00030002AB03E90300074B9B681B682BB106
:100B9C0069460548984703B05DF804FB6FF05700B1
:100BAC00F9E700BF884500084C40000800F01F0220
:100BBC00012393403F2811D81F2807D8084A5269AF
:100BCC00934301D00020704701207047044A526BB8
:100BDC00934301D0002070470120704700207047DC
:100BEC000004014000F01F02012393403F2809D864
:100BFC001F2803D8054A536100207047034A5363EA
:100C0C00002070476FF01500704700BF00040140D2
:100C1C00002399420ADD10B400EB030C044C04F8D9
:100C2C000C2001339942F7DC10BC7047704700BFB1
:100C3C0014000020F8B50746002401E00134E4B2AA
:100C4C007B78A34217D93D7866193046FFF7AEFF83
:100C5C000028F3D03046FFF7C5FF074B53F836207A
:100C6C00002AEBD006F01F0503EBC60359680120E0
:100C7C00A8409047E2E7F8BD8C03002001F0030C7C
:100C8C000CF102020A4B53F822200B0C22EA114100
:100C9C0093FAA3F34BB1B3FA83F3984001430CF1ED
:100CAC00020C034A42F82C1070472023F5E700BFD2
:100CBC000000014000F003030233074A52F82320DE
:100CCC00030C02EA104093FAA3F31BB1B3FA83F3BB
:100CDC00D84070472023FBE70000014008B50346CD
:100CEC0068B1B0FA80F2C2F11F02D2B2054988563F
:100CFC00054A11680B43136002F032F908BDFF225C
:100D0C00F4E700BF1400002000040140024A1368FD
:100D1C0023EA00031360704700040140032926D81E
:100D2C00DFE801F0020C151E114B9A6822EA000252
:100D3C009A60DA6822EA0002DA6070470C4B9A6813
:100D4C0002439A60DA6822EA0002DA607047084BC4
:100D5C00DA680243DA609A6822EA00029A60704705
:100D6C00034B9A6802439A60DA681043D860704764
:100D7C000004014010B498B1B0FA80F3C3F11F0322
:100D8C00DBB29C460D4850F8330088420AD088B933
:100D9C000A4B43F83C1003EBCC035A6010BC704771
:100DAC00FF23EEE7054C04EBC3035B689342EED1E3
:100DBC000020F3E76FF00F00F0E700BF8C0300207A
:100DCC0060B1B0FA80F3C3F11F03DBB2044A002117
:100DDC0042F8331002EBC30251607047FF23F5E772
:100DEC008C030020104B1B6813F4806F0ED10E4A3D
:100DFC00136843F48073136001E0012B06D00A4B97
:100E0C001B6813F48063F8D00123F6E7064A936855
:100E1C0023F0030343F001039360034B9B6803F03F
:100E2C000C03042BF9D17047001002401C4B1B68BB
:100E3C0013F4806F0ED11A4A136843F48073136055
:100E4C0001E0012B06D0164B1B6813F48063F8D01D
:100E5C000123F6E7124AD2F8943043F00103C2F8AA
:100E6C00943001E0012B07D00D4BD3F8943013F0E4
:100E7C000203F7D00123F5E70949D1F8982042F095
:100E8C000102C1F8982001E0012A07D0044AD2F8E7
:100E9C00982012F00202F7D01A46F5E7704700BF0F
:100EAC000010024070B50C461546404B1E680121DF
:100EBC00304602F0F6F82388C3F30B03013B5F2B9B
:100ECC006ED8DFE803F044585B5F666240696B6D77
:100EDC00464F6D6D6D6D6D6D6D6D6D6D6D6D6D6D7B
:100EEC006D6D6D6D6D6D6D6D6D6D6D6D6D6D6D6D26
:100EFC006D6D6D6D6D6D6D6D6D6D6D6D6D6D6D6D16
:100F0C006D6D6D6D6D6D6D6D6D6D6D6D6D306D6D42
:100F1C006D306D6D6D3E6D6D6D6D6D6D6D406D6D8E
:100F2C006D406D6D6D422E602368B3F5805F3AD3D2
:100F3C002A68C3F313330133B2FBF3F22A600020A7
:100F4C0030E02E60F0E72860EEE72860ECE72E60DA
:100F5C00EAE700F0B3F802232822042102F09AF801
:100F6C002860E1E700F0AAF802232822042102F00D
:100F7C0091F82860D8E700232B60D5E74FF4FA43AB
:100F8C002B60D1E70A4B2B60CEE702F08DF828607E
:100F9C00CAE7084B2B60C7E72E60C5E72E60C3E796
:100FAC006FF0850070BD0020FCE700BF3000002012
:100FBC000024F400006CDC0210B51B4B9B6803F0A2
:100FCC000C030C2B05D0184A136823F080731360A4
:100FDC0008E0FFF707FF144A936823F0F0039360CF
:100FEC00F1E733B1104B1B6813F00073F9D00123F8
:100FFC00F7E70D4CE36823F4C003E360E36843F4C4
:10100C008013E36000F05EF8236843F08073236084
:10101C0001E0012B06D0044B1B6813F00073F8D0D1
:10102C000123F6E710BD00BF0010024038B500F0F8
:10103C0073F81E4C204602F0C3F800F0C7FB1C4BA3
:10104C009B68C3F303131B4AD35C20FA03F5137894
:10105C001C41A54222D3FFF7E9FEFFF7ADFF144B6D
:10106C009A6822F0F0029A609A6842F003029A6041
:10107C000F4B9B6803F00C030C2BF9D1A54211D23A
:10108C000D4B0A4A1A600A4B9A6822F4E0629A6085
:10109C009A6822F460529A60002038BD204600F015
:1010AC00EFFBD8E7204600F0EBFBE9E700B4C40403
:1010BC0000100240844C00083000002000487047AB
:1010CC000024F40008B5104AD2F8803023F4807361
:1010DC00C2F8803002F075F80C4BD9680C4A0A4003
:1010EC0040F4205040F030000243DA60DA6842F4F9
:1010FC008012DA60D968074A0A400243DA60DA687B
:10110C0042F08072DA6008BD0070004000100240AE
:10111C000C809FFF0C80FFF982B0064B9A6D42F059
:10112C0080529A659B6D03F080530193019B02B032
:10113C00704700BF0010024010B504460A2806D0C4
:10114C00E1B2064883685B689847204610BD0348A7
:10115C0083685B680D219847F2E700BF9C4100084B
:10116C0010B5044C2046FFF7E9FC2046FFF758F871
:10117C0010BD00BF4511000808B5054802F0FAFC87
:10118C0018B1FFF7EDFF002008BD6FF01200FBE770
:10119C009C41000808B5436841B103F10C010B4BAD
:1011AC009B681B685BB10948984708BD03F10C01AB
:1011BC00064B9B685B682BB104489847F5E76FF0CA
:1011CC005700F2E76FF05700EFE700BF4C40000804
:1011DC0008B5044A536843F400735360024902F0A3
:1011EC0015F808BD00700040993300082DE9F8434C
:1011FC0080460F4616461C46D0F80490D9F80800D5
:10120C0001F028FFB6F5001F0FD00546B6F5800F8C
:10121C002DD0B4F1806F26D0B4F1C06F25D0B4F1CD
:10122C00007F09D06FF015041AE03946D9F8080090
:10123C0002F0DBF9002413E0022642460F4928464F
:10124C00FFF798FD0446A8B9D9F80810384601F004
:10125C0006FF31462846FFF761FD2846FFF73EFDA5
:10126C002046BDE8F8830126E7E70326E5E76FF0A3
:10127C008504F5E76FF00F04F2E700BFBB320008FE
:10128C00B0F5D07F17D2F8B504460D4616460309C3
:10129C000A4A52F823705FB1384602F06BFC38B141
:1012AC0033462A4604F00F01384602F0B6F9F8BD71
:1012BC006FF01200FBE76FF015007047744B0008DD
:1012CC002DE9F84306460C4643681D680369D3F8BC
:1012DC0000900B79012B17D0022B18D14FF48061A1
:1012EC006279012A18D0022A18D092B14FF4005713
:1012FC0094F80680B8F1020F13D0B8F1040F16D091
:10130C00002B62D1002014E04FF4C061E8E700210B
:10131C00E6E74FF48057EBE70027E9E74FF4405737
:10132C00E6E70BB1002004E04FF0805001E04FF4F1
:10133C008050A3F1030C5FFA8CFCBCF1010F65D952
:10134C0013B1B8F1040F64D0B7F5805F42D0B7F594
:10135C00405F41D0002F3BD003239A425CD102F076
:10136C0037FA80455BD1E379D3B1012B36D0032B0F
:10137C0058D1314B9D4213D0A3F574439D420FD0ED
:10138C0003F580639D420BD003F580639D4207D02B
:10139C0003F580639D4203D003F540539D4244D135
:1013AC002B6823F001032B602146304602F025FA0E
:1013BC0000283DDB2B6843F001032B6094E803000D
:1013CC0089E803000020BDE8F8834FF48050B0E7B3
:1013DC000123C2E70023C0E70223BEE7164A954269
:1013EC00DED0A2F574429542DAD002F580629542C5
:1013FC00D6D002F580629542D2D002F58062954239
:10140C00CED002F540529542B1D1C9E76FF08500BC
:10141C00D9E76FF08500D6E76FF08500D3E76FF062
:10142C008500D0E76FF08500CDE76FF08500CAE747
:10143C006FF08500C7E700BF0038014008B5024ACD
:10144C0002F0DFFA08BD00BF6F3A000808B5024A87
:10145C0002F0EAFA08BD00BF753A0008F8B5064676
:10146C0045682C6803691F68236823F00103236017
:10147C00A86802F07FFB002878D0E968A86802F021
:10148C0068F954E8003F43F00C0344E80032002AAA
:10149C00F7D13946304602F0B0F9002869DB2B7ED3
:1014AC001BB1A36843F00803A3606B7E1BB1636898
:1014BC0043F400436360AB7E1BB1636843F4803339
:1014CC006360EB7E1BB1636843F4003363602B7F76
:1014DC0083B32B4B9C4213D0A3F574439C420FD087
:1014EC0003F580639C420BD003F580639C4207D0CC
:1014FC0003F580639C4203D003F540539C423BD1DF
:10150C0073681A68936843F4804393606A7F236816
:10151C0023F0787343EA42532360AA7F236823F4B1
:10152C00F81343EA02432360EB7F1BB1A36843F437
:10153C000043A36095F820301BB1236843F000539F
:10154C002360236843F00103236000E033B9E369AF
:10155C0013F40013FAD00123F8E72AB9E26912F464
:10156C008002FAD01A46F8E70020F8BD6FF012009E
:10157C00FBE76FF01500F8E76FF01500F5E700BF1B
:10158C00003801404FF0E023996918699A6909B94C
:10159C000C4B19680AB90B4B1A6810F4803F01D137
:1015AC00914208D208490B680648006803440B6056
:1015BC004FF0E0231B69034B1B689B1A024A10680F
:1015CC0018447047A00400209C040020094B1022F2
:1015DC0083F82320084B4FF4FA521A600020074B73
:1015EC0018604FF0E02341F63F725A619861072270
:1015FC001A61704700ED00E0A00400209C0400205C
:10160C00684620F007018D4619B5FFF7BBFF12485D
:10161C000368124A516814681B1941F100011360E8
:10162C005160002202600E490A68981A0D4BA3FB08
:10163C000030400A4FF4FA5300FB03F3D2184B6806
:10164C0043F100030A604B6001F01CF8FEF7CAFE80
:10165C00BDE81940854670479C04002058010020C5
:10166C0050010020D34D6210F8B500294DD0B0F1D7
:10167C00FF3F3FD03F4B1C6801284EDD40F6310345
:10168C009842A8BF1846461EEFF31185102383F32A
:10169C001288BFF36F8FFFF775FF4FF0E0239F6940
:1016AC00354A13685168C31841F100011360516049
:1016BC000021324A1160324A11685A1A2FD44FF461
:1016CC00FA5000FB062202F5F9521F322D4EA6FBF2
:1016DC000262520AC91A00FB02110A46B1F5806F68
:1016EC0038BF4FF48062284B994236D9214B264A99
:1016FC001A6018E04FF0E022136923F00103136124
:10170C001C4B4FF07F421A6026E01A4B1C68B0F15C
:10171C00FF3FB1D14FF40360B0E70026B4E7154B9F
:10172C004FF480621A604FF0E0239969114A1268F5
:10173C00013A5A6100229A618F4211D2641A3C44D8
:10174C000D4A136851681B1941F100011360516077
:10175C0085F31188BFF36F8FF8BD064B1A60E2E773
:10176C007F1A054A13685168DB1941F100011360B7
:10177C005160EDE7A0040020580100209C040020DB
:10178C0050010020D34D621000DCFF0038B5EFF3A0
:10179C001185102383F31288BFF36F8F084B1C68DD
:1017AC00084B1B68E41AFFF7EDFE204485F3118803
:1017BC00BFF36F8F044BA3FB0030400A38BD00BF52
:1017CC005801002050010020D34D6210284A936824
:1017DC00D26802F0030213F00C030AD00C2B06D0D3
:1017EC00042B1FD0082B20D00020024610E0012A29
:1017FC00F6D11F4A126812F0080F0CD11C4AD2F80D
:10180C009420C2F303221B4951F8222043B100203B
:10181C000C2B0DD07047164A1268C2F30312F2E774
:10182C001046F5E714480022F2E714480022EFE7CF
:10183C000F4BDB6803F00303022B16D0032B00D1F4
:10184C000E4A0B49CB68C3F303130133C868C0F3CA
:10185C00062002FB00F0B0FBF3F0CB68C3F341634E
:10186C0001335B00B0FBF3F0D4E7034AE9E700BFB8
:10187C0000100240544C00080024F40000127A00BE
:10188C00421E274B9A4249D8264B1B6803F4C0636F
:10189C00B3F5007F0BD0244B984229D8234B9842A8
:1018AC0035D8234B984235D80021084622E0214BED
:1018BC0098420ED8204B98420ED8204B98420ED806
:1018CC001F4B98420ED81F4B98420ED80021084649
:1018DC0010E0052100200DE0042100200AE0032186
:1018EC00002007E00221002004E00121002001E09B
:1018FC0000210120144A136823F00F030B431360DB
:10190C00136803F00F03994207D00120704702219E
:10191C000020EFE701210020ECE770470120704721
:10192C00FF0D27070070004080BA8C010024F400E2
:10193C0000127A0000E1F50500B4C404008793039B
:10194C00005A6202002D31010020024038B5EFF33D
:10195C001185102383F31288BFF36F8F054B9C689E
:10196C0002F020F985F31188BFF36F8F2046FEF744
:10197C00C3FF38BDA404002010B586B0A823104CBA
:10198C0003FB004400EB800C0E4B03EB8C030E4A64
:10199C000592012204920F220392002202920192DC
:1019AC0000930A4B4FF4A072094901EB8C112046AD
:1019BC0000F08AF9237C23F00403237406B010BDD5
:1019CC0060010020A4040020944C0008B73B0008E0
:1019DC00E010002038B505460B4B53F8204002E0D0
:1019EC002368984708346B1C074A52F82330A342EB
:1019FC0009D960680028F3D0037E13F0010FF1D1F0
:101A0C0002F09FF8EEE738BDA44C000808B553EA85
:101A1C00020102D100F0F0FB08BD0249183000F0C1
:101A2C0097FDF9E77B3D000810B586B0184C14E023
:101A3C00636A0593236A0493E3690393A36902938E
:101A4C006369019323690093E368A2686168206865
:101A5C0000F03AF923685C6530340E4B9C42E7D3B6
:101A6C0000F072FB0A4C00E030340A4B9C420BD263
:101A7C00A26AE36AB3F1FF3F08BFB2F1FF3FF3D0B4
:101A8C002068FFF7C3FFEFE700F076FB06B010BD50
:101A9C00B0440008E044000808B50A4B01221A7053
:101AAC000320FFF797FF00F035FF0420FFF792FFAC
:101ABC00FFF7BAFFFEF794FB034A938923F0010367
:101ACC00938108BDD80400200802002008B5014607
:101ADC00014A0248FEF7D6FFA51A000808020020AA
:101AEC0010B50446FFF748FFA8230A4903FB04116D
:101AFC00094A04EB840302EB8303D9601C74074B83
:101B0C0003EBC42303F5006304EB840402EB8402AF
:101B1C00536010BD60010020A4040020E0080020E8
:101B2C0070B586B000F060FB104D114B5D61114B30
:101B3C0005930123049300240394029401940094CC
:101B4C000D4B4FF480620D49284600F0BDF8064657
:101B5C002B7C23F004032B74284602F0B3F82046A8
:101B6C00FFF7BEFF304606B070BD00BF0802002074
:101B7C00A40400209C4C0008A51A00082012002088
:101B8C0008B50020FFF726FF164B83F30888164C88
:101B9C00636943F400736361F02384F822300023FB
:101BAC00E37723766376A37684F82030636A43F474
:101BBC00E0236362FEF76AFEFEF782FF4FF0FF330D
:101BCC00A362E362094800F0E1F8FEF769FB01202B
:101BDC00FFF700FF0220FFF7FDFEFFF7A1FFFFF765
:101BEC0075FF00BFE010002000ED00E0B002002007
:101BFC00F8B50446EFF31187102383F31288BFF373
:101C0C006F8F0568A84212D02E1E18BF012685B909
:101C1C0006BBA368E268934224D001221344A3605C
:101C2C0000230BBB87F31188BFF36F8FF8BD002522
:101C3C00EAE76A682B6813605A6000232B606B60BC
:101C4C002A7C22F002022A74AB6005F1180002F023
:101C5C00E6F8DDE70023C5F8A030284602F032F89C
:101C6C000123DEE70022D9E73946024800F040FAAA
:101C7C00DCE700BFC804002010B582B0EFF311817F
:101C8C00102484F31288BFF36F8F846844B1013C35
:101C9C00846081F31188BFF36F8F002002B010BDF8
:101CAC0053EA020406D0009201930246054800F064
:101CBC0003FAF3E781F31188BFF36F8F6FF00F0016
:101CCC00ECE700BFC80400202DE9F04F85B00446B6
:101CDC000F4615461E46DDF838A0DDF83C90DDF8C1
:101CEC004080DDF84CB000F158038365C365129B4E
:101CFC000422119901F073FF2A463946204601F05F
:101D0C0061FF0546CDF80880CDF80490CDF800A011
:101D1C003346024639462046FEF792FE00236365A1
:101D2C002666C4F864A0C4F86890C4F86C80EFF31D
:101D3C001182102383F31288BFF36F8F124B196A31
:101D4C0021671C6282F31188BFF36F8FBBF1000F08
:101D5C0013D01F22594604F1740002F0B5F8002389
:101D6C0084F89330084B9B685BB1D3F89430C4F87B
:101D7C009430284605B0BDE8F08F002384F8743009
:101D8C00F0E7C4F89430F4E7A404002001230374B2
:101D9C0083810023C0F89430014B9860704700BFDA
:101DAC00A40400200A4A9368C3F89C006FF00A014F
:101DBC00C3F8A01007494B6843F080534B600023D5
:101DCC0083F31188BFF36F8F9368D3F8A00070472B
:101DDC00A404002000ED00E0037C90F91020002A00
:101DEC0051DB13F01F0F4ED110B563F07F0303745A
:101DFC00254A52F8183F93420ED100230CE05A6842
:101E0C0042600360106058601EE01A461E49C969A2
:101E1C008A420FD01B687BB173B190F90E1093F905
:101E2C000E209142F1D0521A002AE8DC1A46002BFF
:101E3C00ECD1F0E70023EEE7134BDA6903F118015C
:101E4C00016042601060D8610F4B53F8184F9C42F0
:101E5C000ED06CB10C4B9B681A7C12F01F0F0AD180
:101E6C00DA897F2A07D9A2692AB9074A536109E09E
:101E7C00054BDC68EEE7A34202D0204600F0CEFA18
:101E8C00014B5C6110BD7047A404002010B5037CAD
:101E9C0090F91020002A14DB154B9A6853F8184F50
:101EAC009C4219D0C4B1824219D0137C13F01F0F7D
:101EBC0015D1D3897F2B12D9A36983B90C4B5A61E5
:101ECC0014E003F07F0303744268036813605A60E4
:101EDC00002303604360DFE7054BDC68E3E7A242C5
:101EEC0002D0204600F09AFA014B5C6110BD00BF95
:101EFC00A40400202DE9F84305460C46414B9E688E
:101F0C00337C13F0600F2BD013F0200F2DD008274B
:101F1C001F4225D13B43337413F0800F27D1082F78
:101F2C0030D04FF00009374B53F8188F98454ED0EE
:101F3C00B8F1000F4BD0334B9B68434502D0404661
:101F4C0000F06CFA2F4BC3F81480102F08D03046D9
:101F5C0001F017F8304600F0BBFAB9F1000F3AD196
:101F6C0084F31188BFF36F8F46E01027D0E703F09E
:101F7C007F0333747268336813605A6000233360D4
:101F8C007360CCE7B3685BB17268336813605A60F6
:101F9C00002333607360327C22F002023274B3602F
:101FAC00304601F05BFE06F1580001F05CFE154B6B
:101FBC009B689E4202D04FF00009B4E7EFF3058313
:101FCC0013B94FF00009AEE74FF00109ABE70D4B29
:101FDC00D3F80C80AFE70C48FFF7D8FEC0E7EFF35F
:101FEC001184102383F31288BFF36F8F01F0E8FD87
:101FFC0084F31188BFF36F8F2B7C13F0600FEED13D
:10200C00BDE8F883A4040020B0020020B3F1FF3F28
:10201C0008BFB2F1FF3F00D1704708B50249183034
:10202C0000F096FA08BD00BF7B3D000810B5214BAF
:10203C009A68DB699A4205D01368516812680A6085
:10204C00516006E00023F8E71A4AD269934212D095
:10205C001B6893B1174A906890F90E1093F90E20F3
:10206C009142F1D0521A002AEEDD5A6842600360A8
:10207C00106058600AE00023EBE70E4B9A68D969B0
:10208C0003F11800106051600A60DA61094B53F8D3
:10209C00184F9C420AD04CB1064B9B689C4202D014
:1020AC00204600F0BBF9034B5C6110BD014BDC68B2
:1020BC00F2E700BFA404002010B50C4611460A48F4
:1020CC0082680A4B1A60EFF31183102383F3128892
:1020DC00BFF36F8FDDE90223806801F0E7FD204636
:1020EC00FFF760FE10BD00BFA4040020C804002050
:1020FC0008B50B4659B9EFF3058242B9064A506947
:10210C009268904203D00846FFF74CFE03E083F33D
:10211C001188BFF36F8F08BDA404002008B50346D7
:10212C0050B9EFF305823AB9064A51699268914267
:10213C0002D0FFF737FE03E083F31188BFF36F8FF4
:10214C0008BD00BFA40400200023EFF3118110226E
:10215C0082F31288BFF36F8F09E0064B9A68D37B2A
:10216C00013BD37381F31188BFF36F8F0123002BD5
:10217C00F3D07047A404002038B50023EFF3118589
:10218C00102282F31288BFF36F8F0EE0154BDC68C0
:10219C0017E0A24202D0204600F040F9114B5C61DE
:1021AC0085F31188BFF36F8F0123BBB90D4B9A6870
:1021BC00D17B0131D17353F8184F9C42E6D0002CDF
:1021CC00E4D0137C13F01F0FE3D1D3897F2BE0D91C
:1021DC00A369002BDDD1034B5A61E1E701F0DEFD71
:1021EC0038BD00BFA404002008B5024801F0E1FD91
:1021FC0008BD00BFB804002038B5EFF311851023DB
:10220C0083F31288BFF36F8F037C13F0040F04D198
:10221C0085F31188BFF36F8F38BD0446183001F079
:10222C00FEFD237C23F0040323742046FFF7D4FD2A
:10223C0029460248FFF75CFFEEE700BFC804002008
:10224C00014B9868704700BFA40400202DE9F843A7
:10225C00838903F00107EFF31186102383F31288AF
:10226C00BFF36F8F057C15F0080F1AD10446B146E9
:10227C0000F1580801F0BEFC10B345F020052574A0
:10228C00EFF305839BB131462046FFF733FE67B170
:10229C00002383F31188BFF36F8F0423184602DFEA
:1022AC0003E086F31188BFF36F8FBDE8F8834146D6
:1022BC003F4B986801F0A0FC3046FFF773FDE6E752
:1022CC0045F00803237413F0800F36D1A3685BB17B
:1022DC006268236813605A60002323606360227C69
:1022EC0022F002022274A36004F1180001F097FDA1
:1022FC00404601F0B8FC2E4B9A6894422AD0002636
:10230C002B4B53F8185F9D422BD055B3AA4202D0E9
:10231C00284600F083F8264B5D61204600F031FE24
:10232C00204600F0D5F8FEB9214B9B689C421FD08B
:10233C0089F31188BFF36F8FA9E705F07F0545F08E
:10234C00080525746268236813605A6000232360B3
:10235C006360BBE7EFF305830BB90026D0E70126DA
:10236C00CEE7134BDD68D1E71248FFF70FFDDBE733
:10237C00EFF30583002BDBD1A38913F0010F12D0EF
:10238C0089F31188BFF36F8F002383F31188BFF398
:10239C006F8F0423184602DFEFF31189102383F3A8
:1023AC001288BFF36F8F4846FFF7FCFC6FE700BF46
:1023BC00A4040020B00200200346027C12F01F0F80
:1023CC0010D10B4A90420FD00A4A106878B1DA89C2
:1023DC007F2A0BD893F90E20074B1B689A4206DA1A
:1023EC000020704700207047002070470020704785
:1023FC006001002034000020D0040020044BC01ADF
:10240C00C010044B03FB00F0034B01221A5470471D
:10241C0058030020ABAAAAAACC04002070B50C4B20
:10242C001E7CFFF7C9FF044606EB4603094D05EB7E
:10243C00C305284601F0F3FC074B00229A5504B95A
:10244C0070BD621ED3170549284600F081F8F7E7E6
:10245C00A404002058030020CC0400200924000808
:10246C0038B5EFF31185102383F31288BFF36F8F08
:10247C00144B9C68144B1B68A34217D0124B0022C0
:10248C001A60104B1B7C114AD35C53B12046FFF7EA
:10249C0093FF30B1237C13F01F0F0FD02046FFF7B2
:1024AC00BDFF85F31188BFF36F8F38BD2046FFF752
:1024BC00B5FF85F31188BFF36F8FF6E7FFF7B6FD15
:1024CC00ECE700BFA4040020C8040020CC040020CA
:1024DC00EFF31181102383F31288BFF36F8F0A4B34
:1024EC001B6A834204D11A6F074B1A6207E013462A
:1024FC0013B11A6F8242FAD10BB1026F1A6781F3D2
:10250C001188BFF36F8F7047A4040020034B186829
:10251C00984200D070470020FCE700BF3800002034
:10252C0030B1044A5268904201D0006870470020D4
:10253C00704700BF3800002008B5044B1B680BB176
:10254C00002008BDFFF722F9FBE700BFD4040020F0
:10255C002DE9F04F83B0B3F1FF3F08BFB2F1FF3F5D
:10256C000ED0044691461F4681600023EFF3118A7A
:10257C00102282F31288BFF36F8F1D46019335E052
:10258C00002501952846019903B0BDE8F08FFFF7AF
:10259C00D3FF8046013547F10006451946EBE0763E
:1025AC0025616661344A13685268ED1846EB0203E4
:1025BC0001934FF0010B38E0C91A66EB020201617E
:1025CC0042614368636020601C60446005E02B4BF3
:1025DC005A682360626014605C60FFF797FF844266
:1025EC0037D08AF31188BFF36F8F0123002BC9D129
:1025FC004D460197002FCADA1F4B19685B686918A2
:10260C0043EB07036FF00102521A4FF0FF3161EBFD
:10261C00030310461946012A73F1000301DA012065
:10262C000021206161614FF0000BFFF76FFF002864
:10263C00CDD001694669236962698B4272EB060E43
:10264C00BADB5B1A62EB060223616261FFF768FF7B
:10265C00EDE70B4B1B68002BC3D1BBF1000F06D071
:10266C00404601F0C1FB0021FEF7FEFFB9E7FFF782
:10267C0063FF8046F4E700BF7003002038000020A1
:10268C00D404002070B5EFF31186102383F3128865
:10269C00BFF36F8F2A4B1860FFF738FF044623E017
:1026AC00284A136851685B1941EBE571136051605E
:1026BC0000220023C4E90423204601F07EFB86F3AC
:1026CC001188BFF36F8FA36820469847EFF31186EC
:1026DC00102383F31288BFF36F8F194A13685B1BA7
:1026EC001360FFF713FF04463CB125696169144B75
:1026FC001A68D317AA428B41D2DA44B123696269B2
:10270C000F4909685B1A62EBE172236162610D4A41
:10271C000B4D2868136851681B1841EBE07113606E
:10272C00516000242C60204601F05EFB2146FEF730
:10273C009BFF86F31188BFF36F8FFFF791FE70BD7F
:10274C00D40400207003002010B50022EFF3118494
:10275C00102383F31288BFF36F8F134611460CE0DE
:10276C00FFF7EAFE074A13685168C31841EBE071A2
:10277C0084F31188BFF36F8F0122002AF0D0184622
:10278C0010BD00BF70030020EFF31183102282F301
:10279C001288BFF36F8F026822B183F31188BFF3E5
:1027AC006F8F70472DE9F04104461D46866AC26A58
:1027BC0056EA020105D0B2F1FF3F08BFB6F1FF3F68
:1027CC0028D1236B01332363236A6BB185F3118802
:1027DC00BFF36F8F236A20469847EFF311851023C0
:1027EC0083F31288BFF36F8F04F11803A469A3421B
:1027FC0051D0002C4FD0204601F07FFA0023C4F8B2
:10280C00A03085F31188BFF36F8F204601F05AFA80
:10281C00BDE8F081013E42F1FF321746002A14DB7D
:10282C0001F02CFB013041F10001801941EB070153
:10283C00012871F100010BDA6FF001024FF0FF3348
:10284C0017492046FFF784FEBBE700263746E7E72B
:10285C0001F014FB013041F10001801941EB07013B
:10286C006FF0020383426FF000438B4103DA0022C6
:10287C004FF00043E4E701F001FB421C41F100037F
:10288C00911943EB07036FF00102521A4FF0FF311D
:10289C0061EB0303D4E785F31188BFF36F8FB7E7C0
:1028AC0095270008F8B51D46EFF31187102383F325
:1028BC001288BFF36F8FB5F1FF3F08BFB2F1FF3F36
:1028CC0021D0064614462B46002D08DB012A73F155
:1028DC00000301DA01240025013C45F1FF353046A7
:1028EC0001F09DFADDE90623C6E90A2300233363D0
:1028FC0022462B4606493046FFF72AFE87F31188FD
:10290C00BFF36F8FF8BD87F31188BFF36F8FF9E7B3
:10291C009527000808B5024800F0D8FA08BD00BF9A
:10292C00BC4C00082DE9F04F8DB0436802938378BE
:10293C0015469A07804640F10D8100240E78002E32
:10294C0000F00A81252E0BD04B1C03930134029B03
:10295C004146304698470028C0F2F6800399EDE7CF
:10296C004E788B1C252E0393F0D00027B946BB461E
:10297C00BBF11F0F38D8A6F12003102B0AD8DFE8C3
:10298C0003F02A0909300909092109090928092D27
:10299C0009091F00A6F13003092B33D92A2E37D190
:1029AC001BF0400F55F8043B40F08280002BA7BF72
:1029BC004BF0200B9946C3F100094BF0280B01E0BA
:1029CC004BF0010B039B13F8016B0393002ECFD13B
:1029DC0030E04BF0020B4BF0040BF3E74BF0080B21
:1029EC00F0E74BF0100BEDE7BBF17F0F19D8A6F118
:1029FC003003092BD2D81BF0400F03D00A2101FB66
:102A0C000737DFE70A2101FB09394BF0200BD9E727
:102A1C002E2E06D11BF0400F40F09E804BF0400B49
:102A2C00D0E76C2E31D02BD8682E36D06A2E3CD005
:102A3C004C2E3AD0002F46F02003B8BF2BF04002AA
:102A4C00A3F16501BCBF1FFA82FB0027022901D943
:102A5C00612B2FD1073525F00705DFF8ACA208351F
:102A6C0007271BF0080F66D00AEB070B56465E458E
:102A7C0063D1A4EB0A0A06EB0A02A9EB07096FE182
:102A8C00742E9FD07A2E9DD0D4E71BF0800F18BFE8
:102A9C004BF4007B4BF0800B94E71BF4807F18BF4A
:102AAC004BF4007B4BF4807B8CE74BF4207B89E769
:102ABC001F4687E7A6F16301122900F2F080DFE8D8
:102ACC0011F013004F00EE00EE00EE00EE004F0090
:102ADC00EE00EE00EE00EE00EE00FE00E900EE006F
:102AEC00EE001B00EE00AF0055F8043B8DF81830DB
:102AFC0001270DF1180AB4E755F804AB834BBAF172
:102B0C00000F08BF9A461BF0400F14BF39464FF018
:102B1C00FF31504601F0E8F90746A2E7029B414617
:102B2C002020984700280FDB013EB742F6D34C44D7
:102B3C00A41BB14698E74E46F7E716F8010B029B2B
:102B4C0041469847002892DA98F8023043F0040383
:102B5C0088F802304FF0FF3420460DB0BDE8F08FFE
:102B6C001BF0800F34D01BF4007F2CD0073525F0E0
:102B7C000705AA4669685AF8080B2BF010050029BE
:102B8C00ADB237DA404261EB410145F480650DF19D
:102B9C00180B0A235A4601F0B3F9A0EB0B0301936F
:102BAC006B0662D5019B25F001019F4289B240F36F
:102BBC00A180002E00F0998015F0100240F09C804E
:102BCC00BB460D4623E0AA465AF8040BC117D4E7BE
:102BDC00AA461BF4807F5AF8041B01D10846F5E77E
:102BEC001BF4007F15BF48B208B241F3C01141F38A
:102BFC00C031C2E750EA0103C9D11BF0400FC6D067
:102C0C00002FC4D12BF0110295B2BB46019740F2B4
:102C1C00064115EA01021CBF0BF1010B00222CE04E
:102C2C002BF010021FFA82FB0A231BF0800C49D0F8
:102C3C001BF400711DBF073525F00705AA46AA46EF
:102C4C001ABF5AF8080B69685AF8040B50EA0105C8
:102C5C0045D12BF016051BF0400FADB242D0002F22
:102C6C0040D12BF0170295B2019715F0100248D005
:102C7C00019B002E42D103F1010B29075AD4EB071B
:102C8C0006D5D9456FDD0199A9EB0B035F18CB462F
:102C9C005B4649E04BF0100B10237826C5E7782BE8
:102CAC0004D1C6F1780343F01003BEE7029B414602
:102CBC00252098470028FFF647AF023447E6082343
:102CCC000026B2E7AA461BF480715AF8040BBDD05B
:102CDC001BF400711ABFC0B2614680B2B6E72BF08C
:102CEC00060295B20DF1180B54E725F01105ADB2A3
:102CFC00BB468CE70D46B8E73B460D4603F1020B8D
:102D0C00BBE7DDF804B082E7FE4C0008F74C000886
:102D1C00CDE904324146029B202098470028FFF65B
:102D2C0013AF049B059A01339945F1DCA4EB0B011D
:102D3C00CC189B460AB3029B41463020984700288A
:102D4C00FFF602AF8EB901342744019B391B99421F
:102D5C0024DC1D465DBB019AA9EB0B0922445546A8
:102D6C001446914435E0019F92E7023441463046C7
:102D7C00029B98470028E7DAE6E640F206410D424E
:102D8C00E2D015F0020F14BF2B20202015F4806F19
:102D9C0004F10104414618BF2D20E9E7029B41468E
:102DAC0030209847002804F10104CEDACCE606ABBB
:102DBC00013D4146585D029B98470028CADAC3E69C
:102DCC00029B414620209847002804F10104FFF69D
:102DDC00BBAEA9EB0403002BF2DCBFE5704710B5CA
:102DEC00131D50F8234074B9C36801249440234345
:102DFC00C360043240F82210CB001A1D89B28152F4
:102E0C000633C15210BDE2000432835A4FEAC10CA2
:102E1C000CF1040E20F80E300CF1060C20F80C40CE
:102E2C00DB00063389B2C1528152EBE708B500EBE7
:102E3C00C1035A885208B2FA82F2C2F11F02FFF79C
:102E4C00CEFF08BD70B50346043AC81D20F007003C
:102E5C000A4422F00702121AD50818608560002374
:102E6C00C360B5FA85F1C1F1200EC1F124018900CE
:102E7C00CE1DF10805E003F1040C002440F82C40B1
:102E8C0001337345F7DB4C00A4B244804FF0000CC7
:102E9C00A0F800C044F0010444806B1A4FEA430EC2
:102EAC0026F00704A51C20F805E0015322F00704C6
:102EBC00951C20F805C002440353538843F00103CA
:102ECC005380FFF7B3FF70BD002070470FB400B5FF
:102EDC0083B004A951F8040B0191FDF7A7F903B0D5
:102EEC005DF804EB04B07047704708B500F0E4FFE0
:102EFC0008BD08B500F0D2FF08BD08B50146006852
:102F0C00FDF72CFA08BD08B5FDF740FAFDF76AFA93
:102F1C0008BD0020704708B500231370CB1E092B89
:102F2C001AD8DFE803F005090D111919191919142C
:102F3C001146FDF7EFFB08BD0021FDF7A1FAFAE7FA
:102F4C000021FDF717FBF6E7FDF78AFBF3E71146C7
:102F5C00FDF73CFC0020EEE7FDF742FC0020EAE721
:102F6C0008B540B2FDF720FD08BD08B5013140B2EF
:102F7C00FDF728FD08BD08B500210120FDF7EEF98D
:102F8C0008BD6FF08500704761B662B680F311889A
:102F9C00BFF36F8F704772B6002383F31188BFF3B2
:102FAC006F8FBFF34F8F30BF62B6BFF36F8F704719
:102FBC0008B5FDF7BBFD002008BD08B5FDF7DCFD2D
:102FCC0008BD08B5062201210020FDF721FE0022D4
:102FDC0011460620FFF7C9FF072201210846FDF71D
:102FEC0017FE002211460720FFF7BFFF0822012120
:102FFC000220FDF70DFE002211460820FFF7B5FF59
:10300C00092201210320FDF703FE002211460920AD
:10301C00FFF7ABFF0A2201210420FDF7F9FD002286
:10302C0011460A20FFF7A1FF172205210846FDF7DC
:10303C00EFFD002211461720FFF797FF28220621EB
:10304C000A20FDF7E5FD002211462820FFF78DFF31
:10305C00002008BD01F01F0101208840704708B511
:10306C000246084602F0030304339B000F219940EB
:10307C0041EA9201FDF702FE08BD08B500F003031A
:10308C0004339B000F2202FA03F343EA9000FDF78E
:10309C0011FE08BDB0FBF1F002FB00F0B0FBF3F049
:1030AC007047B0FBF1F07047002070470B88C3F3FA
:1030BC000B0303F6B872C2F30B02182A15D882B0B0
:1030CC0003F1804303F504334A68186802431A601D
:1030DC000B88C3F30B0303F1804303F504331B6824
:1030EC000193019B002002B070476FF08500704780
:1030FC000B88C3F30B0303F6B872C2F30B02182A46
:10310C000AD803F1804303F5043349681A6822EAAC
:10311C0001021A60002070476FF0850070470C2880
:10312C0007D841F6BA33C34013F0010F04D0002086
:10313C0070476FF0850070476FF08500704770B571
:10314C004C68C4F304450888C0F30B00FFF7E7FF95
:10315C00002815DBA6B2FF2C13D006F1804202F535
:10316C000432C4F34151013101238B40013BAB408C
:10317C00240EAC40116821EA03031C4314600020A8
:10318C0070BD0020FCE708B50888C0F30B0000F602
:10319C00B873C3F30B03182B0BD800F1804000F568
:1031AC00043002684B68934301D0012008BD022013
:1031BC00FCE7FFF7B4FF08B10120F7E70220F5E7C1
:1031CC007047022070470B4639B11168196041688D
:1031DC008A4209D00023136070471368036041686A
:1031EC008A42F7D14360F5E74360F3E708B50A4636
:1031FC000368002101E019461B682BB19342FAD1F8
:10320C00FFF7E1FF012000E0002008BD38B50546BE
:10321C000C460321A047002806DB01212846A047C5
:10322C00002800DB002038BD10F1860FFBD1F4E73D
:10323C0070B504460D461646036833B1FFF7D6FF4A
:10324C0070B91EB96FF0150006E032B123682B601F
:10325C002560636843B1002070BD6FF01500FBE77B
:10326C00002EF3D10020F7E765600020F4E770B57D
:10327C000E461546016821B10C683CB131B90C46BB
:10328C0004E00C4602E0234621461C4671B18A68D4
:10329C002A4002D04B6830469847002CF3D0236864
:1032AC00002BF1D0002CEFD12346EDE770BD08B513
:1032BC00024608690430FFF7DAFF08BD10F4003F3E
:1032CC0014D010F0020F04D010F0040F35D050239E
:1032DC0000E0102310F0100F02D043F4007312E042
:1032EC0010F0200F0FD043F480630CE010F4803FFB
:1032FC0008D010F0100F14D110F0200303D04FF4AD
:10330C00806300E0302300F4C060B0F5806F0ED015
:10331C00B0F5C06F08D0B0F5007F0BD00B6000206B
:10332C0070474FF40073EEE743F4C073F6E743F4D1
:10333C008073F3E743F08003F0E76FF0850070478C
:10334C0043685B681B690B600020704743685B68CF
:10335C00586942400A4042405A6100207047436815
:10336C005B6899610020704743685B689962002034
:10337C00704743685B685A69514059610020704737
:10338C0008B500690430FFF753FF08BD08B50129E3
:10339C0011D007D819B90021FDF7FCFE07E06FF03A
:1033AC00850004E00239C9B2012901D8002008BD0A
:1033BC006FF08500FBE70121FDF7ECFEF7E710B499
:1033CC00046891FAA1F39BB1B3FA83F35B004FF05D
:1033DC00030C0CFA03F324EA030391FAA1F149B1AB
:1033EC00B1FA81F149008A401343036010BC704765
:1033FC002023EBE72021F5E710B4846891FAA1F3C0
:10340C009BB1B3FA83F35B004FF0030C0CFA03F39C
:10341C0024EA030391FAA1F149B1B1FA81F149000F
:10342C008A401343836010BC70472023EBE72021B4
:10343C00F5E710B4C46891FAA1F39BB1B3FA83F326
:10344C005B004FF0030C0CFA03F324EA030391FA2C
:10345C00A1F149B1B1FA81F149008A401343C3602B
:10346C0010BC70472023EBE72021F5E710B4046A69
:10347C0091FAA1F39BB1B3FA83F39B004FF00F0CBD
:10348C000CFA03F324EA030391FAA1F149B1B1FA5E
:10349C0081F189008A401343036210BC70472023DA
:1034AC00EBE72021F5E710B4446A090A91FAA1F37D
:1034BC009BB1B3FA83F39B004FF00F0C0CFA03F3A0
:1034CC0024EA030491FAA1F149B1B1FA81F189001E
:1034DC008A401443446210BC70472023EBE7202140
:1034EC00F5E72DE9F8430F461546984643685E68A4
:1034FC0001248C4002F03009C2F38013706820EA7A
:10350C0004008B4018437060C2F3C1122146304650
:10351C00FFF772FFC5F3412221463046FFF789FFC2
:10352C00B9F1200F07D04FEA191221463046FFF7A8
:10353C0046FFBDE8F883072F05D8424621463046A2
:10354C00FFF794FFEFE7424621463046FFF7ABFF0B
:10355C00E9E72DE9F04383B005460E461446D0F852
:10356C00108001A91046FFF7A9FE074668BB14F4AA
:10357C0040390BD0D8F80C3023FA06F212F0010FB8
:10358C0004D10122B2401343C8F80C3014F4003FAC
:10359C0005D014F4002F1CD114F4802F1FD100235C
:1035AC00019A31462846FFF79CFFB9F1000F0CD168
:1035BC00D8F80C3023FA06F212F0010F05D00122D4
:1035CC00B24023EA0203C8F80C30384603B0BDE819
:1035DC00F0830121B1402846FFF7C1FEDFE701214E
:1035EC00B1402846FFF7C0FED9E738B504460D4672
:1035FC000846FFF742FDA04200D038BD29462046C0
:10360C00FFF728FD0446FDF781FB2046FDF7D8FBAC
:10361C0000212046FDF782FBEFE7F8B507460D4683
:10362C0016461C46FFF75DFF112C01D00020F8BD9B
:10363C0016F4006F05D00121A9403846FFF78FFE24
:10364C00F4E70121A9403846FFF78EFEEEE700B5FE
:10365C000368136001E008331360136890F804C02A
:10366C00D0F800E00EEBCC0C634505D293F805C006
:10367C008C45F0D1002001E06FF001005DF804FBF7
:10368C00F8B506460F460024254615E002F01F014A
:10369C00102920D011291CD0530A1B0103F4F873F4
:1036AC00C2F3431002F01F0229461843FDF7E8FD50
:1036BC00002813DB0134E4B2BC420ED206EBC40387
:1036CC0056F8342012F0100FE0D15D6845F020055B
:1036DC00E2E75D68E0E73025DEE70020F8BD4368EF
:1036EC001868C1F34B1301F01F01C05801238B4024
:1036FC00184214BF0123002313700020704710B42C
:10370C0043681C68C1F34B1001F01F0123580122C0
:10371C008A4013432350002010BC704710B44368F8
:10372C001C68C1F34B1001F01F01235801228A4081
:10373C0023EA02032350002010BC704738B504461E
:10374C000D46FFF7DCFF29462046FFF7E7FF002078
:10375C0038BD08B58368DB680BB1984708BD6FF0BE
:10376C005700FBE730B583B043681C68E1B10D46E8
:10377C00586819698368DB689BB101AA98470028CF
:10378C000DDB236823F400432360019B03EB5503FB
:10379C00B3FBF5F30F2B0AD99BB2E360002003B007
:1037AC0030BD6FF05700FAE76FF01500F7E76FF0D8
:1037BC001500F4E7436829B11A68936843F4804311
:1037CC00936070471A68936823F480439360704742
:1037DC00B0F5805F07D0B0F1805F07D109B101204F
:1037EC0070470220704721B90420704719B9032093
:1037FC00704703207047022070472DE9F0410446C2
:10380C000D46476803691E680979012914D00229FD
:10381C0015D14FF480636A79012A15D0022A15D08C
:10382C007AB14FF40052A879022812D0042816D08D
:10383C00002968D1002014E04FF4C063EBE70023AB
:10384C00E9E74FF48052EEE70022ECE74FF44052E8
:10385C00E9E709B1002004E04FF0805001E04FF49B
:10386C008050E979012951D04FF0000C032914BF85
:10387C0000210121AE424CD0D7F80080D8F800705E
:10388C0007F4C06E734506D0D8F8007027F4C067F3
:10389C003B43C8F8003063681F687B6803F44053EF
:1038AC009A4204D07B6823F4405313437B606368D3
:1038BC001A68136803F01023984204D0136823F09D
:1038CC0010231843106063681A68936803F44073FC
:1038DC009C4505D0936823F440734CEA0303936032
:1038EC0063681B689B6813F4804300D00123003B82
:1038FC0018BF012399422AD12968336899422AD1E9
:10390C000020BDE8F0814FF48050AAE74FF4407CD2
:10391C00ACE73E68316821F0805121F4B05103438B
:10392C0019433160736823F4405313437360636825
:10393C001A68936823F440734CEA03039360296874
:10394C002046FFF70FFF0028DBDB0020D9E72046DD
:10395C00FFF730FFD0E72046FFF704FF0028D0DB4D
:10396C002B6833600020CCE738B504460D4603695C
:10397C001B681B680B6043681B681B6803F4C063FF
:10398C00B3F5806F31D0B3F5C06F30D101232B71FB
:10399C0063681B685B6803F44053B3F5805F2AD0FF
:1039AC00B3F5405F29D023B303236B7163681B68A5
:1039BC001868196801F4C06100F01020FFF708FFC7
:1039CC00A87163681B689B6803F44073B3F5407F70
:1039DC0015D00023EB7163681B689B6813F4804F50
:1039EC0001D00323EB71002038BD0223CFE7002365
:1039FC00CDE70123D9E70023D7E70223D5E701233D
:103A0C00E8E708B543681868C36913F0080F01D0DC
:103A1C0008230362C36913F0200F02D090470020E3
:103A2C0008BD4FF0FF30FBE710B543681868C36959
:103A3C0013F0800FFBD0EFF31184102383F3128863
:103A4C00BFF36F8FC36913F0800F04D184F3118817
:103A5C00BFF36F8FEBE7904784F31188BFF36F8F41
:103A6C0010BD436A0B707047C9B2816270474368DE
:103A7C001B68D86910F0080000D00120DA6912F038
:103A8C00010F01D040F00200DA6912F0020F01D0F0
:103A9C0040F00400DA6912F0040F01D040F020006D
:103AAC00DA6912F4807F01D040F0080010F0080FA2
:103ABC0002D04FF480721A6210F0010F01D008226C
:103ACC001A6210F0020F01D001221A6210F0040FDA
:103ADC0001D002221A6210F0200F01D004221A62C7
:103AEC00704708B543685868196983681B680BB13F
:103AFC00984708BD6FF05700FBE700B583B001AAEB
:103B0C00FFF7A5FD002805DB019B00221979186839
:103B1C00FFF7B6FD03B05DF804FB38B50446456805
:103B2C00FFF7DFFF00280BDB0021686AFFF7E5FFDA
:103B3C00002805DB2046FDF791FC002800DB002067
:103B4C0038BD10B50446436993B19847024630B16D
:103B5C0000280BDBFF2A00DDFF22E3681A70E16806
:103B6C004B7843F001034B70504210BD4242F1E7D9
:103B7C000022F4E760B1C3685A7812F0010F03D049
:103B8C001B781BB100207047002070470120704744
:103B9C0000207047EFF31183102383F31288BFF3D7
:103BAC006F8FFEE708B5FFF7F5FF08B5EFF311834C
:103BBC00102383F31288BFF36F8FFFF7ECF9F5E74F
:103BCC0000BF704710B5073222F007028C1821464F
:103BDC00FCF7F4FB073020F00700201A10BD10B4DE
:103BEC0000248460838102748173C4738461C46112
:103BFC0010BC70470020704738B504460D46FEF7E0
:103C0C0045F9237C43F00203237435B3A5602B687C
:103C1C009D420DD100230BE05A6862602360146052
:103C2C005C601AE01A4669688A420FD01B687BB147
:103C3C0073B194F90E1093F90E209142F2D0521AEE
:103C4C00002AE9DC1A46002BEDD1F0E70023EEE761
:103C5C006B68256063601C606C6038BD08B51830FB
:103C6C0000F0DDF808BD70B50646046884421AD031
:103C7C00DCB16268236813605A60002525606560BA
:103C8C00237C23F002032374A56004F1180000F0D8
:103C9C00C6F8C4F8A0502046FEF79EF83468A64239
:103CAC00E6D12C46E4E70024E2E770BD70B504468B
:103CBC0016461D46FFF7A0FF32462B462046FEF760
:103CCC00A5F970BD38B504460023EFF31185102219
:103CDC0082F31288BFF36F8F04E085F31188BFF372
:103CEC006F8F012343B92046FFF784FF0028F4D1DE
:103CFC002046FEF771F8F0E738BD0023EFF3118191
:103D0C00102282F31288BFF36F8F10E042680368B1
:103D1C0013605A60002303604360027C22F00202AD
:103D2C000274836081F31188BFF36F8F01231BB979
:103D3C008368002BEAD1F5E7704708B5037C13F0D4
:103D4C00280F13D183685BB14268036813605A6013
:103D5C00002303604360027C22F002020274836041
:103D6C00037C23F004030374FEF736F808BD38B562
:103D7C00A0F118050023EFF31184102282F31288AE
:103D8C00BFF36F8F07E02846FFF7D7FF84F3118846
:103D9C00BFF36F8F0123002BF5D038BD08B5EFF3BF
:103DAC001180102383F31288BFF36F8FFEF7B6F9DF
:103DBC0008BD031D43608360704710B50446FEF7D1
:103DCC00AFFB48B102460369416920691B18606961
:103DDC0041EB0001136151616268236813605A6002
:103DEC0000232360636010BD10B50446FEF78EFB04
:103DFC0078B1036942691B1B62EBE472B3F1004FAB
:103E0C0072F1000108DA002A01DB184610BD00230C
:103E1C00FBE76FF00040F9E76FF00040F6E7F8B50C
:103E2C0004460023EFF31187102282F31288BFF3AC
:103E3C006F8F6FF015000CE0FEF77EFBFFF7D4FFE1
:103E4C000021FDF711FC304687F31188BFF36F8F0B
:103E5C0001231E468BB92368002BF5D0FEF756FBC9
:103E6C0005462046FFF7A9FF00224FF00043C4E9A6
:103E7C000423A542E0D03046E6E7F8BD08B5FEF7CE
:103E8C0063FC08BD016242620023036300F1180267
:103E9C008261C26103604360436370470A4491428C
:103EAC0000F1FF3300D1704710B511F8014B03F846
:103EBC00014F9142F9D110BD02440346934200D107
:103ECC00704703F8011BF9E710B50139044632B10C
:103EDC0011F8013F00F8013B013A002BF7D100210A
:103EEC00FFF7EAFF204610BD10B5024601448A4296
:103EFC00134603D01C780132002CF8D1181A10BDCF
:103F0C00F0B5C3F137070446FFB203F01F031046A8
:103F1C00082BE6B233D0102B3ED06508A40844EA37
:103F2C00817445EAC1752D194FEA910242EB510299
:103F3C00290941EA02716D1842EB1212290A41EA71
:103F4C0002616D1842EB1222290C41EA02416D18F4
:103F5C0042EB1242AD1842F10002EC0844EA427402
:103F6C00D10804EB8402A6EB4205EDB2092D0CD965
:103F7C000134A5F10A0541F10001EDB212E0E408AB
:103F8C0044EA417406F00705C908303554EA0102C9
:103F9C0000F8015BBCD1F0BD240944EA017406F0C1
:103FAC000F050909092D84BFED19EDB2EDE70000ED
:103FBC00000000004C4000089902000800000000BE
:103FCC0000000000684000080000000048410008A4
:103FDC00000000008041000800000000644100085F
:103FEC000000000084400008000000002C41000884
:103FFC0000000000F440000800000000D840000859
:10400C0000000000BC40000800000000A0400008B8
:10401C000000000010410008CF2F00080000000035
:10402C00000000009C410008851100080000000001
:10403C00D915000800000000610B0008000000000A
:10404C00204A00080000000014450008420000202F
:10405C00000000003910000800000000DC4B0008D4
:10406C00F04B00080445000856000020000000003A
:10407C000000000000000000E449000800000000FF
:10408C00000000004000002000000000C72F0008C6
:10409C0000000000304A0008C04A0008E044000854
:1040AC00440000200C040020DD110008000000007A
:1040BC00404A0008D44A0008E044000846000020AA
:1040CC001C040020DD11000800000000504A00080C
:1040DC00E84A0008E0440008480000202C040020B6
:1040EC00DD11000800000000604A0008FC4A0008CE
:1040FC00E04400084A0000203C040020DD110008C8
:10410C0000000000704A0008104B0008E044000852
:10411C004C0000204C040020DD11000800000000C1
:10412C00804A0008244B0008E04400084E000020A0
:10413C005C040020DD11000800000000904A00081B
:10414C00384B0008E0440008500000206C040020AC
:10415C00DD11000800000000A04A00084C4B0008CC
:10416C00E0440008520000207C040020DD1100080F
:10417C0000000000B04A0008604B0008E044000852
:10418C00540000208C040020DD1100080000000009
:10419C00F44B0008044C000830450008580000207F
:0C41AC0024000020273B00080000000059
:1041B80000000000832F000800000000832F000883
:1041C80000000000832F000800000000832F000873
:1041D80000000000832F000800000000832F000863
:1041E8001C4A0008410C0008184A0008410C000845
:1041F800144A0008410C0008104A0008410C000845
:104208000C4A0008410C000800000000832F000839
:1042180000000000832F000800000000832F000822
:1042280000000000832F000800000000832F000812
:1042380000000000832F000800000000832F000802
:1042480000000000832F000800000000832F0008F2
:1042580000000000832F000800000000832F0008E2
:1042680000000000832F0008084A0008410C0008DD
:1042780000000000832F000800000000832F0008C2
:1042880000000000832F000800000000832F0008B2
:1042980000000000832F000800000000832F0008A2
:1042A80000000000832F000800000000832F000892
:1042B80000000000832F000800000000832F000882
:1042C80000000000832F000800000000832F000872
:1042D80000000000832F000800000000832F000862
:1042E80000000000832F000800000000832F000852
:1042F800044A0008410C000800000000832F000851
:1043080000000000832F000800000000832F000831
:1043180000000000832F000800000000832F000821
:1043280000000000832F000800000000832F000811
:1043380000000000832F000800000000832F000801
:1043480000000000832F000800000000832F0008F1
:1043580000000000832F000800000000832F0008E1
:1043680000000000832F000800000000832F0008D1
:1043780000000000832F000800000000832F0008C1
:1043880000000000832F000800000000832F0008B1
:1043980000000000832F000800000000832F0008A1
:1043A80000000000832F000800000000832F000891
:1043B80000000000832F000800000000832F000881
:1043C80000000000832F000800000000832F000871
:1043D80000000000832F000800000000832F000861
:1043E80000000000832F000800000000832F000851
:1043F80000000000832F000800000000832F000841
:1044080000000000832F000800000000832F000830
:1044180000000000832F000800000000832F000820
:1044280000000000832F000800000000832F000810
:1044380000000000832F000800000000832F000800
:1044480000000000832F000800000000832F0008F0
:1044580000000000832F000800000000832F0008E0
:1044680000000000832F000800000000832F0008D0
:1044780000000000832F000800000000832F0008C0
:1044880000000000832F000800000000832F0008B0
:1044980000000000832F000800000000832F0008A0
:0844A80000000000832F000852
:1044B00070000020E004002000040000CD0100088E
:1044C00000000000000000000000000005000000E7
:1044D00000000000A44500080000000000000000EB
:1044E0005F3500084D330008593300086B3300086E
:1044F000753300087F330008F91100088D33000878
:0445000000000000B7
:10450400EB3600080B370008293700084937000844
:10451400B9300008FD30000800000000B10E0008AA
:0C45240093310008000000004B3100083B
:1045300049140008591400087B3A0008CD120008FD
:0445400075390008C1
:10454400040000000F00000001000000080000004B
:104554002000000060000000700000001000000057
:104564000C0000000E000000500000007400000069
:104574009C000000FFFFFFFFFFFFFFFFFFFFFFFFA7
:04458400FFFFFFFF37
:1045880060000000010000005468726561642052F8
:10459800756E6E696E672E0A000000006C6F6769A1
:1045A800635F74696400000072302F61313A202023
:1045B800307825303878202072312F61323A202027
:1045C800307825303878202072322F61333A202015
:1045D8003078253038780A0072332F61343A202039
:1045E800307825303878207231322F69703A20209F
:1045F800307825303878207231342F6C723A202088
:104608003078253038780A0020787073723A202084
:104618003078253038780A004661756C74696E67A1
:1046280020696E737472756374696F6E2061646457
:104638007265737320287231352F7063293A2030E0
:1046480078253038780A0000556E68616E646C65AC
:1046580064204952516E3A2025640A00535053454C
:104668004C20696E20746872656164206D6F6465A2
:1046780020646F6573206E6F7420696E646963616E
:104688007465205053500A002A2A2A2A2A204D509D
:1046980055204641554C54202A2A2A2A2A0A000025
:1046A8002020537461636B696E67206572726F7244
:1046B8002028636F6E746578742061726561206D5F
:1046C80069676874206265206E6F742076616C6912
:1046D80064290A002020556E737461636B696E67E4
:1046E800206572726F720A00202044617461204153
:1046F80063636573732056696F6C6174696F6E0AC2
:104708000000000020204D4D464152204164647253
:104718006573733A20307825780A00002020496EA6
:10472800737472756374696F6E2041636365737324
:104738002056696F6C6174696F6E0A002020466CA0
:104748006F6174696E672D706F696E74206C617A21
:10475800792073746174652070726573657276610F
:1047680074696F6E206572726F720A002A2A2A2A8B
:104778002A20425553204641554C54202A2A2A2A99
:104788002A0A00002020537461636B696E672065F4
:1047980072726F720A00000020205072656369739C
:1047A80065206461746120627573206572726F722E
:1047B8000A0000002020424641522041646472658C
:1047C80073733A20307825780A0000002020496D5C
:1047D80070726563697365206461746120627573C2
:1047E800206572726F720A002020496E73747275A8
:1047F8006374696F6E20627573206572726F720AD6
:10480800000000002A2A2A2A2A2055534147452019
:104818004641554C54202A2A2A2A2A0A0000000018
:1048280020204469766973696F6E206279207A6501
:10483800726F0A002020556E616C69676E6564208E
:104848006D656D6F7279206163636573730A00002B
:1048580020204E6F20636F70726F636573736F7281
:1048680020696E737472756374696F6E730A0000E1
:104878002020496C6C6567616C206C6F6164206FE7
:1048880066204558435F52455455524E20696E7410
:104898006F2050430A0000002020496C6C65676156
:1048A8006C20757365206F662074686520455053C9
:1048B800520A00002020417474656D707420746F72
:1048C800206578656375746520756E646566696EC4
:1048D800656420696E737472756374696F6E0A001B
:1048E8002A2A2A2A2A2048415244204641554C5413
:1048F800202A2A2A2A2A0A00202042757320666163
:10490800756C74206F6E20766563746F72207461A5
:10491800626C6520726561640A00000020204465AD
:10492800627567206576656E740A0000202046610E
:10493800756C7420657363616C6174696F6E20288F
:104948007365652062656C6F77290A004152434898
:104958005F455843455054207769746820726561F3
:10496800736F6E2025780A0A000000002A2A2A2A76
:104978002A204465627567206D6F6E69746F7220B6
:10498800657863657074696F6E202A2A2A2A2A0A54
:10499800000000005265736572766564204578638F
:1049A800657074696F6E202800000000537075727E
:1049B800696F757320696E746572727570742028DA
:1049C80049525120000000002A2A2A2A2A20257349
:1049D80020256429202A2A2A2A2A0A00696E746551
:1049E80072727570742D636F6E74726F6C6C657211
:1049F8004034303031303430300000000A060000D6
:104A08000505000004010000030100000201000088
:104A1800010100000001000072636340343030324D
:104A280031303030000000006770696F4034383032
:104A380030323030300000006770696F40343830F1
:104A480030316330300000006770696F40343830AF
:104A580030313830300000006770696F40343830CA
:104A680030313430300000006770696F40343830BE
:104A780030313030300000006770696F40343830B2
:104A880030306330300000006770696F4034383070
:104A980030303830300000006770696F403438308B
:104AA80030303430300000006770696F403438307F
:104AB8003030303030000000FFFF00000020004898
:104AC800080000004C00000000010000FFFF00008B
:104AD800001C0048070000004C0000008000000097
:104AE800FFFF000000180048060000004C0000000E
:104AF80040000000FFFF000000140048050000000F
:104B08004C00000020000000FFFF000000100048DB
:104B1800040000004C00000010000000FFFF00002F
:104B2800000C0048030000004C00000008000000D2
:104B3800FFFF000000080048020000004C000000D1
:104B480004000000FFFF000000040048010000000E
:104B58004C00000002000000FFFF000000000048B9
:104B6800000000004C000000010000008041000827
:104B780064410008484100082C4100081041000821
:104B8800F4400008D8400008BC400008A0400008D5
:104B9800000000000000000000000000000000000D
:104BA80000000000000000000000000000000000FD
:104BB80000000000000000000000000000000000ED
:104BC80000000000000000000000000000000000DD
:104BD8000000000072657365742D636F6E74726FE8
:104BE8006C6C657200000000001002407365726909
:104BF800616C403430303133383030000038014097
:104C08004C400008684000080E0800002C4C0008C2
:104C1800010000000000000000000000000000008B
:104C2800344C000860000000004000003C4C0008C4
:104C380001000000444C000802000000C702000008
:104C480000020000E702000000000000A08601004A
:104C5800400D0300801A060000350C0040420F008A
:104C680080841E0000093D0000127A000024F40030
:104C780000366E010048E801006CDC02000000000C
:104C880000000000010203040607080969646C6556
:104C9800000000006D61696E00000000BC3F000864
:104CA800BC3F00083C400008444000084C40000855
:104CB8004C4000082A2A2A20426F6F74696E6720C8
:104CC8005A6570687972204F53206275696C642048
:104CD80076342E332E302D373138312D673836372C
:104CE800613561666434646563202A2A2A0A0028CB
:104CF8006E756C6C29002A666C6F61742A0000005E
:104D0800D52E000800000000BD2F0008000000009C
:104D180000000000FFFFFFFFFFFFFFFFFFFFFFFF97
:104D2800FFFFFFFF2800002000C201000001030070
:104D380000093D00C80000003800002038000020AD
:104D4800000000000000000000000000000000005B
:0C4D58000000000000000000000000004F
:104D64005C0000205C000020000000000100000046
:044D740015E015E051
:04000005080008C522
:00000001FF
